{
	"compilerInput": "{\"language\":\"Solidity\",\"sources\":{\"contracts/SimplePool.sol\":{\"content\":\"// SPDX-License-Identifier: MIT\\npragma solidity ^0.8.0;\\nimport \\\"./WBTCReserve.sol\\\";\\nimport \\\"./USDCReserve.sol\\\";\\n\\n\\ncontract SimplePool {\\n    WBTCReserve wBTCReserve;\\n    USDCReserve usdcReserve;\\n    address public wBTC;\\n    address public usdc;\\n    mapping(address => uint256) borrowedUSDC;\\n    uint8 wBTCLTV = uint8(80);\\n\\n    constructor(WBTCReserve _wBTCReserve, USDCReserve _usdcReserve, address _wBTC, address _usdc) {\\n        wBTC = _wBTC;\\n        usdc = _usdc;\\n        wBTCReserve = _wBTCReserve;\\n        usdcReserve = _usdcReserve;\\n    }\\n\\n    function getReserve(address token) public view returns (address reserveAddress) {\\n        if (token == wBTC) {\\n            return address(wBTCReserve);\\n        } else if (token == usdc) {\\n            return address(usdcReserve);\\n        }\\n    }\\n\\n    function getwBTC() public view returns (address){\\n        return address(wBTC);\\n    }\\n\\n    function getUSDC() public view returns (address){\\n        return address(usdc);\\n    }\\n\\n    function getAssetsPrice() external view returns (uint256[] memory) {\\n        (uint256 wBTCPrice, uint256 _timestamp, uint256 _decimals) = wBTCReserve.getAssetPrice();\\n        uint256 usdcPrice = usdcReserve.getAssetPrice();\\n        uint256[] memory prices = new uint256[](2);\\n        prices[0] = wBTCPrice;\\n        prices[1] = usdcPrice;\\n        return prices;\\n    }\\n\\n    function getSupplyedBalances(address user)  external view returns (uint256[] memory) {\\n        uint256[] memory balances = new uint256[](2);\\n        balances[0] = wBTCReserve.getSupplyedAmount(user);\\n        balances[1] = usdcReserve.getSupplyedAmount(user);\\n        return balances;\\n    }\\n\\n    function borrow(address asset, uint256 amount) external {\\n        require(asset == usdc);\\n        uint256 collateralValue = this.getDepositValue(msg.sender);\\n        uint256 maxValueBorred = collateralValue * wBTCLTV / 100;\\n        uint256 currentBorrowed = this.getDebt(msg.sender);\\n        require((currentBorrowed + amount) < maxValueBorred, \\\"You want to more more value than allowed\\\");\\n        borrowedUSDC[msg.sender] += amount;\\n        usdcReserve.executeTransaction(msg.sender, amount);\\n    }\\n\\n    function getDebt(address user) external view returns (uint256){\\n        uint256 debt = borrowedUSDC[user] * usdcReserve.getAssetPrice();\\n        return debt;\\n    }\\n\\n    function getDepositValue(address user) external view returns (uint256){\\n        (uint256 wBTCPrice, uint256 _timestamp, uint256 _decimals) = wBTCReserve.getAssetPrice();\\n        uint256 collatValue = wBTCReserve.getSupplyedAmount(user) * wBTCPrice / (10 ** _decimals);\\n        return collatValue;\\n    }\\n\\n\\n\\n\\n\\n    \\n\\n}\\n\"},\"contracts/USDCReserve.sol\":{\"content\":\"// SPDX-License-Identifier: MIT\\npragma solidity ^0.8.0;\\n\\nimport \\\"@openzeppelin/contracts/token/ERC20/IERC20.sol\\\";\\n\\ncontract USDCReserve {\\n\\n    IERC20 usdc;\\n    mapping(address => uint256) public balances;\\n    address owner;\\n    address pool;\\n\\n    \\n    constructor(address _usdc) {\\n        usdc = IERC20(_usdc);\\n        owner = msg.sender;\\n    }\\n\\n    function supply(uint256 amount) external {\\n        IERC20(address(usdc)).transferFrom(msg.sender, address(this), amount);\\n        balances[msg.sender] += amount;\\n    }\\n    \\n\\n    function getSupplyedAmount(address user) external view returns (uint256) {\\n        return balances[user];\\n    }\\n\\n    function withdraw(uint256 amount) external {\\n        require(balances[msg.sender] >= amount, \\\"Insufficient balance\\\");\\n        IERC20(address(usdc)).transfer(msg.sender, amount);\\n        balances[msg.sender] -= amount;\\n    }\\n\\n    function getAssetPrice() external view returns (uint256) {\\n        return 1;\\n    }\\n\\n    function getAssetAddress() external view returns (address) {\\n        return address(usdc);\\n    }\\n\\n    function setPool(address _pool) external{\\n        require(msg.sender == address(owner));\\n        pool = _pool;\\n    }\\n\\n    function executeTransaction(address user, uint256 amount) external {\\n        require(msg.sender == pool);\\n        IERC20(address(usdc)).transfer(user, amount);\\n    }\\n}\\n\"},\"contracts/WBTCReserve.sol\":{\"content\":\"// SPDX-License-Identifier: MIT\\npragma solidity ^0.8.0;\\n\\nimport \\\"@openzeppelin/contracts/token/ERC20/IERC20.sol\\\";\\nimport \\\"@flarenetwork/flare-periphery-contracts/flare/util-contracts/userInterfaces/IFlareContractRegistry.sol\\\";\\nimport \\\"@flarenetwork/flare-periphery-contracts/flare/ftso/userInterfaces/IFtsoRegistry.sol\\\";\\n\\n\\ncontract WBTCReserve {\\n\\n    struct priceStruct {\\n        uint256 price;\\n        uint256 timestamp;\\n        uint256 decimals;\\n\\n    }\\n\\n    IERC20 wbtc;\\n    mapping(address => uint256) public balances;\\n    address private constant FLARE_CONTRACT_REGISTRY =\\n        0xaD67FE66660Fb8dFE9d6b1b4240d8650e30F6019;\\n\\n    \\n    constructor(address _wBTC) {\\n        wbtc = IERC20(_wBTC);\\n    }\\n\\n    function supply(uint256 amount) external {\\n        IERC20(address(wbtc)).transferFrom(msg.sender, address(this), amount);\\n        balances[msg.sender] += amount;\\n    }\\n    \\n\\n    function getSupplyedAmount(address user) external view returns (uint256) {\\n        return balances[user];\\n    }\\n\\n    function withdraw(uint256 amount) external {\\n        require(balances[msg.sender] >= amount, \\\"Insufficient balance\\\");\\n        IERC20(address(wbtc)).transfer(msg.sender, amount);\\n        balances[msg.sender] -= amount;\\n    }\\n\\n    function getAssetPrice() external view returns (uint256, uint256, uint256){\\n        uint256 _price;\\n        uint256 _timestamp;\\n        uint256 _decimals;\\n\\n        IFlareContractRegistry contractRegistry = IFlareContractRegistry(\\n            FLARE_CONTRACT_REGISTRY);\\n\\n        // 3. Retrieve the FTSO Registry\\n        IFtsoRegistry ftsoRegistry = IFtsoRegistry(\\n            contractRegistry.getContractAddressByName('FtsoRegistry'));\\n\\n        // 4. Get latest price\\n        (_price, _timestamp, _decimals) =\\n            ftsoRegistry.getCurrentPriceWithDecimals(\\\"testBTC\\\");\\n        return (_price, _timestamp, _decimals);\\n    }\\n\\n    function getAssetAddress() external view returns (address) {\\n        return address(wbtc);\\n    }\\n}\\n\"},\"@flarenetwork/flare-periphery-contracts/flare/ftso/userInterfaces/IFtsoRegistry.sol\":{\"content\":\"// SPDX-License-Identifier: MIT\\npragma solidity >=0.7.6 <0.9;\\npragma abicoder v2;\\n\\nimport \\\"../ftso/interface/IIFtso.sol\\\";\\nimport \\\"../genesis/interface/IFtsoRegistryGenesis.sol\\\";\\n\\ninterface IFtsoRegistry is IFtsoRegistryGenesis {\\n\\n    struct PriceInfo {\\n        uint256 ftsoIndex;\\n        uint256 price;\\n        uint256 decimals;\\n        uint256 timestamp;\\n    }\\n\\n    function getFtso(uint256 _ftsoIndex) external view returns(IIFtso _activeFtsoAddress);\\n    function getFtsoBySymbol(string memory _symbol) external view returns(IIFtso _activeFtsoAddress);\\n    function getSupportedIndices() external view returns(uint256[] memory _supportedIndices);\\n    function getSupportedSymbols() external view returns(string[] memory _supportedSymbols);\\n    function getSupportedFtsos() external view returns(IIFtso[] memory _ftsos);\\n    function getFtsoIndex(string memory _symbol) external view returns (uint256 _assetIndex);\\n    function getFtsoSymbol(uint256 _ftsoIndex) external view returns (string memory _symbol);\\n    function getCurrentPrice(uint256 _ftsoIndex) external view returns(uint256 _price, uint256 _timestamp);\\n    function getCurrentPrice(string memory _symbol) external view returns(uint256 _price, uint256 _timestamp);\\n    function getCurrentPriceWithDecimals(uint256 _assetIndex) external view\\n        returns(uint256 _price, uint256 _timestamp, uint256 _assetPriceUsdDecimals);\\n    function getCurrentPriceWithDecimals(string memory _symbol) external view\\n        returns(uint256 _price, uint256 _timestamp, uint256 _assetPriceUsdDecimals);\\n\\n    function getAllCurrentPrices() external view returns (PriceInfo[] memory);\\n    function getCurrentPricesByIndices(uint256[] memory _indices) external view returns (PriceInfo[] memory);\\n    function getCurrentPricesBySymbols(string[] memory _symbols) external view returns (PriceInfo[] memory);\\n\\n    function getSupportedIndicesAndFtsos() external view \\n        returns(uint256[] memory _supportedIndices, IIFtso[] memory _ftsos);\\n\\n    function getSupportedSymbolsAndFtsos() external view \\n        returns(string[] memory _supportedSymbols, IIFtso[] memory _ftsos);\\n\\n    function getSupportedIndicesAndSymbols() external view \\n        returns(uint256[] memory _supportedIndices, string[] memory _supportedSymbols);\\n\\n    function getSupportedIndicesSymbolsAndFtsos() external view \\n        returns(uint256[] memory _supportedIndices, string[] memory _supportedSymbols, IIFtso[] memory _ftsos);\\n}\\n\"},\"@flarenetwork/flare-periphery-contracts/flare/util-contracts/userInterfaces/IFlareContractRegistry.sol\":{\"content\":\"// SPDX-License-Identifier: MIT\\npragma solidity >=0.7.6 <0.9;\\npragma abicoder v2;\\n\\ninterface IFlareContractRegistry {\\n    /**\\n     * @notice Returns contract address for the given name - might be address(0)\\n     * @param _name             name of the contract\\n     */\\n    function getContractAddressByName(string calldata _name) external view returns(address);\\n\\n    /**\\n     * @notice Returns contract address for the given name hash - might be address(0)\\n     * @param _nameHash         hash of the contract name (keccak256(abi.encode(name))\\n     */\\n    function getContractAddressByHash(bytes32 _nameHash) external view returns(address);\\n\\n    /**\\n     * @notice Returns contract addresses for the given names - might be address(0)\\n     * @param _names            names of the contracts\\n     */\\n    function getContractAddressesByName(string[] calldata _names) external view returns(address[] memory);\\n\\n    /**\\n     * @notice Returns contract addresses for the given name hashes - might be address(0)\\n     * @param _nameHashes       hashes of the contract names (keccak256(abi.encode(name))\\n     */\\n    function getContractAddressesByHash(bytes32[] calldata _nameHashes) external view returns(address[] memory);\\n\\n    /**\\n     * @notice Returns all contract names and corresponding addresses\\n     */\\n    function getAllContracts() external view returns(string[] memory _names, address[] memory _addresses);\\n}\\n\"},\"@openzeppelin/contracts/token/ERC20/IERC20.sol\":{\"content\":\"// SPDX-License-Identifier: MIT\\n// OpenZeppelin Contracts (last updated v5.0.0) (token/ERC20/IERC20.sol)\\n\\npragma solidity ^0.8.20;\\n\\n/**\\n * @dev Interface of the ERC20 standard as defined in the EIP.\\n */\\ninterface IERC20 {\\n    /**\\n     * @dev Emitted when `value` tokens are moved from one account (`from`) to\\n     * another (`to`).\\n     *\\n     * Note that `value` may be zero.\\n     */\\n    event Transfer(address indexed from, address indexed to, uint256 value);\\n\\n    /**\\n     * @dev Emitted when the allowance of a `spender` for an `owner` is set by\\n     * a call to {approve}. `value` is the new allowance.\\n     */\\n    event Approval(address indexed owner, address indexed spender, uint256 value);\\n\\n    /**\\n     * @dev Returns the value of tokens in existence.\\n     */\\n    function totalSupply() external view returns (uint256);\\n\\n    /**\\n     * @dev Returns the value of tokens owned by `account`.\\n     */\\n    function balanceOf(address account) external view returns (uint256);\\n\\n    /**\\n     * @dev Moves a `value` amount of tokens from the caller's account to `to`.\\n     *\\n     * Returns a boolean value indicating whether the operation succeeded.\\n     *\\n     * Emits a {Transfer} event.\\n     */\\n    function transfer(address to, uint256 value) external returns (bool);\\n\\n    /**\\n     * @dev Returns the remaining number of tokens that `spender` will be\\n     * allowed to spend on behalf of `owner` through {transferFrom}. This is\\n     * zero by default.\\n     *\\n     * This value changes when {approve} or {transferFrom} are called.\\n     */\\n    function allowance(address owner, address spender) external view returns (uint256);\\n\\n    /**\\n     * @dev Sets a `value` amount of tokens as the allowance of `spender` over the\\n     * caller's tokens.\\n     *\\n     * Returns a boolean value indicating whether the operation succeeded.\\n     *\\n     * IMPORTANT: Beware that changing an allowance with this method brings the risk\\n     * that someone may use both the old and the new allowance by unfortunate\\n     * transaction ordering. One possible solution to mitigate this race\\n     * condition is to first reduce the spender's allowance to 0 and set the\\n     * desired value afterwards:\\n     * https://github.com/ethereum/EIPs/issues/20#issuecomment-263524729\\n     *\\n     * Emits an {Approval} event.\\n     */\\n    function approve(address spender, uint256 value) external returns (bool);\\n\\n    /**\\n     * @dev Moves a `value` amount of tokens from `from` to `to` using the\\n     * allowance mechanism. `value` is then deducted from the caller's\\n     * allowance.\\n     *\\n     * Returns a boolean value indicating whether the operation succeeded.\\n     *\\n     * Emits a {Transfer} event.\\n     */\\n    function transferFrom(address from, address to, uint256 value) external returns (bool);\\n}\\n\"},\"@flarenetwork/flare-periphery-contracts/flare/ftso/genesis/interface/IFtsoRegistryGenesis.sol\":{\"content\":\"\\n// SPDX-License-Identifier: MIT\\npragma solidity >=0.7.6 <0.9;\\n\\nimport \\\"./IFtsoGenesis.sol\\\";\\n\\n\\ninterface IFtsoRegistryGenesis {\\n\\n    function getFtsos(uint256[] memory _indices) external view returns(IFtsoGenesis[] memory _ftsos);\\n}\\n\"},\"@flarenetwork/flare-periphery-contracts/flare/ftso/ftso/interface/IIFtso.sol\":{\"content\":\"// SPDX-License-Identifier: MIT\\npragma solidity >=0.7.6 <0.9;\\n\\nimport \\\"../../genesis/interface/IFtsoGenesis.sol\\\";\\nimport \\\"../../userInterfaces/IFtso.sol\\\";\\nimport \\\"../../../util-contracts/token/token/interface/IIVPToken.sol\\\";\\n\\n\\ninterface IIFtso is IFtso, IFtsoGenesis {\\n\\n    /// function finalizePriceReveal\\n    /// called by reward manager only on correct timing.\\n    /// if price reveal period for epoch x ended. finalize.\\n    /// iterate list of price submissions\\n    /// find weighted median\\n    /// find adjucant 50% of price submissions.\\n    /// Allocate reward for any price submission which is same as a \\\"winning\\\" submission\\n    function finalizePriceEpoch(uint256 _epochId, bool _returnRewardData) external\\n        returns(\\n            address[] memory _eligibleAddresses,\\n            uint256[] memory _natWeights,\\n            uint256 _totalNatWeight\\n        );\\n\\n    function fallbackFinalizePriceEpoch(uint256 _epochId) external;\\n\\n    function forceFinalizePriceEpoch(uint256 _epochId) external;\\n\\n    // activateFtso will be called by ftso manager once ftso is added \\n    // before this is done, FTSO can't run\\n    function activateFtso(\\n        uint256 _firstEpochStartTs,\\n        uint256 _submitPeriodSeconds,\\n        uint256 _revealPeriodSeconds\\n    ) external;\\n\\n    function deactivateFtso() external;\\n\\n    // update initial price and timestamp - only if not active\\n    function updateInitialPrice(uint256 _initialPriceUSD, uint256 _initialPriceTimestamp) external;\\n\\n    function configureEpochs(\\n        uint256 _maxVotePowerNatThresholdFraction,\\n        uint256 _maxVotePowerAssetThresholdFraction,\\n        uint256 _lowAssetUSDThreshold,\\n        uint256 _highAssetUSDThreshold,\\n        uint256 _highAssetTurnoutThresholdBIPS,\\n        uint256 _lowNatTurnoutThresholdBIPS,\\n        uint256 _elasticBandRewardBIPS,\\n        uint256 _elasticBandWidthPPM,\\n        address[] memory _trustedAddresses\\n    ) external;\\n\\n    function setAsset(IIVPToken _asset) external;\\n\\n    function setAssetFtsos(IIFtso[] memory _assetFtsos) external;\\n\\n    // current vote power block will update per reward epoch. \\n    // the FTSO doesn't have notion of reward epochs.\\n    // reward manager only can set this data. \\n    function setVotePowerBlock(uint256 _blockNumber) external;\\n\\n    function initializeCurrentEpochStateForReveal(uint256 _circulatingSupplyNat, bool _fallbackMode) external;\\n  \\n    /**\\n     * @notice Returns ftso manager address\\n     */\\n    function ftsoManager() external view returns (address);\\n\\n    /**\\n     * @notice Returns the FTSO asset\\n     * @dev Asset is null in case of multi-asset FTSO\\n     */\\n    function getAsset() external view returns (IIVPToken);\\n\\n    /**\\n     * @notice Returns the Asset FTSOs\\n     * @dev AssetFtsos is not null only in case of multi-asset FTSO\\n     */\\n    function getAssetFtsos() external view returns (IIFtso[] memory);\\n\\n    /**\\n     * @notice Returns current configuration of epoch state\\n     * @return _maxVotePowerNatThresholdFraction        High threshold for native token vote power per voter\\n     * @return _maxVotePowerAssetThresholdFraction      High threshold for asset vote power per voter\\n     * @return _lowAssetUSDThreshold            Threshold for low asset vote power\\n     * @return _highAssetUSDThreshold           Threshold for high asset vote power\\n     * @return _highAssetTurnoutThresholdBIPS   Threshold for high asset turnout\\n     * @return _lowNatTurnoutThresholdBIPS      Threshold for low nat turnout\\n     * @return _elasticBandRewardBIPS           Hybrid reward band, where _elasticBandRewardBIPS goes to the \\n        elastic band (prices within _elasticBandWidthPPM of the median) \\n        and 10000 - elasticBandRewardBIPS to the IQR \\n     * @return _elasticBandWidthPPM             Prices within _elasticBandWidthPPM of median are rewarded\\n     * @return _trustedAddresses                Trusted addresses - use their prices if low nat turnout is not achieved\\n     */\\n    function epochsConfiguration() external view \\n        returns (\\n            uint256 _maxVotePowerNatThresholdFraction,\\n            uint256 _maxVotePowerAssetThresholdFraction,\\n            uint256 _lowAssetUSDThreshold,\\n            uint256 _highAssetUSDThreshold,\\n            uint256 _highAssetTurnoutThresholdBIPS,\\n            uint256 _lowNatTurnoutThresholdBIPS,\\n            uint256 _elasticBandRewardBIPS,\\n            uint256 _elasticBandWidthPPM,\\n            address[] memory _trustedAddresses\\n        );\\n\\n    /**\\n     * @notice Returns parameters necessary for approximately replicating vote weighting.\\n     * @return _assets                  the list of Assets that are accounted in vote\\n     * @return _assetMultipliers        weight of each asset in (multiasset) ftso, mutiplied by TERA\\n     * @return _totalVotePowerNat       total native token vote power at block\\n     * @return _totalVotePowerAsset     total combined asset vote power at block\\n     * @return _assetWeightRatio        ratio of combined asset vp vs. native token vp (in BIPS)\\n     * @return _votePowerBlock          vote powewr block for given epoch\\n     */\\n    function getVoteWeightingParameters() external view \\n        returns (\\n            IIVPToken[] memory _assets,\\n            uint256[] memory _assetMultipliers,\\n            uint256 _totalVotePowerNat,\\n            uint256 _totalVotePowerAsset,\\n            uint256 _assetWeightRatio,\\n            uint256 _votePowerBlock\\n        );\\n\\n    function wNat() external view returns (IIVPToken);\\n}\\n\"},\"@flarenetwork/flare-periphery-contracts/flare/ftso/genesis/interface/IFtsoGenesis.sol\":{\"content\":\"\\n// SPDX-License-Identifier: MIT\\npragma solidity >=0.7.6 <0.9;\\n\\n\\ninterface IFtsoGenesis {\\n\\n    /**\\n     * @notice Reveals submitted price during epoch reveal period - only price submitter\\n     * @param _voter                Voter address\\n     * @param _epochId              Id of the epoch in which the price hash was submitted\\n     * @param _price                Submitted price in USD\\n     * @notice The hash of _price and _random must be equal to the submitted hash\\n     * @notice Emits PriceRevealed event\\n     */\\n    function revealPriceSubmitter(\\n        address _voter,\\n        uint256 _epochId,\\n        uint256 _price,\\n        uint256 _wNatVP\\n    ) external;\\n\\n    /**\\n     * @notice Get (and cache) wNat vote power for specified voter and given epoch id\\n     * @param _voter                Voter address\\n     * @param _epochId              Id of the epoch in which the price hash was submitted\\n     * @return wNat vote power\\n     */\\n    function wNatVotePowerCached(address _voter, uint256 _epochId) external returns (uint256);\\n}\\n\"},\"@flarenetwork/flare-periphery-contracts/flare/util-contracts/token/token/interface/IIVPToken.sol\":{\"content\":\"// SPDX-License-Identifier: MIT\\npragma solidity >=0.7.6 <0.9;\\n\\nimport \\\"../../userInterfaces/IVPToken.sol\\\";\\nimport \\\"../../../../governance/userInterfaces/IGovernanceVotePower.sol\\\";\\nimport \\\"./IIVPContract.sol\\\";\\nimport \\\"./IIGovernanceVotePower.sol\\\";\\nimport \\\"./IICleanable.sol\\\";\\n\\ninterface IIVPToken is IVPToken, IICleanable {\\n    /**\\n     * Set the contract that is allowed to set cleanupBlockNumber.\\n     * Usually this will be an instance of CleanupBlockNumberManager.\\n     */\\n    function setCleanupBlockNumberManager(address _cleanupBlockNumberManager) external;\\n    \\n    /**\\n     * Sets new governance vote power contract that allows token owners to participate in governance voting\\n     * and delegate governance vote power. \\n     */\\n    function setGovernanceVotePower(IIGovernanceVotePower _governanceVotePower) external;\\n    \\n    /**\\n    * @notice Get the total vote power at block `_blockNumber` using cache.\\n    *   It tries to read the cached value and if not found, reads the actual value and stores it in cache.\\n    *   Can only be used if `_blockNumber` is in the past, otherwise reverts.    \\n    * @param _blockNumber The block number at which to fetch.\\n    * @return The total vote power at the block (sum of all accounts' vote powers).\\n    */\\n    function totalVotePowerAtCached(uint256 _blockNumber) external returns(uint256);\\n    \\n    /**\\n    * @notice Get the vote power of `_owner` at block `_blockNumber` using cache.\\n    *   It tries to read the cached value and if not found, reads the actual value and stores it in cache.\\n    *   Can only be used if _blockNumber is in the past, otherwise reverts.    \\n    * @param _owner The address to get voting power.\\n    * @param _blockNumber The block number at which to fetch.\\n    * @return Vote power of `_owner` at `_blockNumber`.\\n    */\\n    function votePowerOfAtCached(address _owner, uint256 _blockNumber) external returns(uint256);\\n\\n    /**\\n     * Return vote powers for several addresses in a batch.\\n     * @param _owners The list of addresses to fetch vote power of.\\n     * @param _blockNumber The block number at which to fetch.\\n     * @return A list of vote powers.\\n     */    \\n    function batchVotePowerOfAt(\\n        address[] memory _owners, \\n        uint256 _blockNumber\\n    ) external view returns(uint256[] memory);\\n}\\n\"},\"@flarenetwork/flare-periphery-contracts/flare/ftso/userInterfaces/IFtso.sol\":{\"content\":\"// SPDX-License-Identifier: MIT\\npragma solidity >=0.7.6 <0.9;\\n\\ninterface IFtso {\\n    enum PriceFinalizationType {\\n        // initial state\\n        NOT_FINALIZED,\\n        // median calculation used to find price\\n        WEIGHTED_MEDIAN,\\n        // low turnout - price calculated from median of trusted addresses\\n        TRUSTED_ADDRESSES,\\n        // low turnout + no votes from trusted addresses - price copied from previous epoch\\n        PREVIOUS_PRICE_COPIED,\\n        // price calculated from median of trusted addresses - triggered due to an exception\\n        TRUSTED_ADDRESSES_EXCEPTION,\\n        // previous price copied - triggered due to an exception\\n        PREVIOUS_PRICE_COPIED_EXCEPTION\\n    }\\n\\n    event PriceRevealed(\\n        address indexed voter, uint256 indexed epochId, uint256 price, uint256 timestamp,\\n        uint256 votePowerNat, uint256 votePowerAsset\\n    );\\n\\n    event PriceFinalized(\\n        uint256 indexed epochId, uint256 price, bool rewardedFtso,\\n        uint256 lowIQRRewardPrice, uint256 highIQRRewardPrice,\\n        uint256 lowElasticBandRewardPrice, uint256 highElasticBandRewardPrice, \\n        PriceFinalizationType finalizationType, uint256 timestamp\\n    );\\n\\n    event PriceEpochInitializedOnFtso(\\n        uint256 indexed epochId, uint256 endTime, uint256 timestamp\\n    );\\n\\n    event LowTurnout(\\n        uint256 indexed epochId,\\n        uint256 natTurnout,\\n        uint256 lowNatTurnoutThresholdBIPS,\\n        uint256 timestamp\\n    );\\n\\n    /**\\n     * @notice Returns if FTSO is active\\n     */\\n    function active() external view returns (bool);\\n\\n    /**\\n     * @notice Returns the FTSO symbol\\n     */\\n    function symbol() external view returns (string memory);\\n\\n    /**\\n     * @notice Returns current epoch id\\n     */\\n    function getCurrentEpochId() external view returns (uint256);\\n\\n    /**\\n     * @notice Returns id of the epoch which was opened for price submission at the specified timestamp\\n     * @param _timestamp            Timestamp as seconds from unix epoch\\n     */\\n    function getEpochId(uint256 _timestamp) external view returns (uint256);\\n    \\n    /**\\n     * @notice Returns random number of the specified epoch\\n     * @param _epochId              Id of the epoch\\n     */\\n    function getRandom(uint256 _epochId) external view returns (uint256);\\n\\n    /**\\n     * @notice Returns asset price consented in specific epoch\\n     * @param _epochId              Id of the epoch\\n     * @return Price in USD multiplied by ASSET_PRICE_USD_DECIMALS\\n     */\\n    function getEpochPrice(uint256 _epochId) external view returns (uint256);\\n\\n    /**\\n     * @notice Returns current epoch data\\n     * @return _epochId                 Current epoch id\\n     * @return _epochSubmitEndTime      End time of the current epoch price submission as seconds from unix epoch\\n     * @return _epochRevealEndTime      End time of the current epoch price reveal as seconds from unix epoch\\n     * @return _votePowerBlock          Vote power block for the current epoch\\n     * @return _fallbackMode            Current epoch in fallback mode - only votes from trusted addresses will be used\\n     * @dev half-closed intervals - end time not included\\n     */\\n    function getPriceEpochData() external view returns (\\n        uint256 _epochId,\\n        uint256 _epochSubmitEndTime,\\n        uint256 _epochRevealEndTime,\\n        uint256 _votePowerBlock,\\n        bool _fallbackMode\\n    );\\n\\n    /**\\n     * @notice Returns current epoch data\\n     * @return _firstEpochStartTs           First epoch start timestamp\\n     * @return _submitPeriodSeconds         Submit period in seconds\\n     * @return _revealPeriodSeconds         Reveal period in seconds\\n     */\\n    function getPriceEpochConfiguration() external view returns (\\n        uint256 _firstEpochStartTs,\\n        uint256 _submitPeriodSeconds,\\n        uint256 _revealPeriodSeconds\\n    );\\n    \\n    /**\\n     * @notice Returns asset price submitted by voter in specific epoch\\n     * @param _epochId              Id of the epoch\\n     * @param _voter                Address of the voter\\n     * @return Price in USD multiplied by ASSET_PRICE_USD_DECIMALS\\n     */\\n    function getEpochPriceForVoter(uint256 _epochId, address _voter) external view returns (uint256);\\n\\n    /**\\n     * @notice Returns current asset price\\n     * @return _price               Price in USD multiplied by ASSET_PRICE_USD_DECIMALS\\n     * @return _timestamp           Time when price was updated for the last time\\n     */\\n    function getCurrentPrice() external view returns (uint256 _price, uint256 _timestamp);\\n\\n    /**\\n     * @notice Returns current asset price and number of decimals\\n     * @return _price                   Price in USD multiplied by ASSET_PRICE_USD_DECIMALS\\n     * @return _timestamp               Time when price was updated for the last time\\n     * @return _assetPriceUsdDecimals   Number of decimals used for USD price\\n     */\\n    function getCurrentPriceWithDecimals() external view returns (\\n        uint256 _price,\\n        uint256 _timestamp,\\n        uint256 _assetPriceUsdDecimals\\n    );\\n    \\n    /**\\n     * @notice Returns current asset price calculated from trusted providers\\n     * @return _price               Price in USD multiplied by ASSET_PRICE_USD_DECIMALS\\n     * @return _timestamp           Time when price was updated for the last time\\n     */\\n    function getCurrentPriceFromTrustedProviders() external view returns (uint256 _price, uint256 _timestamp);\\n\\n    /**\\n     * @notice Returns current asset price calculated from trusted providers and number of decimals\\n     * @return _price                   Price in USD multiplied by ASSET_PRICE_USD_DECIMALS\\n     * @return _timestamp               Time when price was updated for the last time\\n     * @return _assetPriceUsdDecimals   Number of decimals used for USD price\\n     */\\n    function getCurrentPriceWithDecimalsFromTrustedProviders() external view returns (\\n        uint256 _price,\\n        uint256 _timestamp,\\n        uint256 _assetPriceUsdDecimals\\n    );\\n\\n    /**\\n     * @notice Returns current asset price details\\n     * @return _price                                   Price in USD multiplied by ASSET_PRICE_USD_DECIMALS\\n     * @return _priceTimestamp                          Time when price was updated for the last time\\n     * @return _priceFinalizationType                   Finalization type when price was updated for the last time\\n     * @return _lastPriceEpochFinalizationTimestamp     Time when last price epoch was finalized\\n     * @return _lastPriceEpochFinalizationType          Finalization type of last finalized price epoch\\n     */\\n    function getCurrentPriceDetails() external view returns (\\n        uint256 _price,\\n        uint256 _priceTimestamp,\\n        PriceFinalizationType _priceFinalizationType,\\n        uint256 _lastPriceEpochFinalizationTimestamp,\\n        PriceFinalizationType _lastPriceEpochFinalizationType\\n    );\\n\\n    /**\\n     * @notice Returns current random number\\n     */\\n    function getCurrentRandom() external view returns (uint256);\\n}\\n\"},\"@flarenetwork/flare-periphery-contracts/flare/util-contracts/token/token/interface/IICleanable.sol\":{\"content\":\"// SPDX-License-Identifier: MIT\\npragma solidity >=0.7.6 <0.9;\\n\\ninterface IICleanable {\\n    /**\\n     * Set the contract that is allowed to call history cleaning methods.\\n     */\\n    function setCleanerContract(address _cleanerContract) external;\\n    \\n    /**\\n     * Set the cleanup block number.\\n     * Historic data for the blocks before `cleanupBlockNumber` can be erased,\\n     * history before that block should never be used since it can be inconsistent.\\n     * In particular, cleanup block number must be before current vote power block.\\n     * @param _blockNumber The new cleanup block number.\\n     */\\n    function setCleanupBlockNumber(uint256 _blockNumber) external;\\n    \\n    /**\\n     * Get the current cleanup block number.\\n     */\\n    function cleanupBlockNumber() external view returns (uint256);\\n}\\n\"},\"@flarenetwork/flare-periphery-contracts/flare/util-contracts/token/token/interface/IIGovernanceVotePower.sol\":{\"content\":\"// SPDX-License-Identifier: MIT\\npragma solidity >=0.7.6 <0.9;\\n\\nimport \\\"../../userInterfaces/IVPToken.sol\\\";\\nimport \\\"../../../infrastructure/userInterfaces/IPChainStakeMirror.sol\\\";\\nimport \\\"../../../../governance/userInterfaces/IGovernanceVotePower.sol\\\";\\n\\n/**\\n * Internal interface for contracts delegating their governance vote power.\\n */\\ninterface IIGovernanceVotePower is IGovernanceVotePower {\\n    /**\\n     * Emitted when a delegate's vote power changes, as a result of a new delegation\\n     * or a token transfer, for example.\\n     *\\n     * The event is always emitted from a `GovernanceVotePower` contract.\\n     * @param delegate The account receiving the changing delegated vote power.\\n     * @param previousBalance Delegated vote power before the change.\\n     * @param newBalance Delegated vote power after the change.\\n     */\\n    event DelegateVotesChanged(\\n        address indexed delegate,\\n        uint256 previousBalance,\\n        uint256 newBalance\\n    );\\n\\n    /**\\n     * Emitted when an account starts delegating vote power or switches its delegation\\n     * to another address.\\n     *\\n     * The event is always emitted from a `GovernanceVotePower` contract.\\n     * @param delegator Account delegating its vote power.\\n     * @param fromDelegate Account receiving the delegation before the change.\\n     * Can be address(0) if there was no previous delegation.\\n     * @param toDelegate Account receiving the delegation after the change.\\n     * Can be address(0) if `delegator` just undelegated all its vote power.\\n     */\\n    event DelegateChanged(\\n        address indexed delegator,\\n        address indexed fromDelegate,\\n        address indexed toDelegate\\n    );\\n\\n    /**\\n     * Update governance vote power of all involved delegates after tokens are transferred.\\n     *\\n     * This function **MUST** be called after each governance token transfer for the\\n     * delegates to reflect the correct balance.\\n     * @param _from Source address of the transfer.\\n     * @param _to Destination address of the transfer.\\n     * @param _fromBalance _Ignored._\\n     * @param _toBalance _Ignored._\\n     * @param _amount Amount being transferred.\\n     */\\n    function updateAtTokenTransfer(\\n        address _from,\\n        address _to,\\n        uint256 _fromBalance,\\n        uint256 _toBalance,\\n        uint256 _amount\\n    ) external;\\n\\n    /**\\n     * Set the cleanup block number.\\n     * Historic data for the blocks before `cleanupBlockNumber` can be erased.\\n     * History before that block should never be used since it can be inconsistent.\\n     * In particular, cleanup block number must be lower than the current vote power block.\\n     * @param _blockNumber The new cleanup block number.\\n     */\\n    function setCleanupBlockNumber(uint256 _blockNumber) external;\\n\\n    /**\\n     * Set the contract that is allowed to call history cleaning methods.\\n     * @param _cleanerContract Address of the cleanup contract.\\n     * Usually this will be an instance of `CleanupBlockNumberManager`.\\n     */\\n    function setCleanerContract(address _cleanerContract) external;\\n\\n    /**\\n     * Get the token that this governance vote power contract belongs to.\\n     * @return The IVPToken interface owning this contract.\\n     */\\n    function ownerToken() external view returns (IVPToken);\\n\\n    /**\\n     * Get the stake mirror contract that this governance vote power contract belongs to.\\n     * @return The IPChainStakeMirror interface owning this contract.\\n     */\\n    function pChainStakeMirror() external view returns (IPChainStakeMirror);\\n\\n    /**\\n     * Get the current cleanup block number set with `setCleanupBlockNumber()`.\\n     * @return The currently set cleanup block number.\\n     */\\n    function getCleanupBlockNumber() external view returns(uint256);\\n}\\n\"},\"@flarenetwork/flare-periphery-contracts/flare/util-contracts/token/token/interface/IIVPContract.sol\":{\"content\":\"// SPDX-License-Identifier: MIT\\npragma solidity >=0.7.6 <0.9;\\n\\nimport \\\"../../userInterfaces/IVPToken.sol\\\";\\nimport \\\"../../userInterfaces/IVPContractEvents.sol\\\";\\nimport \\\"./IICleanable.sol\\\";\\n\\ninterface IIVPContract is IICleanable, IVPContractEvents {\\n    /**\\n     * Update vote powers when tokens are transfered.\\n     * Also update delegated vote powers for percentage delegation\\n     * and check for enough funds for explicit delegations.\\n     **/\\n    function updateAtTokenTransfer(\\n        address _from, \\n        address _to, \\n        uint256 _fromBalance,\\n        uint256 _toBalance,\\n        uint256 _amount\\n    ) external;\\n\\n    /**\\n     * @notice Delegate `_bips` percentage of voting power to `_to` from `_from`\\n     * @param _from The address of the delegator\\n     * @param _to The address of the recipient\\n     * @param _balance The delegator's current balance\\n     * @param _bips The percentage of voting power to be delegated expressed in basis points (1/100 of one percent).\\n     *   Not cumulative - every call resets the delegation value (and value of 0 revokes delegation).\\n     **/\\n    function delegate(\\n        address _from, \\n        address _to, \\n        uint256 _balance, \\n        uint256 _bips\\n    ) external;\\n    \\n    /**\\n     * @notice Explicitly delegate `_amount` of voting power to `_to` from `msg.sender`.\\n     * @param _from The address of the delegator\\n     * @param _to The address of the recipient\\n     * @param _balance The delegator's current balance\\n     * @param _amount An explicit vote power amount to be delegated.\\n     *   Not cumulative - every call resets the delegation value (and value of 0 undelegates `to`).\\n     **/    \\n    function delegateExplicit(\\n        address _from, \\n        address _to, \\n        uint256 _balance, \\n        uint _amount\\n    ) external;    \\n\\n    /**\\n     * @notice Revoke all delegation from sender to `_who` at given block. \\n     *    Only affects the reads via `votePowerOfAtCached()` in the block `_blockNumber`.\\n     *    Block `_blockNumber` must be in the past. \\n     *    This method should be used only to prevent rogue delegate voting in the current voting block.\\n     *    To stop delegating use delegate/delegateExplicit with value of 0 or undelegateAll/undelegateAllExplicit.\\n     * @param _from The address of the delegator\\n     * @param _who Address of the delegatee\\n     * @param _balance The delegator's current balance\\n     * @param _blockNumber The block number at which to revoke delegation.\\n     **/\\n    function revokeDelegationAt(\\n        address _from, \\n        address _who, \\n        uint256 _balance,\\n        uint _blockNumber\\n    ) external;\\n    \\n        /**\\n     * @notice Undelegate all voting power for delegates of `msg.sender`\\n     *    Can only be used with percentage delegation.\\n     *    Does not reset delegation mode back to NOTSET.\\n     * @param _from The address of the delegator\\n     **/\\n    function undelegateAll(\\n        address _from,\\n        uint256 _balance\\n    ) external;\\n    \\n    /**\\n     * @notice Undelegate all explicit vote power by amount delegates for `msg.sender`.\\n     *    Can only be used with explicit delegation.\\n     *    Does not reset delegation mode back to NOTSET.\\n     * @param _from The address of the delegator\\n     * @param _delegateAddresses Explicit delegation does not store delegatees' addresses, \\n     *   so the caller must supply them.\\n     * @return The amount still delegated (in case the list of delegates was incomplete).\\n     */\\n    function undelegateAllExplicit(\\n        address _from, \\n        address[] memory _delegateAddresses\\n    ) external returns (uint256);\\n    \\n    /**\\n    * @notice Get the vote power of `_who` at block `_blockNumber`\\n    *   Reads/updates cache and upholds revocations.\\n    * @param _who The address to get voting power.\\n    * @param _blockNumber The block number at which to fetch.\\n    * @return Vote power of `_who` at `_blockNumber`.\\n    */\\n    function votePowerOfAtCached(address _who, uint256 _blockNumber) external returns(uint256);\\n    \\n    /**\\n     * @notice Get the current vote power of `_who`.\\n     * @param _who The address to get voting power.\\n     * @return Current vote power of `_who`.\\n     */\\n    function votePowerOf(address _who) external view returns(uint256);\\n    \\n    /**\\n    * @notice Get the vote power of `_who` at block `_blockNumber`\\n    * @param _who The address to get voting power.\\n    * @param _blockNumber The block number at which to fetch.\\n    * @return Vote power of `_who` at `_blockNumber`.\\n    */\\n    function votePowerOfAt(address _who, uint256 _blockNumber) external view returns(uint256);\\n\\n    /**\\n    * @notice Get the vote power of `_who` at block `_blockNumber`, ignoring revocation information (and cache).\\n    * @param _who The address to get voting power.\\n    * @param _blockNumber The block number at which to fetch.\\n    * @return Vote power of `_who` at `_blockNumber`. Result doesn't change if vote power is revoked.\\n    */\\n    function votePowerOfAtIgnoringRevocation(address _who, uint256 _blockNumber) external view returns(uint256);\\n\\n    /**\\n     * Return vote powers for several addresses in a batch.\\n     * @param _owners The list of addresses to fetch vote power of.\\n     * @param _blockNumber The block number at which to fetch.\\n     * @return A list of vote powers.\\n     */    \\n    function batchVotePowerOfAt(\\n        address[] memory _owners, \\n        uint256 _blockNumber\\n    )\\n        external view returns(uint256[] memory);\\n\\n    /**\\n    * @notice Get current delegated vote power `_from` delegator delegated `_to` delegatee.\\n    * @param _from Address of delegator\\n    * @param _to Address of delegatee\\n    * @param _balance The delegator's current balance\\n    * @return The delegated vote power.\\n    */\\n    function votePowerFromTo(\\n        address _from, \\n        address _to, \\n        uint256 _balance\\n    ) external view returns(uint256);\\n    \\n    /**\\n    * @notice Get delegated the vote power `_from` delegator delegated `_to` delegatee at `_blockNumber`.\\n    * @param _from Address of delegator\\n    * @param _to Address of delegatee\\n    * @param _balance The delegator's current balance\\n    * @param _blockNumber The block number at which to fetch.\\n    * @return The delegated vote power.\\n    */\\n    function votePowerFromToAt(\\n        address _from, \\n        address _to, \\n        uint256 _balance,\\n        uint _blockNumber\\n    ) external view returns(uint256);\\n\\n    /**\\n     * @notice Compute the current undelegated vote power of `_owner`\\n     * @param _owner The address to get undelegated voting power.\\n     * @param _balance Owner's current balance\\n     * @return The unallocated vote power of `_owner`\\n     */\\n    function undelegatedVotePowerOf(\\n        address _owner,\\n        uint256 _balance\\n    ) external view returns(uint256);\\n\\n    /**\\n     * @notice Get the undelegated vote power of `_owner` at given block.\\n     * @param _owner The address to get undelegated voting power.\\n     * @param _blockNumber The block number at which to fetch.\\n     * @return The undelegated vote power of `_owner` (= owner's own balance minus all delegations from owner)\\n     */\\n    function undelegatedVotePowerOfAt(\\n        address _owner, \\n        uint256 _balance,\\n        uint256 _blockNumber\\n    ) external view returns(uint256);\\n\\n    /**\\n     * @notice Get the delegation mode for '_who'. This mode determines whether vote power is\\n     *  allocated by percentage or by explicit value.\\n     * @param _who The address to get delegation mode.\\n     * @return Delegation mode (NOTSET=0, PERCENTAGE=1, AMOUNT=2))\\n     */\\n    function delegationModeOf(address _who) external view returns (uint256);\\n    \\n    /**\\n    * @notice Get the vote power delegation `_delegateAddresses` \\n    *  and `pcts` of an `_owner`. Returned in two separate positional arrays.\\n    * @param _owner The address to get delegations.\\n    * @return _delegateAddresses Positional array of delegation addresses.\\n    * @return _bips Positional array of delegation percents specified in basis points (1/100 or 1 percent)\\n    * @return _count The number of delegates.\\n    * @return _delegationMode The mode of the delegation (NOTSET=0, PERCENTAGE=1, AMOUNT=2).\\n    */\\n    function delegatesOf(\\n        address _owner\\n    )\\n        external view \\n        returns (\\n            address[] memory _delegateAddresses, \\n            uint256[] memory _bips,\\n            uint256 _count,\\n            uint256 _delegationMode\\n        );\\n\\n    /**\\n    * @notice Get the vote power delegation `delegationAddresses` \\n    *  and `pcts` of an `_owner`. Returned in two separate positional arrays.\\n    * @param _owner The address to get delegations.\\n    * @param _blockNumber The block for which we want to know the delegations.\\n    * @return _delegateAddresses Positional array of delegation addresses.\\n    * @return _bips Positional array of delegation percents specified in basis points (1/100 or 1 percent)\\n    * @return _count The number of delegates.\\n    * @return _delegationMode The mode of the delegation (NOTSET=0, PERCENTAGE=1, AMOUNT=2).\\n    */\\n    function delegatesOfAt(\\n        address _owner,\\n        uint256 _blockNumber\\n    )\\n        external view \\n        returns (\\n            address[] memory _delegateAddresses, \\n            uint256[] memory _bips,\\n            uint256 _count,\\n            uint256 _delegationMode\\n        );\\n\\n    /**\\n     * The VPToken (or some other contract) that owns this VPContract.\\n     * All state changing methods may be called only from this address.\\n     * This is because original msg.sender is sent in `_from` parameter\\n     * and we must be sure that it cannot be faked by directly calling VPContract.\\n     * Owner token is also used in case of replacement to recover vote powers from balances.\\n     */\\n    function ownerToken() external view returns (IVPToken);\\n    \\n    /**\\n     * Return true if this IIVPContract is configured to be used as a replacement for other contract.\\n     * It means that vote powers are not necessarily correct at the initialization, therefore\\n     * every method that reads vote power must check whether it is initialized for that address and block.\\n     */\\n    function isReplacement() external view returns (bool);\\n}\\n\"},\"@flarenetwork/flare-periphery-contracts/flare/governance/userInterfaces/IGovernanceVotePower.sol\":{\"content\":\"// SPDX-License-Identifier: MIT\\npragma solidity >=0.7.6 <0.9;\\n\\n/**\\n * Interface for contracts delegating their governance vote power.\\n */\\ninterface IGovernanceVotePower {\\n    /**\\n     * Delegates all governance vote power of `msg.sender` to address `_to`.\\n     * @param _to The address of the recipient.\\n     */\\n    function delegate(address _to) external;\\n\\n    /**\\n     * Undelegates all governance vote power of `msg.sender`.\\n     */\\n    function undelegate() external;\\n\\n    /**\\n     * Gets the governance vote power of an address at a given block number, including\\n     * all delegations made to it.\\n     * @param _who The address being queried.\\n     * @param _blockNumber The block number at which to fetch the vote power.\\n     * @return Governance vote power of `_who` at `_blockNumber`.\\n     */\\n    function votePowerOfAt(address _who, uint256 _blockNumber) external view returns(uint256);\\n\\n    /**\\n     * Gets the governance vote power of an address at the latest block, including\\n     * all delegations made to it.\\n     * @param _who The address being queried.\\n     * @return Governance vote power of `account` at the lastest block.\\n     */\\n    function getVotes(address _who) external view returns (uint256);\\n\\n    /**\\n     * Gets the address an account is delegating its governance vote power to, at a given block number.\\n     * @param _who The address being queried.\\n     * @param _blockNumber The block number at which to fetch the address.\\n     * @return Address where `_who` was delegating its governance vote power at block `_blockNumber`.\\n     */\\n    function getDelegateOfAt(address _who, uint256 _blockNumber) external view returns (address);\\n\\n    /**\\n     * Gets the address an account is delegating its governance vote power to, at the latest block number.\\n     * @param _who The address being queried.\\n     * @return Address where `_who` is currently delegating its governance vote power.\\n     */\\n    function getDelegateOfAtNow(address _who) external view returns (address);\\n}\\n\"},\"@flarenetwork/flare-periphery-contracts/flare/util-contracts/token/userInterfaces/IVPToken.sol\":{\"content\":\"// SPDX-License-Identifier: MIT\\npragma solidity >=0.7.6 <0.9;\\n\\nimport {IERC20} from \\\"@openzeppelin/contracts/token/ERC20/IERC20.sol\\\";\\nimport \\\"../../../governance/userInterfaces/IGovernanceVotePower.sol\\\";\\nimport \\\"./IVPContractEvents.sol\\\";\\n\\ninterface IVPToken is IERC20 {\\n    /**\\n     * @notice Delegate by percentage `_bips` of voting power to `_to` from `msg.sender`.\\n     * @param _to The address of the recipient\\n     * @param _bips The percentage of voting power to be delegated expressed in basis points (1/100 of one percent).\\n     *   Not cumulative - every call resets the delegation value (and value of 0 undelegates `to`).\\n     **/\\n    function delegate(address _to, uint256 _bips) external;\\n    \\n    /**\\n     * @notice Undelegate all percentage delegations from the sender and then delegate corresponding \\n     *   `_bips` percentage of voting power from the sender to each member of `_delegatees`.\\n     * @param _delegatees The addresses of the new recipients.\\n     * @param _bips The percentages of voting power to be delegated expressed in basis points (1/100 of one percent).\\n     *   Total of all `_bips` values must be at most 10000.\\n     **/\\n    function batchDelegate(address[] memory _delegatees, uint256[] memory _bips) external;\\n        \\n    /**\\n     * @notice Explicitly delegate `_amount` of voting power to `_to` from `msg.sender`.\\n     * @param _to The address of the recipient\\n     * @param _amount An explicit vote power amount to be delegated.\\n     *   Not cumulative - every call resets the delegation value (and value of 0 undelegates `to`).\\n     **/    \\n    function delegateExplicit(address _to, uint _amount) external;\\n\\n    /**\\n    * @notice Revoke all delegation from sender to `_who` at given block. \\n    *    Only affects the reads via `votePowerOfAtCached()` in the block `_blockNumber`.\\n    *    Block `_blockNumber` must be in the past. \\n    *    This method should be used only to prevent rogue delegate voting in the current voting block.\\n    *    To stop delegating use delegate/delegateExplicit with value of 0 or undelegateAll/undelegateAllExplicit.\\n    * @param _who Address of the delegatee\\n    * @param _blockNumber The block number at which to revoke delegation.\\n    */\\n    function revokeDelegationAt(address _who, uint _blockNumber) external;\\n    \\n    /**\\n     * @notice Undelegate all voting power for delegates of `msg.sender`\\n     *    Can only be used with percentage delegation.\\n     *    Does not reset delegation mode back to NOTSET.\\n     **/\\n    function undelegateAll() external;\\n    \\n    /**\\n     * @notice Undelegate all explicit vote power by amount delegates for `msg.sender`.\\n     *    Can only be used with explicit delegation.\\n     *    Does not reset delegation mode back to NOTSET.\\n     * @param _delegateAddresses Explicit delegation does not store delegatees' addresses, \\n     *   so the caller must supply them.\\n     * @return The amount still delegated (in case the list of delegates was incomplete).\\n     */\\n    function undelegateAllExplicit(address[] memory _delegateAddresses) external returns (uint256);\\n\\n\\n    /**\\n     * @dev Should be compatible with ERC20 method\\n     */\\n    function name() external view returns (string memory);\\n\\n    /**\\n     * @dev Should be compatible with ERC20 method\\n     */\\n    function symbol() external view returns (string memory);\\n\\n    /**\\n     * @dev Should be compatible with ERC20 method\\n     */\\n    function decimals() external view returns (uint8);\\n    \\n\\n    /**\\n     * @notice Total amount of tokens at a specific `_blockNumber`.\\n     * @param _blockNumber The block number when the totalSupply is queried\\n     * @return The total amount of tokens at `_blockNumber`\\n     **/\\n    function totalSupplyAt(uint _blockNumber) external view returns(uint256);\\n\\n    /**\\n     * @dev Queries the token balance of `_owner` at a specific `_blockNumber`.\\n     * @param _owner The address from which the balance will be retrieved.\\n     * @param _blockNumber The block number when the balance is queried.\\n     * @return The balance at `_blockNumber`.\\n     **/\\n    function balanceOfAt(address _owner, uint _blockNumber) external view returns (uint256);\\n\\n    \\n    /**\\n     * @notice Get the current total vote power.\\n     * @return The current total vote power (sum of all accounts' vote powers).\\n     */\\n    function totalVotePower() external view returns(uint256);\\n    \\n    /**\\n    * @notice Get the total vote power at block `_blockNumber`\\n    * @param _blockNumber The block number at which to fetch.\\n    * @return The total vote power at the block  (sum of all accounts' vote powers).\\n    */\\n    function totalVotePowerAt(uint _blockNumber) external view returns(uint256);\\n\\n    /**\\n     * @notice Get the current vote power of `_owner`.\\n     * @param _owner The address to get voting power.\\n     * @return Current vote power of `_owner`.\\n     */\\n    function votePowerOf(address _owner) external view returns(uint256);\\n    \\n    /**\\n    * @notice Get the vote power of `_owner` at block `_blockNumber`\\n    * @param _owner The address to get voting power.\\n    * @param _blockNumber The block number at which to fetch.\\n    * @return Vote power of `_owner` at `_blockNumber`.\\n    */\\n    function votePowerOfAt(address _owner, uint256 _blockNumber) external view returns(uint256);\\n\\n    /**\\n    * @notice Get the vote power of `_owner` at block `_blockNumber`, ignoring revocation information (and cache).\\n    * @param _owner The address to get voting power.\\n    * @param _blockNumber The block number at which to fetch.\\n    * @return Vote power of `_owner` at `_blockNumber`. Result doesn't change if vote power is revoked.\\n    */\\n    function votePowerOfAtIgnoringRevocation(address _owner, uint256 _blockNumber) external view returns(uint256);\\n\\n    /**\\n     * @notice Get the delegation mode for '_who'. This mode determines whether vote power is\\n     *  allocated by percentage or by explicit value. Once the delegation mode is set, \\n     *  it never changes, even if all delegations are removed.\\n     * @param _who The address to get delegation mode.\\n     * @return delegation mode: 0 = NOTSET, 1 = PERCENTAGE, 2 = AMOUNT (i.e. explicit)\\n     */\\n    function delegationModeOf(address _who) external view returns(uint256);\\n        \\n    /**\\n    * @notice Get current delegated vote power `_from` delegator delegated `_to` delegatee.\\n    * @param _from Address of delegator\\n    * @param _to Address of delegatee\\n    * @return The delegated vote power.\\n    */\\n    function votePowerFromTo(address _from, address _to) external view returns(uint256);\\n    \\n    /**\\n    * @notice Get delegated the vote power `_from` delegator delegated `_to` delegatee at `_blockNumber`.\\n    * @param _from Address of delegator\\n    * @param _to Address of delegatee\\n    * @param _blockNumber The block number at which to fetch.\\n    * @return The delegated vote power.\\n    */\\n    function votePowerFromToAt(address _from, address _to, uint _blockNumber) external view returns(uint256);\\n    \\n    /**\\n     * @notice Compute the current undelegated vote power of `_owner`\\n     * @param _owner The address to get undelegated voting power.\\n     * @return The unallocated vote power of `_owner`\\n     */\\n    function undelegatedVotePowerOf(address _owner) external view returns(uint256);\\n    \\n    /**\\n     * @notice Get the undelegated vote power of `_owner` at given block.\\n     * @param _owner The address to get undelegated voting power.\\n     * @param _blockNumber The block number at which to fetch.\\n     * @return The undelegated vote power of `_owner` (= owner's own balance minus all delegations from owner)\\n     */\\n    function undelegatedVotePowerOfAt(address _owner, uint256 _blockNumber) external view returns(uint256);\\n    \\n    /**\\n    * @notice Get the vote power delegation `delegationAddresses` \\n    *  and `_bips` of `_who`. Returned in two separate positional arrays.\\n    * @param _who The address to get delegations.\\n    * @return _delegateAddresses Positional array of delegation addresses.\\n    * @return _bips Positional array of delegation percents specified in basis points (1/100 or 1 percent)\\n    * @return _count The number of delegates.\\n    * @return _delegationMode The mode of the delegation (NOTSET=0, PERCENTAGE=1, AMOUNT=2).\\n    */\\n    function delegatesOf(address _who)\\n        external view \\n        returns (\\n            address[] memory _delegateAddresses,\\n            uint256[] memory _bips,\\n            uint256 _count, \\n            uint256 _delegationMode\\n        );\\n        \\n    /**\\n    * @notice Get the vote power delegation `delegationAddresses` \\n    *  and `pcts` of `_who`. Returned in two separate positional arrays.\\n    * @param _who The address to get delegations.\\n    * @param _blockNumber The block for which we want to know the delegations.\\n    * @return _delegateAddresses Positional array of delegation addresses.\\n    * @return _bips Positional array of delegation percents specified in basis points (1/100 or 1 percent)\\n    * @return _count The number of delegates.\\n    * @return _delegationMode The mode of the delegation (NOTSET=0, PERCENTAGE=1, AMOUNT=2).\\n    */\\n    function delegatesOfAt(address _who, uint256 _blockNumber)\\n        external view \\n        returns (\\n            address[] memory _delegateAddresses, \\n            uint256[] memory _bips, \\n            uint256 _count, \\n            uint256 _delegationMode\\n        );\\n\\n    /**\\n     * Returns VPContract used for readonly operations (view methods).\\n     * The only non-view method that might be called on it is `revokeDelegationAt`.\\n     *\\n     * @notice `readVotePowerContract` is almost always equal to `writeVotePowerContract`\\n     * except during upgrade from one VPContract to a new version (which should happen\\n     * rarely or never and will be anounced before).\\n     *\\n     * @notice You shouldn't call any methods on VPContract directly, all are exposed\\n     * via VPToken (and state changing methods are forbidden from direct calls). \\n     * This is the reason why this method returns `IVPContractEvents` - it should only be used\\n     * for listening to events (`Revoke` only).\\n     */\\n    function readVotePowerContract() external view returns (IVPContractEvents);\\n\\n    /**\\n     * Returns VPContract used for state changing operations (non-view methods).\\n     * The only non-view method that might be called on it is `revokeDelegationAt`.\\n     *\\n     * @notice `writeVotePowerContract` is almost always equal to `readVotePowerContract`\\n     * except during upgrade from one VPContract to a new version (which should happen\\n     * rarely or never and will be anounced before). In the case of upgrade,\\n     * `writeVotePowerContract` will be replaced first to establish delegations, and\\n     * after some perio (e.g. after a reward epoch ends) `readVotePowerContract` will be set equal to it.\\n     *\\n     * @notice You shouldn't call any methods on VPContract directly, all are exposed\\n     * via VPToken (and state changing methods are forbidden from direct calls). \\n     * This is the reason why this method returns `IVPContractEvents` - it should only be used\\n     * for listening to events (`Delegate` and `Revoke` only).\\n     */\\n    function writeVotePowerContract() external view returns (IVPContractEvents);\\n    \\n    /**\\n     * When set, allows token owners to participate in governance voting\\n     * and delegate governance vote power.\\n     */\\n    function governanceVotePower() external view returns (IGovernanceVotePower);\\n}\\n\"},\"@flarenetwork/flare-periphery-contracts/flare/util-contracts/token/userInterfaces/IVPContractEvents.sol\":{\"content\":\"// SPDX-License-Identifier: MIT\\npragma solidity >=0.7.6 <0.9;\\n\\ninterface IVPContractEvents {\\n    /**\\n     * Event triggered when an account delegates or undelegates another account. \\n     * Definition: `votePowerFromTo(from, to)` is `changed` from `priorVotePower` to `newVotePower`.\\n     * For undelegation, `newVotePower` is 0.\\n     *\\n     * Note: the event is always emitted from VPToken's `writeVotePowerContract`.\\n     */\\n    event Delegate(address indexed from, address indexed to, uint256 priorVotePower, uint256 newVotePower);\\n    \\n    /**\\n     * Event triggered only when account `delegator` revokes delegation to `delegatee`\\n     * for a single block in the past (typically the current vote block).\\n     *\\n     * Note: the event is always emitted from VPToken's `writeVotePowerContract` and/or `readVotePowerContract`.\\n     */\\n    event Revoke(address indexed delegator, address indexed delegatee, uint256 votePower, uint256 blockNumber);\\n}\\n\"},\"@flarenetwork/flare-periphery-contracts/flare/util-contracts/infrastructure/userInterfaces/IPChainStakeMirror.sol\":{\"content\":\"// SPDX-License-Identifier: MIT\\npragma solidity >=0.7.6 <0.9;\\npragma abicoder v2;\\n\\nimport \\\"./IPChainVotePower.sol\\\";\\nimport \\\"./IPChainStakeMirrorVerifier.sol\\\";\\n\\n\\n/**\\n * Interface for the `PChainStakeMirror` contract.\\n */\\ninterface IPChainStakeMirror is IPChainVotePower {\\n\\n    /**\\n     * Event emitted when max updates per block is set.\\n     * @param maxUpdatesPerBlock new number of max updated per block\\n     */\\n    event MaxUpdatesPerBlockSet(uint256 maxUpdatesPerBlock);\\n\\n    /**\\n     * Event emitted when the stake is confirmed.\\n     * @param owner The address who opened the stake.\\n     * @param nodeId Node id to which the stake was added.\\n     * @param txHash Unique tx hash - keccak256(abi.encode(PChainStake.txId, PChainStake.inputAddress));\\n     * @param amountWei Stake amount (in wei).\\n     * @param pChainTxId P-chain transaction id.\\n     */\\n    event StakeConfirmed(\\n        address indexed owner,\\n        bytes20 indexed nodeId,\\n        bytes32 indexed txHash,\\n        uint256 amountWei,\\n        bytes32 pChainTxId\\n    );\\n\\n    /**\\n     * Event emitted when the stake has ended.\\n     * @param owner The address whose stake has ended.\\n     * @param nodeId Node id from which the stake was removed.\\n     * @param txHash Unique tx hash - keccak256(abi.encode(PChainStake.txId, PChainStake.inputAddress));\\n     * @param amountWei Stake amount (in wei).\\n     */\\n    event StakeEnded(\\n        address indexed owner,\\n        bytes20 indexed nodeId,\\n        bytes32 indexed txHash,\\n        uint256 amountWei\\n    );\\n\\n    /**\\n     * Event emitted when the stake was revoked.\\n     * @param owner The address whose stake has ended.\\n     * @param nodeId Node id from which the stake was removed.\\n     * @param txHash Unique tx hash - keccak256(abi.encode(PChainStake.txId, PChainStake.inputAddress));\\n     * @param amountWei Stake amount (in wei).\\n     */\\n    event StakeRevoked(\\n        address indexed owner,\\n        bytes20 indexed nodeId,\\n        bytes32 indexed txHash,\\n        uint256 amountWei\\n    );\\n\\n    /**\\n     * Method for P-chain stake mirroring using `PChainStake` data and Merkle proof.\\n     * @param _stakeData Information about P-chain stake.\\n     * @param _merkleProof Merkle proof that should be used to prove the P-chain stake.\\n     */\\n    function mirrorStake(\\n        IPChainStakeMirrorVerifier.PChainStake calldata _stakeData,\\n        bytes32[] calldata _merkleProof\\n    )\\n        external;\\n\\n    /**\\n     * Method for checking if active stake (stake start time <= block.timestamp < stake end time) was already mirrored.\\n     * @param _txId P-chain stake transaction id.\\n     * @param _inputAddress P-chain address that opened stake.\\n     * @return True if stake is active and mirrored.\\n     */\\n    function isActiveStakeMirrored(bytes32 _txId, bytes20 _inputAddress) external view returns(bool);\\n\\n    /**\\n     * Total amount of tokens at current block.\\n     * @return The current total amount of tokens.\\n     **/\\n    function totalSupply() external view returns (uint256);\\n\\n    /**\\n     * Total amount of tokens at a specific `_blockNumber`.\\n     * @param _blockNumber The block number when the totalSupply is queried.\\n     * @return The total amount of tokens at `_blockNumber`.\\n     **/\\n    function totalSupplyAt(uint _blockNumber) external view returns(uint256);\\n\\n    /**\\n     * Queries the token balance of `_owner` at current block.\\n     * @param _owner The address from which the balance will be retrieved.\\n     * @return The current balance.\\n     **/\\n    function balanceOf(address _owner) external view returns (uint256);\\n\\n    /**\\n     * Queries the token balance of `_owner` at a specific `_blockNumber`.\\n     * @param _owner The address from which the balance will be retrieved.\\n     * @param _blockNumber The block number when the balance is queried.\\n     * @return The balance at `_blockNumber`.\\n     **/\\n    function balanceOfAt(address _owner, uint _blockNumber) external view returns (uint256);\\n}\\n\"},\"@flarenetwork/flare-periphery-contracts/flare/util-contracts/infrastructure/userInterfaces/IPChainStakeMirrorVerifier.sol\":{\"content\":\"// SPDX-License-Identifier: MIT\\npragma solidity >=0.7.6 <0.9;\\npragma abicoder v2;\\n\\n/**\\n * Interface with structure for P-chain stake mirror verifications.\\n */\\ninterface IPChainStakeMirrorVerifier {\\n\\n    /**\\n     * Structure describing the P-chain stake.\\n     */\\n    struct PChainStake {\\n        // Hash of the transaction on the underlying chain.\\n        bytes32 txId;\\n        // Type of the staking/delegation transaction: '0' for 'ADD_VALIDATOR_TX' and '1' for 'ADD_DELEGATOR_TX'.\\n        uint8 stakingType;\\n        // Input address that triggered the staking or delegation transaction.\\n        // See https://support.avax.network/en/articles/4596397-what-is-an-address for address definition for P-chain.\\n        bytes20 inputAddress;\\n        // NodeID to which staking or delegation is done.\\n        // For definitions, see https://github.com/ava-labs/avalanchego/blob/master/ids/node_id.go.\\n        bytes20 nodeId;\\n        // Start time of the staking/delegation in seconds (Unix epoch).\\n        uint64 startTime;\\n        // End time of the staking/delegation in seconds (Unix epoch).\\n        uint64 endTime;\\n        // Staked or delegated amount in Gwei (nano FLR).\\n        uint64 weight;\\n    }\\n}\\n\"},\"@flarenetwork/flare-periphery-contracts/flare/util-contracts/infrastructure/userInterfaces/IPChainVotePower.sol\":{\"content\":\"// SPDX-License-Identifier: MIT\\npragma solidity >=0.7.6 <0.9;\\n\\n/**\\n * Interface for the vote power part of the `PChainStakeMirror` contract.\\n */\\ninterface IPChainVotePower {\\n\\n    /**\\n     * Event triggered when a stake is confirmed or at the time it ends.\\n     * Definition: `votePowerFromTo(owner, nodeId)` is `changed` from `priorVotePower` to `newVotePower`.\\n     * @param owner The account that has changed the amount of vote power it is staking.\\n     * @param nodeId The node id whose received vote power has changed.\\n     * @param priorVotePower The vote power originally on that node id.\\n     * @param newVotePower The new vote power that triggered this event.\\n     */\\n    event VotePowerChanged(\\n        address indexed owner,\\n        bytes20 indexed nodeId,\\n        uint256 priorVotePower,\\n        uint256 newVotePower\\n    );\\n\\n    /**\\n     * Emitted when a vote power cache entry is created.\\n     * Allows history cleaners to track vote power cache cleanup opportunities off-chain.\\n     * @param nodeId The node id whose vote power has just been cached.\\n     * @param blockNumber The block number at which the vote power has been cached.\\n     */\\n    event VotePowerCacheCreated(bytes20 nodeId, uint256 blockNumber);\\n\\n    /**\\n    * Get the vote power of `_owner` at block `_blockNumber` using cache.\\n    *   It tries to read the cached value and if not found, reads the actual value and stores it in cache.\\n    *   Can only be used if _blockNumber is in the past, otherwise reverts.\\n    * @param _owner The node id to get voting power.\\n    * @param _blockNumber The block number at which to fetch.\\n    * @return Vote power of `_owner` at `_blockNumber`.\\n    */\\n    function votePowerOfAtCached(bytes20 _owner, uint256 _blockNumber) external returns(uint256);\\n\\n    /**\\n    * Get the total vote power at block `_blockNumber` using cache.\\n    *   It tries to read the cached value and if not found, reads the actual value and stores it in cache.\\n    *   Can only be used if `_blockNumber` is in the past, otherwise reverts.\\n    * @param _blockNumber The block number at which to fetch.\\n    * @return The total vote power at the block (sum of all accounts' vote powers).\\n    */\\n    function totalVotePowerAtCached(uint256 _blockNumber) external returns(uint256);\\n\\n    /**\\n     * Get the current total vote power.\\n     * @return The current total vote power (sum of all accounts' vote powers).\\n     */\\n    function totalVotePower() external view returns(uint256);\\n\\n    /**\\n    * Get the total vote power at block `_blockNumber`\\n    * @param _blockNumber The block number at which to fetch.\\n    * @return The total vote power at the block  (sum of all accounts' vote powers).\\n    */\\n    function totalVotePowerAt(uint _blockNumber) external view returns(uint256);\\n\\n    /**\\n     * Get the amounts and node ids being staked to by a vote power owner.\\n     * @param _owner The address being queried.\\n     * @return _nodeIds Array of node ids.\\n     * @return _amounts Array of staked amounts, for each node id.\\n     */\\n    function stakesOf(address _owner)\\n        external view\\n        returns (\\n            bytes20[] memory _nodeIds,\\n            uint256[] memory _amounts\\n        );\\n\\n    /**\\n     * Get the amounts and node ids being staked to by a vote power owner,\\n     * at a given block.\\n     * @param _owner The address being queried.\\n     * @param _blockNumber The block number being queried.\\n     * @return _nodeIds Array of node ids.\\n     * @return _amounts Array of staked amounts, for each node id.\\n     */\\n    function stakesOfAt(\\n        address _owner,\\n        uint256 _blockNumber\\n    )\\n        external view\\n        returns (\\n            bytes20[] memory _nodeIds,\\n            uint256[] memory _amounts\\n        );\\n\\n    /**\\n     * Get the current vote power of `_nodeId`.\\n     * @param _nodeId The node id to get voting power.\\n     * @return Current vote power of `_nodeId`.\\n     */\\n    function votePowerOf(bytes20 _nodeId) external view returns(uint256);\\n\\n    /**\\n    * Get the vote power of `_nodeId` at block `_blockNumber`\\n    * @param _nodeId The node id to get voting power.\\n    * @param _blockNumber The block number at which to fetch.\\n    * @return Vote power of `_nodeId` at `_blockNumber`.\\n    */\\n    function votePowerOfAt(bytes20 _nodeId, uint256 _blockNumber) external view returns(uint256);\\n\\n    /**\\n    * Get current staked vote power from `_owner` staked to `_nodeId`.\\n    * @param _owner Address of vote power owner.\\n    * @param _nodeId Node id.\\n    * @return The staked vote power.\\n    */\\n    function votePowerFromTo(address _owner, bytes20 _nodeId) external view returns(uint256);\\n\\n    /**\\n    * Get current staked vote power from `_owner` staked to `_nodeId` at `_blockNumber`.\\n    * @param _owner Address of vote power owner.\\n    * @param _nodeId Node id.\\n    * @param _blockNumber The block number at which to fetch.\\n    * @return The staked vote power.\\n    */\\n    function votePowerFromToAt(address _owner, bytes20 _nodeId, uint _blockNumber) external view returns(uint256);\\n\\n    /**\\n     * Return vote powers for several node ids in a batch.\\n     * @param _nodeIds The list of node ids to fetch vote power of.\\n     * @param _blockNumber The block number at which to fetch.\\n     * @return A list of vote powers.\\n     */\\n    function batchVotePowerOfAt(\\n        bytes20[] memory _nodeIds,\\n        uint256 _blockNumber\\n    ) external view returns(uint256[] memory);\\n}\\n\"}},\"settings\":{\"optimizer\":{\"enabled\":false,\"runs\":200},\"outputSelection\":{\"*\":{\"\":[\"ast\"],\"*\":[\"abi\",\"metadata\",\"devdoc\",\"userdoc\",\"storageLayout\",\"evm.legacyAssembly\",\"evm.bytecode\",\"evm.deployedBytecode\",\"evm.methodIdentifiers\",\"evm.gasEstimates\",\"evm.assembly\"]}},\"remappings\":[],\"evmVersion\":\"london\"}}",
	"name": "SimplePool",
	"bytecode": {
		"linkReferences": {},
		"object": "60806040526050600560006101000a81548160ff021916908360ff1602179055503480156200002d57600080fd5b50604051620015ea380380620015ea833981810160405281019062000053919062000254565b81600260006101000a81548173ffffffffffffffffffffffffffffffffffffffff021916908373ffffffffffffffffffffffffffffffffffffffff16021790555080600360006101000a81548173ffffffffffffffffffffffffffffffffffffffff021916908373ffffffffffffffffffffffffffffffffffffffff160217905550836000806101000a81548173ffffffffffffffffffffffffffffffffffffffff021916908373ffffffffffffffffffffffffffffffffffffffff16021790555082600160006101000a81548173ffffffffffffffffffffffffffffffffffffffff021916908373ffffffffffffffffffffffffffffffffffffffff16021790555050505050620002c6565b600080fd5b600073ffffffffffffffffffffffffffffffffffffffff82169050919050565b6000620001928262000165565b9050919050565b6000620001a68262000185565b9050919050565b620001b88162000199565b8114620001c457600080fd5b50565b600081519050620001d881620001ad565b92915050565b6000620001eb8262000185565b9050919050565b620001fd81620001de565b81146200020957600080fd5b50565b6000815190506200021d81620001f2565b92915050565b6200022e8162000185565b81146200023a57600080fd5b50565b6000815190506200024e8162000223565b92915050565b6000806000806080858703121562000271576200027062000160565b5b60006200028187828801620001c7565b945050602062000294878288016200020c565b9350506040620002a7878288016200023d565b9250506060620002ba878288016200023d565b91505092959194509250565b61131480620002d66000396000f3fe608060405234801561001057600080fd5b506004361061009e5760003560e01c80639a78e72e116100665780639a78e72e146101495780639b45293114610179578063c9a396e914610197578063cbddb785146101c7578063d4d40086146101f75761009e565b80631bf01e9b146100a35780633b2e5f94146100c15780633e413bee146100f15780634b8a35291461010f5780637c1f85601461012b575b600080fd5b6100ab610215565b6040516100b89190610ca3565b60405180910390f35b6100db60048036038101906100d69190610cef565b61023f565b6040516100e89190610d35565b60405180910390f35b6100f96103a6565b6040516101069190610ca3565b60405180910390f35b61012960048036038101906101249190610d7c565b6103cc565b005b610133610689565b6040516101409190610e7a565b60405180910390f35b610163600480360381019061015e9190610cef565b610856565b6040516101709190610d35565b60405180910390f35b61018161093f565b60405161018e9190610ca3565b60405180910390f35b6101b160048036038101906101ac9190610cef565b610965565b6040516101be9190610ca3565b60405180910390f35b6101e160048036038101906101dc9190610cef565b610a69565b6040516101ee9190610e7a565b60405180910390f35b6101ff610c38565b60405161020c9190610ca3565b60405180910390f35b6000600360009054906101000a900473ffffffffffffffffffffffffffffffffffffffff16905090565b60008060008060008054906101000a900473ffffffffffffffffffffffffffffffffffffffff1673ffffffffffffffffffffffffffffffffffffffff1663e54f08806040518163ffffffff1660e01b8152600401606060405180830381865afa1580156102b0573d6000803e3d6000fd5b505050506040513d601f19601f820116820180604052508101906102d49190610eb1565b925092509250600081600a6102e99190611066565b8460008054906101000a900473ffffffffffffffffffffffffffffffffffffffff1673ffffffffffffffffffffffffffffffffffffffff1663ac75409a896040518263ffffffff1660e01b81526004016103439190610ca3565b602060405180830381865afa158015610360573d6000803e3d6000fd5b505050506040513d601f19601f8201168201806040525081019061038491906110b1565b61038e91906110de565b610398919061114f565b905080945050505050919050565b600360009054906101000a900473ffffffffffffffffffffffffffffffffffffffff1681565b600360009054906101000a900473ffffffffffffffffffffffffffffffffffffffff1673ffffffffffffffffffffffffffffffffffffffff168273ffffffffffffffffffffffffffffffffffffffff161461042657600080fd5b60003073ffffffffffffffffffffffffffffffffffffffff16633b2e5f94336040518263ffffffff1660e01b81526004016104619190610ca3565b602060405180830381865afa15801561047e573d6000803e3d6000fd5b505050506040513d601f19601f820116820180604052508101906104a291906110b1565b905060006064600560009054906101000a900460ff1660ff16836104c691906110de565b6104d0919061114f565b905060003073ffffffffffffffffffffffffffffffffffffffff16639a78e72e336040518263ffffffff1660e01b815260040161050d9190610ca3565b602060405180830381865afa15801561052a573d6000803e3d6000fd5b505050506040513d601f19601f8201168201806040525081019061054e91906110b1565b905081848261055d9190611180565b1061059d576040517f08c379a000000000000000000000000000000000000000000000000000000000815260040161059490611237565b60405180910390fd5b83600460003373ffffffffffffffffffffffffffffffffffffffff1673ffffffffffffffffffffffffffffffffffffffff16815260200190815260200160002060008282546105ec9190611180565b92505081905550600160009054906101000a900473ffffffffffffffffffffffffffffffffffffffff1673ffffffffffffffffffffffffffffffffffffffff1663683ae08333866040518363ffffffff1660e01b8152600401610650929190611257565b600060405180830381600087803b15801561066a57600080fd5b505af115801561067e573d6000803e3d6000fd5b505050505050505050565b606060008060008060009054906101000a900473ffffffffffffffffffffffffffffffffffffffff1673ffffffffffffffffffffffffffffffffffffffff1663e54f08806040518163ffffffff1660e01b8152600401606060405180830381865afa1580156106fc573d6000803e3d6000fd5b505050506040513d601f19601f820116820180604052508101906107209190610eb1565b9250925092506000600160009054906101000a900473ffffffffffffffffffffffffffffffffffffffff1673ffffffffffffffffffffffffffffffffffffffff1663e54f08806040518163ffffffff1660e01b8152600401602060405180830381865afa158015610795573d6000803e3d6000fd5b505050506040513d601f19601f820116820180604052508101906107b991906110b1565b90506000600267ffffffffffffffff8111156107d8576107d7611280565b5b6040519080825280602002602001820160405280156108065781602001602082028036833780820191505090505b509050848160008151811061081e5761081d6112af565b5b602002602001018181525050818160018151811061083f5761083e6112af565b5b602002602001018181525050809550505050505090565b600080600160009054906101000a900473ffffffffffffffffffffffffffffffffffffffff1673ffffffffffffffffffffffffffffffffffffffff1663e54f08806040518163ffffffff1660e01b8152600401602060405180830381865afa1580156108c6573d6000803e3d6000fd5b505050506040513d601f19601f820116820180604052508101906108ea91906110b1565b600460008573ffffffffffffffffffffffffffffffffffffffff1673ffffffffffffffffffffffffffffffffffffffff1681526020019081526020016000205461093491906110de565b905080915050919050565b600260009054906101000a900473ffffffffffffffffffffffffffffffffffffffff1681565b6000600260009054906101000a900473ffffffffffffffffffffffffffffffffffffffff1673ffffffffffffffffffffffffffffffffffffffff168273ffffffffffffffffffffffffffffffffffffffff16036109e45760008054906101000a900473ffffffffffffffffffffffffffffffffffffffff169050610a64565b600360009054906101000a900473ffffffffffffffffffffffffffffffffffffffff1673ffffffffffffffffffffffffffffffffffffffff168273ffffffffffffffffffffffffffffffffffffffff1603610a6357600160009054906101000a900473ffffffffffffffffffffffffffffffffffffffff169050610a64565b5b919050565b60606000600267ffffffffffffffff811115610a8857610a87611280565b5b604051908082528060200260200182016040528015610ab65781602001602082028036833780820191505090505b50905060008054906101000a900473ffffffffffffffffffffffffffffffffffffffff1673ffffffffffffffffffffffffffffffffffffffff1663ac75409a846040518263ffffffff1660e01b8152600401610b129190610ca3565b602060405180830381865afa158015610b2f573d6000803e3d6000fd5b505050506040513d601f19601f82011682018060405250810190610b5391906110b1565b81600081518110610b6757610b666112af565b5b602002602001018181525050600160009054906101000a900473ffffffffffffffffffffffffffffffffffffffff1673ffffffffffffffffffffffffffffffffffffffff1663ac75409a846040518263ffffffff1660e01b8152600401610bce9190610ca3565b602060405180830381865afa158015610beb573d6000803e3d6000fd5b505050506040513d601f19601f82011682018060405250810190610c0f91906110b1565b81600181518110610c2357610c226112af565b5b60200260200101818152505080915050919050565b6000600260009054906101000a900473ffffffffffffffffffffffffffffffffffffffff16905090565b600073ffffffffffffffffffffffffffffffffffffffff82169050919050565b6000610c8d82610c62565b9050919050565b610c9d81610c82565b82525050565b6000602082019050610cb86000830184610c94565b92915050565b600080fd5b610ccc81610c82565b8114610cd757600080fd5b50565b600081359050610ce981610cc3565b92915050565b600060208284031215610d0557610d04610cbe565b5b6000610d1384828501610cda565b91505092915050565b6000819050919050565b610d2f81610d1c565b82525050565b6000602082019050610d4a6000830184610d26565b92915050565b610d5981610d1c565b8114610d6457600080fd5b50565b600081359050610d7681610d50565b92915050565b60008060408385031215610d9357610d92610cbe565b5b6000610da185828601610cda565b9250506020610db285828601610d67565b9150509250929050565b600081519050919050565b600082825260208201905092915050565b6000819050602082019050919050565b610df181610d1c565b82525050565b6000610e038383610de8565b60208301905092915050565b6000602082019050919050565b6000610e2782610dbc565b610e318185610dc7565b9350610e3c83610dd8565b8060005b83811015610e6d578151610e548882610df7565b9750610e5f83610e0f565b925050600181019050610e40565b5085935050505092915050565b60006020820190508181036000830152610e948184610e1c565b905092915050565b600081519050610eab81610d50565b92915050565b600080600060608486031215610eca57610ec9610cbe565b5b6000610ed886828701610e9c565b9350506020610ee986828701610e9c565b9250506040610efa86828701610e9c565b9150509250925092565b7f4e487b7100000000000000000000000000000000000000000000000000000000600052601160045260246000fd5b60008160011c9050919050565b6000808291508390505b6001851115610f8a57808604811115610f6657610f65610f04565b5b6001851615610f755780820291505b8081029050610f8385610f33565b9450610f4a565b94509492505050565b600082610fa3576001905061105f565b81610fb1576000905061105f565b8160018114610fc75760028114610fd157611000565b600191505061105f565b60ff841115610fe357610fe2610f04565b5b8360020a915084821115610ffa57610ff9610f04565b5b5061105f565b5060208310610133831016604e8410600b84101617156110355782820a9050838111156110305761102f610f04565b5b61105f565b6110428484846001610f40565b9250905081840481111561105957611058610f04565b5b81810290505b9392505050565b600061107182610d1c565b915061107c83610d1c565b92506110a97fffffffffffffffffffffffffffffffffffffffffffffffffffffffffffffffff8484610f93565b905092915050565b6000602082840312156110c7576110c6610cbe565b5b60006110d584828501610e9c565b91505092915050565b60006110e982610d1c565b91506110f483610d1c565b925082820261110281610d1c565b9150828204841483151761111957611118610f04565b5b5092915050565b7f4e487b7100000000000000000000000000000000000000000000000000000000600052601260045260246000fd5b600061115a82610d1c565b915061116583610d1c565b92508261117557611174611120565b5b828204905092915050565b600061118b82610d1c565b915061119683610d1c565b92508282019050808211156111ae576111ad610f04565b5b92915050565b600082825260208201905092915050565b7f596f752077616e7420746f206d6f7265206d6f72652076616c7565207468616e60008201527f20616c6c6f776564000000000000000000000000000000000000000000000000602082015250565b60006112216028836111b4565b915061122c826111c5565b604082019050919050565b6000602082019050818103600083015261125081611214565b9050919050565b600060408201905061126c6000830185610c94565b6112796020830184610d26565b9392505050565b7f4e487b7100000000000000000000000000000000000000000000000000000000600052604160045260246000fd5b7f4e487b7100000000000000000000000000000000000000000000000000000000600052603260045260246000fdfea2646970667358221220adf108b572513d6306e4cb6f0af3613af5f53e6a8bfab60ed1ac42ed90af69f864736f6c63430008180033",
		"opcodes": "PUSH1 0x80 PUSH1 0x40 MSTORE PUSH1 0x50 PUSH1 0x5 PUSH1 0x0 PUSH2 0x100 EXP DUP2 SLOAD DUP2 PUSH1 0xFF MUL NOT AND SWAP1 DUP4 PUSH1 0xFF AND MUL OR SWAP1 SSTORE POP CALLVALUE DUP1 ISZERO PUSH3 0x2D JUMPI PUSH1 0x0 DUP1 REVERT JUMPDEST POP PUSH1 0x40 MLOAD PUSH3 0x15EA CODESIZE SUB DUP1 PUSH3 0x15EA DUP4 CODECOPY DUP2 DUP2 ADD PUSH1 0x40 MSTORE DUP2 ADD SWAP1 PUSH3 0x53 SWAP2 SWAP1 PUSH3 0x254 JUMP JUMPDEST DUP2 PUSH1 0x2 PUSH1 0x0 PUSH2 0x100 EXP DUP2 SLOAD DUP2 PUSH20 0xFFFFFFFFFFFFFFFFFFFFFFFFFFFFFFFFFFFFFFFF MUL NOT AND SWAP1 DUP4 PUSH20 0xFFFFFFFFFFFFFFFFFFFFFFFFFFFFFFFFFFFFFFFF AND MUL OR SWAP1 SSTORE POP DUP1 PUSH1 0x3 PUSH1 0x0 PUSH2 0x100 EXP DUP2 SLOAD DUP2 PUSH20 0xFFFFFFFFFFFFFFFFFFFFFFFFFFFFFFFFFFFFFFFF MUL NOT AND SWAP1 DUP4 PUSH20 0xFFFFFFFFFFFFFFFFFFFFFFFFFFFFFFFFFFFFFFFF AND MUL OR SWAP1 SSTORE POP DUP4 PUSH1 0x0 DUP1 PUSH2 0x100 EXP DUP2 SLOAD DUP2 PUSH20 0xFFFFFFFFFFFFFFFFFFFFFFFFFFFFFFFFFFFFFFFF MUL NOT AND SWAP1 DUP4 PUSH20 0xFFFFFFFFFFFFFFFFFFFFFFFFFFFFFFFFFFFFFFFF AND MUL OR SWAP1 SSTORE POP DUP3 PUSH1 0x1 PUSH1 0x0 PUSH2 0x100 EXP DUP2 SLOAD DUP2 PUSH20 0xFFFFFFFFFFFFFFFFFFFFFFFFFFFFFFFFFFFFFFFF MUL NOT AND SWAP1 DUP4 PUSH20 0xFFFFFFFFFFFFFFFFFFFFFFFFFFFFFFFFFFFFFFFF AND MUL OR SWAP1 SSTORE POP POP POP POP POP PUSH3 0x2C6 JUMP JUMPDEST PUSH1 0x0 DUP1 REVERT JUMPDEST PUSH1 0x0 PUSH20 0xFFFFFFFFFFFFFFFFFFFFFFFFFFFFFFFFFFFFFFFF DUP3 AND SWAP1 POP SWAP2 SWAP1 POP JUMP JUMPDEST PUSH1 0x0 PUSH3 0x192 DUP3 PUSH3 0x165 JUMP JUMPDEST SWAP1 POP SWAP2 SWAP1 POP JUMP JUMPDEST PUSH1 0x0 PUSH3 0x1A6 DUP3 PUSH3 0x185 JUMP JUMPDEST SWAP1 POP SWAP2 SWAP1 POP JUMP JUMPDEST PUSH3 0x1B8 DUP2 PUSH3 0x199 JUMP JUMPDEST DUP2 EQ PUSH3 0x1C4 JUMPI PUSH1 0x0 DUP1 REVERT JUMPDEST POP JUMP JUMPDEST PUSH1 0x0 DUP2 MLOAD SWAP1 POP PUSH3 0x1D8 DUP2 PUSH3 0x1AD JUMP JUMPDEST SWAP3 SWAP2 POP POP JUMP JUMPDEST PUSH1 0x0 PUSH3 0x1EB DUP3 PUSH3 0x185 JUMP JUMPDEST SWAP1 POP SWAP2 SWAP1 POP JUMP JUMPDEST PUSH3 0x1FD DUP2 PUSH3 0x1DE JUMP JUMPDEST DUP2 EQ PUSH3 0x209 JUMPI PUSH1 0x0 DUP1 REVERT JUMPDEST POP JUMP JUMPDEST PUSH1 0x0 DUP2 MLOAD SWAP1 POP PUSH3 0x21D DUP2 PUSH3 0x1F2 JUMP JUMPDEST SWAP3 SWAP2 POP POP JUMP JUMPDEST PUSH3 0x22E DUP2 PUSH3 0x185 JUMP JUMPDEST DUP2 EQ PUSH3 0x23A JUMPI PUSH1 0x0 DUP1 REVERT JUMPDEST POP JUMP JUMPDEST PUSH1 0x0 DUP2 MLOAD SWAP1 POP PUSH3 0x24E DUP2 PUSH3 0x223 JUMP JUMPDEST SWAP3 SWAP2 POP POP JUMP JUMPDEST PUSH1 0x0 DUP1 PUSH1 0x0 DUP1 PUSH1 0x80 DUP6 DUP8 SUB SLT ISZERO PUSH3 0x271 JUMPI PUSH3 0x270 PUSH3 0x160 JUMP JUMPDEST JUMPDEST PUSH1 0x0 PUSH3 0x281 DUP8 DUP3 DUP9 ADD PUSH3 0x1C7 JUMP JUMPDEST SWAP5 POP POP PUSH1 0x20 PUSH3 0x294 DUP8 DUP3 DUP9 ADD PUSH3 0x20C JUMP JUMPDEST SWAP4 POP POP PUSH1 0x40 PUSH3 0x2A7 DUP8 DUP3 DUP9 ADD PUSH3 0x23D JUMP JUMPDEST SWAP3 POP POP PUSH1 0x60 PUSH3 0x2BA DUP8 DUP3 DUP9 ADD PUSH3 0x23D JUMP JUMPDEST SWAP2 POP POP SWAP3 SWAP6 SWAP2 SWAP5 POP SWAP3 POP JUMP JUMPDEST PUSH2 0x1314 DUP1 PUSH3 0x2D6 PUSH1 0x0 CODECOPY PUSH1 0x0 RETURN INVALID PUSH1 0x80 PUSH1 0x40 MSTORE CALLVALUE DUP1 ISZERO PUSH2 0x10 JUMPI PUSH1 0x0 DUP1 REVERT JUMPDEST POP PUSH1 0x4 CALLDATASIZE LT PUSH2 0x9E JUMPI PUSH1 0x0 CALLDATALOAD PUSH1 0xE0 SHR DUP1 PUSH4 0x9A78E72E GT PUSH2 0x66 JUMPI DUP1 PUSH4 0x9A78E72E EQ PUSH2 0x149 JUMPI DUP1 PUSH4 0x9B452931 EQ PUSH2 0x179 JUMPI DUP1 PUSH4 0xC9A396E9 EQ PUSH2 0x197 JUMPI DUP1 PUSH4 0xCBDDB785 EQ PUSH2 0x1C7 JUMPI DUP1 PUSH4 0xD4D40086 EQ PUSH2 0x1F7 JUMPI PUSH2 0x9E JUMP JUMPDEST DUP1 PUSH4 0x1BF01E9B EQ PUSH2 0xA3 JUMPI DUP1 PUSH4 0x3B2E5F94 EQ PUSH2 0xC1 JUMPI DUP1 PUSH4 0x3E413BEE EQ PUSH2 0xF1 JUMPI DUP1 PUSH4 0x4B8A3529 EQ PUSH2 0x10F JUMPI DUP1 PUSH4 0x7C1F8560 EQ PUSH2 0x12B JUMPI JUMPDEST PUSH1 0x0 DUP1 REVERT JUMPDEST PUSH2 0xAB PUSH2 0x215 JUMP JUMPDEST PUSH1 0x40 MLOAD PUSH2 0xB8 SWAP2 SWAP1 PUSH2 0xCA3 JUMP JUMPDEST PUSH1 0x40 MLOAD DUP1 SWAP2 SUB SWAP1 RETURN JUMPDEST PUSH2 0xDB PUSH1 0x4 DUP1 CALLDATASIZE SUB DUP2 ADD SWAP1 PUSH2 0xD6 SWAP2 SWAP1 PUSH2 0xCEF JUMP JUMPDEST PUSH2 0x23F JUMP JUMPDEST PUSH1 0x40 MLOAD PUSH2 0xE8 SWAP2 SWAP1 PUSH2 0xD35 JUMP JUMPDEST PUSH1 0x40 MLOAD DUP1 SWAP2 SUB SWAP1 RETURN JUMPDEST PUSH2 0xF9 PUSH2 0x3A6 JUMP JUMPDEST PUSH1 0x40 MLOAD PUSH2 0x106 SWAP2 SWAP1 PUSH2 0xCA3 JUMP JUMPDEST PUSH1 0x40 MLOAD DUP1 SWAP2 SUB SWAP1 RETURN JUMPDEST PUSH2 0x129 PUSH1 0x4 DUP1 CALLDATASIZE SUB DUP2 ADD SWAP1 PUSH2 0x124 SWAP2 SWAP1 PUSH2 0xD7C JUMP JUMPDEST PUSH2 0x3CC JUMP JUMPDEST STOP JUMPDEST PUSH2 0x133 PUSH2 0x689 JUMP JUMPDEST PUSH1 0x40 MLOAD PUSH2 0x140 SWAP2 SWAP1 PUSH2 0xE7A JUMP JUMPDEST PUSH1 0x40 MLOAD DUP1 SWAP2 SUB SWAP1 RETURN JUMPDEST PUSH2 0x163 PUSH1 0x4 DUP1 CALLDATASIZE SUB DUP2 ADD SWAP1 PUSH2 0x15E SWAP2 SWAP1 PUSH2 0xCEF JUMP JUMPDEST PUSH2 0x856 JUMP JUMPDEST PUSH1 0x40 MLOAD PUSH2 0x170 SWAP2 SWAP1 PUSH2 0xD35 JUMP JUMPDEST PUSH1 0x40 MLOAD DUP1 SWAP2 SUB SWAP1 RETURN JUMPDEST PUSH2 0x181 PUSH2 0x93F JUMP JUMPDEST PUSH1 0x40 MLOAD PUSH2 0x18E SWAP2 SWAP1 PUSH2 0xCA3 JUMP JUMPDEST PUSH1 0x40 MLOAD DUP1 SWAP2 SUB SWAP1 RETURN JUMPDEST PUSH2 0x1B1 PUSH1 0x4 DUP1 CALLDATASIZE SUB DUP2 ADD SWAP1 PUSH2 0x1AC SWAP2 SWAP1 PUSH2 0xCEF JUMP JUMPDEST PUSH2 0x965 JUMP JUMPDEST PUSH1 0x40 MLOAD PUSH2 0x1BE SWAP2 SWAP1 PUSH2 0xCA3 JUMP JUMPDEST PUSH1 0x40 MLOAD DUP1 SWAP2 SUB SWAP1 RETURN JUMPDEST PUSH2 0x1E1 PUSH1 0x4 DUP1 CALLDATASIZE SUB DUP2 ADD SWAP1 PUSH2 0x1DC SWAP2 SWAP1 PUSH2 0xCEF JUMP JUMPDEST PUSH2 0xA69 JUMP JUMPDEST PUSH1 0x40 MLOAD PUSH2 0x1EE SWAP2 SWAP1 PUSH2 0xE7A JUMP JUMPDEST PUSH1 0x40 MLOAD DUP1 SWAP2 SUB SWAP1 RETURN JUMPDEST PUSH2 0x1FF PUSH2 0xC38 JUMP JUMPDEST PUSH1 0x40 MLOAD PUSH2 0x20C SWAP2 SWAP1 PUSH2 0xCA3 JUMP JUMPDEST PUSH1 0x40 MLOAD DUP1 SWAP2 SUB SWAP1 RETURN JUMPDEST PUSH1 0x0 PUSH1 0x3 PUSH1 0x0 SWAP1 SLOAD SWAP1 PUSH2 0x100 EXP SWAP1 DIV PUSH20 0xFFFFFFFFFFFFFFFFFFFFFFFFFFFFFFFFFFFFFFFF AND SWAP1 POP SWAP1 JUMP JUMPDEST PUSH1 0x0 DUP1 PUSH1 0x0 DUP1 PUSH1 0x0 DUP1 SLOAD SWAP1 PUSH2 0x100 EXP SWAP1 DIV PUSH20 0xFFFFFFFFFFFFFFFFFFFFFFFFFFFFFFFFFFFFFFFF AND PUSH20 0xFFFFFFFFFFFFFFFFFFFFFFFFFFFFFFFFFFFFFFFF AND PUSH4 0xE54F0880 PUSH1 0x40 MLOAD DUP2 PUSH4 0xFFFFFFFF AND PUSH1 0xE0 SHL DUP2 MSTORE PUSH1 0x4 ADD PUSH1 0x60 PUSH1 0x40 MLOAD DUP1 DUP4 SUB DUP2 DUP7 GAS STATICCALL ISZERO DUP1 ISZERO PUSH2 0x2B0 JUMPI RETURNDATASIZE PUSH1 0x0 DUP1 RETURNDATACOPY RETURNDATASIZE PUSH1 0x0 REVERT JUMPDEST POP POP POP POP PUSH1 0x40 MLOAD RETURNDATASIZE PUSH1 0x1F NOT PUSH1 0x1F DUP3 ADD AND DUP3 ADD DUP1 PUSH1 0x40 MSTORE POP DUP2 ADD SWAP1 PUSH2 0x2D4 SWAP2 SWAP1 PUSH2 0xEB1 JUMP JUMPDEST SWAP3 POP SWAP3 POP SWAP3 POP PUSH1 0x0 DUP2 PUSH1 0xA PUSH2 0x2E9 SWAP2 SWAP1 PUSH2 0x1066 JUMP JUMPDEST DUP5 PUSH1 0x0 DUP1 SLOAD SWAP1 PUSH2 0x100 EXP SWAP1 DIV PUSH20 0xFFFFFFFFFFFFFFFFFFFFFFFFFFFFFFFFFFFFFFFF AND PUSH20 0xFFFFFFFFFFFFFFFFFFFFFFFFFFFFFFFFFFFFFFFF AND PUSH4 0xAC75409A DUP10 PUSH1 0x40 MLOAD DUP3 PUSH4 0xFFFFFFFF AND PUSH1 0xE0 SHL DUP2 MSTORE PUSH1 0x4 ADD PUSH2 0x343 SWAP2 SWAP1 PUSH2 0xCA3 JUMP JUMPDEST PUSH1 0x20 PUSH1 0x40 MLOAD DUP1 DUP4 SUB DUP2 DUP7 GAS STATICCALL ISZERO DUP1 ISZERO PUSH2 0x360 JUMPI RETURNDATASIZE PUSH1 0x0 DUP1 RETURNDATACOPY RETURNDATASIZE PUSH1 0x0 REVERT JUMPDEST POP POP POP POP PUSH1 0x40 MLOAD RETURNDATASIZE PUSH1 0x1F NOT PUSH1 0x1F DUP3 ADD AND DUP3 ADD DUP1 PUSH1 0x40 MSTORE POP DUP2 ADD SWAP1 PUSH2 0x384 SWAP2 SWAP1 PUSH2 0x10B1 JUMP JUMPDEST PUSH2 0x38E SWAP2 SWAP1 PUSH2 0x10DE JUMP JUMPDEST PUSH2 0x398 SWAP2 SWAP1 PUSH2 0x114F JUMP JUMPDEST SWAP1 POP DUP1 SWAP5 POP POP POP POP POP SWAP2 SWAP1 POP JUMP JUMPDEST PUSH1 0x3 PUSH1 0x0 SWAP1 SLOAD SWAP1 PUSH2 0x100 EXP SWAP1 DIV PUSH20 0xFFFFFFFFFFFFFFFFFFFFFFFFFFFFFFFFFFFFFFFF AND DUP2 JUMP JUMPDEST PUSH1 0x3 PUSH1 0x0 SWAP1 SLOAD SWAP1 PUSH2 0x100 EXP SWAP1 DIV PUSH20 0xFFFFFFFFFFFFFFFFFFFFFFFFFFFFFFFFFFFFFFFF AND PUSH20 0xFFFFFFFFFFFFFFFFFFFFFFFFFFFFFFFFFFFFFFFF AND DUP3 PUSH20 0xFFFFFFFFFFFFFFFFFFFFFFFFFFFFFFFFFFFFFFFF AND EQ PUSH2 0x426 JUMPI PUSH1 0x0 DUP1 REVERT JUMPDEST PUSH1 0x0 ADDRESS PUSH20 0xFFFFFFFFFFFFFFFFFFFFFFFFFFFFFFFFFFFFFFFF AND PUSH4 0x3B2E5F94 CALLER PUSH1 0x40 MLOAD DUP3 PUSH4 0xFFFFFFFF AND PUSH1 0xE0 SHL DUP2 MSTORE PUSH1 0x4 ADD PUSH2 0x461 SWAP2 SWAP1 PUSH2 0xCA3 JUMP JUMPDEST PUSH1 0x20 PUSH1 0x40 MLOAD DUP1 DUP4 SUB DUP2 DUP7 GAS STATICCALL ISZERO DUP1 ISZERO PUSH2 0x47E JUMPI RETURNDATASIZE PUSH1 0x0 DUP1 RETURNDATACOPY RETURNDATASIZE PUSH1 0x0 REVERT JUMPDEST POP POP POP POP PUSH1 0x40 MLOAD RETURNDATASIZE PUSH1 0x1F NOT PUSH1 0x1F DUP3 ADD AND DUP3 ADD DUP1 PUSH1 0x40 MSTORE POP DUP2 ADD SWAP1 PUSH2 0x4A2 SWAP2 SWAP1 PUSH2 0x10B1 JUMP JUMPDEST SWAP1 POP PUSH1 0x0 PUSH1 0x64 PUSH1 0x5 PUSH1 0x0 SWAP1 SLOAD SWAP1 PUSH2 0x100 EXP SWAP1 DIV PUSH1 0xFF AND PUSH1 0xFF AND DUP4 PUSH2 0x4C6 SWAP2 SWAP1 PUSH2 0x10DE JUMP JUMPDEST PUSH2 0x4D0 SWAP2 SWAP1 PUSH2 0x114F JUMP JUMPDEST SWAP1 POP PUSH1 0x0 ADDRESS PUSH20 0xFFFFFFFFFFFFFFFFFFFFFFFFFFFFFFFFFFFFFFFF AND PUSH4 0x9A78E72E CALLER PUSH1 0x40 MLOAD DUP3 PUSH4 0xFFFFFFFF AND PUSH1 0xE0 SHL DUP2 MSTORE PUSH1 0x4 ADD PUSH2 0x50D SWAP2 SWAP1 PUSH2 0xCA3 JUMP JUMPDEST PUSH1 0x20 PUSH1 0x40 MLOAD DUP1 DUP4 SUB DUP2 DUP7 GAS STATICCALL ISZERO DUP1 ISZERO PUSH2 0x52A JUMPI RETURNDATASIZE PUSH1 0x0 DUP1 RETURNDATACOPY RETURNDATASIZE PUSH1 0x0 REVERT JUMPDEST POP POP POP POP PUSH1 0x40 MLOAD RETURNDATASIZE PUSH1 0x1F NOT PUSH1 0x1F DUP3 ADD AND DUP3 ADD DUP1 PUSH1 0x40 MSTORE POP DUP2 ADD SWAP1 PUSH2 0x54E SWAP2 SWAP1 PUSH2 0x10B1 JUMP JUMPDEST SWAP1 POP DUP2 DUP5 DUP3 PUSH2 0x55D SWAP2 SWAP1 PUSH2 0x1180 JUMP JUMPDEST LT PUSH2 0x59D JUMPI PUSH1 0x40 MLOAD PUSH32 0x8C379A000000000000000000000000000000000000000000000000000000000 DUP2 MSTORE PUSH1 0x4 ADD PUSH2 0x594 SWAP1 PUSH2 0x1237 JUMP JUMPDEST PUSH1 0x40 MLOAD DUP1 SWAP2 SUB SWAP1 REVERT JUMPDEST DUP4 PUSH1 0x4 PUSH1 0x0 CALLER PUSH20 0xFFFFFFFFFFFFFFFFFFFFFFFFFFFFFFFFFFFFFFFF AND PUSH20 0xFFFFFFFFFFFFFFFFFFFFFFFFFFFFFFFFFFFFFFFF AND DUP2 MSTORE PUSH1 0x20 ADD SWAP1 DUP2 MSTORE PUSH1 0x20 ADD PUSH1 0x0 KECCAK256 PUSH1 0x0 DUP3 DUP3 SLOAD PUSH2 0x5EC SWAP2 SWAP1 PUSH2 0x1180 JUMP JUMPDEST SWAP3 POP POP DUP2 SWAP1 SSTORE POP PUSH1 0x1 PUSH1 0x0 SWAP1 SLOAD SWAP1 PUSH2 0x100 EXP SWAP1 DIV PUSH20 0xFFFFFFFFFFFFFFFFFFFFFFFFFFFFFFFFFFFFFFFF AND PUSH20 0xFFFFFFFFFFFFFFFFFFFFFFFFFFFFFFFFFFFFFFFF AND PUSH4 0x683AE083 CALLER DUP7 PUSH1 0x40 MLOAD DUP4 PUSH4 0xFFFFFFFF AND PUSH1 0xE0 SHL DUP2 MSTORE PUSH1 0x4 ADD PUSH2 0x650 SWAP3 SWAP2 SWAP1 PUSH2 0x1257 JUMP JUMPDEST PUSH1 0x0 PUSH1 0x40 MLOAD DUP1 DUP4 SUB DUP2 PUSH1 0x0 DUP8 DUP1 EXTCODESIZE ISZERO DUP1 ISZERO PUSH2 0x66A JUMPI PUSH1 0x0 DUP1 REVERT JUMPDEST POP GAS CALL ISZERO DUP1 ISZERO PUSH2 0x67E JUMPI RETURNDATASIZE PUSH1 0x0 DUP1 RETURNDATACOPY RETURNDATASIZE PUSH1 0x0 REVERT JUMPDEST POP POP POP POP POP POP POP POP POP JUMP JUMPDEST PUSH1 0x60 PUSH1 0x0 DUP1 PUSH1 0x0 DUP1 PUSH1 0x0 SWAP1 SLOAD SWAP1 PUSH2 0x100 EXP SWAP1 DIV PUSH20 0xFFFFFFFFFFFFFFFFFFFFFFFFFFFFFFFFFFFFFFFF AND PUSH20 0xFFFFFFFFFFFFFFFFFFFFFFFFFFFFFFFFFFFFFFFF AND PUSH4 0xE54F0880 PUSH1 0x40 MLOAD DUP2 PUSH4 0xFFFFFFFF AND PUSH1 0xE0 SHL DUP2 MSTORE PUSH1 0x4 ADD PUSH1 0x60 PUSH1 0x40 MLOAD DUP1 DUP4 SUB DUP2 DUP7 GAS STATICCALL ISZERO DUP1 ISZERO PUSH2 0x6FC JUMPI RETURNDATASIZE PUSH1 0x0 DUP1 RETURNDATACOPY RETURNDATASIZE PUSH1 0x0 REVERT JUMPDEST POP POP POP POP PUSH1 0x40 MLOAD RETURNDATASIZE PUSH1 0x1F NOT PUSH1 0x1F DUP3 ADD AND DUP3 ADD DUP1 PUSH1 0x40 MSTORE POP DUP2 ADD SWAP1 PUSH2 0x720 SWAP2 SWAP1 PUSH2 0xEB1 JUMP JUMPDEST SWAP3 POP SWAP3 POP SWAP3 POP PUSH1 0x0 PUSH1 0x1 PUSH1 0x0 SWAP1 SLOAD SWAP1 PUSH2 0x100 EXP SWAP1 DIV PUSH20 0xFFFFFFFFFFFFFFFFFFFFFFFFFFFFFFFFFFFFFFFF AND PUSH20 0xFFFFFFFFFFFFFFFFFFFFFFFFFFFFFFFFFFFFFFFF AND PUSH4 0xE54F0880 PUSH1 0x40 MLOAD DUP2 PUSH4 0xFFFFFFFF AND PUSH1 0xE0 SHL DUP2 MSTORE PUSH1 0x4 ADD PUSH1 0x20 PUSH1 0x40 MLOAD DUP1 DUP4 SUB DUP2 DUP7 GAS STATICCALL ISZERO DUP1 ISZERO PUSH2 0x795 JUMPI RETURNDATASIZE PUSH1 0x0 DUP1 RETURNDATACOPY RETURNDATASIZE PUSH1 0x0 REVERT JUMPDEST POP POP POP POP PUSH1 0x40 MLOAD RETURNDATASIZE PUSH1 0x1F NOT PUSH1 0x1F DUP3 ADD AND DUP3 ADD DUP1 PUSH1 0x40 MSTORE POP DUP2 ADD SWAP1 PUSH2 0x7B9 SWAP2 SWAP1 PUSH2 0x10B1 JUMP JUMPDEST SWAP1 POP PUSH1 0x0 PUSH1 0x2 PUSH8 0xFFFFFFFFFFFFFFFF DUP2 GT ISZERO PUSH2 0x7D8 JUMPI PUSH2 0x7D7 PUSH2 0x1280 JUMP JUMPDEST JUMPDEST PUSH1 0x40 MLOAD SWAP1 DUP1 DUP3 MSTORE DUP1 PUSH1 0x20 MUL PUSH1 0x20 ADD DUP3 ADD PUSH1 0x40 MSTORE DUP1 ISZERO PUSH2 0x806 JUMPI DUP2 PUSH1 0x20 ADD PUSH1 0x20 DUP3 MUL DUP1 CALLDATASIZE DUP4 CALLDATACOPY DUP1 DUP3 ADD SWAP2 POP POP SWAP1 POP JUMPDEST POP SWAP1 POP DUP5 DUP2 PUSH1 0x0 DUP2 MLOAD DUP2 LT PUSH2 0x81E JUMPI PUSH2 0x81D PUSH2 0x12AF JUMP JUMPDEST JUMPDEST PUSH1 0x20 MUL PUSH1 0x20 ADD ADD DUP2 DUP2 MSTORE POP POP DUP2 DUP2 PUSH1 0x1 DUP2 MLOAD DUP2 LT PUSH2 0x83F JUMPI PUSH2 0x83E PUSH2 0x12AF JUMP JUMPDEST JUMPDEST PUSH1 0x20 MUL PUSH1 0x20 ADD ADD DUP2 DUP2 MSTORE POP POP DUP1 SWAP6 POP POP POP POP POP POP SWAP1 JUMP JUMPDEST PUSH1 0x0 DUP1 PUSH1 0x1 PUSH1 0x0 SWAP1 SLOAD SWAP1 PUSH2 0x100 EXP SWAP1 DIV PUSH20 0xFFFFFFFFFFFFFFFFFFFFFFFFFFFFFFFFFFFFFFFF AND PUSH20 0xFFFFFFFFFFFFFFFFFFFFFFFFFFFFFFFFFFFFFFFF AND PUSH4 0xE54F0880 PUSH1 0x40 MLOAD DUP2 PUSH4 0xFFFFFFFF AND PUSH1 0xE0 SHL DUP2 MSTORE PUSH1 0x4 ADD PUSH1 0x20 PUSH1 0x40 MLOAD DUP1 DUP4 SUB DUP2 DUP7 GAS STATICCALL ISZERO DUP1 ISZERO PUSH2 0x8C6 JUMPI RETURNDATASIZE PUSH1 0x0 DUP1 RETURNDATACOPY RETURNDATASIZE PUSH1 0x0 REVERT JUMPDEST POP POP POP POP PUSH1 0x40 MLOAD RETURNDATASIZE PUSH1 0x1F NOT PUSH1 0x1F DUP3 ADD AND DUP3 ADD DUP1 PUSH1 0x40 MSTORE POP DUP2 ADD SWAP1 PUSH2 0x8EA SWAP2 SWAP1 PUSH2 0x10B1 JUMP JUMPDEST PUSH1 0x4 PUSH1 0x0 DUP6 PUSH20 0xFFFFFFFFFFFFFFFFFFFFFFFFFFFFFFFFFFFFFFFF AND PUSH20 0xFFFFFFFFFFFFFFFFFFFFFFFFFFFFFFFFFFFFFFFF AND DUP2 MSTORE PUSH1 0x20 ADD SWAP1 DUP2 MSTORE PUSH1 0x20 ADD PUSH1 0x0 KECCAK256 SLOAD PUSH2 0x934 SWAP2 SWAP1 PUSH2 0x10DE JUMP JUMPDEST SWAP1 POP DUP1 SWAP2 POP POP SWAP2 SWAP1 POP JUMP JUMPDEST PUSH1 0x2 PUSH1 0x0 SWAP1 SLOAD SWAP1 PUSH2 0x100 EXP SWAP1 DIV PUSH20 0xFFFFFFFFFFFFFFFFFFFFFFFFFFFFFFFFFFFFFFFF AND DUP2 JUMP JUMPDEST PUSH1 0x0 PUSH1 0x2 PUSH1 0x0 SWAP1 SLOAD SWAP1 PUSH2 0x100 EXP SWAP1 DIV PUSH20 0xFFFFFFFFFFFFFFFFFFFFFFFFFFFFFFFFFFFFFFFF AND PUSH20 0xFFFFFFFFFFFFFFFFFFFFFFFFFFFFFFFFFFFFFFFF AND DUP3 PUSH20 0xFFFFFFFFFFFFFFFFFFFFFFFFFFFFFFFFFFFFFFFF AND SUB PUSH2 0x9E4 JUMPI PUSH1 0x0 DUP1 SLOAD SWAP1 PUSH2 0x100 EXP SWAP1 DIV PUSH20 0xFFFFFFFFFFFFFFFFFFFFFFFFFFFFFFFFFFFFFFFF AND SWAP1 POP PUSH2 0xA64 JUMP JUMPDEST PUSH1 0x3 PUSH1 0x0 SWAP1 SLOAD SWAP1 PUSH2 0x100 EXP SWAP1 DIV PUSH20 0xFFFFFFFFFFFFFFFFFFFFFFFFFFFFFFFFFFFFFFFF AND PUSH20 0xFFFFFFFFFFFFFFFFFFFFFFFFFFFFFFFFFFFFFFFF AND DUP3 PUSH20 0xFFFFFFFFFFFFFFFFFFFFFFFFFFFFFFFFFFFFFFFF AND SUB PUSH2 0xA63 JUMPI PUSH1 0x1 PUSH1 0x0 SWAP1 SLOAD SWAP1 PUSH2 0x100 EXP SWAP1 DIV PUSH20 0xFFFFFFFFFFFFFFFFFFFFFFFFFFFFFFFFFFFFFFFF AND SWAP1 POP PUSH2 0xA64 JUMP JUMPDEST JUMPDEST SWAP2 SWAP1 POP JUMP JUMPDEST PUSH1 0x60 PUSH1 0x0 PUSH1 0x2 PUSH8 0xFFFFFFFFFFFFFFFF DUP2 GT ISZERO PUSH2 0xA88 JUMPI PUSH2 0xA87 PUSH2 0x1280 JUMP JUMPDEST JUMPDEST PUSH1 0x40 MLOAD SWAP1 DUP1 DUP3 MSTORE DUP1 PUSH1 0x20 MUL PUSH1 0x20 ADD DUP3 ADD PUSH1 0x40 MSTORE DUP1 ISZERO PUSH2 0xAB6 JUMPI DUP2 PUSH1 0x20 ADD PUSH1 0x20 DUP3 MUL DUP1 CALLDATASIZE DUP4 CALLDATACOPY DUP1 DUP3 ADD SWAP2 POP POP SWAP1 POP JUMPDEST POP SWAP1 POP PUSH1 0x0 DUP1 SLOAD SWAP1 PUSH2 0x100 EXP SWAP1 DIV PUSH20 0xFFFFFFFFFFFFFFFFFFFFFFFFFFFFFFFFFFFFFFFF AND PUSH20 0xFFFFFFFFFFFFFFFFFFFFFFFFFFFFFFFFFFFFFFFF AND PUSH4 0xAC75409A DUP5 PUSH1 0x40 MLOAD DUP3 PUSH4 0xFFFFFFFF AND PUSH1 0xE0 SHL DUP2 MSTORE PUSH1 0x4 ADD PUSH2 0xB12 SWAP2 SWAP1 PUSH2 0xCA3 JUMP JUMPDEST PUSH1 0x20 PUSH1 0x40 MLOAD DUP1 DUP4 SUB DUP2 DUP7 GAS STATICCALL ISZERO DUP1 ISZERO PUSH2 0xB2F JUMPI RETURNDATASIZE PUSH1 0x0 DUP1 RETURNDATACOPY RETURNDATASIZE PUSH1 0x0 REVERT JUMPDEST POP POP POP POP PUSH1 0x40 MLOAD RETURNDATASIZE PUSH1 0x1F NOT PUSH1 0x1F DUP3 ADD AND DUP3 ADD DUP1 PUSH1 0x40 MSTORE POP DUP2 ADD SWAP1 PUSH2 0xB53 SWAP2 SWAP1 PUSH2 0x10B1 JUMP JUMPDEST DUP2 PUSH1 0x0 DUP2 MLOAD DUP2 LT PUSH2 0xB67 JUMPI PUSH2 0xB66 PUSH2 0x12AF JUMP JUMPDEST JUMPDEST PUSH1 0x20 MUL PUSH1 0x20 ADD ADD DUP2 DUP2 MSTORE POP POP PUSH1 0x1 PUSH1 0x0 SWAP1 SLOAD SWAP1 PUSH2 0x100 EXP SWAP1 DIV PUSH20 0xFFFFFFFFFFFFFFFFFFFFFFFFFFFFFFFFFFFFFFFF AND PUSH20 0xFFFFFFFFFFFFFFFFFFFFFFFFFFFFFFFFFFFFFFFF AND PUSH4 0xAC75409A DUP5 PUSH1 0x40 MLOAD DUP3 PUSH4 0xFFFFFFFF AND PUSH1 0xE0 SHL DUP2 MSTORE PUSH1 0x4 ADD PUSH2 0xBCE SWAP2 SWAP1 PUSH2 0xCA3 JUMP JUMPDEST PUSH1 0x20 PUSH1 0x40 MLOAD DUP1 DUP4 SUB DUP2 DUP7 GAS STATICCALL ISZERO DUP1 ISZERO PUSH2 0xBEB JUMPI RETURNDATASIZE PUSH1 0x0 DUP1 RETURNDATACOPY RETURNDATASIZE PUSH1 0x0 REVERT JUMPDEST POP POP POP POP PUSH1 0x40 MLOAD RETURNDATASIZE PUSH1 0x1F NOT PUSH1 0x1F DUP3 ADD AND DUP3 ADD DUP1 PUSH1 0x40 MSTORE POP DUP2 ADD SWAP1 PUSH2 0xC0F SWAP2 SWAP1 PUSH2 0x10B1 JUMP JUMPDEST DUP2 PUSH1 0x1 DUP2 MLOAD DUP2 LT PUSH2 0xC23 JUMPI PUSH2 0xC22 PUSH2 0x12AF JUMP JUMPDEST JUMPDEST PUSH1 0x20 MUL PUSH1 0x20 ADD ADD DUP2 DUP2 MSTORE POP POP DUP1 SWAP2 POP POP SWAP2 SWAP1 POP JUMP JUMPDEST PUSH1 0x0 PUSH1 0x2 PUSH1 0x0 SWAP1 SLOAD SWAP1 PUSH2 0x100 EXP SWAP1 DIV PUSH20 0xFFFFFFFFFFFFFFFFFFFFFFFFFFFFFFFFFFFFFFFF AND SWAP1 POP SWAP1 JUMP JUMPDEST PUSH1 0x0 PUSH20 0xFFFFFFFFFFFFFFFFFFFFFFFFFFFFFFFFFFFFFFFF DUP3 AND SWAP1 POP SWAP2 SWAP1 POP JUMP JUMPDEST PUSH1 0x0 PUSH2 0xC8D DUP3 PUSH2 0xC62 JUMP JUMPDEST SWAP1 POP SWAP2 SWAP1 POP JUMP JUMPDEST PUSH2 0xC9D DUP2 PUSH2 0xC82 JUMP JUMPDEST DUP3 MSTORE POP POP JUMP JUMPDEST PUSH1 0x0 PUSH1 0x20 DUP3 ADD SWAP1 POP PUSH2 0xCB8 PUSH1 0x0 DUP4 ADD DUP5 PUSH2 0xC94 JUMP JUMPDEST SWAP3 SWAP2 POP POP JUMP JUMPDEST PUSH1 0x0 DUP1 REVERT JUMPDEST PUSH2 0xCCC DUP2 PUSH2 0xC82 JUMP JUMPDEST DUP2 EQ PUSH2 0xCD7 JUMPI PUSH1 0x0 DUP1 REVERT JUMPDEST POP JUMP JUMPDEST PUSH1 0x0 DUP2 CALLDATALOAD SWAP1 POP PUSH2 0xCE9 DUP2 PUSH2 0xCC3 JUMP JUMPDEST SWAP3 SWAP2 POP POP JUMP JUMPDEST PUSH1 0x0 PUSH1 0x20 DUP3 DUP5 SUB SLT ISZERO PUSH2 0xD05 JUMPI PUSH2 0xD04 PUSH2 0xCBE JUMP JUMPDEST JUMPDEST PUSH1 0x0 PUSH2 0xD13 DUP5 DUP3 DUP6 ADD PUSH2 0xCDA JUMP JUMPDEST SWAP2 POP POP SWAP3 SWAP2 POP POP JUMP JUMPDEST PUSH1 0x0 DUP2 SWAP1 POP SWAP2 SWAP1 POP JUMP JUMPDEST PUSH2 0xD2F DUP2 PUSH2 0xD1C JUMP JUMPDEST DUP3 MSTORE POP POP JUMP JUMPDEST PUSH1 0x0 PUSH1 0x20 DUP3 ADD SWAP1 POP PUSH2 0xD4A PUSH1 0x0 DUP4 ADD DUP5 PUSH2 0xD26 JUMP JUMPDEST SWAP3 SWAP2 POP POP JUMP JUMPDEST PUSH2 0xD59 DUP2 PUSH2 0xD1C JUMP JUMPDEST DUP2 EQ PUSH2 0xD64 JUMPI PUSH1 0x0 DUP1 REVERT JUMPDEST POP JUMP JUMPDEST PUSH1 0x0 DUP2 CALLDATALOAD SWAP1 POP PUSH2 0xD76 DUP2 PUSH2 0xD50 JUMP JUMPDEST SWAP3 SWAP2 POP POP JUMP JUMPDEST PUSH1 0x0 DUP1 PUSH1 0x40 DUP4 DUP6 SUB SLT ISZERO PUSH2 0xD93 JUMPI PUSH2 0xD92 PUSH2 0xCBE JUMP JUMPDEST JUMPDEST PUSH1 0x0 PUSH2 0xDA1 DUP6 DUP3 DUP7 ADD PUSH2 0xCDA JUMP JUMPDEST SWAP3 POP POP PUSH1 0x20 PUSH2 0xDB2 DUP6 DUP3 DUP7 ADD PUSH2 0xD67 JUMP JUMPDEST SWAP2 POP POP SWAP3 POP SWAP3 SWAP1 POP JUMP JUMPDEST PUSH1 0x0 DUP2 MLOAD SWAP1 POP SWAP2 SWAP1 POP JUMP JUMPDEST PUSH1 0x0 DUP3 DUP3 MSTORE PUSH1 0x20 DUP3 ADD SWAP1 POP SWAP3 SWAP2 POP POP JUMP JUMPDEST PUSH1 0x0 DUP2 SWAP1 POP PUSH1 0x20 DUP3 ADD SWAP1 POP SWAP2 SWAP1 POP JUMP JUMPDEST PUSH2 0xDF1 DUP2 PUSH2 0xD1C JUMP JUMPDEST DUP3 MSTORE POP POP JUMP JUMPDEST PUSH1 0x0 PUSH2 0xE03 DUP4 DUP4 PUSH2 0xDE8 JUMP JUMPDEST PUSH1 0x20 DUP4 ADD SWAP1 POP SWAP3 SWAP2 POP POP JUMP JUMPDEST PUSH1 0x0 PUSH1 0x20 DUP3 ADD SWAP1 POP SWAP2 SWAP1 POP JUMP JUMPDEST PUSH1 0x0 PUSH2 0xE27 DUP3 PUSH2 0xDBC JUMP JUMPDEST PUSH2 0xE31 DUP2 DUP6 PUSH2 0xDC7 JUMP JUMPDEST SWAP4 POP PUSH2 0xE3C DUP4 PUSH2 0xDD8 JUMP JUMPDEST DUP1 PUSH1 0x0 JUMPDEST DUP4 DUP2 LT ISZERO PUSH2 0xE6D JUMPI DUP2 MLOAD PUSH2 0xE54 DUP9 DUP3 PUSH2 0xDF7 JUMP JUMPDEST SWAP8 POP PUSH2 0xE5F DUP4 PUSH2 0xE0F JUMP JUMPDEST SWAP3 POP POP PUSH1 0x1 DUP2 ADD SWAP1 POP PUSH2 0xE40 JUMP JUMPDEST POP DUP6 SWAP4 POP POP POP POP SWAP3 SWAP2 POP POP JUMP JUMPDEST PUSH1 0x0 PUSH1 0x20 DUP3 ADD SWAP1 POP DUP2 DUP2 SUB PUSH1 0x0 DUP4 ADD MSTORE PUSH2 0xE94 DUP2 DUP5 PUSH2 0xE1C JUMP JUMPDEST SWAP1 POP SWAP3 SWAP2 POP POP JUMP JUMPDEST PUSH1 0x0 DUP2 MLOAD SWAP1 POP PUSH2 0xEAB DUP2 PUSH2 0xD50 JUMP JUMPDEST SWAP3 SWAP2 POP POP JUMP JUMPDEST PUSH1 0x0 DUP1 PUSH1 0x0 PUSH1 0x60 DUP5 DUP7 SUB SLT ISZERO PUSH2 0xECA JUMPI PUSH2 0xEC9 PUSH2 0xCBE JUMP JUMPDEST JUMPDEST PUSH1 0x0 PUSH2 0xED8 DUP7 DUP3 DUP8 ADD PUSH2 0xE9C JUMP JUMPDEST SWAP4 POP POP PUSH1 0x20 PUSH2 0xEE9 DUP7 DUP3 DUP8 ADD PUSH2 0xE9C JUMP JUMPDEST SWAP3 POP POP PUSH1 0x40 PUSH2 0xEFA DUP7 DUP3 DUP8 ADD PUSH2 0xE9C JUMP JUMPDEST SWAP2 POP POP SWAP3 POP SWAP3 POP SWAP3 JUMP JUMPDEST PUSH32 0x4E487B7100000000000000000000000000000000000000000000000000000000 PUSH1 0x0 MSTORE PUSH1 0x11 PUSH1 0x4 MSTORE PUSH1 0x24 PUSH1 0x0 REVERT JUMPDEST PUSH1 0x0 DUP2 PUSH1 0x1 SHR SWAP1 POP SWAP2 SWAP1 POP JUMP JUMPDEST PUSH1 0x0 DUP1 DUP3 SWAP2 POP DUP4 SWAP1 POP JUMPDEST PUSH1 0x1 DUP6 GT ISZERO PUSH2 0xF8A JUMPI DUP1 DUP7 DIV DUP2 GT ISZERO PUSH2 0xF66 JUMPI PUSH2 0xF65 PUSH2 0xF04 JUMP JUMPDEST JUMPDEST PUSH1 0x1 DUP6 AND ISZERO PUSH2 0xF75 JUMPI DUP1 DUP3 MUL SWAP2 POP JUMPDEST DUP1 DUP2 MUL SWAP1 POP PUSH2 0xF83 DUP6 PUSH2 0xF33 JUMP JUMPDEST SWAP5 POP PUSH2 0xF4A JUMP JUMPDEST SWAP5 POP SWAP5 SWAP3 POP POP POP JUMP JUMPDEST PUSH1 0x0 DUP3 PUSH2 0xFA3 JUMPI PUSH1 0x1 SWAP1 POP PUSH2 0x105F JUMP JUMPDEST DUP2 PUSH2 0xFB1 JUMPI PUSH1 0x0 SWAP1 POP PUSH2 0x105F JUMP JUMPDEST DUP2 PUSH1 0x1 DUP2 EQ PUSH2 0xFC7 JUMPI PUSH1 0x2 DUP2 EQ PUSH2 0xFD1 JUMPI PUSH2 0x1000 JUMP JUMPDEST PUSH1 0x1 SWAP2 POP POP PUSH2 0x105F JUMP JUMPDEST PUSH1 0xFF DUP5 GT ISZERO PUSH2 0xFE3 JUMPI PUSH2 0xFE2 PUSH2 0xF04 JUMP JUMPDEST JUMPDEST DUP4 PUSH1 0x2 EXP SWAP2 POP DUP5 DUP3 GT ISZERO PUSH2 0xFFA JUMPI PUSH2 0xFF9 PUSH2 0xF04 JUMP JUMPDEST JUMPDEST POP PUSH2 0x105F JUMP JUMPDEST POP PUSH1 0x20 DUP4 LT PUSH2 0x133 DUP4 LT AND PUSH1 0x4E DUP5 LT PUSH1 0xB DUP5 LT AND OR ISZERO PUSH2 0x1035 JUMPI DUP3 DUP3 EXP SWAP1 POP DUP4 DUP2 GT ISZERO PUSH2 0x1030 JUMPI PUSH2 0x102F PUSH2 0xF04 JUMP JUMPDEST JUMPDEST PUSH2 0x105F JUMP JUMPDEST PUSH2 0x1042 DUP5 DUP5 DUP5 PUSH1 0x1 PUSH2 0xF40 JUMP JUMPDEST SWAP3 POP SWAP1 POP DUP2 DUP5 DIV DUP2 GT ISZERO PUSH2 0x1059 JUMPI PUSH2 0x1058 PUSH2 0xF04 JUMP JUMPDEST JUMPDEST DUP2 DUP2 MUL SWAP1 POP JUMPDEST SWAP4 SWAP3 POP POP POP JUMP JUMPDEST PUSH1 0x0 PUSH2 0x1071 DUP3 PUSH2 0xD1C JUMP JUMPDEST SWAP2 POP PUSH2 0x107C DUP4 PUSH2 0xD1C JUMP JUMPDEST SWAP3 POP PUSH2 0x10A9 PUSH32 0xFFFFFFFFFFFFFFFFFFFFFFFFFFFFFFFFFFFFFFFFFFFFFFFFFFFFFFFFFFFFFFFF DUP5 DUP5 PUSH2 0xF93 JUMP JUMPDEST SWAP1 POP SWAP3 SWAP2 POP POP JUMP JUMPDEST PUSH1 0x0 PUSH1 0x20 DUP3 DUP5 SUB SLT ISZERO PUSH2 0x10C7 JUMPI PUSH2 0x10C6 PUSH2 0xCBE JUMP JUMPDEST JUMPDEST PUSH1 0x0 PUSH2 0x10D5 DUP5 DUP3 DUP6 ADD PUSH2 0xE9C JUMP JUMPDEST SWAP2 POP POP SWAP3 SWAP2 POP POP JUMP JUMPDEST PUSH1 0x0 PUSH2 0x10E9 DUP3 PUSH2 0xD1C JUMP JUMPDEST SWAP2 POP PUSH2 0x10F4 DUP4 PUSH2 0xD1C JUMP JUMPDEST SWAP3 POP DUP3 DUP3 MUL PUSH2 0x1102 DUP2 PUSH2 0xD1C JUMP JUMPDEST SWAP2 POP DUP3 DUP3 DIV DUP5 EQ DUP4 ISZERO OR PUSH2 0x1119 JUMPI PUSH2 0x1118 PUSH2 0xF04 JUMP JUMPDEST JUMPDEST POP SWAP3 SWAP2 POP POP JUMP JUMPDEST PUSH32 0x4E487B7100000000000000000000000000000000000000000000000000000000 PUSH1 0x0 MSTORE PUSH1 0x12 PUSH1 0x4 MSTORE PUSH1 0x24 PUSH1 0x0 REVERT JUMPDEST PUSH1 0x0 PUSH2 0x115A DUP3 PUSH2 0xD1C JUMP JUMPDEST SWAP2 POP PUSH2 0x1165 DUP4 PUSH2 0xD1C JUMP JUMPDEST SWAP3 POP DUP3 PUSH2 0x1175 JUMPI PUSH2 0x1174 PUSH2 0x1120 JUMP JUMPDEST JUMPDEST DUP3 DUP3 DIV SWAP1 POP SWAP3 SWAP2 POP POP JUMP JUMPDEST PUSH1 0x0 PUSH2 0x118B DUP3 PUSH2 0xD1C JUMP JUMPDEST SWAP2 POP PUSH2 0x1196 DUP4 PUSH2 0xD1C JUMP JUMPDEST SWAP3 POP DUP3 DUP3 ADD SWAP1 POP DUP1 DUP3 GT ISZERO PUSH2 0x11AE JUMPI PUSH2 0x11AD PUSH2 0xF04 JUMP JUMPDEST JUMPDEST SWAP3 SWAP2 POP POP JUMP JUMPDEST PUSH1 0x0 DUP3 DUP3 MSTORE PUSH1 0x20 DUP3 ADD SWAP1 POP SWAP3 SWAP2 POP POP JUMP JUMPDEST PUSH32 0x596F752077616E7420746F206D6F7265206D6F72652076616C7565207468616E PUSH1 0x0 DUP3 ADD MSTORE PUSH32 0x20616C6C6F776564000000000000000000000000000000000000000000000000 PUSH1 0x20 DUP3 ADD MSTORE POP JUMP JUMPDEST PUSH1 0x0 PUSH2 0x1221 PUSH1 0x28 DUP4 PUSH2 0x11B4 JUMP JUMPDEST SWAP2 POP PUSH2 0x122C DUP3 PUSH2 0x11C5 JUMP JUMPDEST PUSH1 0x40 DUP3 ADD SWAP1 POP SWAP2 SWAP1 POP JUMP JUMPDEST PUSH1 0x0 PUSH1 0x20 DUP3 ADD SWAP1 POP DUP2 DUP2 SUB PUSH1 0x0 DUP4 ADD MSTORE PUSH2 0x1250 DUP2 PUSH2 0x1214 JUMP JUMPDEST SWAP1 POP SWAP2 SWAP1 POP JUMP JUMPDEST PUSH1 0x0 PUSH1 0x40 DUP3 ADD SWAP1 POP PUSH2 0x126C PUSH1 0x0 DUP4 ADD DUP6 PUSH2 0xC94 JUMP JUMPDEST PUSH2 0x1279 PUSH1 0x20 DUP4 ADD DUP5 PUSH2 0xD26 JUMP JUMPDEST SWAP4 SWAP3 POP POP POP JUMP JUMPDEST PUSH32 0x4E487B7100000000000000000000000000000000000000000000000000000000 PUSH1 0x0 MSTORE PUSH1 0x41 PUSH1 0x4 MSTORE PUSH1 0x24 PUSH1 0x0 REVERT JUMPDEST PUSH32 0x4E487B7100000000000000000000000000000000000000000000000000000000 PUSH1 0x0 MSTORE PUSH1 0x32 PUSH1 0x4 MSTORE PUSH1 0x24 PUSH1 0x0 REVERT INVALID LOG2 PUSH5 0x6970667358 0x22 SLT KECCAK256 0xAD CALL ADDMOD 0xB5 PUSH19 0x513D6306E4CB6F0AF3613AF5F53E6A8BFAB60E 0xD1 0xAC TIMESTAMP 0xED SWAP1 0xAF PUSH10 0xF864736F6C6343000818 STOP CALLER "
	},
	"abi": [
		{
			"inputs": [
				{
					"internalType": "contract WBTCReserve",
					"name": "_wBTCReserve",
					"type": "address"
				},
				{
					"internalType": "contract USDCReserve",
					"name": "_usdcReserve",
					"type": "address"
				},
				{
					"internalType": "address",
					"name": "_wBTC",
					"type": "address"
				},
				{
					"internalType": "address",
					"name": "_usdc",
					"type": "address"
				}
			],
			"stateMutability": "nonpayable",
			"type": "constructor"
		},
		{
			"inputs": [
				{
					"internalType": "address",
					"name": "asset",
					"type": "address"
				},
				{
					"internalType": "uint256",
					"name": "amount",
					"type": "uint256"
				}
			],
			"name": "borrow",
			"outputs": [],
			"stateMutability": "nonpayable",
			"type": "function"
		},
		{
			"inputs": [],
			"name": "getAssetsPrice",
			"outputs": [
				{
					"internalType": "uint256[]",
					"name": "",
					"type": "uint256[]"
				}
			],
			"stateMutability": "view",
			"type": "function"
		},
		{
			"inputs": [
				{
					"internalType": "address",
					"name": "user",
					"type": "address"
				}
			],
			"name": "getDebt",
			"outputs": [
				{
					"internalType": "uint256",
					"name": "",
					"type": "uint256"
				}
			],
			"stateMutability": "view",
			"type": "function"
		},
		{
			"inputs": [
				{
					"internalType": "address",
					"name": "user",
					"type": "address"
				}
			],
			"name": "getDepositValue",
			"outputs": [
				{
					"internalType": "uint256",
					"name": "",
					"type": "uint256"
				}
			],
			"stateMutability": "view",
			"type": "function"
		},
		{
			"inputs": [
				{
					"internalType": "address",
					"name": "token",
					"type": "address"
				}
			],
			"name": "getReserve",
			"outputs": [
				{
					"internalType": "address",
					"name": "reserveAddress",
					"type": "address"
				}
			],
			"stateMutability": "view",
			"type": "function"
		},
		{
			"inputs": [
				{
					"internalType": "address",
					"name": "user",
					"type": "address"
				}
			],
			"name": "getSupplyedBalances",
			"outputs": [
				{
					"internalType": "uint256[]",
					"name": "",
					"type": "uint256[]"
				}
			],
			"stateMutability": "view",
			"type": "function"
		},
		{
			"inputs": [],
			"name": "getUSDC",
			"outputs": [
				{
					"internalType": "address",
					"name": "",
					"type": "address"
				}
			],
			"stateMutability": "view",
			"type": "function"
		},
		{
			"inputs": [],
			"name": "getwBTC",
			"outputs": [
				{
					"internalType": "address",
					"name": "",
					"type": "address"
				}
			],
			"stateMutability": "view",
			"type": "function"
		},
		{
			"inputs": [],
			"name": "usdc",
			"outputs": [
				{
					"internalType": "address",
					"name": "",
					"type": "address"
				}
			],
			"stateMutability": "view",
			"type": "function"
		},
		{
			"inputs": [],
			"name": "wBTC",
			"outputs": [
				{
					"internalType": "address",
					"name": "",
					"type": "address"
				}
			],
			"stateMutability": "view",
			"type": "function"
		}
	],
	"storageLayout": {
		"storage": [
			{
				"astId": 1663,
				"contract": "contracts/SimplePool.sol:SimplePool",
				"label": "wBTCReserve",
				"offset": 0,
				"slot": "0",
				"type": "t_contract(WBTCReserve)2312"
			},
			{
				"astId": 1666,
				"contract": "contracts/SimplePool.sol:SimplePool",
				"label": "usdcReserve",
				"offset": 0,
				"slot": "1",
				"type": "t_contract(USDCReserve)2139"
			},
			{
				"astId": 1668,
				"contract": "contracts/SimplePool.sol:SimplePool",
				"label": "wBTC",
				"offset": 0,
				"slot": "2",
				"type": "t_address"
			},
			{
				"astId": 1670,
				"contract": "contracts/SimplePool.sol:SimplePool",
				"label": "usdc",
				"offset": 0,
				"slot": "3",
				"type": "t_address"
			},
			{
				"astId": 1674,
				"contract": "contracts/SimplePool.sol:SimplePool",
				"label": "borrowedUSDC",
				"offset": 0,
				"slot": "4",
				"type": "t_mapping(t_address,t_uint256)"
			},
			{
				"astId": 1680,
				"contract": "contracts/SimplePool.sol:SimplePool",
				"label": "wBTCLTV",
				"offset": 0,
				"slot": "5",
				"type": "t_uint8"
			}
		],
		"types": {
			"t_address": {
				"encoding": "inplace",
				"label": "address",
				"numberOfBytes": "20"
			},
			"t_contract(USDCReserve)2139": {
				"encoding": "inplace",
				"label": "contract USDCReserve",
				"numberOfBytes": "20"
			},
			"t_contract(WBTCReserve)2312": {
				"encoding": "inplace",
				"label": "contract WBTCReserve",
				"numberOfBytes": "20"
			},
			"t_mapping(t_address,t_uint256)": {
				"encoding": "mapping",
				"key": "t_address",
				"label": "mapping(address => uint256)",
				"numberOfBytes": "32",
				"value": "t_uint256"
			},
			"t_uint256": {
				"encoding": "inplace",
				"label": "uint256",
				"numberOfBytes": "32"
			},
			"t_uint8": {
				"encoding": "inplace",
				"label": "uint8",
				"numberOfBytes": "1"
			}
		}
	},
	"web3Deploy": "var _wBTCReserve = /* var of type address here */ ;\nvar _usdcReserve = /* var of type address here */ ;\nvar _wBTC = /* var of type address here */ ;\nvar _usdc = /* var of type address here */ ;\nvar simplepoolContract = new web3.eth.Contract([{\"inputs\":[{\"internalType\":\"contract WBTCReserve\",\"name\":\"_wBTCReserve\",\"type\":\"address\"},{\"internalType\":\"contract USDCReserve\",\"name\":\"_usdcReserve\",\"type\":\"address\"},{\"internalType\":\"address\",\"name\":\"_wBTC\",\"type\":\"address\"},{\"internalType\":\"address\",\"name\":\"_usdc\",\"type\":\"address\"}],\"stateMutability\":\"nonpayable\",\"type\":\"constructor\"},{\"inputs\":[{\"internalType\":\"address\",\"name\":\"asset\",\"type\":\"address\"},{\"internalType\":\"uint256\",\"name\":\"amount\",\"type\":\"uint256\"}],\"name\":\"borrow\",\"outputs\":[],\"stateMutability\":\"nonpayable\",\"type\":\"function\"},{\"inputs\":[],\"name\":\"getAssetsPrice\",\"outputs\":[{\"internalType\":\"uint256[]\",\"name\":\"\",\"type\":\"uint256[]\"}],\"stateMutability\":\"view\",\"type\":\"function\"},{\"inputs\":[{\"internalType\":\"address\",\"name\":\"user\",\"type\":\"address\"}],\"name\":\"getDebt\",\"outputs\":[{\"internalType\":\"uint256\",\"name\":\"\",\"type\":\"uint256\"}],\"stateMutability\":\"view\",\"type\":\"function\"},{\"inputs\":[{\"internalType\":\"address\",\"name\":\"user\",\"type\":\"address\"}],\"name\":\"getDepositValue\",\"outputs\":[{\"internalType\":\"uint256\",\"name\":\"\",\"type\":\"uint256\"}],\"stateMutability\":\"view\",\"type\":\"function\"},{\"inputs\":[{\"internalType\":\"address\",\"name\":\"token\",\"type\":\"address\"}],\"name\":\"getReserve\",\"outputs\":[{\"internalType\":\"address\",\"name\":\"reserveAddress\",\"type\":\"address\"}],\"stateMutability\":\"view\",\"type\":\"function\"},{\"inputs\":[{\"internalType\":\"address\",\"name\":\"user\",\"type\":\"address\"}],\"name\":\"getSupplyedBalances\",\"outputs\":[{\"internalType\":\"uint256[]\",\"name\":\"\",\"type\":\"uint256[]\"}],\"stateMutability\":\"view\",\"type\":\"function\"},{\"inputs\":[],\"name\":\"getUSDC\",\"outputs\":[{\"internalType\":\"address\",\"name\":\"\",\"type\":\"address\"}],\"stateMutability\":\"view\",\"type\":\"function\"},{\"inputs\":[],\"name\":\"getwBTC\",\"outputs\":[{\"internalType\":\"address\",\"name\":\"\",\"type\":\"address\"}],\"stateMutability\":\"view\",\"type\":\"function\"},{\"inputs\":[],\"name\":\"usdc\",\"outputs\":[{\"internalType\":\"address\",\"name\":\"\",\"type\":\"address\"}],\"stateMutability\":\"view\",\"type\":\"function\"},{\"inputs\":[],\"name\":\"wBTC\",\"outputs\":[{\"internalType\":\"address\",\"name\":\"\",\"type\":\"address\"}],\"stateMutability\":\"view\",\"type\":\"function\"}]);\nvar simplepool = simplepoolContract.deploy({\n     data: '0x60806040526050600560006101000a81548160ff021916908360ff1602179055503480156200002d57600080fd5b50604051620015ea380380620015ea833981810160405281019062000053919062000254565b81600260006101000a81548173ffffffffffffffffffffffffffffffffffffffff021916908373ffffffffffffffffffffffffffffffffffffffff16021790555080600360006101000a81548173ffffffffffffffffffffffffffffffffffffffff021916908373ffffffffffffffffffffffffffffffffffffffff160217905550836000806101000a81548173ffffffffffffffffffffffffffffffffffffffff021916908373ffffffffffffffffffffffffffffffffffffffff16021790555082600160006101000a81548173ffffffffffffffffffffffffffffffffffffffff021916908373ffffffffffffffffffffffffffffffffffffffff16021790555050505050620002c6565b600080fd5b600073ffffffffffffffffffffffffffffffffffffffff82169050919050565b6000620001928262000165565b9050919050565b6000620001a68262000185565b9050919050565b620001b88162000199565b8114620001c457600080fd5b50565b600081519050620001d881620001ad565b92915050565b6000620001eb8262000185565b9050919050565b620001fd81620001de565b81146200020957600080fd5b50565b6000815190506200021d81620001f2565b92915050565b6200022e8162000185565b81146200023a57600080fd5b50565b6000815190506200024e8162000223565b92915050565b6000806000806080858703121562000271576200027062000160565b5b60006200028187828801620001c7565b945050602062000294878288016200020c565b9350506040620002a7878288016200023d565b9250506060620002ba878288016200023d565b91505092959194509250565b61131480620002d66000396000f3fe608060405234801561001057600080fd5b506004361061009e5760003560e01c80639a78e72e116100665780639a78e72e146101495780639b45293114610179578063c9a396e914610197578063cbddb785146101c7578063d4d40086146101f75761009e565b80631bf01e9b146100a35780633b2e5f94146100c15780633e413bee146100f15780634b8a35291461010f5780637c1f85601461012b575b600080fd5b6100ab610215565b6040516100b89190610ca3565b60405180910390f35b6100db60048036038101906100d69190610cef565b61023f565b6040516100e89190610d35565b60405180910390f35b6100f96103a6565b6040516101069190610ca3565b60405180910390f35b61012960048036038101906101249190610d7c565b6103cc565b005b610133610689565b6040516101409190610e7a565b60405180910390f35b610163600480360381019061015e9190610cef565b610856565b6040516101709190610d35565b60405180910390f35b61018161093f565b60405161018e9190610ca3565b60405180910390f35b6101b160048036038101906101ac9190610cef565b610965565b6040516101be9190610ca3565b60405180910390f35b6101e160048036038101906101dc9190610cef565b610a69565b6040516101ee9190610e7a565b60405180910390f35b6101ff610c38565b60405161020c9190610ca3565b60405180910390f35b6000600360009054906101000a900473ffffffffffffffffffffffffffffffffffffffff16905090565b60008060008060008054906101000a900473ffffffffffffffffffffffffffffffffffffffff1673ffffffffffffffffffffffffffffffffffffffff1663e54f08806040518163ffffffff1660e01b8152600401606060405180830381865afa1580156102b0573d6000803e3d6000fd5b505050506040513d601f19601f820116820180604052508101906102d49190610eb1565b925092509250600081600a6102e99190611066565b8460008054906101000a900473ffffffffffffffffffffffffffffffffffffffff1673ffffffffffffffffffffffffffffffffffffffff1663ac75409a896040518263ffffffff1660e01b81526004016103439190610ca3565b602060405180830381865afa158015610360573d6000803e3d6000fd5b505050506040513d601f19601f8201168201806040525081019061038491906110b1565b61038e91906110de565b610398919061114f565b905080945050505050919050565b600360009054906101000a900473ffffffffffffffffffffffffffffffffffffffff1681565b600360009054906101000a900473ffffffffffffffffffffffffffffffffffffffff1673ffffffffffffffffffffffffffffffffffffffff168273ffffffffffffffffffffffffffffffffffffffff161461042657600080fd5b60003073ffffffffffffffffffffffffffffffffffffffff16633b2e5f94336040518263ffffffff1660e01b81526004016104619190610ca3565b602060405180830381865afa15801561047e573d6000803e3d6000fd5b505050506040513d601f19601f820116820180604052508101906104a291906110b1565b905060006064600560009054906101000a900460ff1660ff16836104c691906110de565b6104d0919061114f565b905060003073ffffffffffffffffffffffffffffffffffffffff16639a78e72e336040518263ffffffff1660e01b815260040161050d9190610ca3565b602060405180830381865afa15801561052a573d6000803e3d6000fd5b505050506040513d601f19601f8201168201806040525081019061054e91906110b1565b905081848261055d9190611180565b1061059d576040517f08c379a000000000000000000000000000000000000000000000000000000000815260040161059490611237565b60405180910390fd5b83600460003373ffffffffffffffffffffffffffffffffffffffff1673ffffffffffffffffffffffffffffffffffffffff16815260200190815260200160002060008282546105ec9190611180565b92505081905550600160009054906101000a900473ffffffffffffffffffffffffffffffffffffffff1673ffffffffffffffffffffffffffffffffffffffff1663683ae08333866040518363ffffffff1660e01b8152600401610650929190611257565b600060405180830381600087803b15801561066a57600080fd5b505af115801561067e573d6000803e3d6000fd5b505050505050505050565b606060008060008060009054906101000a900473ffffffffffffffffffffffffffffffffffffffff1673ffffffffffffffffffffffffffffffffffffffff1663e54f08806040518163ffffffff1660e01b8152600401606060405180830381865afa1580156106fc573d6000803e3d6000fd5b505050506040513d601f19601f820116820180604052508101906107209190610eb1565b9250925092506000600160009054906101000a900473ffffffffffffffffffffffffffffffffffffffff1673ffffffffffffffffffffffffffffffffffffffff1663e54f08806040518163ffffffff1660e01b8152600401602060405180830381865afa158015610795573d6000803e3d6000fd5b505050506040513d601f19601f820116820180604052508101906107b991906110b1565b90506000600267ffffffffffffffff8111156107d8576107d7611280565b5b6040519080825280602002602001820160405280156108065781602001602082028036833780820191505090505b509050848160008151811061081e5761081d6112af565b5b602002602001018181525050818160018151811061083f5761083e6112af565b5b602002602001018181525050809550505050505090565b600080600160009054906101000a900473ffffffffffffffffffffffffffffffffffffffff1673ffffffffffffffffffffffffffffffffffffffff1663e54f08806040518163ffffffff1660e01b8152600401602060405180830381865afa1580156108c6573d6000803e3d6000fd5b505050506040513d601f19601f820116820180604052508101906108ea91906110b1565b600460008573ffffffffffffffffffffffffffffffffffffffff1673ffffffffffffffffffffffffffffffffffffffff1681526020019081526020016000205461093491906110de565b905080915050919050565b600260009054906101000a900473ffffffffffffffffffffffffffffffffffffffff1681565b6000600260009054906101000a900473ffffffffffffffffffffffffffffffffffffffff1673ffffffffffffffffffffffffffffffffffffffff168273ffffffffffffffffffffffffffffffffffffffff16036109e45760008054906101000a900473ffffffffffffffffffffffffffffffffffffffff169050610a64565b600360009054906101000a900473ffffffffffffffffffffffffffffffffffffffff1673ffffffffffffffffffffffffffffffffffffffff168273ffffffffffffffffffffffffffffffffffffffff1603610a6357600160009054906101000a900473ffffffffffffffffffffffffffffffffffffffff169050610a64565b5b919050565b60606000600267ffffffffffffffff811115610a8857610a87611280565b5b604051908082528060200260200182016040528015610ab65781602001602082028036833780820191505090505b50905060008054906101000a900473ffffffffffffffffffffffffffffffffffffffff1673ffffffffffffffffffffffffffffffffffffffff1663ac75409a846040518263ffffffff1660e01b8152600401610b129190610ca3565b602060405180830381865afa158015610b2f573d6000803e3d6000fd5b505050506040513d601f19601f82011682018060405250810190610b5391906110b1565b81600081518110610b6757610b666112af565b5b602002602001018181525050600160009054906101000a900473ffffffffffffffffffffffffffffffffffffffff1673ffffffffffffffffffffffffffffffffffffffff1663ac75409a846040518263ffffffff1660e01b8152600401610bce9190610ca3565b602060405180830381865afa158015610beb573d6000803e3d6000fd5b505050506040513d601f19601f82011682018060405250810190610c0f91906110b1565b81600181518110610c2357610c226112af565b5b60200260200101818152505080915050919050565b6000600260009054906101000a900473ffffffffffffffffffffffffffffffffffffffff16905090565b600073ffffffffffffffffffffffffffffffffffffffff82169050919050565b6000610c8d82610c62565b9050919050565b610c9d81610c82565b82525050565b6000602082019050610cb86000830184610c94565b92915050565b600080fd5b610ccc81610c82565b8114610cd757600080fd5b50565b600081359050610ce981610cc3565b92915050565b600060208284031215610d0557610d04610cbe565b5b6000610d1384828501610cda565b91505092915050565b6000819050919050565b610d2f81610d1c565b82525050565b6000602082019050610d4a6000830184610d26565b92915050565b610d5981610d1c565b8114610d6457600080fd5b50565b600081359050610d7681610d50565b92915050565b60008060408385031215610d9357610d92610cbe565b5b6000610da185828601610cda565b9250506020610db285828601610d67565b9150509250929050565b600081519050919050565b600082825260208201905092915050565b6000819050602082019050919050565b610df181610d1c565b82525050565b6000610e038383610de8565b60208301905092915050565b6000602082019050919050565b6000610e2782610dbc565b610e318185610dc7565b9350610e3c83610dd8565b8060005b83811015610e6d578151610e548882610df7565b9750610e5f83610e0f565b925050600181019050610e40565b5085935050505092915050565b60006020820190508181036000830152610e948184610e1c565b905092915050565b600081519050610eab81610d50565b92915050565b600080600060608486031215610eca57610ec9610cbe565b5b6000610ed886828701610e9c565b9350506020610ee986828701610e9c565b9250506040610efa86828701610e9c565b9150509250925092565b7f4e487b7100000000000000000000000000000000000000000000000000000000600052601160045260246000fd5b60008160011c9050919050565b6000808291508390505b6001851115610f8a57808604811115610f6657610f65610f04565b5b6001851615610f755780820291505b8081029050610f8385610f33565b9450610f4a565b94509492505050565b600082610fa3576001905061105f565b81610fb1576000905061105f565b8160018114610fc75760028114610fd157611000565b600191505061105f565b60ff841115610fe357610fe2610f04565b5b8360020a915084821115610ffa57610ff9610f04565b5b5061105f565b5060208310610133831016604e8410600b84101617156110355782820a9050838111156110305761102f610f04565b5b61105f565b6110428484846001610f40565b9250905081840481111561105957611058610f04565b5b81810290505b9392505050565b600061107182610d1c565b915061107c83610d1c565b92506110a97fffffffffffffffffffffffffffffffffffffffffffffffffffffffffffffffff8484610f93565b905092915050565b6000602082840312156110c7576110c6610cbe565b5b60006110d584828501610e9c565b91505092915050565b60006110e982610d1c565b91506110f483610d1c565b925082820261110281610d1c565b9150828204841483151761111957611118610f04565b5b5092915050565b7f4e487b7100000000000000000000000000000000000000000000000000000000600052601260045260246000fd5b600061115a82610d1c565b915061116583610d1c565b92508261117557611174611120565b5b828204905092915050565b600061118b82610d1c565b915061119683610d1c565b92508282019050808211156111ae576111ad610f04565b5b92915050565b600082825260208201905092915050565b7f596f752077616e7420746f206d6f7265206d6f72652076616c7565207468616e60008201527f20616c6c6f776564000000000000000000000000000000000000000000000000602082015250565b60006112216028836111b4565b915061122c826111c5565b604082019050919050565b6000602082019050818103600083015261125081611214565b9050919050565b600060408201905061126c6000830185610c94565b6112796020830184610d26565b9392505050565b7f4e487b7100000000000000000000000000000000000000000000000000000000600052604160045260246000fd5b7f4e487b7100000000000000000000000000000000000000000000000000000000600052603260045260246000fdfea2646970667358221220adf108b572513d6306e4cb6f0af3613af5f53e6a8bfab60ed1ac42ed90af69f864736f6c63430008180033', \n     arguments: [\n          _wBTCReserve,\n          _usdcReserve,\n          _wBTC,\n          _usdc,\n     ]\n}).send({\n     from: web3.eth.accounts[0], \n     gas: '4700000'\n   }, function (e, contract){\n    console.log(e, contract);\n    if (typeof contract.address !== 'undefined') {\n         console.log('Contract mined! address: ' + contract.address + ' transactionHash: ' + contract.transactionHash);\n    }\n })",
	"functionHashes": {
		"4b8a3529": "borrow(address,uint256)",
		"7c1f8560": "getAssetsPrice()",
		"9a78e72e": "getDebt(address)",
		"3b2e5f94": "getDepositValue(address)",
		"c9a396e9": "getReserve(address)",
		"cbddb785": "getSupplyedBalances(address)",
		"1bf01e9b": "getUSDC()",
		"d4d40086": "getwBTC()",
		"3e413bee": "usdc()",
		"9b452931": "wBTC()"
	},
	"gasEstimates": {
		"Creation": {
			"codeDepositCost": "976800",
			"executionCost": "infinite",
			"totalCost": "infinite"
		},
		"External": {
			"borrow(address,uint256)": "infinite",
			"getAssetsPrice()": "infinite",
			"getDebt(address)": "infinite",
			"getDepositValue(address)": "infinite",
			"getReserve(address)": "infinite",
			"getSupplyedBalances(address)": "infinite",
			"getUSDC()": "2523",
			"getwBTC()": "2610",
			"usdc()": "2559",
			"wBTC()": "2536"
		}
	},
	"devdoc": {
		"kind": "dev",
		"methods": {},
		"version": 1
	},
	"userdoc": {
		"kind": "user",
		"methods": {},
		"version": 1
	},
	"Runtime Bytecode": {
		"immutableReferences": {},
		"linkReferences": {},
		"object": "608060405234801561001057600080fd5b506004361061009e5760003560e01c80639a78e72e116100665780639a78e72e146101495780639b45293114610179578063c9a396e914610197578063cbddb785146101c7578063d4d40086146101f75761009e565b80631bf01e9b146100a35780633b2e5f94146100c15780633e413bee146100f15780634b8a35291461010f5780637c1f85601461012b575b600080fd5b6100ab610215565b6040516100b89190610ca3565b60405180910390f35b6100db60048036038101906100d69190610cef565b61023f565b6040516100e89190610d35565b60405180910390f35b6100f96103a6565b6040516101069190610ca3565b60405180910390f35b61012960048036038101906101249190610d7c565b6103cc565b005b610133610689565b6040516101409190610e7a565b60405180910390f35b610163600480360381019061015e9190610cef565b610856565b6040516101709190610d35565b60405180910390f35b61018161093f565b60405161018e9190610ca3565b60405180910390f35b6101b160048036038101906101ac9190610cef565b610965565b6040516101be9190610ca3565b60405180910390f35b6101e160048036038101906101dc9190610cef565b610a69565b6040516101ee9190610e7a565b60405180910390f35b6101ff610c38565b60405161020c9190610ca3565b60405180910390f35b6000600360009054906101000a900473ffffffffffffffffffffffffffffffffffffffff16905090565b60008060008060008054906101000a900473ffffffffffffffffffffffffffffffffffffffff1673ffffffffffffffffffffffffffffffffffffffff1663e54f08806040518163ffffffff1660e01b8152600401606060405180830381865afa1580156102b0573d6000803e3d6000fd5b505050506040513d601f19601f820116820180604052508101906102d49190610eb1565b925092509250600081600a6102e99190611066565b8460008054906101000a900473ffffffffffffffffffffffffffffffffffffffff1673ffffffffffffffffffffffffffffffffffffffff1663ac75409a896040518263ffffffff1660e01b81526004016103439190610ca3565b602060405180830381865afa158015610360573d6000803e3d6000fd5b505050506040513d601f19601f8201168201806040525081019061038491906110b1565b61038e91906110de565b610398919061114f565b905080945050505050919050565b600360009054906101000a900473ffffffffffffffffffffffffffffffffffffffff1681565b600360009054906101000a900473ffffffffffffffffffffffffffffffffffffffff1673ffffffffffffffffffffffffffffffffffffffff168273ffffffffffffffffffffffffffffffffffffffff161461042657600080fd5b60003073ffffffffffffffffffffffffffffffffffffffff16633b2e5f94336040518263ffffffff1660e01b81526004016104619190610ca3565b602060405180830381865afa15801561047e573d6000803e3d6000fd5b505050506040513d601f19601f820116820180604052508101906104a291906110b1565b905060006064600560009054906101000a900460ff1660ff16836104c691906110de565b6104d0919061114f565b905060003073ffffffffffffffffffffffffffffffffffffffff16639a78e72e336040518263ffffffff1660e01b815260040161050d9190610ca3565b602060405180830381865afa15801561052a573d6000803e3d6000fd5b505050506040513d601f19601f8201168201806040525081019061054e91906110b1565b905081848261055d9190611180565b1061059d576040517f08c379a000000000000000000000000000000000000000000000000000000000815260040161059490611237565b60405180910390fd5b83600460003373ffffffffffffffffffffffffffffffffffffffff1673ffffffffffffffffffffffffffffffffffffffff16815260200190815260200160002060008282546105ec9190611180565b92505081905550600160009054906101000a900473ffffffffffffffffffffffffffffffffffffffff1673ffffffffffffffffffffffffffffffffffffffff1663683ae08333866040518363ffffffff1660e01b8152600401610650929190611257565b600060405180830381600087803b15801561066a57600080fd5b505af115801561067e573d6000803e3d6000fd5b505050505050505050565b606060008060008060009054906101000a900473ffffffffffffffffffffffffffffffffffffffff1673ffffffffffffffffffffffffffffffffffffffff1663e54f08806040518163ffffffff1660e01b8152600401606060405180830381865afa1580156106fc573d6000803e3d6000fd5b505050506040513d601f19601f820116820180604052508101906107209190610eb1565b9250925092506000600160009054906101000a900473ffffffffffffffffffffffffffffffffffffffff1673ffffffffffffffffffffffffffffffffffffffff1663e54f08806040518163ffffffff1660e01b8152600401602060405180830381865afa158015610795573d6000803e3d6000fd5b505050506040513d601f19601f820116820180604052508101906107b991906110b1565b90506000600267ffffffffffffffff8111156107d8576107d7611280565b5b6040519080825280602002602001820160405280156108065781602001602082028036833780820191505090505b509050848160008151811061081e5761081d6112af565b5b602002602001018181525050818160018151811061083f5761083e6112af565b5b602002602001018181525050809550505050505090565b600080600160009054906101000a900473ffffffffffffffffffffffffffffffffffffffff1673ffffffffffffffffffffffffffffffffffffffff1663e54f08806040518163ffffffff1660e01b8152600401602060405180830381865afa1580156108c6573d6000803e3d6000fd5b505050506040513d601f19601f820116820180604052508101906108ea91906110b1565b600460008573ffffffffffffffffffffffffffffffffffffffff1673ffffffffffffffffffffffffffffffffffffffff1681526020019081526020016000205461093491906110de565b905080915050919050565b600260009054906101000a900473ffffffffffffffffffffffffffffffffffffffff1681565b6000600260009054906101000a900473ffffffffffffffffffffffffffffffffffffffff1673ffffffffffffffffffffffffffffffffffffffff168273ffffffffffffffffffffffffffffffffffffffff16036109e45760008054906101000a900473ffffffffffffffffffffffffffffffffffffffff169050610a64565b600360009054906101000a900473ffffffffffffffffffffffffffffffffffffffff1673ffffffffffffffffffffffffffffffffffffffff168273ffffffffffffffffffffffffffffffffffffffff1603610a6357600160009054906101000a900473ffffffffffffffffffffffffffffffffffffffff169050610a64565b5b919050565b60606000600267ffffffffffffffff811115610a8857610a87611280565b5b604051908082528060200260200182016040528015610ab65781602001602082028036833780820191505090505b50905060008054906101000a900473ffffffffffffffffffffffffffffffffffffffff1673ffffffffffffffffffffffffffffffffffffffff1663ac75409a846040518263ffffffff1660e01b8152600401610b129190610ca3565b602060405180830381865afa158015610b2f573d6000803e3d6000fd5b505050506040513d601f19601f82011682018060405250810190610b5391906110b1565b81600081518110610b6757610b666112af565b5b602002602001018181525050600160009054906101000a900473ffffffffffffffffffffffffffffffffffffffff1673ffffffffffffffffffffffffffffffffffffffff1663ac75409a846040518263ffffffff1660e01b8152600401610bce9190610ca3565b602060405180830381865afa158015610beb573d6000803e3d6000fd5b505050506040513d601f19601f82011682018060405250810190610c0f91906110b1565b81600181518110610c2357610c226112af565b5b60200260200101818152505080915050919050565b6000600260009054906101000a900473ffffffffffffffffffffffffffffffffffffffff16905090565b600073ffffffffffffffffffffffffffffffffffffffff82169050919050565b6000610c8d82610c62565b9050919050565b610c9d81610c82565b82525050565b6000602082019050610cb86000830184610c94565b92915050565b600080fd5b610ccc81610c82565b8114610cd757600080fd5b50565b600081359050610ce981610cc3565b92915050565b600060208284031215610d0557610d04610cbe565b5b6000610d1384828501610cda565b91505092915050565b6000819050919050565b610d2f81610d1c565b82525050565b6000602082019050610d4a6000830184610d26565b92915050565b610d5981610d1c565b8114610d6457600080fd5b50565b600081359050610d7681610d50565b92915050565b60008060408385031215610d9357610d92610cbe565b5b6000610da185828601610cda565b9250506020610db285828601610d67565b9150509250929050565b600081519050919050565b600082825260208201905092915050565b6000819050602082019050919050565b610df181610d1c565b82525050565b6000610e038383610de8565b60208301905092915050565b6000602082019050919050565b6000610e2782610dbc565b610e318185610dc7565b9350610e3c83610dd8565b8060005b83811015610e6d578151610e548882610df7565b9750610e5f83610e0f565b925050600181019050610e40565b5085935050505092915050565b60006020820190508181036000830152610e948184610e1c565b905092915050565b600081519050610eab81610d50565b92915050565b600080600060608486031215610eca57610ec9610cbe565b5b6000610ed886828701610e9c565b9350506020610ee986828701610e9c565b9250506040610efa86828701610e9c565b9150509250925092565b7f4e487b7100000000000000000000000000000000000000000000000000000000600052601160045260246000fd5b60008160011c9050919050565b6000808291508390505b6001851115610f8a57808604811115610f6657610f65610f04565b5b6001851615610f755780820291505b8081029050610f8385610f33565b9450610f4a565b94509492505050565b600082610fa3576001905061105f565b81610fb1576000905061105f565b8160018114610fc75760028114610fd157611000565b600191505061105f565b60ff841115610fe357610fe2610f04565b5b8360020a915084821115610ffa57610ff9610f04565b5b5061105f565b5060208310610133831016604e8410600b84101617156110355782820a9050838111156110305761102f610f04565b5b61105f565b6110428484846001610f40565b9250905081840481111561105957611058610f04565b5b81810290505b9392505050565b600061107182610d1c565b915061107c83610d1c565b92506110a97fffffffffffffffffffffffffffffffffffffffffffffffffffffffffffffffff8484610f93565b905092915050565b6000602082840312156110c7576110c6610cbe565b5b60006110d584828501610e9c565b91505092915050565b60006110e982610d1c565b91506110f483610d1c565b925082820261110281610d1c565b9150828204841483151761111957611118610f04565b5b5092915050565b7f4e487b7100000000000000000000000000000000000000000000000000000000600052601260045260246000fd5b600061115a82610d1c565b915061116583610d1c565b92508261117557611174611120565b5b828204905092915050565b600061118b82610d1c565b915061119683610d1c565b92508282019050808211156111ae576111ad610f04565b5b92915050565b600082825260208201905092915050565b7f596f752077616e7420746f206d6f7265206d6f72652076616c7565207468616e60008201527f20616c6c6f776564000000000000000000000000000000000000000000000000602082015250565b60006112216028836111b4565b915061122c826111c5565b604082019050919050565b6000602082019050818103600083015261125081611214565b9050919050565b600060408201905061126c6000830185610c94565b6112796020830184610d26565b9392505050565b7f4e487b7100000000000000000000000000000000000000000000000000000000600052604160045260246000fd5b7f4e487b7100000000000000000000000000000000000000000000000000000000600052603260045260246000fdfea2646970667358221220adf108b572513d6306e4cb6f0af3613af5f53e6a8bfab60ed1ac42ed90af69f864736f6c63430008180033",
		"opcodes": "PUSH1 0x80 PUSH1 0x40 MSTORE CALLVALUE DUP1 ISZERO PUSH2 0x10 JUMPI PUSH1 0x0 DUP1 REVERT JUMPDEST POP PUSH1 0x4 CALLDATASIZE LT PUSH2 0x9E JUMPI PUSH1 0x0 CALLDATALOAD PUSH1 0xE0 SHR DUP1 PUSH4 0x9A78E72E GT PUSH2 0x66 JUMPI DUP1 PUSH4 0x9A78E72E EQ PUSH2 0x149 JUMPI DUP1 PUSH4 0x9B452931 EQ PUSH2 0x179 JUMPI DUP1 PUSH4 0xC9A396E9 EQ PUSH2 0x197 JUMPI DUP1 PUSH4 0xCBDDB785 EQ PUSH2 0x1C7 JUMPI DUP1 PUSH4 0xD4D40086 EQ PUSH2 0x1F7 JUMPI PUSH2 0x9E JUMP JUMPDEST DUP1 PUSH4 0x1BF01E9B EQ PUSH2 0xA3 JUMPI DUP1 PUSH4 0x3B2E5F94 EQ PUSH2 0xC1 JUMPI DUP1 PUSH4 0x3E413BEE EQ PUSH2 0xF1 JUMPI DUP1 PUSH4 0x4B8A3529 EQ PUSH2 0x10F JUMPI DUP1 PUSH4 0x7C1F8560 EQ PUSH2 0x12B JUMPI JUMPDEST PUSH1 0x0 DUP1 REVERT JUMPDEST PUSH2 0xAB PUSH2 0x215 JUMP JUMPDEST PUSH1 0x40 MLOAD PUSH2 0xB8 SWAP2 SWAP1 PUSH2 0xCA3 JUMP JUMPDEST PUSH1 0x40 MLOAD DUP1 SWAP2 SUB SWAP1 RETURN JUMPDEST PUSH2 0xDB PUSH1 0x4 DUP1 CALLDATASIZE SUB DUP2 ADD SWAP1 PUSH2 0xD6 SWAP2 SWAP1 PUSH2 0xCEF JUMP JUMPDEST PUSH2 0x23F JUMP JUMPDEST PUSH1 0x40 MLOAD PUSH2 0xE8 SWAP2 SWAP1 PUSH2 0xD35 JUMP JUMPDEST PUSH1 0x40 MLOAD DUP1 SWAP2 SUB SWAP1 RETURN JUMPDEST PUSH2 0xF9 PUSH2 0x3A6 JUMP JUMPDEST PUSH1 0x40 MLOAD PUSH2 0x106 SWAP2 SWAP1 PUSH2 0xCA3 JUMP JUMPDEST PUSH1 0x40 MLOAD DUP1 SWAP2 SUB SWAP1 RETURN JUMPDEST PUSH2 0x129 PUSH1 0x4 DUP1 CALLDATASIZE SUB DUP2 ADD SWAP1 PUSH2 0x124 SWAP2 SWAP1 PUSH2 0xD7C JUMP JUMPDEST PUSH2 0x3CC JUMP JUMPDEST STOP JUMPDEST PUSH2 0x133 PUSH2 0x689 JUMP JUMPDEST PUSH1 0x40 MLOAD PUSH2 0x140 SWAP2 SWAP1 PUSH2 0xE7A JUMP JUMPDEST PUSH1 0x40 MLOAD DUP1 SWAP2 SUB SWAP1 RETURN JUMPDEST PUSH2 0x163 PUSH1 0x4 DUP1 CALLDATASIZE SUB DUP2 ADD SWAP1 PUSH2 0x15E SWAP2 SWAP1 PUSH2 0xCEF JUMP JUMPDEST PUSH2 0x856 JUMP JUMPDEST PUSH1 0x40 MLOAD PUSH2 0x170 SWAP2 SWAP1 PUSH2 0xD35 JUMP JUMPDEST PUSH1 0x40 MLOAD DUP1 SWAP2 SUB SWAP1 RETURN JUMPDEST PUSH2 0x181 PUSH2 0x93F JUMP JUMPDEST PUSH1 0x40 MLOAD PUSH2 0x18E SWAP2 SWAP1 PUSH2 0xCA3 JUMP JUMPDEST PUSH1 0x40 MLOAD DUP1 SWAP2 SUB SWAP1 RETURN JUMPDEST PUSH2 0x1B1 PUSH1 0x4 DUP1 CALLDATASIZE SUB DUP2 ADD SWAP1 PUSH2 0x1AC SWAP2 SWAP1 PUSH2 0xCEF JUMP JUMPDEST PUSH2 0x965 JUMP JUMPDEST PUSH1 0x40 MLOAD PUSH2 0x1BE SWAP2 SWAP1 PUSH2 0xCA3 JUMP JUMPDEST PUSH1 0x40 MLOAD DUP1 SWAP2 SUB SWAP1 RETURN JUMPDEST PUSH2 0x1E1 PUSH1 0x4 DUP1 CALLDATASIZE SUB DUP2 ADD SWAP1 PUSH2 0x1DC SWAP2 SWAP1 PUSH2 0xCEF JUMP JUMPDEST PUSH2 0xA69 JUMP JUMPDEST PUSH1 0x40 MLOAD PUSH2 0x1EE SWAP2 SWAP1 PUSH2 0xE7A JUMP JUMPDEST PUSH1 0x40 MLOAD DUP1 SWAP2 SUB SWAP1 RETURN JUMPDEST PUSH2 0x1FF PUSH2 0xC38 JUMP JUMPDEST PUSH1 0x40 MLOAD PUSH2 0x20C SWAP2 SWAP1 PUSH2 0xCA3 JUMP JUMPDEST PUSH1 0x40 MLOAD DUP1 SWAP2 SUB SWAP1 RETURN JUMPDEST PUSH1 0x0 PUSH1 0x3 PUSH1 0x0 SWAP1 SLOAD SWAP1 PUSH2 0x100 EXP SWAP1 DIV PUSH20 0xFFFFFFFFFFFFFFFFFFFFFFFFFFFFFFFFFFFFFFFF AND SWAP1 POP SWAP1 JUMP JUMPDEST PUSH1 0x0 DUP1 PUSH1 0x0 DUP1 PUSH1 0x0 DUP1 SLOAD SWAP1 PUSH2 0x100 EXP SWAP1 DIV PUSH20 0xFFFFFFFFFFFFFFFFFFFFFFFFFFFFFFFFFFFFFFFF AND PUSH20 0xFFFFFFFFFFFFFFFFFFFFFFFFFFFFFFFFFFFFFFFF AND PUSH4 0xE54F0880 PUSH1 0x40 MLOAD DUP2 PUSH4 0xFFFFFFFF AND PUSH1 0xE0 SHL DUP2 MSTORE PUSH1 0x4 ADD PUSH1 0x60 PUSH1 0x40 MLOAD DUP1 DUP4 SUB DUP2 DUP7 GAS STATICCALL ISZERO DUP1 ISZERO PUSH2 0x2B0 JUMPI RETURNDATASIZE PUSH1 0x0 DUP1 RETURNDATACOPY RETURNDATASIZE PUSH1 0x0 REVERT JUMPDEST POP POP POP POP PUSH1 0x40 MLOAD RETURNDATASIZE PUSH1 0x1F NOT PUSH1 0x1F DUP3 ADD AND DUP3 ADD DUP1 PUSH1 0x40 MSTORE POP DUP2 ADD SWAP1 PUSH2 0x2D4 SWAP2 SWAP1 PUSH2 0xEB1 JUMP JUMPDEST SWAP3 POP SWAP3 POP SWAP3 POP PUSH1 0x0 DUP2 PUSH1 0xA PUSH2 0x2E9 SWAP2 SWAP1 PUSH2 0x1066 JUMP JUMPDEST DUP5 PUSH1 0x0 DUP1 SLOAD SWAP1 PUSH2 0x100 EXP SWAP1 DIV PUSH20 0xFFFFFFFFFFFFFFFFFFFFFFFFFFFFFFFFFFFFFFFF AND PUSH20 0xFFFFFFFFFFFFFFFFFFFFFFFFFFFFFFFFFFFFFFFF AND PUSH4 0xAC75409A DUP10 PUSH1 0x40 MLOAD DUP3 PUSH4 0xFFFFFFFF AND PUSH1 0xE0 SHL DUP2 MSTORE PUSH1 0x4 ADD PUSH2 0x343 SWAP2 SWAP1 PUSH2 0xCA3 JUMP JUMPDEST PUSH1 0x20 PUSH1 0x40 MLOAD DUP1 DUP4 SUB DUP2 DUP7 GAS STATICCALL ISZERO DUP1 ISZERO PUSH2 0x360 JUMPI RETURNDATASIZE PUSH1 0x0 DUP1 RETURNDATACOPY RETURNDATASIZE PUSH1 0x0 REVERT JUMPDEST POP POP POP POP PUSH1 0x40 MLOAD RETURNDATASIZE PUSH1 0x1F NOT PUSH1 0x1F DUP3 ADD AND DUP3 ADD DUP1 PUSH1 0x40 MSTORE POP DUP2 ADD SWAP1 PUSH2 0x384 SWAP2 SWAP1 PUSH2 0x10B1 JUMP JUMPDEST PUSH2 0x38E SWAP2 SWAP1 PUSH2 0x10DE JUMP JUMPDEST PUSH2 0x398 SWAP2 SWAP1 PUSH2 0x114F JUMP JUMPDEST SWAP1 POP DUP1 SWAP5 POP POP POP POP POP SWAP2 SWAP1 POP JUMP JUMPDEST PUSH1 0x3 PUSH1 0x0 SWAP1 SLOAD SWAP1 PUSH2 0x100 EXP SWAP1 DIV PUSH20 0xFFFFFFFFFFFFFFFFFFFFFFFFFFFFFFFFFFFFFFFF AND DUP2 JUMP JUMPDEST PUSH1 0x3 PUSH1 0x0 SWAP1 SLOAD SWAP1 PUSH2 0x100 EXP SWAP1 DIV PUSH20 0xFFFFFFFFFFFFFFFFFFFFFFFFFFFFFFFFFFFFFFFF AND PUSH20 0xFFFFFFFFFFFFFFFFFFFFFFFFFFFFFFFFFFFFFFFF AND DUP3 PUSH20 0xFFFFFFFFFFFFFFFFFFFFFFFFFFFFFFFFFFFFFFFF AND EQ PUSH2 0x426 JUMPI PUSH1 0x0 DUP1 REVERT JUMPDEST PUSH1 0x0 ADDRESS PUSH20 0xFFFFFFFFFFFFFFFFFFFFFFFFFFFFFFFFFFFFFFFF AND PUSH4 0x3B2E5F94 CALLER PUSH1 0x40 MLOAD DUP3 PUSH4 0xFFFFFFFF AND PUSH1 0xE0 SHL DUP2 MSTORE PUSH1 0x4 ADD PUSH2 0x461 SWAP2 SWAP1 PUSH2 0xCA3 JUMP JUMPDEST PUSH1 0x20 PUSH1 0x40 MLOAD DUP1 DUP4 SUB DUP2 DUP7 GAS STATICCALL ISZERO DUP1 ISZERO PUSH2 0x47E JUMPI RETURNDATASIZE PUSH1 0x0 DUP1 RETURNDATACOPY RETURNDATASIZE PUSH1 0x0 REVERT JUMPDEST POP POP POP POP PUSH1 0x40 MLOAD RETURNDATASIZE PUSH1 0x1F NOT PUSH1 0x1F DUP3 ADD AND DUP3 ADD DUP1 PUSH1 0x40 MSTORE POP DUP2 ADD SWAP1 PUSH2 0x4A2 SWAP2 SWAP1 PUSH2 0x10B1 JUMP JUMPDEST SWAP1 POP PUSH1 0x0 PUSH1 0x64 PUSH1 0x5 PUSH1 0x0 SWAP1 SLOAD SWAP1 PUSH2 0x100 EXP SWAP1 DIV PUSH1 0xFF AND PUSH1 0xFF AND DUP4 PUSH2 0x4C6 SWAP2 SWAP1 PUSH2 0x10DE JUMP JUMPDEST PUSH2 0x4D0 SWAP2 SWAP1 PUSH2 0x114F JUMP JUMPDEST SWAP1 POP PUSH1 0x0 ADDRESS PUSH20 0xFFFFFFFFFFFFFFFFFFFFFFFFFFFFFFFFFFFFFFFF AND PUSH4 0x9A78E72E CALLER PUSH1 0x40 MLOAD DUP3 PUSH4 0xFFFFFFFF AND PUSH1 0xE0 SHL DUP2 MSTORE PUSH1 0x4 ADD PUSH2 0x50D SWAP2 SWAP1 PUSH2 0xCA3 JUMP JUMPDEST PUSH1 0x20 PUSH1 0x40 MLOAD DUP1 DUP4 SUB DUP2 DUP7 GAS STATICCALL ISZERO DUP1 ISZERO PUSH2 0x52A JUMPI RETURNDATASIZE PUSH1 0x0 DUP1 RETURNDATACOPY RETURNDATASIZE PUSH1 0x0 REVERT JUMPDEST POP POP POP POP PUSH1 0x40 MLOAD RETURNDATASIZE PUSH1 0x1F NOT PUSH1 0x1F DUP3 ADD AND DUP3 ADD DUP1 PUSH1 0x40 MSTORE POP DUP2 ADD SWAP1 PUSH2 0x54E SWAP2 SWAP1 PUSH2 0x10B1 JUMP JUMPDEST SWAP1 POP DUP2 DUP5 DUP3 PUSH2 0x55D SWAP2 SWAP1 PUSH2 0x1180 JUMP JUMPDEST LT PUSH2 0x59D JUMPI PUSH1 0x40 MLOAD PUSH32 0x8C379A000000000000000000000000000000000000000000000000000000000 DUP2 MSTORE PUSH1 0x4 ADD PUSH2 0x594 SWAP1 PUSH2 0x1237 JUMP JUMPDEST PUSH1 0x40 MLOAD DUP1 SWAP2 SUB SWAP1 REVERT JUMPDEST DUP4 PUSH1 0x4 PUSH1 0x0 CALLER PUSH20 0xFFFFFFFFFFFFFFFFFFFFFFFFFFFFFFFFFFFFFFFF AND PUSH20 0xFFFFFFFFFFFFFFFFFFFFFFFFFFFFFFFFFFFFFFFF AND DUP2 MSTORE PUSH1 0x20 ADD SWAP1 DUP2 MSTORE PUSH1 0x20 ADD PUSH1 0x0 KECCAK256 PUSH1 0x0 DUP3 DUP3 SLOAD PUSH2 0x5EC SWAP2 SWAP1 PUSH2 0x1180 JUMP JUMPDEST SWAP3 POP POP DUP2 SWAP1 SSTORE POP PUSH1 0x1 PUSH1 0x0 SWAP1 SLOAD SWAP1 PUSH2 0x100 EXP SWAP1 DIV PUSH20 0xFFFFFFFFFFFFFFFFFFFFFFFFFFFFFFFFFFFFFFFF AND PUSH20 0xFFFFFFFFFFFFFFFFFFFFFFFFFFFFFFFFFFFFFFFF AND PUSH4 0x683AE083 CALLER DUP7 PUSH1 0x40 MLOAD DUP4 PUSH4 0xFFFFFFFF AND PUSH1 0xE0 SHL DUP2 MSTORE PUSH1 0x4 ADD PUSH2 0x650 SWAP3 SWAP2 SWAP1 PUSH2 0x1257 JUMP JUMPDEST PUSH1 0x0 PUSH1 0x40 MLOAD DUP1 DUP4 SUB DUP2 PUSH1 0x0 DUP8 DUP1 EXTCODESIZE ISZERO DUP1 ISZERO PUSH2 0x66A JUMPI PUSH1 0x0 DUP1 REVERT JUMPDEST POP GAS CALL ISZERO DUP1 ISZERO PUSH2 0x67E JUMPI RETURNDATASIZE PUSH1 0x0 DUP1 RETURNDATACOPY RETURNDATASIZE PUSH1 0x0 REVERT JUMPDEST POP POP POP POP POP POP POP POP POP JUMP JUMPDEST PUSH1 0x60 PUSH1 0x0 DUP1 PUSH1 0x0 DUP1 PUSH1 0x0 SWAP1 SLOAD SWAP1 PUSH2 0x100 EXP SWAP1 DIV PUSH20 0xFFFFFFFFFFFFFFFFFFFFFFFFFFFFFFFFFFFFFFFF AND PUSH20 0xFFFFFFFFFFFFFFFFFFFFFFFFFFFFFFFFFFFFFFFF AND PUSH4 0xE54F0880 PUSH1 0x40 MLOAD DUP2 PUSH4 0xFFFFFFFF AND PUSH1 0xE0 SHL DUP2 MSTORE PUSH1 0x4 ADD PUSH1 0x60 PUSH1 0x40 MLOAD DUP1 DUP4 SUB DUP2 DUP7 GAS STATICCALL ISZERO DUP1 ISZERO PUSH2 0x6FC JUMPI RETURNDATASIZE PUSH1 0x0 DUP1 RETURNDATACOPY RETURNDATASIZE PUSH1 0x0 REVERT JUMPDEST POP POP POP POP PUSH1 0x40 MLOAD RETURNDATASIZE PUSH1 0x1F NOT PUSH1 0x1F DUP3 ADD AND DUP3 ADD DUP1 PUSH1 0x40 MSTORE POP DUP2 ADD SWAP1 PUSH2 0x720 SWAP2 SWAP1 PUSH2 0xEB1 JUMP JUMPDEST SWAP3 POP SWAP3 POP SWAP3 POP PUSH1 0x0 PUSH1 0x1 PUSH1 0x0 SWAP1 SLOAD SWAP1 PUSH2 0x100 EXP SWAP1 DIV PUSH20 0xFFFFFFFFFFFFFFFFFFFFFFFFFFFFFFFFFFFFFFFF AND PUSH20 0xFFFFFFFFFFFFFFFFFFFFFFFFFFFFFFFFFFFFFFFF AND PUSH4 0xE54F0880 PUSH1 0x40 MLOAD DUP2 PUSH4 0xFFFFFFFF AND PUSH1 0xE0 SHL DUP2 MSTORE PUSH1 0x4 ADD PUSH1 0x20 PUSH1 0x40 MLOAD DUP1 DUP4 SUB DUP2 DUP7 GAS STATICCALL ISZERO DUP1 ISZERO PUSH2 0x795 JUMPI RETURNDATASIZE PUSH1 0x0 DUP1 RETURNDATACOPY RETURNDATASIZE PUSH1 0x0 REVERT JUMPDEST POP POP POP POP PUSH1 0x40 MLOAD RETURNDATASIZE PUSH1 0x1F NOT PUSH1 0x1F DUP3 ADD AND DUP3 ADD DUP1 PUSH1 0x40 MSTORE POP DUP2 ADD SWAP1 PUSH2 0x7B9 SWAP2 SWAP1 PUSH2 0x10B1 JUMP JUMPDEST SWAP1 POP PUSH1 0x0 PUSH1 0x2 PUSH8 0xFFFFFFFFFFFFFFFF DUP2 GT ISZERO PUSH2 0x7D8 JUMPI PUSH2 0x7D7 PUSH2 0x1280 JUMP JUMPDEST JUMPDEST PUSH1 0x40 MLOAD SWAP1 DUP1 DUP3 MSTORE DUP1 PUSH1 0x20 MUL PUSH1 0x20 ADD DUP3 ADD PUSH1 0x40 MSTORE DUP1 ISZERO PUSH2 0x806 JUMPI DUP2 PUSH1 0x20 ADD PUSH1 0x20 DUP3 MUL DUP1 CALLDATASIZE DUP4 CALLDATACOPY DUP1 DUP3 ADD SWAP2 POP POP SWAP1 POP JUMPDEST POP SWAP1 POP DUP5 DUP2 PUSH1 0x0 DUP2 MLOAD DUP2 LT PUSH2 0x81E JUMPI PUSH2 0x81D PUSH2 0x12AF JUMP JUMPDEST JUMPDEST PUSH1 0x20 MUL PUSH1 0x20 ADD ADD DUP2 DUP2 MSTORE POP POP DUP2 DUP2 PUSH1 0x1 DUP2 MLOAD DUP2 LT PUSH2 0x83F JUMPI PUSH2 0x83E PUSH2 0x12AF JUMP JUMPDEST JUMPDEST PUSH1 0x20 MUL PUSH1 0x20 ADD ADD DUP2 DUP2 MSTORE POP POP DUP1 SWAP6 POP POP POP POP POP POP SWAP1 JUMP JUMPDEST PUSH1 0x0 DUP1 PUSH1 0x1 PUSH1 0x0 SWAP1 SLOAD SWAP1 PUSH2 0x100 EXP SWAP1 DIV PUSH20 0xFFFFFFFFFFFFFFFFFFFFFFFFFFFFFFFFFFFFFFFF AND PUSH20 0xFFFFFFFFFFFFFFFFFFFFFFFFFFFFFFFFFFFFFFFF AND PUSH4 0xE54F0880 PUSH1 0x40 MLOAD DUP2 PUSH4 0xFFFFFFFF AND PUSH1 0xE0 SHL DUP2 MSTORE PUSH1 0x4 ADD PUSH1 0x20 PUSH1 0x40 MLOAD DUP1 DUP4 SUB DUP2 DUP7 GAS STATICCALL ISZERO DUP1 ISZERO PUSH2 0x8C6 JUMPI RETURNDATASIZE PUSH1 0x0 DUP1 RETURNDATACOPY RETURNDATASIZE PUSH1 0x0 REVERT JUMPDEST POP POP POP POP PUSH1 0x40 MLOAD RETURNDATASIZE PUSH1 0x1F NOT PUSH1 0x1F DUP3 ADD AND DUP3 ADD DUP1 PUSH1 0x40 MSTORE POP DUP2 ADD SWAP1 PUSH2 0x8EA SWAP2 SWAP1 PUSH2 0x10B1 JUMP JUMPDEST PUSH1 0x4 PUSH1 0x0 DUP6 PUSH20 0xFFFFFFFFFFFFFFFFFFFFFFFFFFFFFFFFFFFFFFFF AND PUSH20 0xFFFFFFFFFFFFFFFFFFFFFFFFFFFFFFFFFFFFFFFF AND DUP2 MSTORE PUSH1 0x20 ADD SWAP1 DUP2 MSTORE PUSH1 0x20 ADD PUSH1 0x0 KECCAK256 SLOAD PUSH2 0x934 SWAP2 SWAP1 PUSH2 0x10DE JUMP JUMPDEST SWAP1 POP DUP1 SWAP2 POP POP SWAP2 SWAP1 POP JUMP JUMPDEST PUSH1 0x2 PUSH1 0x0 SWAP1 SLOAD SWAP1 PUSH2 0x100 EXP SWAP1 DIV PUSH20 0xFFFFFFFFFFFFFFFFFFFFFFFFFFFFFFFFFFFFFFFF AND DUP2 JUMP JUMPDEST PUSH1 0x0 PUSH1 0x2 PUSH1 0x0 SWAP1 SLOAD SWAP1 PUSH2 0x100 EXP SWAP1 DIV PUSH20 0xFFFFFFFFFFFFFFFFFFFFFFFFFFFFFFFFFFFFFFFF AND PUSH20 0xFFFFFFFFFFFFFFFFFFFFFFFFFFFFFFFFFFFFFFFF AND DUP3 PUSH20 0xFFFFFFFFFFFFFFFFFFFFFFFFFFFFFFFFFFFFFFFF AND SUB PUSH2 0x9E4 JUMPI PUSH1 0x0 DUP1 SLOAD SWAP1 PUSH2 0x100 EXP SWAP1 DIV PUSH20 0xFFFFFFFFFFFFFFFFFFFFFFFFFFFFFFFFFFFFFFFF AND SWAP1 POP PUSH2 0xA64 JUMP JUMPDEST PUSH1 0x3 PUSH1 0x0 SWAP1 SLOAD SWAP1 PUSH2 0x100 EXP SWAP1 DIV PUSH20 0xFFFFFFFFFFFFFFFFFFFFFFFFFFFFFFFFFFFFFFFF AND PUSH20 0xFFFFFFFFFFFFFFFFFFFFFFFFFFFFFFFFFFFFFFFF AND DUP3 PUSH20 0xFFFFFFFFFFFFFFFFFFFFFFFFFFFFFFFFFFFFFFFF AND SUB PUSH2 0xA63 JUMPI PUSH1 0x1 PUSH1 0x0 SWAP1 SLOAD SWAP1 PUSH2 0x100 EXP SWAP1 DIV PUSH20 0xFFFFFFFFFFFFFFFFFFFFFFFFFFFFFFFFFFFFFFFF AND SWAP1 POP PUSH2 0xA64 JUMP JUMPDEST JUMPDEST SWAP2 SWAP1 POP JUMP JUMPDEST PUSH1 0x60 PUSH1 0x0 PUSH1 0x2 PUSH8 0xFFFFFFFFFFFFFFFF DUP2 GT ISZERO PUSH2 0xA88 JUMPI PUSH2 0xA87 PUSH2 0x1280 JUMP JUMPDEST JUMPDEST PUSH1 0x40 MLOAD SWAP1 DUP1 DUP3 MSTORE DUP1 PUSH1 0x20 MUL PUSH1 0x20 ADD DUP3 ADD PUSH1 0x40 MSTORE DUP1 ISZERO PUSH2 0xAB6 JUMPI DUP2 PUSH1 0x20 ADD PUSH1 0x20 DUP3 MUL DUP1 CALLDATASIZE DUP4 CALLDATACOPY DUP1 DUP3 ADD SWAP2 POP POP SWAP1 POP JUMPDEST POP SWAP1 POP PUSH1 0x0 DUP1 SLOAD SWAP1 PUSH2 0x100 EXP SWAP1 DIV PUSH20 0xFFFFFFFFFFFFFFFFFFFFFFFFFFFFFFFFFFFFFFFF AND PUSH20 0xFFFFFFFFFFFFFFFFFFFFFFFFFFFFFFFFFFFFFFFF AND PUSH4 0xAC75409A DUP5 PUSH1 0x40 MLOAD DUP3 PUSH4 0xFFFFFFFF AND PUSH1 0xE0 SHL DUP2 MSTORE PUSH1 0x4 ADD PUSH2 0xB12 SWAP2 SWAP1 PUSH2 0xCA3 JUMP JUMPDEST PUSH1 0x20 PUSH1 0x40 MLOAD DUP1 DUP4 SUB DUP2 DUP7 GAS STATICCALL ISZERO DUP1 ISZERO PUSH2 0xB2F JUMPI RETURNDATASIZE PUSH1 0x0 DUP1 RETURNDATACOPY RETURNDATASIZE PUSH1 0x0 REVERT JUMPDEST POP POP POP POP PUSH1 0x40 MLOAD RETURNDATASIZE PUSH1 0x1F NOT PUSH1 0x1F DUP3 ADD AND DUP3 ADD DUP1 PUSH1 0x40 MSTORE POP DUP2 ADD SWAP1 PUSH2 0xB53 SWAP2 SWAP1 PUSH2 0x10B1 JUMP JUMPDEST DUP2 PUSH1 0x0 DUP2 MLOAD DUP2 LT PUSH2 0xB67 JUMPI PUSH2 0xB66 PUSH2 0x12AF JUMP JUMPDEST JUMPDEST PUSH1 0x20 MUL PUSH1 0x20 ADD ADD DUP2 DUP2 MSTORE POP POP PUSH1 0x1 PUSH1 0x0 SWAP1 SLOAD SWAP1 PUSH2 0x100 EXP SWAP1 DIV PUSH20 0xFFFFFFFFFFFFFFFFFFFFFFFFFFFFFFFFFFFFFFFF AND PUSH20 0xFFFFFFFFFFFFFFFFFFFFFFFFFFFFFFFFFFFFFFFF AND PUSH4 0xAC75409A DUP5 PUSH1 0x40 MLOAD DUP3 PUSH4 0xFFFFFFFF AND PUSH1 0xE0 SHL DUP2 MSTORE PUSH1 0x4 ADD PUSH2 0xBCE SWAP2 SWAP1 PUSH2 0xCA3 JUMP JUMPDEST PUSH1 0x20 PUSH1 0x40 MLOAD DUP1 DUP4 SUB DUP2 DUP7 GAS STATICCALL ISZERO DUP1 ISZERO PUSH2 0xBEB JUMPI RETURNDATASIZE PUSH1 0x0 DUP1 RETURNDATACOPY RETURNDATASIZE PUSH1 0x0 REVERT JUMPDEST POP POP POP POP PUSH1 0x40 MLOAD RETURNDATASIZE PUSH1 0x1F NOT PUSH1 0x1F DUP3 ADD AND DUP3 ADD DUP1 PUSH1 0x40 MSTORE POP DUP2 ADD SWAP1 PUSH2 0xC0F SWAP2 SWAP1 PUSH2 0x10B1 JUMP JUMPDEST DUP2 PUSH1 0x1 DUP2 MLOAD DUP2 LT PUSH2 0xC23 JUMPI PUSH2 0xC22 PUSH2 0x12AF JUMP JUMPDEST JUMPDEST PUSH1 0x20 MUL PUSH1 0x20 ADD ADD DUP2 DUP2 MSTORE POP POP DUP1 SWAP2 POP POP SWAP2 SWAP1 POP JUMP JUMPDEST PUSH1 0x0 PUSH1 0x2 PUSH1 0x0 SWAP1 SLOAD SWAP1 PUSH2 0x100 EXP SWAP1 DIV PUSH20 0xFFFFFFFFFFFFFFFFFFFFFFFFFFFFFFFFFFFFFFFF AND SWAP1 POP SWAP1 JUMP JUMPDEST PUSH1 0x0 PUSH20 0xFFFFFFFFFFFFFFFFFFFFFFFFFFFFFFFFFFFFFFFF DUP3 AND SWAP1 POP SWAP2 SWAP1 POP JUMP JUMPDEST PUSH1 0x0 PUSH2 0xC8D DUP3 PUSH2 0xC62 JUMP JUMPDEST SWAP1 POP SWAP2 SWAP1 POP JUMP JUMPDEST PUSH2 0xC9D DUP2 PUSH2 0xC82 JUMP JUMPDEST DUP3 MSTORE POP POP JUMP JUMPDEST PUSH1 0x0 PUSH1 0x20 DUP3 ADD SWAP1 POP PUSH2 0xCB8 PUSH1 0x0 DUP4 ADD DUP5 PUSH2 0xC94 JUMP JUMPDEST SWAP3 SWAP2 POP POP JUMP JUMPDEST PUSH1 0x0 DUP1 REVERT JUMPDEST PUSH2 0xCCC DUP2 PUSH2 0xC82 JUMP JUMPDEST DUP2 EQ PUSH2 0xCD7 JUMPI PUSH1 0x0 DUP1 REVERT JUMPDEST POP JUMP JUMPDEST PUSH1 0x0 DUP2 CALLDATALOAD SWAP1 POP PUSH2 0xCE9 DUP2 PUSH2 0xCC3 JUMP JUMPDEST SWAP3 SWAP2 POP POP JUMP JUMPDEST PUSH1 0x0 PUSH1 0x20 DUP3 DUP5 SUB SLT ISZERO PUSH2 0xD05 JUMPI PUSH2 0xD04 PUSH2 0xCBE JUMP JUMPDEST JUMPDEST PUSH1 0x0 PUSH2 0xD13 DUP5 DUP3 DUP6 ADD PUSH2 0xCDA JUMP JUMPDEST SWAP2 POP POP SWAP3 SWAP2 POP POP JUMP JUMPDEST PUSH1 0x0 DUP2 SWAP1 POP SWAP2 SWAP1 POP JUMP JUMPDEST PUSH2 0xD2F DUP2 PUSH2 0xD1C JUMP JUMPDEST DUP3 MSTORE POP POP JUMP JUMPDEST PUSH1 0x0 PUSH1 0x20 DUP3 ADD SWAP1 POP PUSH2 0xD4A PUSH1 0x0 DUP4 ADD DUP5 PUSH2 0xD26 JUMP JUMPDEST SWAP3 SWAP2 POP POP JUMP JUMPDEST PUSH2 0xD59 DUP2 PUSH2 0xD1C JUMP JUMPDEST DUP2 EQ PUSH2 0xD64 JUMPI PUSH1 0x0 DUP1 REVERT JUMPDEST POP JUMP JUMPDEST PUSH1 0x0 DUP2 CALLDATALOAD SWAP1 POP PUSH2 0xD76 DUP2 PUSH2 0xD50 JUMP JUMPDEST SWAP3 SWAP2 POP POP JUMP JUMPDEST PUSH1 0x0 DUP1 PUSH1 0x40 DUP4 DUP6 SUB SLT ISZERO PUSH2 0xD93 JUMPI PUSH2 0xD92 PUSH2 0xCBE JUMP JUMPDEST JUMPDEST PUSH1 0x0 PUSH2 0xDA1 DUP6 DUP3 DUP7 ADD PUSH2 0xCDA JUMP JUMPDEST SWAP3 POP POP PUSH1 0x20 PUSH2 0xDB2 DUP6 DUP3 DUP7 ADD PUSH2 0xD67 JUMP JUMPDEST SWAP2 POP POP SWAP3 POP SWAP3 SWAP1 POP JUMP JUMPDEST PUSH1 0x0 DUP2 MLOAD SWAP1 POP SWAP2 SWAP1 POP JUMP JUMPDEST PUSH1 0x0 DUP3 DUP3 MSTORE PUSH1 0x20 DUP3 ADD SWAP1 POP SWAP3 SWAP2 POP POP JUMP JUMPDEST PUSH1 0x0 DUP2 SWAP1 POP PUSH1 0x20 DUP3 ADD SWAP1 POP SWAP2 SWAP1 POP JUMP JUMPDEST PUSH2 0xDF1 DUP2 PUSH2 0xD1C JUMP JUMPDEST DUP3 MSTORE POP POP JUMP JUMPDEST PUSH1 0x0 PUSH2 0xE03 DUP4 DUP4 PUSH2 0xDE8 JUMP JUMPDEST PUSH1 0x20 DUP4 ADD SWAP1 POP SWAP3 SWAP2 POP POP JUMP JUMPDEST PUSH1 0x0 PUSH1 0x20 DUP3 ADD SWAP1 POP SWAP2 SWAP1 POP JUMP JUMPDEST PUSH1 0x0 PUSH2 0xE27 DUP3 PUSH2 0xDBC JUMP JUMPDEST PUSH2 0xE31 DUP2 DUP6 PUSH2 0xDC7 JUMP JUMPDEST SWAP4 POP PUSH2 0xE3C DUP4 PUSH2 0xDD8 JUMP JUMPDEST DUP1 PUSH1 0x0 JUMPDEST DUP4 DUP2 LT ISZERO PUSH2 0xE6D JUMPI DUP2 MLOAD PUSH2 0xE54 DUP9 DUP3 PUSH2 0xDF7 JUMP JUMPDEST SWAP8 POP PUSH2 0xE5F DUP4 PUSH2 0xE0F JUMP JUMPDEST SWAP3 POP POP PUSH1 0x1 DUP2 ADD SWAP1 POP PUSH2 0xE40 JUMP JUMPDEST POP DUP6 SWAP4 POP POP POP POP SWAP3 SWAP2 POP POP JUMP JUMPDEST PUSH1 0x0 PUSH1 0x20 DUP3 ADD SWAP1 POP DUP2 DUP2 SUB PUSH1 0x0 DUP4 ADD MSTORE PUSH2 0xE94 DUP2 DUP5 PUSH2 0xE1C JUMP JUMPDEST SWAP1 POP SWAP3 SWAP2 POP POP JUMP JUMPDEST PUSH1 0x0 DUP2 MLOAD SWAP1 POP PUSH2 0xEAB DUP2 PUSH2 0xD50 JUMP JUMPDEST SWAP3 SWAP2 POP POP JUMP JUMPDEST PUSH1 0x0 DUP1 PUSH1 0x0 PUSH1 0x60 DUP5 DUP7 SUB SLT ISZERO PUSH2 0xECA JUMPI PUSH2 0xEC9 PUSH2 0xCBE JUMP JUMPDEST JUMPDEST PUSH1 0x0 PUSH2 0xED8 DUP7 DUP3 DUP8 ADD PUSH2 0xE9C JUMP JUMPDEST SWAP4 POP POP PUSH1 0x20 PUSH2 0xEE9 DUP7 DUP3 DUP8 ADD PUSH2 0xE9C JUMP JUMPDEST SWAP3 POP POP PUSH1 0x40 PUSH2 0xEFA DUP7 DUP3 DUP8 ADD PUSH2 0xE9C JUMP JUMPDEST SWAP2 POP POP SWAP3 POP SWAP3 POP SWAP3 JUMP JUMPDEST PUSH32 0x4E487B7100000000000000000000000000000000000000000000000000000000 PUSH1 0x0 MSTORE PUSH1 0x11 PUSH1 0x4 MSTORE PUSH1 0x24 PUSH1 0x0 REVERT JUMPDEST PUSH1 0x0 DUP2 PUSH1 0x1 SHR SWAP1 POP SWAP2 SWAP1 POP JUMP JUMPDEST PUSH1 0x0 DUP1 DUP3 SWAP2 POP DUP4 SWAP1 POP JUMPDEST PUSH1 0x1 DUP6 GT ISZERO PUSH2 0xF8A JUMPI DUP1 DUP7 DIV DUP2 GT ISZERO PUSH2 0xF66 JUMPI PUSH2 0xF65 PUSH2 0xF04 JUMP JUMPDEST JUMPDEST PUSH1 0x1 DUP6 AND ISZERO PUSH2 0xF75 JUMPI DUP1 DUP3 MUL SWAP2 POP JUMPDEST DUP1 DUP2 MUL SWAP1 POP PUSH2 0xF83 DUP6 PUSH2 0xF33 JUMP JUMPDEST SWAP5 POP PUSH2 0xF4A JUMP JUMPDEST SWAP5 POP SWAP5 SWAP3 POP POP POP JUMP JUMPDEST PUSH1 0x0 DUP3 PUSH2 0xFA3 JUMPI PUSH1 0x1 SWAP1 POP PUSH2 0x105F JUMP JUMPDEST DUP2 PUSH2 0xFB1 JUMPI PUSH1 0x0 SWAP1 POP PUSH2 0x105F JUMP JUMPDEST DUP2 PUSH1 0x1 DUP2 EQ PUSH2 0xFC7 JUMPI PUSH1 0x2 DUP2 EQ PUSH2 0xFD1 JUMPI PUSH2 0x1000 JUMP JUMPDEST PUSH1 0x1 SWAP2 POP POP PUSH2 0x105F JUMP JUMPDEST PUSH1 0xFF DUP5 GT ISZERO PUSH2 0xFE3 JUMPI PUSH2 0xFE2 PUSH2 0xF04 JUMP JUMPDEST JUMPDEST DUP4 PUSH1 0x2 EXP SWAP2 POP DUP5 DUP3 GT ISZERO PUSH2 0xFFA JUMPI PUSH2 0xFF9 PUSH2 0xF04 JUMP JUMPDEST JUMPDEST POP PUSH2 0x105F JUMP JUMPDEST POP PUSH1 0x20 DUP4 LT PUSH2 0x133 DUP4 LT AND PUSH1 0x4E DUP5 LT PUSH1 0xB DUP5 LT AND OR ISZERO PUSH2 0x1035 JUMPI DUP3 DUP3 EXP SWAP1 POP DUP4 DUP2 GT ISZERO PUSH2 0x1030 JUMPI PUSH2 0x102F PUSH2 0xF04 JUMP JUMPDEST JUMPDEST PUSH2 0x105F JUMP JUMPDEST PUSH2 0x1042 DUP5 DUP5 DUP5 PUSH1 0x1 PUSH2 0xF40 JUMP JUMPDEST SWAP3 POP SWAP1 POP DUP2 DUP5 DIV DUP2 GT ISZERO PUSH2 0x1059 JUMPI PUSH2 0x1058 PUSH2 0xF04 JUMP JUMPDEST JUMPDEST DUP2 DUP2 MUL SWAP1 POP JUMPDEST SWAP4 SWAP3 POP POP POP JUMP JUMPDEST PUSH1 0x0 PUSH2 0x1071 DUP3 PUSH2 0xD1C JUMP JUMPDEST SWAP2 POP PUSH2 0x107C DUP4 PUSH2 0xD1C JUMP JUMPDEST SWAP3 POP PUSH2 0x10A9 PUSH32 0xFFFFFFFFFFFFFFFFFFFFFFFFFFFFFFFFFFFFFFFFFFFFFFFFFFFFFFFFFFFFFFFF DUP5 DUP5 PUSH2 0xF93 JUMP JUMPDEST SWAP1 POP SWAP3 SWAP2 POP POP JUMP JUMPDEST PUSH1 0x0 PUSH1 0x20 DUP3 DUP5 SUB SLT ISZERO PUSH2 0x10C7 JUMPI PUSH2 0x10C6 PUSH2 0xCBE JUMP JUMPDEST JUMPDEST PUSH1 0x0 PUSH2 0x10D5 DUP5 DUP3 DUP6 ADD PUSH2 0xE9C JUMP JUMPDEST SWAP2 POP POP SWAP3 SWAP2 POP POP JUMP JUMPDEST PUSH1 0x0 PUSH2 0x10E9 DUP3 PUSH2 0xD1C JUMP JUMPDEST SWAP2 POP PUSH2 0x10F4 DUP4 PUSH2 0xD1C JUMP JUMPDEST SWAP3 POP DUP3 DUP3 MUL PUSH2 0x1102 DUP2 PUSH2 0xD1C JUMP JUMPDEST SWAP2 POP DUP3 DUP3 DIV DUP5 EQ DUP4 ISZERO OR PUSH2 0x1119 JUMPI PUSH2 0x1118 PUSH2 0xF04 JUMP JUMPDEST JUMPDEST POP SWAP3 SWAP2 POP POP JUMP JUMPDEST PUSH32 0x4E487B7100000000000000000000000000000000000000000000000000000000 PUSH1 0x0 MSTORE PUSH1 0x12 PUSH1 0x4 MSTORE PUSH1 0x24 PUSH1 0x0 REVERT JUMPDEST PUSH1 0x0 PUSH2 0x115A DUP3 PUSH2 0xD1C JUMP JUMPDEST SWAP2 POP PUSH2 0x1165 DUP4 PUSH2 0xD1C JUMP JUMPDEST SWAP3 POP DUP3 PUSH2 0x1175 JUMPI PUSH2 0x1174 PUSH2 0x1120 JUMP JUMPDEST JUMPDEST DUP3 DUP3 DIV SWAP1 POP SWAP3 SWAP2 POP POP JUMP JUMPDEST PUSH1 0x0 PUSH2 0x118B DUP3 PUSH2 0xD1C JUMP JUMPDEST SWAP2 POP PUSH2 0x1196 DUP4 PUSH2 0xD1C JUMP JUMPDEST SWAP3 POP DUP3 DUP3 ADD SWAP1 POP DUP1 DUP3 GT ISZERO PUSH2 0x11AE JUMPI PUSH2 0x11AD PUSH2 0xF04 JUMP JUMPDEST JUMPDEST SWAP3 SWAP2 POP POP JUMP JUMPDEST PUSH1 0x0 DUP3 DUP3 MSTORE PUSH1 0x20 DUP3 ADD SWAP1 POP SWAP3 SWAP2 POP POP JUMP JUMPDEST PUSH32 0x596F752077616E7420746F206D6F7265206D6F72652076616C7565207468616E PUSH1 0x0 DUP3 ADD MSTORE PUSH32 0x20616C6C6F776564000000000000000000000000000000000000000000000000 PUSH1 0x20 DUP3 ADD MSTORE POP JUMP JUMPDEST PUSH1 0x0 PUSH2 0x1221 PUSH1 0x28 DUP4 PUSH2 0x11B4 JUMP JUMPDEST SWAP2 POP PUSH2 0x122C DUP3 PUSH2 0x11C5 JUMP JUMPDEST PUSH1 0x40 DUP3 ADD SWAP1 POP SWAP2 SWAP1 POP JUMP JUMPDEST PUSH1 0x0 PUSH1 0x20 DUP3 ADD SWAP1 POP DUP2 DUP2 SUB PUSH1 0x0 DUP4 ADD MSTORE PUSH2 0x1250 DUP2 PUSH2 0x1214 JUMP JUMPDEST SWAP1 POP SWAP2 SWAP1 POP JUMP JUMPDEST PUSH1 0x0 PUSH1 0x40 DUP3 ADD SWAP1 POP PUSH2 0x126C PUSH1 0x0 DUP4 ADD DUP6 PUSH2 0xC94 JUMP JUMPDEST PUSH2 0x1279 PUSH1 0x20 DUP4 ADD DUP5 PUSH2 0xD26 JUMP JUMPDEST SWAP4 SWAP3 POP POP POP JUMP JUMPDEST PUSH32 0x4E487B7100000000000000000000000000000000000000000000000000000000 PUSH1 0x0 MSTORE PUSH1 0x41 PUSH1 0x4 MSTORE PUSH1 0x24 PUSH1 0x0 REVERT JUMPDEST PUSH32 0x4E487B7100000000000000000000000000000000000000000000000000000000 PUSH1 0x0 MSTORE PUSH1 0x32 PUSH1 0x4 MSTORE PUSH1 0x24 PUSH1 0x0 REVERT INVALID LOG2 PUSH5 0x6970667358 0x22 SLT KECCAK256 0xAD CALL ADDMOD 0xB5 PUSH19 0x513D6306E4CB6F0AF3613AF5F53E6A8BFAB60E 0xD1 0xAC TIMESTAMP 0xED SWAP1 0xAF PUSH10 0xF864736F6C6343000818 STOP CALLER "
	},
	"Assembly": ".code\n  PUSH 80\t\t\tcontract SimplePool {\\n    WBT...\n  PUSH 40\t\t\tcontract SimplePool {\\n    WBT...\n  MSTORE \t\t\tcontract SimplePool {\\n    WBT...\n  PUSH 50\t\t\t80\n  PUSH 5\t\t\tuint8 wBTCLTV = uint8(80)\n  PUSH 0\t\t\tuint8 wBTCLTV = uint8(80)\n  PUSH 100\t\t\tuint8 wBTCLTV = uint8(80)\n  EXP \t\t\tuint8 wBTCLTV = uint8(80)\n  DUP2 \t\t\tuint8 wBTCLTV = uint8(80)\n  SLOAD \t\t\tuint8 wBTCLTV = uint8(80)\n  DUP2 \t\t\tuint8 wBTCLTV = uint8(80)\n  PUSH FF\t\t\tuint8 wBTCLTV = uint8(80)\n  MUL \t\t\tuint8 wBTCLTV = uint8(80)\n  NOT \t\t\tuint8 wBTCLTV = uint8(80)\n  AND \t\t\tuint8 wBTCLTV = uint8(80)\n  SWAP1 \t\t\tuint8 wBTCLTV = uint8(80)\n  DUP4 \t\t\tuint8 wBTCLTV = uint8(80)\n  PUSH FF\t\t\tuint8 wBTCLTV = uint8(80)\n  AND \t\t\tuint8 wBTCLTV = uint8(80)\n  MUL \t\t\tuint8 wBTCLTV = uint8(80)\n  OR \t\t\tuint8 wBTCLTV = uint8(80)\n  SWAP1 \t\t\tuint8 wBTCLTV = uint8(80)\n  SSTORE \t\t\tuint8 wBTCLTV = uint8(80)\n  POP \t\t\tuint8 wBTCLTV = uint8(80)\n  CALLVALUE \t\t\tconstructor(WBTCReserve _wBTCR...\n  DUP1 \t\t\tconstructor(WBTCReserve _wBTCR...\n  ISZERO \t\t\tconstructor(WBTCReserve _wBTCR...\n  PUSH [tag] 1\t\t\tconstructor(WBTCReserve _wBTCR...\n  JUMPI \t\t\tconstructor(WBTCReserve _wBTCR...\n  PUSH 0\t\t\tconstructor(WBTCReserve _wBTCR...\n  DUP1 \t\t\tconstructor(WBTCReserve _wBTCR...\n  REVERT \t\t\tconstructor(WBTCReserve _wBTCR...\ntag 1\t\t\tconstructor(WBTCReserve _wBTCR...\n  JUMPDEST \t\t\tconstructor(WBTCReserve _wBTCR...\n  POP \t\t\tconstructor(WBTCReserve _wBTCR...\n  PUSH 40\t\t\tconstructor(WBTCReserve _wBTCR...\n  MLOAD \t\t\tconstructor(WBTCReserve _wBTCR...\n  PUSHSIZE \t\t\tconstructor(WBTCReserve _wBTCR...\n  CODESIZE \t\t\tconstructor(WBTCReserve _wBTCR...\n  SUB \t\t\tconstructor(WBTCReserve _wBTCR...\n  DUP1 \t\t\tconstructor(WBTCReserve _wBTCR...\n  PUSHSIZE \t\t\tconstructor(WBTCReserve _wBTCR...\n  DUP4 \t\t\tconstructor(WBTCReserve _wBTCR...\n  CODECOPY \t\t\tconstructor(WBTCReserve _wBTCR...\n  DUP2 \t\t\tconstructor(WBTCReserve _wBTCR...\n  DUP2 \t\t\tconstructor(WBTCReserve _wBTCR...\n  ADD \t\t\tconstructor(WBTCReserve _wBTCR...\n  PUSH 40\t\t\tconstructor(WBTCReserve _wBTCR...\n  MSTORE \t\t\tconstructor(WBTCReserve _wBTCR...\n  DUP2 \t\t\tconstructor(WBTCReserve _wBTCR...\n  ADD \t\t\tconstructor(WBTCReserve _wBTCR...\n  SWAP1 \t\t\tconstructor(WBTCReserve _wBTCR...\n  PUSH [tag] 2\t\t\tconstructor(WBTCReserve _wBTCR...\n  SWAP2 \t\t\tconstructor(WBTCReserve _wBTCR...\n  SWAP1 \t\t\tconstructor(WBTCReserve _wBTCR...\n  PUSH [tag] 3\t\t\tconstructor(WBTCReserve _wBTCR...\n  JUMP \t\t\tconstructor(WBTCReserve _wBTCR...\ntag 2\t\t\tconstructor(WBTCReserve _wBTCR...\n  JUMPDEST \t\t\tconstructor(WBTCReserve _wBTCR...\n  DUP2 \t\t\t_wBTC\n  PUSH 2\t\t\twBTC\n  PUSH 0\t\t\twBTC\n  PUSH 100\t\t\twBTC = _wBTC\n  EXP \t\t\twBTC = _wBTC\n  DUP2 \t\t\twBTC = _wBTC\n  SLOAD \t\t\twBTC = _wBTC\n  DUP2 \t\t\twBTC = _wBTC\n  PUSH FFFFFFFFFFFFFFFFFFFFFFFFFFFFFFFFFFFFFFFF\t\t\twBTC = _wBTC\n  MUL \t\t\twBTC = _wBTC\n  NOT \t\t\twBTC = _wBTC\n  AND \t\t\twBTC = _wBTC\n  SWAP1 \t\t\twBTC = _wBTC\n  DUP4 \t\t\twBTC = _wBTC\n  PUSH FFFFFFFFFFFFFFFFFFFFFFFFFFFFFFFFFFFFFFFF\t\t\twBTC = _wBTC\n  AND \t\t\twBTC = _wBTC\n  MUL \t\t\twBTC = _wBTC\n  OR \t\t\twBTC = _wBTC\n  SWAP1 \t\t\twBTC = _wBTC\n  SSTORE \t\t\twBTC = _wBTC\n  POP \t\t\twBTC = _wBTC\n  DUP1 \t\t\t_usdc\n  PUSH 3\t\t\tusdc\n  PUSH 0\t\t\tusdc\n  PUSH 100\t\t\tusdc = _usdc\n  EXP \t\t\tusdc = _usdc\n  DUP2 \t\t\tusdc = _usdc\n  SLOAD \t\t\tusdc = _usdc\n  DUP2 \t\t\tusdc = _usdc\n  PUSH FFFFFFFFFFFFFFFFFFFFFFFFFFFFFFFFFFFFFFFF\t\t\tusdc = _usdc\n  MUL \t\t\tusdc = _usdc\n  NOT \t\t\tusdc = _usdc\n  AND \t\t\tusdc = _usdc\n  SWAP1 \t\t\tusdc = _usdc\n  DUP4 \t\t\tusdc = _usdc\n  PUSH FFFFFFFFFFFFFFFFFFFFFFFFFFFFFFFFFFFFFFFF\t\t\tusdc = _usdc\n  AND \t\t\tusdc = _usdc\n  MUL \t\t\tusdc = _usdc\n  OR \t\t\tusdc = _usdc\n  SWAP1 \t\t\tusdc = _usdc\n  SSTORE \t\t\tusdc = _usdc\n  POP \t\t\tusdc = _usdc\n  DUP4 \t\t\t_wBTCReserve\n  PUSH 0\t\t\twBTCReserve\n  DUP1 \t\t\twBTCReserve\n  PUSH 100\t\t\twBTCReserve = _wBTCReserve\n  EXP \t\t\twBTCReserve = _wBTCReserve\n  DUP2 \t\t\twBTCReserve = _wBTCReserve\n  SLOAD \t\t\twBTCReserve = _wBTCReserve\n  DUP2 \t\t\twBTCReserve = _wBTCReserve\n  PUSH FFFFFFFFFFFFFFFFFFFFFFFFFFFFFFFFFFFFFFFF\t\t\twBTCReserve = _wBTCReserve\n  MUL \t\t\twBTCReserve = _wBTCReserve\n  NOT \t\t\twBTCReserve = _wBTCReserve\n  AND \t\t\twBTCReserve = _wBTCReserve\n  SWAP1 \t\t\twBTCReserve = _wBTCReserve\n  DUP4 \t\t\twBTCReserve = _wBTCReserve\n  PUSH FFFFFFFFFFFFFFFFFFFFFFFFFFFFFFFFFFFFFFFF\t\t\twBTCReserve = _wBTCReserve\n  AND \t\t\twBTCReserve = _wBTCReserve\n  MUL \t\t\twBTCReserve = _wBTCReserve\n  OR \t\t\twBTCReserve = _wBTCReserve\n  SWAP1 \t\t\twBTCReserve = _wBTCReserve\n  SSTORE \t\t\twBTCReserve = _wBTCReserve\n  POP \t\t\twBTCReserve = _wBTCReserve\n  DUP3 \t\t\t_usdcReserve\n  PUSH 1\t\t\tusdcReserve\n  PUSH 0\t\t\tusdcReserve\n  PUSH 100\t\t\tusdcReserve = _usdcReserve\n  EXP \t\t\tusdcReserve = _usdcReserve\n  DUP2 \t\t\tusdcReserve = _usdcReserve\n  SLOAD \t\t\tusdcReserve = _usdcReserve\n  DUP2 \t\t\tusdcReserve = _usdcReserve\n  PUSH FFFFFFFFFFFFFFFFFFFFFFFFFFFFFFFFFFFFFFFF\t\t\tusdcReserve = _usdcReserve\n  MUL \t\t\tusdcReserve = _usdcReserve\n  NOT \t\t\tusdcReserve = _usdcReserve\n  AND \t\t\tusdcReserve = _usdcReserve\n  SWAP1 \t\t\tusdcReserve = _usdcReserve\n  DUP4 \t\t\tusdcReserve = _usdcReserve\n  PUSH FFFFFFFFFFFFFFFFFFFFFFFFFFFFFFFFFFFFFFFF\t\t\tusdcReserve = _usdcReserve\n  AND \t\t\tusdcReserve = _usdcReserve\n  MUL \t\t\tusdcReserve = _usdcReserve\n  OR \t\t\tusdcReserve = _usdcReserve\n  SWAP1 \t\t\tusdcReserve = _usdcReserve\n  SSTORE \t\t\tusdcReserve = _usdcReserve\n  POP \t\t\tusdcReserve = _usdcReserve\n  POP \t\t\tconstructor(WBTCReserve _wBTCR...\n  POP \t\t\tconstructor(WBTCReserve _wBTCR...\n  POP \t\t\tconstructor(WBTCReserve _wBTCR...\n  POP \t\t\tconstructor(WBTCReserve _wBTCR...\n  PUSH [tag] 6\t\t\tcontract SimplePool {\\n    WBT...\n  JUMP \t\t\tcontract SimplePool {\\n    WBT...\ntag 8\t\t\trt \"./USDCReserve.sol\";\\n\\n\\nc...\n  JUMPDEST \t\t\trt \"./USDCReserve.sol\";\\n\\n\\nc...\n  PUSH 0\t\t\t \n  DUP1 \t\t\t \n  REVERT \t\t\tserve;\\n    a\ntag 10\t\t\ttor(WBTCReserve _wBTCReserve, ...\n  JUMPDEST \t\t\ttor(WBTCReserve _wBTCReserve, ...\n  PUSH 0\t\t\terve _u\n  PUSH FFFFFFFFFFFFFFFFFFFFFFFFFFFFFFFFFFFFFFFF\t\t\ts _usdc) {\\n        wBTC = _wB...\n  DUP3 \t\t\t addr\n  AND \t\t\tBTC, address _usdc) {\\n       ...\n  SWAP1 \t\t\t address _wBTC, address _usdc)...\n  POP \t\t\t address _wBTC, address _usdc)...\n  SWAP2 \t\t\ttor(WBTCReserve _wBTCReserve, ...\n  SWAP1 \t\t\ttor(WBTCReserve _wBTCReserve, ...\n  POP \t\t\ttor(WBTCReserve _wBTCReserve, ...\n  JUMP \t\t\ttor(WBTCReserve _wBTCReserve, ...\ntag 11\t\t\t        wBTCReserve = _wBTCRes...\n  JUMPDEST \t\t\t        wBTCReserve = _wBTCRes...\n  PUSH 0\t\t\t       \n  PUSH [tag] 26\t\t\terve;\\n    }\\n\\n    functio\n  DUP3 \t\t\tuncti\n  PUSH [tag] 10\t\t\terve;\\n    }\\n\\n    functio\n  JUMP \t\t\terve;\\n    }\\n\\n    functio\ntag 26\t\t\terve;\\n    }\\n\\n    functio\n  JUMPDEST \t\t\terve;\\n    }\\n\\n    functio\n  SWAP1 \t\t\t = _usdcReserve;\\n    }\\n\\n   ...\n  POP \t\t\t = _usdcReserve;\\n    }\\n\\n   ...\n  SWAP2 \t\t\t        wBTCReserve = _wBTCRes...\n  SWAP1 \t\t\t        wBTCReserve = _wBTCRes...\n  POP \t\t\t        wBTCReserve = _wBTCRes...\n  JUMP \t\t\t        wBTCReserve = _wBTCRes...\ntag 12\t\t\t(address token) public view re...\n  JUMPDEST \t\t\t(address token) public view re...\n  PUSH 0\t\t\tss) {\\n \n  PUSH [tag] 28\t\t\tTC) {\\n            return\n  DUP3 \t\t\tretur\n  PUSH [tag] 11\t\t\tTC) {\\n            return\n  JUMP \t\t\tTC) {\\n            return\ntag 28\t\t\tTC) {\\n            return\n  JUMPDEST \t\t\tTC) {\\n            return\n  SWAP1 \t\t\ttoken == wBTC) {\\n            ...\n  POP \t\t\ttoken == wBTC) {\\n            ...\n  SWAP2 \t\t\t(address token) public view re...\n  SWAP1 \t\t\t(address token) public view re...\n  POP \t\t\t(address token) public view re...\n  JUMP \t\t\t(address token) public view re...\ntag 13\t\t\tCReserve);\\n        } else if ...\n  JUMPDEST \t\t\tCReserve);\\n        } else if ...\n  PUSH [tag] 30\t\t\t   }\\n    }\\n\\n    function ge...\n  DUP2 \t\t\tlic v\n  PUSH [tag] 12\t\t\t   }\\n    }\\n\\n    function ge...\n  JUMP \t\t\t   }\\n    }\\n\\n    function ge...\ntag 30\t\t\t   }\\n    }\\n\\n    function ge...\n  JUMPDEST \t\t\t   }\\n    }\\n\\n    function ge...\n  DUP2 \t\t\t;\\n   \n  EQ \t\t\tve);\\n        }\\n    }\\n\\n    ...\n  PUSH [tag] 31\t\t\t(usdcReserve);\\n        }\\n   ...\n  JUMPI \t\t\t(usdcReserve);\\n        }\\n   ...\n  PUSH 0\t\t\tr\n  DUP1 \t\t\ta\n  REVERT \t\t\tturns (addre\ntag 31\t\t\t(usdcReserve);\\n        }\\n   ...\n  JUMPDEST \t\t\t(usdcReserve);\\n        }\\n   ...\n  POP \t\t\tCReserve);\\n        } else if ...\n  JUMP \t\t\tCReserve);\\n        } else if ...\ntag 14\t\t\teturn address(wBTC);\\n    }\\n\\...\n  JUMPDEST \t\t\teturn address(wBTC);\\n    }\\n\\...\n  PUSH 0\t\t\tss){\\n\n  DUP2 \t\t\tc);\\n  \n  MLOAD \t\t\tss(usdc);\\n   \n  SWAP1 \t\t\turn address(usdc);\\n   \n  POP \t\t\turn address(usdc);\\n   \n  PUSH [tag] 33\t\t\tunction getAssetsPrice() exter...\n  DUP2 \t\t\t(uint\n  PUSH [tag] 13\t\t\tunction getAssetsPrice() exter...\n  JUMP \t\t\tunction getAssetsPrice() exter...\ntag 33\t\t\tunction getAssetsPrice() exter...\n  JUMPDEST \t\t\tunction getAssetsPrice() exter...\n  SWAP3 \t\t\teturn address(wBTC);\\n    }\\n\\...\n  SWAP2 \t\t\teturn address(wBTC);\\n    }\\n\\...\n  POP \t\t\teturn address(wBTC);\\n    }\\n\\...\n  POP \t\t\teturn address(wBTC);\\n    }\\n\\...\n  JUMP \t\t\teturn address(wBTC);\\n    }\\n\\...\ntag 15\t\t\t {\\n        (uint256 wBTCPrice...\n  JUMPDEST \t\t\t {\\n        (uint256 wBTCPrice...\n  PUSH 0\t\t\t6 _deci\n  PUSH [tag] 35\t\t\ttAssetPrice();\\n        u\n  DUP3 \t\t\t     \n  PUSH [tag] 11\t\t\ttAssetPrice();\\n        u\n  JUMP \t\t\ttAssetPrice();\\n        u\ntag 35\t\t\ttAssetPrice();\\n        u\n  JUMPDEST \t\t\ttAssetPrice();\\n        u\n  SWAP1 \t\t\tCReserve.getAssetPrice();\\n   ...\n  POP \t\t\tCReserve.getAssetPrice();\\n   ...\n  SWAP2 \t\t\t {\\n        (uint256 wBTCPrice...\n  SWAP1 \t\t\t {\\n        (uint256 wBTCPrice...\n  POP \t\t\t {\\n        (uint256 wBTCPrice...\n  JUMP \t\t\t {\\n        (uint256 wBTCPrice...\ntag 16\t\t\trice = usdcReserve.getAssetPri...\n  JUMPDEST \t\t\trice = usdcReserve.getAssetPri...\n  PUSH [tag] 37\t\t\t   prices[0] = wBTCPrice;\\n   ...\n  DUP2 \t\t\tes[1]\n  PUSH [tag] 15\t\t\t   prices[0] = wBTCPrice;\\n   ...\n  JUMP \t\t\t   prices[0] = wBTCPrice;\\n   ...\ntag 37\t\t\t   prices[0] = wBTCPrice;\\n   ...\n  JUMPDEST \t\t\t   prices[0] = wBTCPrice;\\n   ...\n  DUP2 \t\t\t;\\n   \n  EQ \t\t\t(2);\\n        prices[0] = wBTC...\n  PUSH [tag] 38\t\t\t uint256[](2);\\n        prices...\n  JUMPI \t\t\t uint256[](2);\\n        prices...\n  PUSH 0\t\t\t \n  DUP1 \t\t\t\\n\n  REVERT \t\t\tcPrice;\\n    \ntag 38\t\t\t uint256[](2);\\n        prices...\n  JUMPDEST \t\t\t uint256[](2);\\n        prices...\n  POP \t\t\trice = usdcReserve.getAssetPri...\n  JUMP \t\t\trice = usdcReserve.getAssetPri...\ntag 17\t\t\tces;\\n    }\\n\\n    function ge...\n  JUMPDEST \t\t\tces;\\n    }\\n\\n    function ge...\n  PUSH 0\t\t\turns \n  DUP2 \t\t\t   uin\n  MLOAD \t\t\t\\n        uint\n  SWAP1 \t\t\tmemory) {\\n        uint\n  POP \t\t\tmemory) {\\n        uint\n  PUSH [tag] 40\t\t\tory balances = new uint256[](2...\n  DUP2 \t\t\tes[0]\n  PUSH [tag] 16\t\t\tory balances = new uint256[](2...\n  JUMP \t\t\tory balances = new uint256[](2...\ntag 40\t\t\tory balances = new uint256[](2...\n  JUMPDEST \t\t\tory balances = new uint256[](2...\n  SWAP3 \t\t\tces;\\n    }\\n\\n    function ge...\n  SWAP2 \t\t\tces;\\n    }\\n\\n    function ge...\n  POP \t\t\tces;\\n    }\\n\\n    function ge...\n  POP \t\t\tces;\\n    }\\n\\n    function ge...\n  JUMP \t\t\tces;\\n    }\\n\\n    function ge...\ntag 18\t\t\te.getSupplyedAmount(user);\\n  ...\n  JUMPDEST \t\t\te.getSupplyedAmount(user);\\n  ...\n  PUSH [tag] 42\t\t\tmount(user);\\n        ret\n  DUP2 \t\t\t   re\n  PUSH [tag] 11\t\t\tmount(user);\\n        ret\n  JUMP \t\t\tmount(user);\\n        ret\ntag 42\t\t\tmount(user);\\n        ret\n  JUMPDEST \t\t\tmount(user);\\n        ret\n  DUP2 \t\t\tpplye\n  EQ \t\t\ttSupplyedAmount(user);\\n      ...\n  PUSH [tag] 43\t\t\tReserve.getSupplyedAmount(user...\n  JUMPI \t\t\tReserve.getSupplyedAmount(user...\n  PUSH 0\t\t\t \n  DUP1 \t\t\t;\n  REVERT \t\t\talances;\\n   \ntag 43\t\t\tReserve.getSupplyedAmount(user...\n  JUMPDEST \t\t\tReserve.getSupplyedAmount(user...\n  POP \t\t\te.getSupplyedAmount(user);\\n  ...\n  JUMP \t\t\te.getSupplyedAmount(user);\\n  ...\ntag 19\t\t\ton borrow(address asset, uint2...\n  JUMPDEST \t\t\ton borrow(address asset, uint2...\n  PUSH 0\t\t\t   re\n  DUP2 \t\t\t    ui\n  MLOAD \t\t\t;\\n        uin\n  SWAP1 \t\t\t == usdc);\\n        uin\n  POP \t\t\t == usdc);\\n        uin\n  PUSH [tag] 45\t\t\tateralValue = this.getDepositV...\n  DUP2 \t\t\titVal\n  PUSH [tag] 18\t\t\tateralValue = this.getDepositV...\n  JUMP \t\t\tateralValue = this.getDepositV...\ntag 45\t\t\tateralValue = this.getDepositV...\n  JUMPDEST \t\t\tateralValue = this.getDepositV...\n  SWAP3 \t\t\ton borrow(address asset, uint2...\n  SWAP2 \t\t\ton borrow(address asset, uint2...\n  POP \t\t\ton borrow(address asset, uint2...\n  POP \t\t\ton borrow(address asset, uint2...\n  JUMP \t\t\ton borrow(address asset, uint2...\ntag 3\t\t\t);\\n        uint256 maxValueBo...\n  JUMPDEST \t\t\t);\\n        uint256 maxValueBo...\n  PUSH 0\t\t\trequir\n  DUP1 \t\t\t(curre\n  PUSH 0\t\t\tBorrow\n  DUP1 \t\t\t + amo\n  PUSH 80\t\t\tre \n  DUP6 \t\t\tt to more\n  DUP8 \t\t\t \"You w\n  SUB \t\t\tred, \"You want to more \n  SLT \t\t\teBorred, \"You want to more mor...\n  ISZERO \t\t\talueBorred, \"You want to more ...\n  PUSH [tag] 47\t\t\talueBorred, \"You want to more ...\n  JUMPI \t\t\talueBorred, \"You want to more ...\n  PUSH [tag] 48\t\t\te than allowed\");\\n        bor...\n  PUSH [tag] 8\t\t\te than allowed\");\\n        bor...\n  JUMP \t\t\te than allowed\");\\n        bor...\ntag 48\t\t\te than allowed\");\\n        bor...\n  JUMPDEST \t\t\te than allowed\");\\n        bor...\ntag 47\t\t\talueBorred, \"You want to more ...\n  JUMPDEST \t\t\talueBorred, \"You want to more ...\n  PUSH 0\t\t\t;\n  PUSH [tag] 49\t\t\tDebt(address user) external vi...\n  DUP8 \t\t\torrowed\n  DUP3 \t\t\t debt \n  DUP9 \t\t\t    uint2\n  ADD \t\t\t        uint256 debt =\n  PUSH [tag] 14\t\t\tDebt(address user) external vi...\n  JUMP \t\t\tDebt(address user) external vi...\ntag 49\t\t\tDebt(address user) external vi...\n  JUMPDEST \t\t\tDebt(address user) external vi...\n  SWAP5 \t\t\tnction getDebt(address user) e...\n  POP \t\t\tnction getDebt(address user) e...\n  POP \t\t\tansaction(msg.sender, amount);...\n  PUSH 20\t\t\tre\n  PUSH [tag] 50\t\t\tnction getDepositValue(address...\n  DUP8 \t\t\t  (uint\n  DUP3 \t\t\t){\\n   \n  DUP9 \t\t\tns (uint2\n  ADD \t\t\teturns (uint256){\\n    \n  PUSH [tag] 17\t\t\tnction getDepositValue(address...\n  JUMP \t\t\tnction getDepositValue(address...\ntag 50\t\t\tnction getDepositValue(address...\n  JUMPDEST \t\t\tnction getDepositValue(address...\n  SWAP4 \t\t\t }\\n\\n    function getDepositV...\n  POP \t\t\t }\\n\\n    function getDepositV...\n  POP \t\t\trve.getAssetPrice();\\n        ...\n  PUSH 40\t\t\tls\n  PUSH [tag] 51\t\t\tPrice();\\n        uint256 coll...\n  DUP8 \t\t\tpplyedA\n  DUP3 \t\t\trve.ge\n  DUP9 \t\t\t = wBTCRe\n  ADD \t\t\talue = wBTCReserve.get\n  PUSH [tag] 19\t\t\tPrice();\\n        uint256 coll...\n  JUMP \t\t\tPrice();\\n        uint256 coll...\ntag 51\t\t\tPrice();\\n        uint256 coll...\n  JUMPDEST \t\t\tPrice();\\n        uint256 coll...\n  SWAP3 \t\t\te.getAssetPrice();\\n        ui...\n  POP \t\t\te.getAssetPrice();\\n        ui...\n  POP \t\t\t6 _timestamp, uint256 _decimal...\n  PUSH 60\t\t\t  \n  PUSH [tag] 52\t\t\t }\\n\\n\\n\\n\\n\\n    \\n\\n}\\n\n  DUP8 \t\t\t\n  DUP3 \t\t\t\n  DUP9 \t\t\t\n  ADD \t\t\t\n  PUSH [tag] 19\t\t\t }\\n\\n\\n\\n\\n\\n    \\n\\n}\\n\n  JUMP \t\t\t }\\n\\n\\n\\n\\n\\n    \\n\\n}\\n\ntag 52\t\t\t }\\n\\n\\n\\n\\n\\n    \\n\\n}\\n\n  JUMPDEST \t\t\t }\\n\\n\\n\\n\\n\\n    \\n\\n}\\n\n  SWAP2 \t\t\tValue;\\n    }\\n\\n\\n\\n\\n\\n    \\...\n  POP \t\t\tValue;\\n    }\\n\\n\\n\\n\\n\\n    \\...\n  POP \t\t\tce / (10 ** _decimals);\\n     ...\n  SWAP3 \t\t\t);\\n        uint256 maxValueBo...\n  SWAP6 \t\t\t);\\n        uint256 maxValueBo...\n  SWAP2 \t\t\t);\\n        uint256 maxValueBo...\n  SWAP5 \t\t\t);\\n        uint256 maxValueBo...\n  POP \t\t\t);\\n        uint256 maxValueBo...\n  SWAP3 \t\t\t);\\n        uint256 maxValueBo...\n  POP \t\t\t);\\n        uint256 maxValueBo...\n  JUMP \t\t\t);\\n        uint256 maxValueBo...\ntag 6\t\t\tcontract SimplePool {\\n    WBT...\n  JUMPDEST \t\t\tcontract SimplePool {\\n    WBT...\n  PUSH #[$] 0000000000000000000000000000000000000000000000000000000000000000\t\t\tcontract SimplePool {\\n    WBT...\n  DUP1 \t\t\tcontract SimplePool {\\n    WBT...\n  PUSH [$] 0000000000000000000000000000000000000000000000000000000000000000\t\t\tcontract SimplePool {\\n    WBT...\n  PUSH 0\t\t\tcontract SimplePool {\\n    WBT...\n  CODECOPY \t\t\tcontract SimplePool {\\n    WBT...\n  PUSH 0\t\t\tcontract SimplePool {\\n    WBT...\n  RETURN \t\t\tcontract SimplePool {\\n    WBT...\n.data\n  0:\n    .code\n      PUSH 80\t\t\tcontract SimplePool {\\n    WBT...\n      PUSH 40\t\t\tcontract SimplePool {\\n    WBT...\n      MSTORE \t\t\tcontract SimplePool {\\n    WBT...\n      CALLVALUE \t\t\tcontract SimplePool {\\n    WBT...\n      DUP1 \t\t\tcontract SimplePool {\\n    WBT...\n      ISZERO \t\t\tcontract SimplePool {\\n    WBT...\n      PUSH [tag] 1\t\t\tcontract SimplePool {\\n    WBT...\n      JUMPI \t\t\tcontract SimplePool {\\n    WBT...\n      PUSH 0\t\t\tcontract SimplePool {\\n    WBT...\n      DUP1 \t\t\tcontract SimplePool {\\n    WBT...\n      REVERT \t\t\tcontract SimplePool {\\n    WBT...\n    tag 1\t\t\tcontract SimplePool {\\n    WBT...\n      JUMPDEST \t\t\tcontract SimplePool {\\n    WBT...\n      POP \t\t\tcontract SimplePool {\\n    WBT...\n      PUSH 4\t\t\tcontract SimplePool {\\n    WBT...\n      CALLDATASIZE \t\t\tcontract SimplePool {\\n    WBT...\n      LT \t\t\tcontract SimplePool {\\n    WBT...\n      PUSH [tag] 2\t\t\tcontract SimplePool {\\n    WBT...\n      JUMPI \t\t\tcontract SimplePool {\\n    WBT...\n      PUSH 0\t\t\tcontract SimplePool {\\n    WBT...\n      CALLDATALOAD \t\t\tcontract SimplePool {\\n    WBT...\n      PUSH E0\t\t\tcontract SimplePool {\\n    WBT...\n      SHR \t\t\tcontract SimplePool {\\n    WBT...\n      DUP1 \t\t\tcontract SimplePool {\\n    WBT...\n      PUSH 9A78E72E\t\t\tcontract SimplePool {\\n    WBT...\n      GT \t\t\tcontract SimplePool {\\n    WBT...\n      PUSH [tag] 13\t\t\tcontract SimplePool {\\n    WBT...\n      JUMPI \t\t\tcontract SimplePool {\\n    WBT...\n      DUP1 \t\t\tcontract SimplePool {\\n    WBT...\n      PUSH 9A78E72E\t\t\tcontract SimplePool {\\n    WBT...\n      EQ \t\t\tcontract SimplePool {\\n    WBT...\n      PUSH [tag] 8\t\t\tcontract SimplePool {\\n    WBT...\n      JUMPI \t\t\tcontract SimplePool {\\n    WBT...\n      DUP1 \t\t\tcontract SimplePool {\\n    WBT...\n      PUSH 9B452931\t\t\tcontract SimplePool {\\n    WBT...\n      EQ \t\t\tcontract SimplePool {\\n    WBT...\n      PUSH [tag] 9\t\t\tcontract SimplePool {\\n    WBT...\n      JUMPI \t\t\tcontract SimplePool {\\n    WBT...\n      DUP1 \t\t\tcontract SimplePool {\\n    WBT...\n      PUSH C9A396E9\t\t\tcontract SimplePool {\\n    WBT...\n      EQ \t\t\tcontract SimplePool {\\n    WBT...\n      PUSH [tag] 10\t\t\tcontract SimplePool {\\n    WBT...\n      JUMPI \t\t\tcontract SimplePool {\\n    WBT...\n      DUP1 \t\t\tcontract SimplePool {\\n    WBT...\n      PUSH CBDDB785\t\t\tcontract SimplePool {\\n    WBT...\n      EQ \t\t\tcontract SimplePool {\\n    WBT...\n      PUSH [tag] 11\t\t\tcontract SimplePool {\\n    WBT...\n      JUMPI \t\t\tcontract SimplePool {\\n    WBT...\n      DUP1 \t\t\tcontract SimplePool {\\n    WBT...\n      PUSH D4D40086\t\t\tcontract SimplePool {\\n    WBT...\n      EQ \t\t\tcontract SimplePool {\\n    WBT...\n      PUSH [tag] 12\t\t\tcontract SimplePool {\\n    WBT...\n      JUMPI \t\t\tcontract SimplePool {\\n    WBT...\n      PUSH [tag] 2\t\t\tcontract SimplePool {\\n    WBT...\n      JUMP \t\t\tcontract SimplePool {\\n    WBT...\n    tag 13\t\t\tcontract SimplePool {\\n    WBT...\n      JUMPDEST \t\t\tcontract SimplePool {\\n    WBT...\n      DUP1 \t\t\tcontract SimplePool {\\n    WBT...\n      PUSH 1BF01E9B\t\t\tcontract SimplePool {\\n    WBT...\n      EQ \t\t\tcontract SimplePool {\\n    WBT...\n      PUSH [tag] 3\t\t\tcontract SimplePool {\\n    WBT...\n      JUMPI \t\t\tcontract SimplePool {\\n    WBT...\n      DUP1 \t\t\tcontract SimplePool {\\n    WBT...\n      PUSH 3B2E5F94\t\t\tcontract SimplePool {\\n    WBT...\n      EQ \t\t\tcontract SimplePool {\\n    WBT...\n      PUSH [tag] 4\t\t\tcontract SimplePool {\\n    WBT...\n      JUMPI \t\t\tcontract SimplePool {\\n    WBT...\n      DUP1 \t\t\tcontract SimplePool {\\n    WBT...\n      PUSH 3E413BEE\t\t\tcontract SimplePool {\\n    WBT...\n      EQ \t\t\tcontract SimplePool {\\n    WBT...\n      PUSH [tag] 5\t\t\tcontract SimplePool {\\n    WBT...\n      JUMPI \t\t\tcontract SimplePool {\\n    WBT...\n      DUP1 \t\t\tcontract SimplePool {\\n    WBT...\n      PUSH 4B8A3529\t\t\tcontract SimplePool {\\n    WBT...\n      EQ \t\t\tcontract SimplePool {\\n    WBT...\n      PUSH [tag] 6\t\t\tcontract SimplePool {\\n    WBT...\n      JUMPI \t\t\tcontract SimplePool {\\n    WBT...\n      DUP1 \t\t\tcontract SimplePool {\\n    WBT...\n      PUSH 7C1F8560\t\t\tcontract SimplePool {\\n    WBT...\n      EQ \t\t\tcontract SimplePool {\\n    WBT...\n      PUSH [tag] 7\t\t\tcontract SimplePool {\\n    WBT...\n      JUMPI \t\t\tcontract SimplePool {\\n    WBT...\n    tag 2\t\t\tcontract SimplePool {\\n    WBT...\n      JUMPDEST \t\t\tcontract SimplePool {\\n    WBT...\n      PUSH 0\t\t\tcontract SimplePool {\\n    WBT...\n      DUP1 \t\t\tcontract SimplePool {\\n    WBT...\n      REVERT \t\t\tcontract SimplePool {\\n    WBT...\n    tag 3\t\t\tfunction getUSDC() public view...\n      JUMPDEST \t\t\tfunction getUSDC() public view...\n      PUSH [tag] 14\t\t\tfunction getUSDC() public view...\n      PUSH [tag] 15\t\t\tfunction getUSDC() public view...\n      JUMP \t\t\tfunction getUSDC() public view...\n    tag 14\t\t\tfunction getUSDC() public view...\n      JUMPDEST \t\t\tfunction getUSDC() public view...\n      PUSH 40\t\t\tfunction getUSDC() public view...\n      MLOAD \t\t\tfunction getUSDC() public view...\n      PUSH [tag] 16\t\t\tfunction getUSDC() public view...\n      SWAP2 \t\t\tfunction getUSDC() public view...\n      SWAP1 \t\t\tfunction getUSDC() public view...\n      PUSH [tag] 17\t\t\tfunction getUSDC() public view...\n      JUMP \t\t\tfunction getUSDC() public view...\n    tag 16\t\t\tfunction getUSDC() public view...\n      JUMPDEST \t\t\tfunction getUSDC() public view...\n      PUSH 40\t\t\tfunction getUSDC() public view...\n      MLOAD \t\t\tfunction getUSDC() public view...\n      DUP1 \t\t\tfunction getUSDC() public view...\n      SWAP2 \t\t\tfunction getUSDC() public view...\n      SUB \t\t\tfunction getUSDC() public view...\n      SWAP1 \t\t\tfunction getUSDC() public view...\n      RETURN \t\t\tfunction getUSDC() public view...\n    tag 4\t\t\tfunction getDepositValue(addre...\n      JUMPDEST \t\t\tfunction getDepositValue(addre...\n      PUSH [tag] 18\t\t\tfunction getDepositValue(addre...\n      PUSH 4\t\t\tfunction getDepositValue(addre...\n      DUP1 \t\t\tfunction getDepositValue(addre...\n      CALLDATASIZE \t\t\tfunction getDepositValue(addre...\n      SUB \t\t\tfunction getDepositValue(addre...\n      DUP2 \t\t\tfunction getDepositValue(addre...\n      ADD \t\t\tfunction getDepositValue(addre...\n      SWAP1 \t\t\tfunction getDepositValue(addre...\n      PUSH [tag] 19\t\t\tfunction getDepositValue(addre...\n      SWAP2 \t\t\tfunction getDepositValue(addre...\n      SWAP1 \t\t\tfunction getDepositValue(addre...\n      PUSH [tag] 20\t\t\tfunction getDepositValue(addre...\n      JUMP \t\t\tfunction getDepositValue(addre...\n    tag 19\t\t\tfunction getDepositValue(addre...\n      JUMPDEST \t\t\tfunction getDepositValue(addre...\n      PUSH [tag] 21\t\t\tfunction getDepositValue(addre...\n      JUMP \t\t\tfunction getDepositValue(addre...\n    tag 18\t\t\tfunction getDepositValue(addre...\n      JUMPDEST \t\t\tfunction getDepositValue(addre...\n      PUSH 40\t\t\tfunction getDepositValue(addre...\n      MLOAD \t\t\tfunction getDepositValue(addre...\n      PUSH [tag] 22\t\t\tfunction getDepositValue(addre...\n      SWAP2 \t\t\tfunction getDepositValue(addre...\n      SWAP1 \t\t\tfunction getDepositValue(addre...\n      PUSH [tag] 23\t\t\tfunction getDepositValue(addre...\n      JUMP \t\t\tfunction getDepositValue(addre...\n    tag 22\t\t\tfunction getDepositValue(addre...\n      JUMPDEST \t\t\tfunction getDepositValue(addre...\n      PUSH 40\t\t\tfunction getDepositValue(addre...\n      MLOAD \t\t\tfunction getDepositValue(addre...\n      DUP1 \t\t\tfunction getDepositValue(addre...\n      SWAP2 \t\t\tfunction getDepositValue(addre...\n      SUB \t\t\tfunction getDepositValue(addre...\n      SWAP1 \t\t\tfunction getDepositValue(addre...\n      RETURN \t\t\tfunction getDepositValue(addre...\n    tag 5\t\t\taddress public usdc\n      JUMPDEST \t\t\taddress public usdc\n      PUSH [tag] 24\t\t\taddress public usdc\n      PUSH [tag] 25\t\t\taddress public usdc\n      JUMP \t\t\taddress public usdc\n    tag 24\t\t\taddress public usdc\n      JUMPDEST \t\t\taddress public usdc\n      PUSH 40\t\t\taddress public usdc\n      MLOAD \t\t\taddress public usdc\n      PUSH [tag] 26\t\t\taddress public usdc\n      SWAP2 \t\t\taddress public usdc\n      SWAP1 \t\t\taddress public usdc\n      PUSH [tag] 17\t\t\taddress public usdc\n      JUMP \t\t\taddress public usdc\n    tag 26\t\t\taddress public usdc\n      JUMPDEST \t\t\taddress public usdc\n      PUSH 40\t\t\taddress public usdc\n      MLOAD \t\t\taddress public usdc\n      DUP1 \t\t\taddress public usdc\n      SWAP2 \t\t\taddress public usdc\n      SUB \t\t\taddress public usdc\n      SWAP1 \t\t\taddress public usdc\n      RETURN \t\t\taddress public usdc\n    tag 6\t\t\tfunction borrow(address asset,...\n      JUMPDEST \t\t\tfunction borrow(address asset,...\n      PUSH [tag] 27\t\t\tfunction borrow(address asset,...\n      PUSH 4\t\t\tfunction borrow(address asset,...\n      DUP1 \t\t\tfunction borrow(address asset,...\n      CALLDATASIZE \t\t\tfunction borrow(address asset,...\n      SUB \t\t\tfunction borrow(address asset,...\n      DUP2 \t\t\tfunction borrow(address asset,...\n      ADD \t\t\tfunction borrow(address asset,...\n      SWAP1 \t\t\tfunction borrow(address asset,...\n      PUSH [tag] 28\t\t\tfunction borrow(address asset,...\n      SWAP2 \t\t\tfunction borrow(address asset,...\n      SWAP1 \t\t\tfunction borrow(address asset,...\n      PUSH [tag] 29\t\t\tfunction borrow(address asset,...\n      JUMP \t\t\tfunction borrow(address asset,...\n    tag 28\t\t\tfunction borrow(address asset,...\n      JUMPDEST \t\t\tfunction borrow(address asset,...\n      PUSH [tag] 30\t\t\tfunction borrow(address asset,...\n      JUMP \t\t\tfunction borrow(address asset,...\n    tag 27\t\t\tfunction borrow(address asset,...\n      JUMPDEST \t\t\tfunction borrow(address asset,...\n      STOP \t\t\tfunction borrow(address asset,...\n    tag 7\t\t\tfunction getAssetsPrice() exte...\n      JUMPDEST \t\t\tfunction getAssetsPrice() exte...\n      PUSH [tag] 31\t\t\tfunction getAssetsPrice() exte...\n      PUSH [tag] 32\t\t\tfunction getAssetsPrice() exte...\n      JUMP \t\t\tfunction getAssetsPrice() exte...\n    tag 31\t\t\tfunction getAssetsPrice() exte...\n      JUMPDEST \t\t\tfunction getAssetsPrice() exte...\n      PUSH 40\t\t\tfunction getAssetsPrice() exte...\n      MLOAD \t\t\tfunction getAssetsPrice() exte...\n      PUSH [tag] 33\t\t\tfunction getAssetsPrice() exte...\n      SWAP2 \t\t\tfunction getAssetsPrice() exte...\n      SWAP1 \t\t\tfunction getAssetsPrice() exte...\n      PUSH [tag] 34\t\t\tfunction getAssetsPrice() exte...\n      JUMP \t\t\tfunction getAssetsPrice() exte...\n    tag 33\t\t\tfunction getAssetsPrice() exte...\n      JUMPDEST \t\t\tfunction getAssetsPrice() exte...\n      PUSH 40\t\t\tfunction getAssetsPrice() exte...\n      MLOAD \t\t\tfunction getAssetsPrice() exte...\n      DUP1 \t\t\tfunction getAssetsPrice() exte...\n      SWAP2 \t\t\tfunction getAssetsPrice() exte...\n      SUB \t\t\tfunction getAssetsPrice() exte...\n      SWAP1 \t\t\tfunction getAssetsPrice() exte...\n      RETURN \t\t\tfunction getAssetsPrice() exte...\n    tag 8\t\t\tfunction getDebt(address user)...\n      JUMPDEST \t\t\tfunction getDebt(address user)...\n      PUSH [tag] 35\t\t\tfunction getDebt(address user)...\n      PUSH 4\t\t\tfunction getDebt(address user)...\n      DUP1 \t\t\tfunction getDebt(address user)...\n      CALLDATASIZE \t\t\tfunction getDebt(address user)...\n      SUB \t\t\tfunction getDebt(address user)...\n      DUP2 \t\t\tfunction getDebt(address user)...\n      ADD \t\t\tfunction getDebt(address user)...\n      SWAP1 \t\t\tfunction getDebt(address user)...\n      PUSH [tag] 36\t\t\tfunction getDebt(address user)...\n      SWAP2 \t\t\tfunction getDebt(address user)...\n      SWAP1 \t\t\tfunction getDebt(address user)...\n      PUSH [tag] 20\t\t\tfunction getDebt(address user)...\n      JUMP \t\t\tfunction getDebt(address user)...\n    tag 36\t\t\tfunction getDebt(address user)...\n      JUMPDEST \t\t\tfunction getDebt(address user)...\n      PUSH [tag] 37\t\t\tfunction getDebt(address user)...\n      JUMP \t\t\tfunction getDebt(address user)...\n    tag 35\t\t\tfunction getDebt(address user)...\n      JUMPDEST \t\t\tfunction getDebt(address user)...\n      PUSH 40\t\t\tfunction getDebt(address user)...\n      MLOAD \t\t\tfunction getDebt(address user)...\n      PUSH [tag] 38\t\t\tfunction getDebt(address user)...\n      SWAP2 \t\t\tfunction getDebt(address user)...\n      SWAP1 \t\t\tfunction getDebt(address user)...\n      PUSH [tag] 23\t\t\tfunction getDebt(address user)...\n      JUMP \t\t\tfunction getDebt(address user)...\n    tag 38\t\t\tfunction getDebt(address user)...\n      JUMPDEST \t\t\tfunction getDebt(address user)...\n      PUSH 40\t\t\tfunction getDebt(address user)...\n      MLOAD \t\t\tfunction getDebt(address user)...\n      DUP1 \t\t\tfunction getDebt(address user)...\n      SWAP2 \t\t\tfunction getDebt(address user)...\n      SUB \t\t\tfunction getDebt(address user)...\n      SWAP1 \t\t\tfunction getDebt(address user)...\n      RETURN \t\t\tfunction getDebt(address user)...\n    tag 9\t\t\taddress public wBTC\n      JUMPDEST \t\t\taddress public wBTC\n      PUSH [tag] 39\t\t\taddress public wBTC\n      PUSH [tag] 40\t\t\taddress public wBTC\n      JUMP \t\t\taddress public wBTC\n    tag 39\t\t\taddress public wBTC\n      JUMPDEST \t\t\taddress public wBTC\n      PUSH 40\t\t\taddress public wBTC\n      MLOAD \t\t\taddress public wBTC\n      PUSH [tag] 41\t\t\taddress public wBTC\n      SWAP2 \t\t\taddress public wBTC\n      SWAP1 \t\t\taddress public wBTC\n      PUSH [tag] 17\t\t\taddress public wBTC\n      JUMP \t\t\taddress public wBTC\n    tag 41\t\t\taddress public wBTC\n      JUMPDEST \t\t\taddress public wBTC\n      PUSH 40\t\t\taddress public wBTC\n      MLOAD \t\t\taddress public wBTC\n      DUP1 \t\t\taddress public wBTC\n      SWAP2 \t\t\taddress public wBTC\n      SUB \t\t\taddress public wBTC\n      SWAP1 \t\t\taddress public wBTC\n      RETURN \t\t\taddress public wBTC\n    tag 10\t\t\tfunction getReserve(address to...\n      JUMPDEST \t\t\tfunction getReserve(address to...\n      PUSH [tag] 42\t\t\tfunction getReserve(address to...\n      PUSH 4\t\t\tfunction getReserve(address to...\n      DUP1 \t\t\tfunction getReserve(address to...\n      CALLDATASIZE \t\t\tfunction getReserve(address to...\n      SUB \t\t\tfunction getReserve(address to...\n      DUP2 \t\t\tfunction getReserve(address to...\n      ADD \t\t\tfunction getReserve(address to...\n      SWAP1 \t\t\tfunction getReserve(address to...\n      PUSH [tag] 43\t\t\tfunction getReserve(address to...\n      SWAP2 \t\t\tfunction getReserve(address to...\n      SWAP1 \t\t\tfunction getReserve(address to...\n      PUSH [tag] 20\t\t\tfunction getReserve(address to...\n      JUMP \t\t\tfunction getReserve(address to...\n    tag 43\t\t\tfunction getReserve(address to...\n      JUMPDEST \t\t\tfunction getReserve(address to...\n      PUSH [tag] 44\t\t\tfunction getReserve(address to...\n      JUMP \t\t\tfunction getReserve(address to...\n    tag 42\t\t\tfunction getReserve(address to...\n      JUMPDEST \t\t\tfunction getReserve(address to...\n      PUSH 40\t\t\tfunction getReserve(address to...\n      MLOAD \t\t\tfunction getReserve(address to...\n      PUSH [tag] 45\t\t\tfunction getReserve(address to...\n      SWAP2 \t\t\tfunction getReserve(address to...\n      SWAP1 \t\t\tfunction getReserve(address to...\n      PUSH [tag] 17\t\t\tfunction getReserve(address to...\n      JUMP \t\t\tfunction getReserve(address to...\n    tag 45\t\t\tfunction getReserve(address to...\n      JUMPDEST \t\t\tfunction getReserve(address to...\n      PUSH 40\t\t\tfunction getReserve(address to...\n      MLOAD \t\t\tfunction getReserve(address to...\n      DUP1 \t\t\tfunction getReserve(address to...\n      SWAP2 \t\t\tfunction getReserve(address to...\n      SUB \t\t\tfunction getReserve(address to...\n      SWAP1 \t\t\tfunction getReserve(address to...\n      RETURN \t\t\tfunction getReserve(address to...\n    tag 11\t\t\tfunction getSupplyedBalances(a...\n      JUMPDEST \t\t\tfunction getSupplyedBalances(a...\n      PUSH [tag] 46\t\t\tfunction getSupplyedBalances(a...\n      PUSH 4\t\t\tfunction getSupplyedBalances(a...\n      DUP1 \t\t\tfunction getSupplyedBalances(a...\n      CALLDATASIZE \t\t\tfunction getSupplyedBalances(a...\n      SUB \t\t\tfunction getSupplyedBalances(a...\n      DUP2 \t\t\tfunction getSupplyedBalances(a...\n      ADD \t\t\tfunction getSupplyedBalances(a...\n      SWAP1 \t\t\tfunction getSupplyedBalances(a...\n      PUSH [tag] 47\t\t\tfunction getSupplyedBalances(a...\n      SWAP2 \t\t\tfunction getSupplyedBalances(a...\n      SWAP1 \t\t\tfunction getSupplyedBalances(a...\n      PUSH [tag] 20\t\t\tfunction getSupplyedBalances(a...\n      JUMP \t\t\tfunction getSupplyedBalances(a...\n    tag 47\t\t\tfunction getSupplyedBalances(a...\n      JUMPDEST \t\t\tfunction getSupplyedBalances(a...\n      PUSH [tag] 48\t\t\tfunction getSupplyedBalances(a...\n      JUMP \t\t\tfunction getSupplyedBalances(a...\n    tag 46\t\t\tfunction getSupplyedBalances(a...\n      JUMPDEST \t\t\tfunction getSupplyedBalances(a...\n      PUSH 40\t\t\tfunction getSupplyedBalances(a...\n      MLOAD \t\t\tfunction getSupplyedBalances(a...\n      PUSH [tag] 49\t\t\tfunction getSupplyedBalances(a...\n      SWAP2 \t\t\tfunction getSupplyedBalances(a...\n      SWAP1 \t\t\tfunction getSupplyedBalances(a...\n      PUSH [tag] 34\t\t\tfunction getSupplyedBalances(a...\n      JUMP \t\t\tfunction getSupplyedBalances(a...\n    tag 49\t\t\tfunction getSupplyedBalances(a...\n      JUMPDEST \t\t\tfunction getSupplyedBalances(a...\n      PUSH 40\t\t\tfunction getSupplyedBalances(a...\n      MLOAD \t\t\tfunction getSupplyedBalances(a...\n      DUP1 \t\t\tfunction getSupplyedBalances(a...\n      SWAP2 \t\t\tfunction getSupplyedBalances(a...\n      SUB \t\t\tfunction getSupplyedBalances(a...\n      SWAP1 \t\t\tfunction getSupplyedBalances(a...\n      RETURN \t\t\tfunction getSupplyedBalances(a...\n    tag 12\t\t\tfunction getwBTC() public view...\n      JUMPDEST \t\t\tfunction getwBTC() public view...\n      PUSH [tag] 50\t\t\tfunction getwBTC() public view...\n      PUSH [tag] 51\t\t\tfunction getwBTC() public view...\n      JUMP \t\t\tfunction getwBTC() public view...\n    tag 50\t\t\tfunction getwBTC() public view...\n      JUMPDEST \t\t\tfunction getwBTC() public view...\n      PUSH 40\t\t\tfunction getwBTC() public view...\n      MLOAD \t\t\tfunction getwBTC() public view...\n      PUSH [tag] 52\t\t\tfunction getwBTC() public view...\n      SWAP2 \t\t\tfunction getwBTC() public view...\n      SWAP1 \t\t\tfunction getwBTC() public view...\n      PUSH [tag] 17\t\t\tfunction getwBTC() public view...\n      JUMP \t\t\tfunction getwBTC() public view...\n    tag 52\t\t\tfunction getwBTC() public view...\n      JUMPDEST \t\t\tfunction getwBTC() public view...\n      PUSH 40\t\t\tfunction getwBTC() public view...\n      MLOAD \t\t\tfunction getwBTC() public view...\n      DUP1 \t\t\tfunction getwBTC() public view...\n      SWAP2 \t\t\tfunction getwBTC() public view...\n      SUB \t\t\tfunction getwBTC() public view...\n      SWAP1 \t\t\tfunction getwBTC() public view...\n      RETURN \t\t\tfunction getwBTC() public view...\n    tag 15\t\t\tfunction getUSDC() public view...\n      JUMPDEST \t\t\tfunction getUSDC() public view...\n      PUSH 0\t\t\taddress\n      PUSH 3\t\t\tusdc\n      PUSH 0\t\t\tusdc\n      SWAP1 \t\t\tusdc\n      SLOAD \t\t\tusdc\n      SWAP1 \t\t\tusdc\n      PUSH 100\t\t\tusdc\n      EXP \t\t\tusdc\n      SWAP1 \t\t\tusdc\n      DIV \t\t\tusdc\n      PUSH FFFFFFFFFFFFFFFFFFFFFFFFFFFFFFFFFFFFFFFF\t\t\tusdc\n      AND \t\t\tusdc\n      SWAP1 \t\t\treturn address(usdc)\n      POP \t\t\treturn address(usdc)\n      SWAP1 \t\t\tfunction getUSDC() public view...\n      JUMP \t\t\tfunction getUSDC() public view...\n    tag 21\t\t\tfunction getDepositValue(addre...\n      JUMPDEST \t\t\tfunction getDepositValue(addre...\n      PUSH 0\t\t\tuint256\n      DUP1 \t\t\tuint256 wBTCPrice\n      PUSH 0\t\t\tuint256 _timestamp\n      DUP1 \t\t\tuint256 _decimals\n      PUSH 0\t\t\twBTCReserve\n      DUP1 \t\t\twBTCReserve\n      SLOAD \t\t\twBTCReserve\n      SWAP1 \t\t\twBTCReserve\n      PUSH 100\t\t\twBTCReserve\n      EXP \t\t\twBTCReserve\n      SWAP1 \t\t\twBTCReserve\n      DIV \t\t\twBTCReserve\n      PUSH FFFFFFFFFFFFFFFFFFFFFFFFFFFFFFFFFFFFFFFF\t\t\twBTCReserve\n      AND \t\t\twBTCReserve\n      PUSH FFFFFFFFFFFFFFFFFFFFFFFFFFFFFFFFFFFFFFFF\t\t\twBTCReserve.getAssetPrice\n      AND \t\t\twBTCReserve.getAssetPrice\n      PUSH E54F0880\t\t\twBTCReserve.getAssetPrice\n      PUSH 40\t\t\twBTCReserve.getAssetPrice()\n      MLOAD \t\t\twBTCReserve.getAssetPrice()\n      DUP2 \t\t\twBTCReserve.getAssetPrice()\n      PUSH FFFFFFFF\t\t\twBTCReserve.getAssetPrice()\n      AND \t\t\twBTCReserve.getAssetPrice()\n      PUSH E0\t\t\twBTCReserve.getAssetPrice()\n      SHL \t\t\twBTCReserve.getAssetPrice()\n      DUP2 \t\t\twBTCReserve.getAssetPrice()\n      MSTORE \t\t\twBTCReserve.getAssetPrice()\n      PUSH 4\t\t\twBTCReserve.getAssetPrice()\n      ADD \t\t\twBTCReserve.getAssetPrice()\n      PUSH 60\t\t\twBTCReserve.getAssetPrice()\n      PUSH 40\t\t\twBTCReserve.getAssetPrice()\n      MLOAD \t\t\twBTCReserve.getAssetPrice()\n      DUP1 \t\t\twBTCReserve.getAssetPrice()\n      DUP4 \t\t\twBTCReserve.getAssetPrice()\n      SUB \t\t\twBTCReserve.getAssetPrice()\n      DUP2 \t\t\twBTCReserve.getAssetPrice()\n      DUP7 \t\t\twBTCReserve.getAssetPrice()\n      GAS \t\t\twBTCReserve.getAssetPrice()\n      STATICCALL \t\t\twBTCReserve.getAssetPrice()\n      ISZERO \t\t\twBTCReserve.getAssetPrice()\n      DUP1 \t\t\twBTCReserve.getAssetPrice()\n      ISZERO \t\t\twBTCReserve.getAssetPrice()\n      PUSH [tag] 56\t\t\twBTCReserve.getAssetPrice()\n      JUMPI \t\t\twBTCReserve.getAssetPrice()\n      RETURNDATASIZE \t\t\twBTCReserve.getAssetPrice()\n      PUSH 0\t\t\twBTCReserve.getAssetPrice()\n      DUP1 \t\t\twBTCReserve.getAssetPrice()\n      RETURNDATACOPY \t\t\twBTCReserve.getAssetPrice()\n      RETURNDATASIZE \t\t\twBTCReserve.getAssetPrice()\n      PUSH 0\t\t\twBTCReserve.getAssetPrice()\n      REVERT \t\t\twBTCReserve.getAssetPrice()\n    tag 56\t\t\twBTCReserve.getAssetPrice()\n      JUMPDEST \t\t\twBTCReserve.getAssetPrice()\n      POP \t\t\twBTCReserve.getAssetPrice()\n      POP \t\t\twBTCReserve.getAssetPrice()\n      POP \t\t\twBTCReserve.getAssetPrice()\n      POP \t\t\twBTCReserve.getAssetPrice()\n      PUSH 40\t\t\twBTCReserve.getAssetPrice()\n      MLOAD \t\t\twBTCReserve.getAssetPrice()\n      RETURNDATASIZE \t\t\twBTCReserve.getAssetPrice()\n      PUSH 1F\t\t\twBTCReserve.getAssetPrice()\n      NOT \t\t\twBTCReserve.getAssetPrice()\n      PUSH 1F\t\t\twBTCReserve.getAssetPrice()\n      DUP3 \t\t\twBTCReserve.getAssetPrice()\n      ADD \t\t\twBTCReserve.getAssetPrice()\n      AND \t\t\twBTCReserve.getAssetPrice()\n      DUP3 \t\t\twBTCReserve.getAssetPrice()\n      ADD \t\t\twBTCReserve.getAssetPrice()\n      DUP1 \t\t\twBTCReserve.getAssetPrice()\n      PUSH 40\t\t\twBTCReserve.getAssetPrice()\n      MSTORE \t\t\twBTCReserve.getAssetPrice()\n      POP \t\t\twBTCReserve.getAssetPrice()\n      DUP2 \t\t\twBTCReserve.getAssetPrice()\n      ADD \t\t\twBTCReserve.getAssetPrice()\n      SWAP1 \t\t\twBTCReserve.getAssetPrice()\n      PUSH [tag] 57\t\t\twBTCReserve.getAssetPrice()\n      SWAP2 \t\t\twBTCReserve.getAssetPrice()\n      SWAP1 \t\t\twBTCReserve.getAssetPrice()\n      PUSH [tag] 58\t\t\twBTCReserve.getAssetPrice()\n      JUMP \t\t\twBTCReserve.getAssetPrice()\n    tag 57\t\t\twBTCReserve.getAssetPrice()\n      JUMPDEST \t\t\twBTCReserve.getAssetPrice()\n      SWAP3 \t\t\t(uint256 wBTCPrice, uint256 _t...\n      POP \t\t\t(uint256 wBTCPrice, uint256 _t...\n      SWAP3 \t\t\t(uint256 wBTCPrice, uint256 _t...\n      POP \t\t\t(uint256 wBTCPrice, uint256 _t...\n      SWAP3 \t\t\t(uint256 wBTCPrice, uint256 _t...\n      POP \t\t\t(uint256 wBTCPrice, uint256 _t...\n      PUSH 0\t\t\tuint256 collatValue\n      DUP2 \t\t\t_decimals\n      PUSH A\t\t\t10\n      PUSH [tag] 59\t\t\t10 ** _decimals\n      SWAP2 \t\t\t10 ** _decimals\n      SWAP1 \t\t\t10 ** _decimals\n      PUSH [tag] 60\t\t\t10 ** _decimals\n      JUMP \t\t\t10 ** _decimals\n    tag 59\t\t\t10 ** _decimals\n      JUMPDEST \t\t\t10 ** _decimals\n      DUP5 \t\t\twBTCPrice\n      PUSH 0\t\t\twBTCReserve\n      DUP1 \t\t\twBTCReserve\n      SLOAD \t\t\twBTCReserve\n      SWAP1 \t\t\twBTCReserve\n      PUSH 100\t\t\twBTCReserve\n      EXP \t\t\twBTCReserve\n      SWAP1 \t\t\twBTCReserve\n      DIV \t\t\twBTCReserve\n      PUSH FFFFFFFFFFFFFFFFFFFFFFFFFFFFFFFFFFFFFFFF\t\t\twBTCReserve\n      AND \t\t\twBTCReserve\n      PUSH FFFFFFFFFFFFFFFFFFFFFFFFFFFFFFFFFFFFFFFF\t\t\twBTCReserve.getSupplyedAmount\n      AND \t\t\twBTCReserve.getSupplyedAmount\n      PUSH AC75409A\t\t\twBTCReserve.getSupplyedAmount\n      DUP10 \t\t\tuser\n      PUSH 40\t\t\twBTCReserve.getSupplyedAmount(...\n      MLOAD \t\t\twBTCReserve.getSupplyedAmount(...\n      DUP3 \t\t\twBTCReserve.getSupplyedAmount(...\n      PUSH FFFFFFFF\t\t\twBTCReserve.getSupplyedAmount(...\n      AND \t\t\twBTCReserve.getSupplyedAmount(...\n      PUSH E0\t\t\twBTCReserve.getSupplyedAmount(...\n      SHL \t\t\twBTCReserve.getSupplyedAmount(...\n      DUP2 \t\t\twBTCReserve.getSupplyedAmount(...\n      MSTORE \t\t\twBTCReserve.getSupplyedAmount(...\n      PUSH 4\t\t\twBTCReserve.getSupplyedAmount(...\n      ADD \t\t\twBTCReserve.getSupplyedAmount(...\n      PUSH [tag] 61\t\t\twBTCReserve.getSupplyedAmount(...\n      SWAP2 \t\t\twBTCReserve.getSupplyedAmount(...\n      SWAP1 \t\t\twBTCReserve.getSupplyedAmount(...\n      PUSH [tag] 17\t\t\twBTCReserve.getSupplyedAmount(...\n      JUMP \t\t\twBTCReserve.getSupplyedAmount(...\n    tag 61\t\t\twBTCReserve.getSupplyedAmount(...\n      JUMPDEST \t\t\twBTCReserve.getSupplyedAmount(...\n      PUSH 20\t\t\twBTCReserve.getSupplyedAmount(...\n      PUSH 40\t\t\twBTCReserve.getSupplyedAmount(...\n      MLOAD \t\t\twBTCReserve.getSupplyedAmount(...\n      DUP1 \t\t\twBTCReserve.getSupplyedAmount(...\n      DUP4 \t\t\twBTCReserve.getSupplyedAmount(...\n      SUB \t\t\twBTCReserve.getSupplyedAmount(...\n      DUP2 \t\t\twBTCReserve.getSupplyedAmount(...\n      DUP7 \t\t\twBTCReserve.getSupplyedAmount(...\n      GAS \t\t\twBTCReserve.getSupplyedAmount(...\n      STATICCALL \t\t\twBTCReserve.getSupplyedAmount(...\n      ISZERO \t\t\twBTCReserve.getSupplyedAmount(...\n      DUP1 \t\t\twBTCReserve.getSupplyedAmount(...\n      ISZERO \t\t\twBTCReserve.getSupplyedAmount(...\n      PUSH [tag] 63\t\t\twBTCReserve.getSupplyedAmount(...\n      JUMPI \t\t\twBTCReserve.getSupplyedAmount(...\n      RETURNDATASIZE \t\t\twBTCReserve.getSupplyedAmount(...\n      PUSH 0\t\t\twBTCReserve.getSupplyedAmount(...\n      DUP1 \t\t\twBTCReserve.getSupplyedAmount(...\n      RETURNDATACOPY \t\t\twBTCReserve.getSupplyedAmount(...\n      RETURNDATASIZE \t\t\twBTCReserve.getSupplyedAmount(...\n      PUSH 0\t\t\twBTCReserve.getSupplyedAmount(...\n      REVERT \t\t\twBTCReserve.getSupplyedAmount(...\n    tag 63\t\t\twBTCReserve.getSupplyedAmount(...\n      JUMPDEST \t\t\twBTCReserve.getSupplyedAmount(...\n      POP \t\t\twBTCReserve.getSupplyedAmount(...\n      POP \t\t\twBTCReserve.getSupplyedAmount(...\n      POP \t\t\twBTCReserve.getSupplyedAmount(...\n      POP \t\t\twBTCReserve.getSupplyedAmount(...\n      PUSH 40\t\t\twBTCReserve.getSupplyedAmount(...\n      MLOAD \t\t\twBTCReserve.getSupplyedAmount(...\n      RETURNDATASIZE \t\t\twBTCReserve.getSupplyedAmount(...\n      PUSH 1F\t\t\twBTCReserve.getSupplyedAmount(...\n      NOT \t\t\twBTCReserve.getSupplyedAmount(...\n      PUSH 1F\t\t\twBTCReserve.getSupplyedAmount(...\n      DUP3 \t\t\twBTCReserve.getSupplyedAmount(...\n      ADD \t\t\twBTCReserve.getSupplyedAmount(...\n      AND \t\t\twBTCReserve.getSupplyedAmount(...\n      DUP3 \t\t\twBTCReserve.getSupplyedAmount(...\n      ADD \t\t\twBTCReserve.getSupplyedAmount(...\n      DUP1 \t\t\twBTCReserve.getSupplyedAmount(...\n      PUSH 40\t\t\twBTCReserve.getSupplyedAmount(...\n      MSTORE \t\t\twBTCReserve.getSupplyedAmount(...\n      POP \t\t\twBTCReserve.getSupplyedAmount(...\n      DUP2 \t\t\twBTCReserve.getSupplyedAmount(...\n      ADD \t\t\twBTCReserve.getSupplyedAmount(...\n      SWAP1 \t\t\twBTCReserve.getSupplyedAmount(...\n      PUSH [tag] 64\t\t\twBTCReserve.getSupplyedAmount(...\n      SWAP2 \t\t\twBTCReserve.getSupplyedAmount(...\n      SWAP1 \t\t\twBTCReserve.getSupplyedAmount(...\n      PUSH [tag] 65\t\t\twBTCReserve.getSupplyedAmount(...\n      JUMP \t\t\twBTCReserve.getSupplyedAmount(...\n    tag 64\t\t\twBTCReserve.getSupplyedAmount(...\n      JUMPDEST \t\t\twBTCReserve.getSupplyedAmount(...\n      PUSH [tag] 66\t\t\twBTCReserve.getSupplyedAmount(...\n      SWAP2 \t\t\twBTCReserve.getSupplyedAmount(...\n      SWAP1 \t\t\twBTCReserve.getSupplyedAmount(...\n      PUSH [tag] 67\t\t\twBTCReserve.getSupplyedAmount(...\n      JUMP \t\t\twBTCReserve.getSupplyedAmount(...\n    tag 66\t\t\twBTCReserve.getSupplyedAmount(...\n      JUMPDEST \t\t\twBTCReserve.getSupplyedAmount(...\n      PUSH [tag] 68\t\t\twBTCReserve.getSupplyedAmount(...\n      SWAP2 \t\t\twBTCReserve.getSupplyedAmount(...\n      SWAP1 \t\t\twBTCReserve.getSupplyedAmount(...\n      PUSH [tag] 69\t\t\twBTCReserve.getSupplyedAmount(...\n      JUMP \t\t\twBTCReserve.getSupplyedAmount(...\n    tag 68\t\t\twBTCReserve.getSupplyedAmount(...\n      JUMPDEST \t\t\twBTCReserve.getSupplyedAmount(...\n      SWAP1 \t\t\tuint256 collatValue = wBTCRese...\n      POP \t\t\tuint256 collatValue = wBTCRese...\n      DUP1 \t\t\tcollatValue\n      SWAP5 \t\t\treturn collatValue\n      POP \t\t\treturn collatValue\n      POP \t\t\treturn collatValue\n      POP \t\t\treturn collatValue\n      POP \t\t\treturn collatValue\n      POP \t\t\treturn collatValue\n      SWAP2 \t\t\tfunction getDepositValue(addre...\n      SWAP1 \t\t\tfunction getDepositValue(addre...\n      POP \t\t\tfunction getDepositValue(addre...\n      JUMP \t\t\tfunction getDepositValue(addre...\n    tag 25\t\t\taddress public usdc\n      JUMPDEST \t\t\taddress public usdc\n      PUSH 3\t\t\taddress public usdc\n      PUSH 0\t\t\taddress public usdc\n      SWAP1 \t\t\taddress public usdc\n      SLOAD \t\t\taddress public usdc\n      SWAP1 \t\t\taddress public usdc\n      PUSH 100\t\t\taddress public usdc\n      EXP \t\t\taddress public usdc\n      SWAP1 \t\t\taddress public usdc\n      DIV \t\t\taddress public usdc\n      PUSH FFFFFFFFFFFFFFFFFFFFFFFFFFFFFFFFFFFFFFFF\t\t\taddress public usdc\n      AND \t\t\taddress public usdc\n      DUP2 \t\t\taddress public usdc\n      JUMP \t\t\taddress public usdc\n    tag 30\t\t\tfunction borrow(address asset,...\n      JUMPDEST \t\t\tfunction borrow(address asset,...\n      PUSH 3\t\t\tusdc\n      PUSH 0\t\t\tusdc\n      SWAP1 \t\t\tusdc\n      SLOAD \t\t\tusdc\n      SWAP1 \t\t\tusdc\n      PUSH 100\t\t\tusdc\n      EXP \t\t\tusdc\n      SWAP1 \t\t\tusdc\n      DIV \t\t\tusdc\n      PUSH FFFFFFFFFFFFFFFFFFFFFFFFFFFFFFFFFFFFFFFF\t\t\tusdc\n      AND \t\t\tusdc\n      PUSH FFFFFFFFFFFFFFFFFFFFFFFFFFFFFFFFFFFFFFFF\t\t\tasset == usdc\n      AND \t\t\tasset == usdc\n      DUP3 \t\t\tasset\n      PUSH FFFFFFFFFFFFFFFFFFFFFFFFFFFFFFFFFFFFFFFF\t\t\tasset == usdc\n      AND \t\t\tasset == usdc\n      EQ \t\t\tasset == usdc\n      PUSH [tag] 71\t\t\trequire(asset == usdc)\n      JUMPI \t\t\trequire(asset == usdc)\n      PUSH 0\t\t\trequire(asset == usdc)\n      DUP1 \t\t\trequire(asset == usdc)\n      REVERT \t\t\trequire(asset == usdc)\n    tag 71\t\t\trequire(asset == usdc)\n      JUMPDEST \t\t\trequire(asset == usdc)\n      PUSH 0\t\t\tuint256 collateralValue\n      ADDRESS \t\t\tthis\n      PUSH FFFFFFFFFFFFFFFFFFFFFFFFFFFFFFFFFFFFFFFF\t\t\tthis.getDepositValue\n      AND \t\t\tthis.getDepositValue\n      PUSH 3B2E5F94\t\t\tthis.getDepositValue\n      CALLER \t\t\tmsg.sender\n      PUSH 40\t\t\tthis.getDepositValue(msg.sende...\n      MLOAD \t\t\tthis.getDepositValue(msg.sende...\n      DUP3 \t\t\tthis.getDepositValue(msg.sende...\n      PUSH FFFFFFFF\t\t\tthis.getDepositValue(msg.sende...\n      AND \t\t\tthis.getDepositValue(msg.sende...\n      PUSH E0\t\t\tthis.getDepositValue(msg.sende...\n      SHL \t\t\tthis.getDepositValue(msg.sende...\n      DUP2 \t\t\tthis.getDepositValue(msg.sende...\n      MSTORE \t\t\tthis.getDepositValue(msg.sende...\n      PUSH 4\t\t\tthis.getDepositValue(msg.sende...\n      ADD \t\t\tthis.getDepositValue(msg.sende...\n      PUSH [tag] 72\t\t\tthis.getDepositValue(msg.sende...\n      SWAP2 \t\t\tthis.getDepositValue(msg.sende...\n      SWAP1 \t\t\tthis.getDepositValue(msg.sende...\n      PUSH [tag] 17\t\t\tthis.getDepositValue(msg.sende...\n      JUMP \t\t\tthis.getDepositValue(msg.sende...\n    tag 72\t\t\tthis.getDepositValue(msg.sende...\n      JUMPDEST \t\t\tthis.getDepositValue(msg.sende...\n      PUSH 20\t\t\tthis.getDepositValue(msg.sende...\n      PUSH 40\t\t\tthis.getDepositValue(msg.sende...\n      MLOAD \t\t\tthis.getDepositValue(msg.sende...\n      DUP1 \t\t\tthis.getDepositValue(msg.sende...\n      DUP4 \t\t\tthis.getDepositValue(msg.sende...\n      SUB \t\t\tthis.getDepositValue(msg.sende...\n      DUP2 \t\t\tthis.getDepositValue(msg.sende...\n      DUP7 \t\t\tthis.getDepositValue(msg.sende...\n      GAS \t\t\tthis.getDepositValue(msg.sende...\n      STATICCALL \t\t\tthis.getDepositValue(msg.sende...\n      ISZERO \t\t\tthis.getDepositValue(msg.sende...\n      DUP1 \t\t\tthis.getDepositValue(msg.sende...\n      ISZERO \t\t\tthis.getDepositValue(msg.sende...\n      PUSH [tag] 74\t\t\tthis.getDepositValue(msg.sende...\n      JUMPI \t\t\tthis.getDepositValue(msg.sende...\n      RETURNDATASIZE \t\t\tthis.getDepositValue(msg.sende...\n      PUSH 0\t\t\tthis.getDepositValue(msg.sende...\n      DUP1 \t\t\tthis.getDepositValue(msg.sende...\n      RETURNDATACOPY \t\t\tthis.getDepositValue(msg.sende...\n      RETURNDATASIZE \t\t\tthis.getDepositValue(msg.sende...\n      PUSH 0\t\t\tthis.getDepositValue(msg.sende...\n      REVERT \t\t\tthis.getDepositValue(msg.sende...\n    tag 74\t\t\tthis.getDepositValue(msg.sende...\n      JUMPDEST \t\t\tthis.getDepositValue(msg.sende...\n      POP \t\t\tthis.getDepositValue(msg.sende...\n      POP \t\t\tthis.getDepositValue(msg.sende...\n      POP \t\t\tthis.getDepositValue(msg.sende...\n      POP \t\t\tthis.getDepositValue(msg.sende...\n      PUSH 40\t\t\tthis.getDepositValue(msg.sende...\n      MLOAD \t\t\tthis.getDepositValue(msg.sende...\n      RETURNDATASIZE \t\t\tthis.getDepositValue(msg.sende...\n      PUSH 1F\t\t\tthis.getDepositValue(msg.sende...\n      NOT \t\t\tthis.getDepositValue(msg.sende...\n      PUSH 1F\t\t\tthis.getDepositValue(msg.sende...\n      DUP3 \t\t\tthis.getDepositValue(msg.sende...\n      ADD \t\t\tthis.getDepositValue(msg.sende...\n      AND \t\t\tthis.getDepositValue(msg.sende...\n      DUP3 \t\t\tthis.getDepositValue(msg.sende...\n      ADD \t\t\tthis.getDepositValue(msg.sende...\n      DUP1 \t\t\tthis.getDepositValue(msg.sende...\n      PUSH 40\t\t\tthis.getDepositValue(msg.sende...\n      MSTORE \t\t\tthis.getDepositValue(msg.sende...\n      POP \t\t\tthis.getDepositValue(msg.sende...\n      DUP2 \t\t\tthis.getDepositValue(msg.sende...\n      ADD \t\t\tthis.getDepositValue(msg.sende...\n      SWAP1 \t\t\tthis.getDepositValue(msg.sende...\n      PUSH [tag] 75\t\t\tthis.getDepositValue(msg.sende...\n      SWAP2 \t\t\tthis.getDepositValue(msg.sende...\n      SWAP1 \t\t\tthis.getDepositValue(msg.sende...\n      PUSH [tag] 65\t\t\tthis.getDepositValue(msg.sende...\n      JUMP \t\t\tthis.getDepositValue(msg.sende...\n    tag 75\t\t\tthis.getDepositValue(msg.sende...\n      JUMPDEST \t\t\tthis.getDepositValue(msg.sende...\n      SWAP1 \t\t\tuint256 collateralValue = this...\n      POP \t\t\tuint256 collateralValue = this...\n      PUSH 0\t\t\tuint256 maxValueBorred\n      PUSH 64\t\t\t100\n      PUSH 5\t\t\twBTCLTV\n      PUSH 0\t\t\twBTCLTV\n      SWAP1 \t\t\twBTCLTV\n      SLOAD \t\t\twBTCLTV\n      SWAP1 \t\t\twBTCLTV\n      PUSH 100\t\t\twBTCLTV\n      EXP \t\t\twBTCLTV\n      SWAP1 \t\t\twBTCLTV\n      DIV \t\t\twBTCLTV\n      PUSH FF\t\t\twBTCLTV\n      AND \t\t\twBTCLTV\n      PUSH FF\t\t\tcollateralValue * wBTCLTV\n      AND \t\t\tcollateralValue * wBTCLTV\n      DUP4 \t\t\tcollateralValue\n      PUSH [tag] 76\t\t\tcollateralValue * wBTCLTV\n      SWAP2 \t\t\tcollateralValue * wBTCLTV\n      SWAP1 \t\t\tcollateralValue * wBTCLTV\n      PUSH [tag] 67\t\t\tcollateralValue * wBTCLTV\n      JUMP \t\t\tcollateralValue * wBTCLTV\n    tag 76\t\t\tcollateralValue * wBTCLTV\n      JUMPDEST \t\t\tcollateralValue * wBTCLTV\n      PUSH [tag] 77\t\t\tcollateralValue * wBTCLTV / 10...\n      SWAP2 \t\t\tcollateralValue * wBTCLTV / 10...\n      SWAP1 \t\t\tcollateralValue * wBTCLTV / 10...\n      PUSH [tag] 69\t\t\tcollateralValue * wBTCLTV / 10...\n      JUMP \t\t\tcollateralValue * wBTCLTV / 10...\n    tag 77\t\t\tcollateralValue * wBTCLTV / 10...\n      JUMPDEST \t\t\tcollateralValue * wBTCLTV / 10...\n      SWAP1 \t\t\tuint256 maxValueBorred = colla...\n      POP \t\t\tuint256 maxValueBorred = colla...\n      PUSH 0\t\t\tuint256 currentBorrowed\n      ADDRESS \t\t\tthis\n      PUSH FFFFFFFFFFFFFFFFFFFFFFFFFFFFFFFFFFFFFFFF\t\t\tthis.getDebt\n      AND \t\t\tthis.getDebt\n      PUSH 9A78E72E\t\t\tthis.getDebt\n      CALLER \t\t\tmsg.sender\n      PUSH 40\t\t\tthis.getDebt(msg.sender)\n      MLOAD \t\t\tthis.getDebt(msg.sender)\n      DUP3 \t\t\tthis.getDebt(msg.sender)\n      PUSH FFFFFFFF\t\t\tthis.getDebt(msg.sender)\n      AND \t\t\tthis.getDebt(msg.sender)\n      PUSH E0\t\t\tthis.getDebt(msg.sender)\n      SHL \t\t\tthis.getDebt(msg.sender)\n      DUP2 \t\t\tthis.getDebt(msg.sender)\n      MSTORE \t\t\tthis.getDebt(msg.sender)\n      PUSH 4\t\t\tthis.getDebt(msg.sender)\n      ADD \t\t\tthis.getDebt(msg.sender)\n      PUSH [tag] 78\t\t\tthis.getDebt(msg.sender)\n      SWAP2 \t\t\tthis.getDebt(msg.sender)\n      SWAP1 \t\t\tthis.getDebt(msg.sender)\n      PUSH [tag] 17\t\t\tthis.getDebt(msg.sender)\n      JUMP \t\t\tthis.getDebt(msg.sender)\n    tag 78\t\t\tthis.getDebt(msg.sender)\n      JUMPDEST \t\t\tthis.getDebt(msg.sender)\n      PUSH 20\t\t\tthis.getDebt(msg.sender)\n      PUSH 40\t\t\tthis.getDebt(msg.sender)\n      MLOAD \t\t\tthis.getDebt(msg.sender)\n      DUP1 \t\t\tthis.getDebt(msg.sender)\n      DUP4 \t\t\tthis.getDebt(msg.sender)\n      SUB \t\t\tthis.getDebt(msg.sender)\n      DUP2 \t\t\tthis.getDebt(msg.sender)\n      DUP7 \t\t\tthis.getDebt(msg.sender)\n      GAS \t\t\tthis.getDebt(msg.sender)\n      STATICCALL \t\t\tthis.getDebt(msg.sender)\n      ISZERO \t\t\tthis.getDebt(msg.sender)\n      DUP1 \t\t\tthis.getDebt(msg.sender)\n      ISZERO \t\t\tthis.getDebt(msg.sender)\n      PUSH [tag] 80\t\t\tthis.getDebt(msg.sender)\n      JUMPI \t\t\tthis.getDebt(msg.sender)\n      RETURNDATASIZE \t\t\tthis.getDebt(msg.sender)\n      PUSH 0\t\t\tthis.getDebt(msg.sender)\n      DUP1 \t\t\tthis.getDebt(msg.sender)\n      RETURNDATACOPY \t\t\tthis.getDebt(msg.sender)\n      RETURNDATASIZE \t\t\tthis.getDebt(msg.sender)\n      PUSH 0\t\t\tthis.getDebt(msg.sender)\n      REVERT \t\t\tthis.getDebt(msg.sender)\n    tag 80\t\t\tthis.getDebt(msg.sender)\n      JUMPDEST \t\t\tthis.getDebt(msg.sender)\n      POP \t\t\tthis.getDebt(msg.sender)\n      POP \t\t\tthis.getDebt(msg.sender)\n      POP \t\t\tthis.getDebt(msg.sender)\n      POP \t\t\tthis.getDebt(msg.sender)\n      PUSH 40\t\t\tthis.getDebt(msg.sender)\n      MLOAD \t\t\tthis.getDebt(msg.sender)\n      RETURNDATASIZE \t\t\tthis.getDebt(msg.sender)\n      PUSH 1F\t\t\tthis.getDebt(msg.sender)\n      NOT \t\t\tthis.getDebt(msg.sender)\n      PUSH 1F\t\t\tthis.getDebt(msg.sender)\n      DUP3 \t\t\tthis.getDebt(msg.sender)\n      ADD \t\t\tthis.getDebt(msg.sender)\n      AND \t\t\tthis.getDebt(msg.sender)\n      DUP3 \t\t\tthis.getDebt(msg.sender)\n      ADD \t\t\tthis.getDebt(msg.sender)\n      DUP1 \t\t\tthis.getDebt(msg.sender)\n      PUSH 40\t\t\tthis.getDebt(msg.sender)\n      MSTORE \t\t\tthis.getDebt(msg.sender)\n      POP \t\t\tthis.getDebt(msg.sender)\n      DUP2 \t\t\tthis.getDebt(msg.sender)\n      ADD \t\t\tthis.getDebt(msg.sender)\n      SWAP1 \t\t\tthis.getDebt(msg.sender)\n      PUSH [tag] 81\t\t\tthis.getDebt(msg.sender)\n      SWAP2 \t\t\tthis.getDebt(msg.sender)\n      SWAP1 \t\t\tthis.getDebt(msg.sender)\n      PUSH [tag] 65\t\t\tthis.getDebt(msg.sender)\n      JUMP \t\t\tthis.getDebt(msg.sender)\n    tag 81\t\t\tthis.getDebt(msg.sender)\n      JUMPDEST \t\t\tthis.getDebt(msg.sender)\n      SWAP1 \t\t\tuint256 currentBorrowed = this...\n      POP \t\t\tuint256 currentBorrowed = this...\n      DUP2 \t\t\tmaxValueBorred\n      DUP5 \t\t\tamount\n      DUP3 \t\t\tcurrentBorrowed\n      PUSH [tag] 82\t\t\tcurrentBorrowed + amount\n      SWAP2 \t\t\tcurrentBorrowed + amount\n      SWAP1 \t\t\tcurrentBorrowed + amount\n      PUSH [tag] 83\t\t\tcurrentBorrowed + amount\n      JUMP \t\t\tcurrentBorrowed + amount\n    tag 82\t\t\tcurrentBorrowed + amount\n      JUMPDEST \t\t\tcurrentBorrowed + amount\n      LT \t\t\t(currentBorrowed + amount) < m...\n      PUSH [tag] 84\t\t\trequire((currentBorrowed + amo...\n      JUMPI \t\t\trequire((currentBorrowed + amo...\n      PUSH 40\t\t\trequire((currentBorrowed + amo...\n      MLOAD \t\t\trequire((currentBorrowed + amo...\n      PUSH 8C379A000000000000000000000000000000000000000000000000000000000\t\t\trequire((currentBorrowed + amo...\n      DUP2 \t\t\trequire((currentBorrowed + amo...\n      MSTORE \t\t\trequire((currentBorrowed + amo...\n      PUSH 4\t\t\trequire((currentBorrowed + amo...\n      ADD \t\t\trequire((currentBorrowed + amo...\n      PUSH [tag] 85\t\t\trequire((currentBorrowed + amo...\n      SWAP1 \t\t\trequire((currentBorrowed + amo...\n      PUSH [tag] 86\t\t\trequire((currentBorrowed + amo...\n      JUMP \t\t\trequire((currentBorrowed + amo...\n    tag 85\t\t\trequire((currentBorrowed + amo...\n      JUMPDEST \t\t\trequire((currentBorrowed + amo...\n      PUSH 40\t\t\trequire((currentBorrowed + amo...\n      MLOAD \t\t\trequire((currentBorrowed + amo...\n      DUP1 \t\t\trequire((currentBorrowed + amo...\n      SWAP2 \t\t\trequire((currentBorrowed + amo...\n      SUB \t\t\trequire((currentBorrowed + amo...\n      SWAP1 \t\t\trequire((currentBorrowed + amo...\n      REVERT \t\t\trequire((currentBorrowed + amo...\n    tag 84\t\t\trequire((currentBorrowed + amo...\n      JUMPDEST \t\t\trequire((currentBorrowed + amo...\n      DUP4 \t\t\tamount\n      PUSH 4\t\t\tborrowedUSDC\n      PUSH 0\t\t\tborrowedUSDC[msg.sender]\n      CALLER \t\t\tmsg.sender\n      PUSH FFFFFFFFFFFFFFFFFFFFFFFFFFFFFFFFFFFFFFFF\t\t\tborrowedUSDC[msg.sender]\n      AND \t\t\tborrowedUSDC[msg.sender]\n      PUSH FFFFFFFFFFFFFFFFFFFFFFFFFFFFFFFFFFFFFFFF\t\t\tborrowedUSDC[msg.sender]\n      AND \t\t\tborrowedUSDC[msg.sender]\n      DUP2 \t\t\tborrowedUSDC[msg.sender]\n      MSTORE \t\t\tborrowedUSDC[msg.sender]\n      PUSH 20\t\t\tborrowedUSDC[msg.sender]\n      ADD \t\t\tborrowedUSDC[msg.sender]\n      SWAP1 \t\t\tborrowedUSDC[msg.sender]\n      DUP2 \t\t\tborrowedUSDC[msg.sender]\n      MSTORE \t\t\tborrowedUSDC[msg.sender]\n      PUSH 20\t\t\tborrowedUSDC[msg.sender]\n      ADD \t\t\tborrowedUSDC[msg.sender]\n      PUSH 0\t\t\tborrowedUSDC[msg.sender]\n      KECCAK256 \t\t\tborrowedUSDC[msg.sender]\n      PUSH 0\t\t\tborrowedUSDC[msg.sender]\n      DUP3 \t\t\tborrowedUSDC[msg.sender] += am...\n      DUP3 \t\t\tborrowedUSDC[msg.sender] += am...\n      SLOAD \t\t\tborrowedUSDC[msg.sender] += am...\n      PUSH [tag] 87\t\t\tborrowedUSDC[msg.sender] += am...\n      SWAP2 \t\t\tborrowedUSDC[msg.sender] += am...\n      SWAP1 \t\t\tborrowedUSDC[msg.sender] += am...\n      PUSH [tag] 83\t\t\tborrowedUSDC[msg.sender] += am...\n      JUMP \t\t\tborrowedUSDC[msg.sender] += am...\n    tag 87\t\t\tborrowedUSDC[msg.sender] += am...\n      JUMPDEST \t\t\tborrowedUSDC[msg.sender] += am...\n      SWAP3 \t\t\tborrowedUSDC[msg.sender] += am...\n      POP \t\t\tborrowedUSDC[msg.sender] += am...\n      POP \t\t\tborrowedUSDC[msg.sender] += am...\n      DUP2 \t\t\tborrowedUSDC[msg.sender] += am...\n      SWAP1 \t\t\tborrowedUSDC[msg.sender] += am...\n      SSTORE \t\t\tborrowedUSDC[msg.sender] += am...\n      POP \t\t\tborrowedUSDC[msg.sender] += am...\n      PUSH 1\t\t\tusdcReserve\n      PUSH 0\t\t\tusdcReserve\n      SWAP1 \t\t\tusdcReserve\n      SLOAD \t\t\tusdcReserve\n      SWAP1 \t\t\tusdcReserve\n      PUSH 100\t\t\tusdcReserve\n      EXP \t\t\tusdcReserve\n      SWAP1 \t\t\tusdcReserve\n      DIV \t\t\tusdcReserve\n      PUSH FFFFFFFFFFFFFFFFFFFFFFFFFFFFFFFFFFFFFFFF\t\t\tusdcReserve\n      AND \t\t\tusdcReserve\n      PUSH FFFFFFFFFFFFFFFFFFFFFFFFFFFFFFFFFFFFFFFF\t\t\tusdcReserve.executeTransaction\n      AND \t\t\tusdcReserve.executeTransaction\n      PUSH 683AE083\t\t\tusdcReserve.executeTransaction\n      CALLER \t\t\tmsg.sender\n      DUP7 \t\t\tamount\n      PUSH 40\t\t\tusdcReserve.executeTransaction...\n      MLOAD \t\t\tusdcReserve.executeTransaction...\n      DUP4 \t\t\tusdcReserve.executeTransaction...\n      PUSH FFFFFFFF\t\t\tusdcReserve.executeTransaction...\n      AND \t\t\tusdcReserve.executeTransaction...\n      PUSH E0\t\t\tusdcReserve.executeTransaction...\n      SHL \t\t\tusdcReserve.executeTransaction...\n      DUP2 \t\t\tusdcReserve.executeTransaction...\n      MSTORE \t\t\tusdcReserve.executeTransaction...\n      PUSH 4\t\t\tusdcReserve.executeTransaction...\n      ADD \t\t\tusdcReserve.executeTransaction...\n      PUSH [tag] 88\t\t\tusdcReserve.executeTransaction...\n      SWAP3 \t\t\tusdcReserve.executeTransaction...\n      SWAP2 \t\t\tusdcReserve.executeTransaction...\n      SWAP1 \t\t\tusdcReserve.executeTransaction...\n      PUSH [tag] 89\t\t\tusdcReserve.executeTransaction...\n      JUMP \t\t\tusdcReserve.executeTransaction...\n    tag 88\t\t\tusdcReserve.executeTransaction...\n      JUMPDEST \t\t\tusdcReserve.executeTransaction...\n      PUSH 0\t\t\tusdcReserve.executeTransaction...\n      PUSH 40\t\t\tusdcReserve.executeTransaction...\n      MLOAD \t\t\tusdcReserve.executeTransaction...\n      DUP1 \t\t\tusdcReserve.executeTransaction...\n      DUP4 \t\t\tusdcReserve.executeTransaction...\n      SUB \t\t\tusdcReserve.executeTransaction...\n      DUP2 \t\t\tusdcReserve.executeTransaction...\n      PUSH 0\t\t\tusdcReserve.executeTransaction...\n      DUP8 \t\t\tusdcReserve.executeTransaction...\n      DUP1 \t\t\tusdcReserve.executeTransaction...\n      EXTCODESIZE \t\t\tusdcReserve.executeTransaction...\n      ISZERO \t\t\tusdcReserve.executeTransaction...\n      DUP1 \t\t\tusdcReserve.executeTransaction...\n      ISZERO \t\t\tusdcReserve.executeTransaction...\n      PUSH [tag] 90\t\t\tusdcReserve.executeTransaction...\n      JUMPI \t\t\tusdcReserve.executeTransaction...\n      PUSH 0\t\t\tusdcReserve.executeTransaction...\n      DUP1 \t\t\tusdcReserve.executeTransaction...\n      REVERT \t\t\tusdcReserve.executeTransaction...\n    tag 90\t\t\tusdcReserve.executeTransaction...\n      JUMPDEST \t\t\tusdcReserve.executeTransaction...\n      POP \t\t\tusdcReserve.executeTransaction...\n      GAS \t\t\tusdcReserve.executeTransaction...\n      CALL \t\t\tusdcReserve.executeTransaction...\n      ISZERO \t\t\tusdcReserve.executeTransaction...\n      DUP1 \t\t\tusdcReserve.executeTransaction...\n      ISZERO \t\t\tusdcReserve.executeTransaction...\n      PUSH [tag] 92\t\t\tusdcReserve.executeTransaction...\n      JUMPI \t\t\tusdcReserve.executeTransaction...\n      RETURNDATASIZE \t\t\tusdcReserve.executeTransaction...\n      PUSH 0\t\t\tusdcReserve.executeTransaction...\n      DUP1 \t\t\tusdcReserve.executeTransaction...\n      RETURNDATACOPY \t\t\tusdcReserve.executeTransaction...\n      RETURNDATASIZE \t\t\tusdcReserve.executeTransaction...\n      PUSH 0\t\t\tusdcReserve.executeTransaction...\n      REVERT \t\t\tusdcReserve.executeTransaction...\n    tag 92\t\t\tusdcReserve.executeTransaction...\n      JUMPDEST \t\t\tusdcReserve.executeTransaction...\n      POP \t\t\tusdcReserve.executeTransaction...\n      POP \t\t\tusdcReserve.executeTransaction...\n      POP \t\t\tusdcReserve.executeTransaction...\n      POP \t\t\tusdcReserve.executeTransaction...\n      POP \t\t\t{\\n        require(asset == us...\n      POP \t\t\t{\\n        require(asset == us...\n      POP \t\t\t{\\n        require(asset == us...\n      POP \t\t\tfunction borrow(address asset,...\n      POP \t\t\tfunction borrow(address asset,...\n      JUMP \t\t\tfunction borrow(address asset,...\n    tag 32\t\t\tfunction getAssetsPrice() exte...\n      JUMPDEST \t\t\tfunction getAssetsPrice() exte...\n      PUSH 60\t\t\tuint256[] memory\n      PUSH 0\t\t\tuint256 wBTCPrice\n      DUP1 \t\t\tuint256 _timestamp\n      PUSH 0\t\t\tuint256 _decimals\n      DUP1 \t\t\twBTCReserve\n      PUSH 0\t\t\twBTCReserve\n      SWAP1 \t\t\twBTCReserve\n      SLOAD \t\t\twBTCReserve\n      SWAP1 \t\t\twBTCReserve\n      PUSH 100\t\t\twBTCReserve\n      EXP \t\t\twBTCReserve\n      SWAP1 \t\t\twBTCReserve\n      DIV \t\t\twBTCReserve\n      PUSH FFFFFFFFFFFFFFFFFFFFFFFFFFFFFFFFFFFFFFFF\t\t\twBTCReserve\n      AND \t\t\twBTCReserve\n      PUSH FFFFFFFFFFFFFFFFFFFFFFFFFFFFFFFFFFFFFFFF\t\t\twBTCReserve.getAssetPrice\n      AND \t\t\twBTCReserve.getAssetPrice\n      PUSH E54F0880\t\t\twBTCReserve.getAssetPrice\n      PUSH 40\t\t\twBTCReserve.getAssetPrice()\n      MLOAD \t\t\twBTCReserve.getAssetPrice()\n      DUP2 \t\t\twBTCReserve.getAssetPrice()\n      PUSH FFFFFFFF\t\t\twBTCReserve.getAssetPrice()\n      AND \t\t\twBTCReserve.getAssetPrice()\n      PUSH E0\t\t\twBTCReserve.getAssetPrice()\n      SHL \t\t\twBTCReserve.getAssetPrice()\n      DUP2 \t\t\twBTCReserve.getAssetPrice()\n      MSTORE \t\t\twBTCReserve.getAssetPrice()\n      PUSH 4\t\t\twBTCReserve.getAssetPrice()\n      ADD \t\t\twBTCReserve.getAssetPrice()\n      PUSH 60\t\t\twBTCReserve.getAssetPrice()\n      PUSH 40\t\t\twBTCReserve.getAssetPrice()\n      MLOAD \t\t\twBTCReserve.getAssetPrice()\n      DUP1 \t\t\twBTCReserve.getAssetPrice()\n      DUP4 \t\t\twBTCReserve.getAssetPrice()\n      SUB \t\t\twBTCReserve.getAssetPrice()\n      DUP2 \t\t\twBTCReserve.getAssetPrice()\n      DUP7 \t\t\twBTCReserve.getAssetPrice()\n      GAS \t\t\twBTCReserve.getAssetPrice()\n      STATICCALL \t\t\twBTCReserve.getAssetPrice()\n      ISZERO \t\t\twBTCReserve.getAssetPrice()\n      DUP1 \t\t\twBTCReserve.getAssetPrice()\n      ISZERO \t\t\twBTCReserve.getAssetPrice()\n      PUSH [tag] 95\t\t\twBTCReserve.getAssetPrice()\n      JUMPI \t\t\twBTCReserve.getAssetPrice()\n      RETURNDATASIZE \t\t\twBTCReserve.getAssetPrice()\n      PUSH 0\t\t\twBTCReserve.getAssetPrice()\n      DUP1 \t\t\twBTCReserve.getAssetPrice()\n      RETURNDATACOPY \t\t\twBTCReserve.getAssetPrice()\n      RETURNDATASIZE \t\t\twBTCReserve.getAssetPrice()\n      PUSH 0\t\t\twBTCReserve.getAssetPrice()\n      REVERT \t\t\twBTCReserve.getAssetPrice()\n    tag 95\t\t\twBTCReserve.getAssetPrice()\n      JUMPDEST \t\t\twBTCReserve.getAssetPrice()\n      POP \t\t\twBTCReserve.getAssetPrice()\n      POP \t\t\twBTCReserve.getAssetPrice()\n      POP \t\t\twBTCReserve.getAssetPrice()\n      POP \t\t\twBTCReserve.getAssetPrice()\n      PUSH 40\t\t\twBTCReserve.getAssetPrice()\n      MLOAD \t\t\twBTCReserve.getAssetPrice()\n      RETURNDATASIZE \t\t\twBTCReserve.getAssetPrice()\n      PUSH 1F\t\t\twBTCReserve.getAssetPrice()\n      NOT \t\t\twBTCReserve.getAssetPrice()\n      PUSH 1F\t\t\twBTCReserve.getAssetPrice()\n      DUP3 \t\t\twBTCReserve.getAssetPrice()\n      ADD \t\t\twBTCReserve.getAssetPrice()\n      AND \t\t\twBTCReserve.getAssetPrice()\n      DUP3 \t\t\twBTCReserve.getAssetPrice()\n      ADD \t\t\twBTCReserve.getAssetPrice()\n      DUP1 \t\t\twBTCReserve.getAssetPrice()\n      PUSH 40\t\t\twBTCReserve.getAssetPrice()\n      MSTORE \t\t\twBTCReserve.getAssetPrice()\n      POP \t\t\twBTCReserve.getAssetPrice()\n      DUP2 \t\t\twBTCReserve.getAssetPrice()\n      ADD \t\t\twBTCReserve.getAssetPrice()\n      SWAP1 \t\t\twBTCReserve.getAssetPrice()\n      PUSH [tag] 96\t\t\twBTCReserve.getAssetPrice()\n      SWAP2 \t\t\twBTCReserve.getAssetPrice()\n      SWAP1 \t\t\twBTCReserve.getAssetPrice()\n      PUSH [tag] 58\t\t\twBTCReserve.getAssetPrice()\n      JUMP \t\t\twBTCReserve.getAssetPrice()\n    tag 96\t\t\twBTCReserve.getAssetPrice()\n      JUMPDEST \t\t\twBTCReserve.getAssetPrice()\n      SWAP3 \t\t\t(uint256 wBTCPrice, uint256 _t...\n      POP \t\t\t(uint256 wBTCPrice, uint256 _t...\n      SWAP3 \t\t\t(uint256 wBTCPrice, uint256 _t...\n      POP \t\t\t(uint256 wBTCPrice, uint256 _t...\n      SWAP3 \t\t\t(uint256 wBTCPrice, uint256 _t...\n      POP \t\t\t(uint256 wBTCPrice, uint256 _t...\n      PUSH 0\t\t\tuint256 usdcPrice\n      PUSH 1\t\t\tusdcReserve\n      PUSH 0\t\t\tusdcReserve\n      SWAP1 \t\t\tusdcReserve\n      SLOAD \t\t\tusdcReserve\n      SWAP1 \t\t\tusdcReserve\n      PUSH 100\t\t\tusdcReserve\n      EXP \t\t\tusdcReserve\n      SWAP1 \t\t\tusdcReserve\n      DIV \t\t\tusdcReserve\n      PUSH FFFFFFFFFFFFFFFFFFFFFFFFFFFFFFFFFFFFFFFF\t\t\tusdcReserve\n      AND \t\t\tusdcReserve\n      PUSH FFFFFFFFFFFFFFFFFFFFFFFFFFFFFFFFFFFFFFFF\t\t\tusdcReserve.getAssetPrice\n      AND \t\t\tusdcReserve.getAssetPrice\n      PUSH E54F0880\t\t\tusdcReserve.getAssetPrice\n      PUSH 40\t\t\tusdcReserve.getAssetPrice()\n      MLOAD \t\t\tusdcReserve.getAssetPrice()\n      DUP2 \t\t\tusdcReserve.getAssetPrice()\n      PUSH FFFFFFFF\t\t\tusdcReserve.getAssetPrice()\n      AND \t\t\tusdcReserve.getAssetPrice()\n      PUSH E0\t\t\tusdcReserve.getAssetPrice()\n      SHL \t\t\tusdcReserve.getAssetPrice()\n      DUP2 \t\t\tusdcReserve.getAssetPrice()\n      MSTORE \t\t\tusdcReserve.getAssetPrice()\n      PUSH 4\t\t\tusdcReserve.getAssetPrice()\n      ADD \t\t\tusdcReserve.getAssetPrice()\n      PUSH 20\t\t\tusdcReserve.getAssetPrice()\n      PUSH 40\t\t\tusdcReserve.getAssetPrice()\n      MLOAD \t\t\tusdcReserve.getAssetPrice()\n      DUP1 \t\t\tusdcReserve.getAssetPrice()\n      DUP4 \t\t\tusdcReserve.getAssetPrice()\n      SUB \t\t\tusdcReserve.getAssetPrice()\n      DUP2 \t\t\tusdcReserve.getAssetPrice()\n      DUP7 \t\t\tusdcReserve.getAssetPrice()\n      GAS \t\t\tusdcReserve.getAssetPrice()\n      STATICCALL \t\t\tusdcReserve.getAssetPrice()\n      ISZERO \t\t\tusdcReserve.getAssetPrice()\n      DUP1 \t\t\tusdcReserve.getAssetPrice()\n      ISZERO \t\t\tusdcReserve.getAssetPrice()\n      PUSH [tag] 98\t\t\tusdcReserve.getAssetPrice()\n      JUMPI \t\t\tusdcReserve.getAssetPrice()\n      RETURNDATASIZE \t\t\tusdcReserve.getAssetPrice()\n      PUSH 0\t\t\tusdcReserve.getAssetPrice()\n      DUP1 \t\t\tusdcReserve.getAssetPrice()\n      RETURNDATACOPY \t\t\tusdcReserve.getAssetPrice()\n      RETURNDATASIZE \t\t\tusdcReserve.getAssetPrice()\n      PUSH 0\t\t\tusdcReserve.getAssetPrice()\n      REVERT \t\t\tusdcReserve.getAssetPrice()\n    tag 98\t\t\tusdcReserve.getAssetPrice()\n      JUMPDEST \t\t\tusdcReserve.getAssetPrice()\n      POP \t\t\tusdcReserve.getAssetPrice()\n      POP \t\t\tusdcReserve.getAssetPrice()\n      POP \t\t\tusdcReserve.getAssetPrice()\n      POP \t\t\tusdcReserve.getAssetPrice()\n      PUSH 40\t\t\tusdcReserve.getAssetPrice()\n      MLOAD \t\t\tusdcReserve.getAssetPrice()\n      RETURNDATASIZE \t\t\tusdcReserve.getAssetPrice()\n      PUSH 1F\t\t\tusdcReserve.getAssetPrice()\n      NOT \t\t\tusdcReserve.getAssetPrice()\n      PUSH 1F\t\t\tusdcReserve.getAssetPrice()\n      DUP3 \t\t\tusdcReserve.getAssetPrice()\n      ADD \t\t\tusdcReserve.getAssetPrice()\n      AND \t\t\tusdcReserve.getAssetPrice()\n      DUP3 \t\t\tusdcReserve.getAssetPrice()\n      ADD \t\t\tusdcReserve.getAssetPrice()\n      DUP1 \t\t\tusdcReserve.getAssetPrice()\n      PUSH 40\t\t\tusdcReserve.getAssetPrice()\n      MSTORE \t\t\tusdcReserve.getAssetPrice()\n      POP \t\t\tusdcReserve.getAssetPrice()\n      DUP2 \t\t\tusdcReserve.getAssetPrice()\n      ADD \t\t\tusdcReserve.getAssetPrice()\n      SWAP1 \t\t\tusdcReserve.getAssetPrice()\n      PUSH [tag] 99\t\t\tusdcReserve.getAssetPrice()\n      SWAP2 \t\t\tusdcReserve.getAssetPrice()\n      SWAP1 \t\t\tusdcReserve.getAssetPrice()\n      PUSH [tag] 65\t\t\tusdcReserve.getAssetPrice()\n      JUMP \t\t\tusdcReserve.getAssetPrice()\n    tag 99\t\t\tusdcReserve.getAssetPrice()\n      JUMPDEST \t\t\tusdcReserve.getAssetPrice()\n      SWAP1 \t\t\tuint256 usdcPrice = usdcReserv...\n      POP \t\t\tuint256 usdcPrice = usdcReserv...\n      PUSH 0\t\t\tuint256[] memory prices\n      PUSH 2\t\t\t2\n      PUSH FFFFFFFFFFFFFFFF\t\t\tnew uint256[](2)\n      DUP2 \t\t\tnew uint256[](2)\n      GT \t\t\tnew uint256[](2)\n      ISZERO \t\t\tnew uint256[](2)\n      PUSH [tag] 100\t\t\tnew uint256[](2)\n      JUMPI \t\t\tnew uint256[](2)\n      PUSH [tag] 101\t\t\tnew uint256[](2)\n      PUSH [tag] 102\t\t\tnew uint256[](2)\n      JUMP \t\t\tnew uint256[](2)\n    tag 101\t\t\tnew uint256[](2)\n      JUMPDEST \t\t\tnew uint256[](2)\n    tag 100\t\t\tnew uint256[](2)\n      JUMPDEST \t\t\tnew uint256[](2)\n      PUSH 40\t\t\tnew uint256[](2)\n      MLOAD \t\t\tnew uint256[](2)\n      SWAP1 \t\t\tnew uint256[](2)\n      DUP1 \t\t\tnew uint256[](2)\n      DUP3 \t\t\tnew uint256[](2)\n      MSTORE \t\t\tnew uint256[](2)\n      DUP1 \t\t\tnew uint256[](2)\n      PUSH 20\t\t\tnew uint256[](2)\n      MUL \t\t\tnew uint256[](2)\n      PUSH 20\t\t\tnew uint256[](2)\n      ADD \t\t\tnew uint256[](2)\n      DUP3 \t\t\tnew uint256[](2)\n      ADD \t\t\tnew uint256[](2)\n      PUSH 40\t\t\tnew uint256[](2)\n      MSTORE \t\t\tnew uint256[](2)\n      DUP1 \t\t\tnew uint256[](2)\n      ISZERO \t\t\tnew uint256[](2)\n      PUSH [tag] 103\t\t\tnew uint256[](2)\n      JUMPI \t\t\tnew uint256[](2)\n      DUP2 \t\t\tnew uint256[](2)\n      PUSH 20\t\t\tnew uint256[](2)\n      ADD \t\t\tnew uint256[](2)\n      PUSH 20\t\t\tnew uint256[](2)\n      DUP3 \t\t\tnew uint256[](2)\n      MUL \t\t\tnew uint256[](2)\n      DUP1 \t\t\tnew uint256[](2)\n      CALLDATASIZE \t\t\tnew uint256[](2)\n      DUP4 \t\t\tnew uint256[](2)\n      CALLDATACOPY \t\t\tnew uint256[](2)\n      DUP1 \t\t\tnew uint256[](2)\n      DUP3 \t\t\tnew uint256[](2)\n      ADD \t\t\tnew uint256[](2)\n      SWAP2 \t\t\tnew uint256[](2)\n      POP \t\t\tnew uint256[](2)\n      POP \t\t\tnew uint256[](2)\n      SWAP1 \t\t\tnew uint256[](2)\n      POP \t\t\tnew uint256[](2)\n    tag 103\t\t\tnew uint256[](2)\n      JUMPDEST \t\t\tnew uint256[](2)\n      POP \t\t\tnew uint256[](2)\n      SWAP1 \t\t\tuint256[] memory prices = new ...\n      POP \t\t\tuint256[] memory prices = new ...\n      DUP5 \t\t\twBTCPrice\n      DUP2 \t\t\tprices\n      PUSH 0\t\t\t0\n      DUP2 \t\t\tprices[0]\n      MLOAD \t\t\tprices[0]\n      DUP2 \t\t\tprices[0]\n      LT \t\t\tprices[0]\n      PUSH [tag] 104\t\t\tprices[0]\n      JUMPI \t\t\tprices[0]\n      PUSH [tag] 105\t\t\tprices[0]\n      PUSH [tag] 106\t\t\tprices[0]\n      JUMP \t\t\tprices[0]\n    tag 105\t\t\tprices[0]\n      JUMPDEST \t\t\tprices[0]\n    tag 104\t\t\tprices[0]\n      JUMPDEST \t\t\tprices[0]\n      PUSH 20\t\t\tprices[0]\n      MUL \t\t\tprices[0]\n      PUSH 20\t\t\tprices[0]\n      ADD \t\t\tprices[0]\n      ADD \t\t\tprices[0]\n      DUP2 \t\t\tprices[0] = wBTCPrice\n      DUP2 \t\t\tprices[0] = wBTCPrice\n      MSTORE \t\t\tprices[0] = wBTCPrice\n      POP \t\t\tprices[0] = wBTCPrice\n      POP \t\t\tprices[0] = wBTCPrice\n      DUP2 \t\t\tusdcPrice\n      DUP2 \t\t\tprices\n      PUSH 1\t\t\t1\n      DUP2 \t\t\tprices[1]\n      MLOAD \t\t\tprices[1]\n      DUP2 \t\t\tprices[1]\n      LT \t\t\tprices[1]\n      PUSH [tag] 107\t\t\tprices[1]\n      JUMPI \t\t\tprices[1]\n      PUSH [tag] 108\t\t\tprices[1]\n      PUSH [tag] 106\t\t\tprices[1]\n      JUMP \t\t\tprices[1]\n    tag 108\t\t\tprices[1]\n      JUMPDEST \t\t\tprices[1]\n    tag 107\t\t\tprices[1]\n      JUMPDEST \t\t\tprices[1]\n      PUSH 20\t\t\tprices[1]\n      MUL \t\t\tprices[1]\n      PUSH 20\t\t\tprices[1]\n      ADD \t\t\tprices[1]\n      ADD \t\t\tprices[1]\n      DUP2 \t\t\tprices[1] = usdcPrice\n      DUP2 \t\t\tprices[1] = usdcPrice\n      MSTORE \t\t\tprices[1] = usdcPrice\n      POP \t\t\tprices[1] = usdcPrice\n      POP \t\t\tprices[1] = usdcPrice\n      DUP1 \t\t\tprices\n      SWAP6 \t\t\treturn prices\n      POP \t\t\treturn prices\n      POP \t\t\treturn prices\n      POP \t\t\treturn prices\n      POP \t\t\treturn prices\n      POP \t\t\treturn prices\n      POP \t\t\treturn prices\n      SWAP1 \t\t\tfunction getAssetsPrice() exte...\n      JUMP \t\t\tfunction getAssetsPrice() exte...\n    tag 37\t\t\tfunction getDebt(address user)...\n      JUMPDEST \t\t\tfunction getDebt(address user)...\n      PUSH 0\t\t\tuint256\n      DUP1 \t\t\tuint256 debt\n      PUSH 1\t\t\tusdcReserve\n      PUSH 0\t\t\tusdcReserve\n      SWAP1 \t\t\tusdcReserve\n      SLOAD \t\t\tusdcReserve\n      SWAP1 \t\t\tusdcReserve\n      PUSH 100\t\t\tusdcReserve\n      EXP \t\t\tusdcReserve\n      SWAP1 \t\t\tusdcReserve\n      DIV \t\t\tusdcReserve\n      PUSH FFFFFFFFFFFFFFFFFFFFFFFFFFFFFFFFFFFFFFFF\t\t\tusdcReserve\n      AND \t\t\tusdcReserve\n      PUSH FFFFFFFFFFFFFFFFFFFFFFFFFFFFFFFFFFFFFFFF\t\t\tusdcReserve.getAssetPrice\n      AND \t\t\tusdcReserve.getAssetPrice\n      PUSH E54F0880\t\t\tusdcReserve.getAssetPrice\n      PUSH 40\t\t\tusdcReserve.getAssetPrice()\n      MLOAD \t\t\tusdcReserve.getAssetPrice()\n      DUP2 \t\t\tusdcReserve.getAssetPrice()\n      PUSH FFFFFFFF\t\t\tusdcReserve.getAssetPrice()\n      AND \t\t\tusdcReserve.getAssetPrice()\n      PUSH E0\t\t\tusdcReserve.getAssetPrice()\n      SHL \t\t\tusdcReserve.getAssetPrice()\n      DUP2 \t\t\tusdcReserve.getAssetPrice()\n      MSTORE \t\t\tusdcReserve.getAssetPrice()\n      PUSH 4\t\t\tusdcReserve.getAssetPrice()\n      ADD \t\t\tusdcReserve.getAssetPrice()\n      PUSH 20\t\t\tusdcReserve.getAssetPrice()\n      PUSH 40\t\t\tusdcReserve.getAssetPrice()\n      MLOAD \t\t\tusdcReserve.getAssetPrice()\n      DUP1 \t\t\tusdcReserve.getAssetPrice()\n      DUP4 \t\t\tusdcReserve.getAssetPrice()\n      SUB \t\t\tusdcReserve.getAssetPrice()\n      DUP2 \t\t\tusdcReserve.getAssetPrice()\n      DUP7 \t\t\tusdcReserve.getAssetPrice()\n      GAS \t\t\tusdcReserve.getAssetPrice()\n      STATICCALL \t\t\tusdcReserve.getAssetPrice()\n      ISZERO \t\t\tusdcReserve.getAssetPrice()\n      DUP1 \t\t\tusdcReserve.getAssetPrice()\n      ISZERO \t\t\tusdcReserve.getAssetPrice()\n      PUSH [tag] 111\t\t\tusdcReserve.getAssetPrice()\n      JUMPI \t\t\tusdcReserve.getAssetPrice()\n      RETURNDATASIZE \t\t\tusdcReserve.getAssetPrice()\n      PUSH 0\t\t\tusdcReserve.getAssetPrice()\n      DUP1 \t\t\tusdcReserve.getAssetPrice()\n      RETURNDATACOPY \t\t\tusdcReserve.getAssetPrice()\n      RETURNDATASIZE \t\t\tusdcReserve.getAssetPrice()\n      PUSH 0\t\t\tusdcReserve.getAssetPrice()\n      REVERT \t\t\tusdcReserve.getAssetPrice()\n    tag 111\t\t\tusdcReserve.getAssetPrice()\n      JUMPDEST \t\t\tusdcReserve.getAssetPrice()\n      POP \t\t\tusdcReserve.getAssetPrice()\n      POP \t\t\tusdcReserve.getAssetPrice()\n      POP \t\t\tusdcReserve.getAssetPrice()\n      POP \t\t\tusdcReserve.getAssetPrice()\n      PUSH 40\t\t\tusdcReserve.getAssetPrice()\n      MLOAD \t\t\tusdcReserve.getAssetPrice()\n      RETURNDATASIZE \t\t\tusdcReserve.getAssetPrice()\n      PUSH 1F\t\t\tusdcReserve.getAssetPrice()\n      NOT \t\t\tusdcReserve.getAssetPrice()\n      PUSH 1F\t\t\tusdcReserve.getAssetPrice()\n      DUP3 \t\t\tusdcReserve.getAssetPrice()\n      ADD \t\t\tusdcReserve.getAssetPrice()\n      AND \t\t\tusdcReserve.getAssetPrice()\n      DUP3 \t\t\tusdcReserve.getAssetPrice()\n      ADD \t\t\tusdcReserve.getAssetPrice()\n      DUP1 \t\t\tusdcReserve.getAssetPrice()\n      PUSH 40\t\t\tusdcReserve.getAssetPrice()\n      MSTORE \t\t\tusdcReserve.getAssetPrice()\n      POP \t\t\tusdcReserve.getAssetPrice()\n      DUP2 \t\t\tusdcReserve.getAssetPrice()\n      ADD \t\t\tusdcReserve.getAssetPrice()\n      SWAP1 \t\t\tusdcReserve.getAssetPrice()\n      PUSH [tag] 112\t\t\tusdcReserve.getAssetPrice()\n      SWAP2 \t\t\tusdcReserve.getAssetPrice()\n      SWAP1 \t\t\tusdcReserve.getAssetPrice()\n      PUSH [tag] 65\t\t\tusdcReserve.getAssetPrice()\n      JUMP \t\t\tusdcReserve.getAssetPrice()\n    tag 112\t\t\tusdcReserve.getAssetPrice()\n      JUMPDEST \t\t\tusdcReserve.getAssetPrice()\n      PUSH 4\t\t\tborrowedUSDC\n      PUSH 0\t\t\tborrowedUSDC[user]\n      DUP6 \t\t\tuser\n      PUSH FFFFFFFFFFFFFFFFFFFFFFFFFFFFFFFFFFFFFFFF\t\t\tborrowedUSDC[user]\n      AND \t\t\tborrowedUSDC[user]\n      PUSH FFFFFFFFFFFFFFFFFFFFFFFFFFFFFFFFFFFFFFFF\t\t\tborrowedUSDC[user]\n      AND \t\t\tborrowedUSDC[user]\n      DUP2 \t\t\tborrowedUSDC[user]\n      MSTORE \t\t\tborrowedUSDC[user]\n      PUSH 20\t\t\tborrowedUSDC[user]\n      ADD \t\t\tborrowedUSDC[user]\n      SWAP1 \t\t\tborrowedUSDC[user]\n      DUP2 \t\t\tborrowedUSDC[user]\n      MSTORE \t\t\tborrowedUSDC[user]\n      PUSH 20\t\t\tborrowedUSDC[user]\n      ADD \t\t\tborrowedUSDC[user]\n      PUSH 0\t\t\tborrowedUSDC[user]\n      KECCAK256 \t\t\tborrowedUSDC[user]\n      SLOAD \t\t\tborrowedUSDC[user]\n      PUSH [tag] 113\t\t\tborrowedUSDC[user] * usdcReser...\n      SWAP2 \t\t\tborrowedUSDC[user] * usdcReser...\n      SWAP1 \t\t\tborrowedUSDC[user] * usdcReser...\n      PUSH [tag] 67\t\t\tborrowedUSDC[user] * usdcReser...\n      JUMP \t\t\tborrowedUSDC[user] * usdcReser...\n    tag 113\t\t\tborrowedUSDC[user] * usdcReser...\n      JUMPDEST \t\t\tborrowedUSDC[user] * usdcReser...\n      SWAP1 \t\t\tuint256 debt = borrowedUSDC[us...\n      POP \t\t\tuint256 debt = borrowedUSDC[us...\n      DUP1 \t\t\tdebt\n      SWAP2 \t\t\treturn debt\n      POP \t\t\treturn debt\n      POP \t\t\treturn debt\n      SWAP2 \t\t\tfunction getDebt(address user)...\n      SWAP1 \t\t\tfunction getDebt(address user)...\n      POP \t\t\tfunction getDebt(address user)...\n      JUMP \t\t\tfunction getDebt(address user)...\n    tag 40\t\t\taddress public wBTC\n      JUMPDEST \t\t\taddress public wBTC\n      PUSH 2\t\t\taddress public wBTC\n      PUSH 0\t\t\taddress public wBTC\n      SWAP1 \t\t\taddress public wBTC\n      SLOAD \t\t\taddress public wBTC\n      SWAP1 \t\t\taddress public wBTC\n      PUSH 100\t\t\taddress public wBTC\n      EXP \t\t\taddress public wBTC\n      SWAP1 \t\t\taddress public wBTC\n      DIV \t\t\taddress public wBTC\n      PUSH FFFFFFFFFFFFFFFFFFFFFFFFFFFFFFFFFFFFFFFF\t\t\taddress public wBTC\n      AND \t\t\taddress public wBTC\n      DUP2 \t\t\taddress public wBTC\n      JUMP \t\t\taddress public wBTC\n    tag 44\t\t\tfunction getReserve(address to...\n      JUMPDEST \t\t\tfunction getReserve(address to...\n      PUSH 0\t\t\taddress reserveAddress\n      PUSH 2\t\t\twBTC\n      PUSH 0\t\t\twBTC\n      SWAP1 \t\t\twBTC\n      SLOAD \t\t\twBTC\n      SWAP1 \t\t\twBTC\n      PUSH 100\t\t\twBTC\n      EXP \t\t\twBTC\n      SWAP1 \t\t\twBTC\n      DIV \t\t\twBTC\n      PUSH FFFFFFFFFFFFFFFFFFFFFFFFFFFFFFFFFFFFFFFF\t\t\twBTC\n      AND \t\t\twBTC\n      PUSH FFFFFFFFFFFFFFFFFFFFFFFFFFFFFFFFFFFFFFFF\t\t\ttoken == wBTC\n      AND \t\t\ttoken == wBTC\n      DUP3 \t\t\ttoken\n      PUSH FFFFFFFFFFFFFFFFFFFFFFFFFFFFFFFFFFFFFFFF\t\t\ttoken == wBTC\n      AND \t\t\ttoken == wBTC\n      SUB \t\t\ttoken == wBTC\n      PUSH [tag] 115\t\t\tif (token == wBTC) {\\n        ...\n      JUMPI \t\t\tif (token == wBTC) {\\n        ...\n      PUSH 0\t\t\twBTCReserve\n      DUP1 \t\t\twBTCReserve\n      SLOAD \t\t\twBTCReserve\n      SWAP1 \t\t\twBTCReserve\n      PUSH 100\t\t\twBTCReserve\n      EXP \t\t\twBTCReserve\n      SWAP1 \t\t\twBTCReserve\n      DIV \t\t\twBTCReserve\n      PUSH FFFFFFFFFFFFFFFFFFFFFFFFFFFFFFFFFFFFFFFF\t\t\twBTCReserve\n      AND \t\t\twBTCReserve\n      SWAP1 \t\t\treturn address(wBTCReserve)\n      POP \t\t\treturn address(wBTCReserve)\n      PUSH [tag] 114\t\t\treturn address(wBTCReserve)\n      JUMP \t\t\treturn address(wBTCReserve)\n    tag 115\t\t\tif (token == wBTC) {\\n        ...\n      JUMPDEST \t\t\tif (token == wBTC) {\\n        ...\n      PUSH 3\t\t\tusdc\n      PUSH 0\t\t\tusdc\n      SWAP1 \t\t\tusdc\n      SLOAD \t\t\tusdc\n      SWAP1 \t\t\tusdc\n      PUSH 100\t\t\tusdc\n      EXP \t\t\tusdc\n      SWAP1 \t\t\tusdc\n      DIV \t\t\tusdc\n      PUSH FFFFFFFFFFFFFFFFFFFFFFFFFFFFFFFFFFFFFFFF\t\t\tusdc\n      AND \t\t\tusdc\n      PUSH FFFFFFFFFFFFFFFFFFFFFFFFFFFFFFFFFFFFFFFF\t\t\ttoken == usdc\n      AND \t\t\ttoken == usdc\n      DUP3 \t\t\ttoken\n      PUSH FFFFFFFFFFFFFFFFFFFFFFFFFFFFFFFFFFFFFFFF\t\t\ttoken == usdc\n      AND \t\t\ttoken == usdc\n      SUB \t\t\ttoken == usdc\n      PUSH [tag] 117\t\t\tif (token == usdc) {\\n        ...\n      JUMPI \t\t\tif (token == usdc) {\\n        ...\n      PUSH 1\t\t\tusdcReserve\n      PUSH 0\t\t\tusdcReserve\n      SWAP1 \t\t\tusdcReserve\n      SLOAD \t\t\tusdcReserve\n      SWAP1 \t\t\tusdcReserve\n      PUSH 100\t\t\tusdcReserve\n      EXP \t\t\tusdcReserve\n      SWAP1 \t\t\tusdcReserve\n      DIV \t\t\tusdcReserve\n      PUSH FFFFFFFFFFFFFFFFFFFFFFFFFFFFFFFFFFFFFFFF\t\t\tusdcReserve\n      AND \t\t\tusdcReserve\n      SWAP1 \t\t\treturn address(usdcReserve)\n      POP \t\t\treturn address(usdcReserve)\n      PUSH [tag] 114\t\t\treturn address(usdcReserve)\n      JUMP \t\t\treturn address(usdcReserve)\n    tag 117\t\t\tif (token == usdc) {\\n        ...\n      JUMPDEST \t\t\tif (token == usdc) {\\n        ...\n    tag 114\t\t\tfunction getReserve(address to...\n      JUMPDEST \t\t\tfunction getReserve(address to...\n      SWAP2 \t\t\tfunction getReserve(address to...\n      SWAP1 \t\t\tfunction getReserve(address to...\n      POP \t\t\tfunction getReserve(address to...\n      JUMP \t\t\tfunction getReserve(address to...\n    tag 48\t\t\tfunction getSupplyedBalances(a...\n      JUMPDEST \t\t\tfunction getSupplyedBalances(a...\n      PUSH 60\t\t\tuint256[] memory\n      PUSH 0\t\t\tuint256[] memory balances\n      PUSH 2\t\t\t2\n      PUSH FFFFFFFFFFFFFFFF\t\t\tnew uint256[](2)\n      DUP2 \t\t\tnew uint256[](2)\n      GT \t\t\tnew uint256[](2)\n      ISZERO \t\t\tnew uint256[](2)\n      PUSH [tag] 119\t\t\tnew uint256[](2)\n      JUMPI \t\t\tnew uint256[](2)\n      PUSH [tag] 120\t\t\tnew uint256[](2)\n      PUSH [tag] 102\t\t\tnew uint256[](2)\n      JUMP \t\t\tnew uint256[](2)\n    tag 120\t\t\tnew uint256[](2)\n      JUMPDEST \t\t\tnew uint256[](2)\n    tag 119\t\t\tnew uint256[](2)\n      JUMPDEST \t\t\tnew uint256[](2)\n      PUSH 40\t\t\tnew uint256[](2)\n      MLOAD \t\t\tnew uint256[](2)\n      SWAP1 \t\t\tnew uint256[](2)\n      DUP1 \t\t\tnew uint256[](2)\n      DUP3 \t\t\tnew uint256[](2)\n      MSTORE \t\t\tnew uint256[](2)\n      DUP1 \t\t\tnew uint256[](2)\n      PUSH 20\t\t\tnew uint256[](2)\n      MUL \t\t\tnew uint256[](2)\n      PUSH 20\t\t\tnew uint256[](2)\n      ADD \t\t\tnew uint256[](2)\n      DUP3 \t\t\tnew uint256[](2)\n      ADD \t\t\tnew uint256[](2)\n      PUSH 40\t\t\tnew uint256[](2)\n      MSTORE \t\t\tnew uint256[](2)\n      DUP1 \t\t\tnew uint256[](2)\n      ISZERO \t\t\tnew uint256[](2)\n      PUSH [tag] 121\t\t\tnew uint256[](2)\n      JUMPI \t\t\tnew uint256[](2)\n      DUP2 \t\t\tnew uint256[](2)\n      PUSH 20\t\t\tnew uint256[](2)\n      ADD \t\t\tnew uint256[](2)\n      PUSH 20\t\t\tnew uint256[](2)\n      DUP3 \t\t\tnew uint256[](2)\n      MUL \t\t\tnew uint256[](2)\n      DUP1 \t\t\tnew uint256[](2)\n      CALLDATASIZE \t\t\tnew uint256[](2)\n      DUP4 \t\t\tnew uint256[](2)\n      CALLDATACOPY \t\t\tnew uint256[](2)\n      DUP1 \t\t\tnew uint256[](2)\n      DUP3 \t\t\tnew uint256[](2)\n      ADD \t\t\tnew uint256[](2)\n      SWAP2 \t\t\tnew uint256[](2)\n      POP \t\t\tnew uint256[](2)\n      POP \t\t\tnew uint256[](2)\n      SWAP1 \t\t\tnew uint256[](2)\n      POP \t\t\tnew uint256[](2)\n    tag 121\t\t\tnew uint256[](2)\n      JUMPDEST \t\t\tnew uint256[](2)\n      POP \t\t\tnew uint256[](2)\n      SWAP1 \t\t\tuint256[] memory balances = ne...\n      POP \t\t\tuint256[] memory balances = ne...\n      PUSH 0\t\t\twBTCReserve\n      DUP1 \t\t\twBTCReserve\n      SLOAD \t\t\twBTCReserve\n      SWAP1 \t\t\twBTCReserve\n      PUSH 100\t\t\twBTCReserve\n      EXP \t\t\twBTCReserve\n      SWAP1 \t\t\twBTCReserve\n      DIV \t\t\twBTCReserve\n      PUSH FFFFFFFFFFFFFFFFFFFFFFFFFFFFFFFFFFFFFFFF\t\t\twBTCReserve\n      AND \t\t\twBTCReserve\n      PUSH FFFFFFFFFFFFFFFFFFFFFFFFFFFFFFFFFFFFFFFF\t\t\twBTCReserve.getSupplyedAmount\n      AND \t\t\twBTCReserve.getSupplyedAmount\n      PUSH AC75409A\t\t\twBTCReserve.getSupplyedAmount\n      DUP5 \t\t\tuser\n      PUSH 40\t\t\twBTCReserve.getSupplyedAmount(...\n      MLOAD \t\t\twBTCReserve.getSupplyedAmount(...\n      DUP3 \t\t\twBTCReserve.getSupplyedAmount(...\n      PUSH FFFFFFFF\t\t\twBTCReserve.getSupplyedAmount(...\n      AND \t\t\twBTCReserve.getSupplyedAmount(...\n      PUSH E0\t\t\twBTCReserve.getSupplyedAmount(...\n      SHL \t\t\twBTCReserve.getSupplyedAmount(...\n      DUP2 \t\t\twBTCReserve.getSupplyedAmount(...\n      MSTORE \t\t\twBTCReserve.getSupplyedAmount(...\n      PUSH 4\t\t\twBTCReserve.getSupplyedAmount(...\n      ADD \t\t\twBTCReserve.getSupplyedAmount(...\n      PUSH [tag] 122\t\t\twBTCReserve.getSupplyedAmount(...\n      SWAP2 \t\t\twBTCReserve.getSupplyedAmount(...\n      SWAP1 \t\t\twBTCReserve.getSupplyedAmount(...\n      PUSH [tag] 17\t\t\twBTCReserve.getSupplyedAmount(...\n      JUMP \t\t\twBTCReserve.getSupplyedAmount(...\n    tag 122\t\t\twBTCReserve.getSupplyedAmount(...\n      JUMPDEST \t\t\twBTCReserve.getSupplyedAmount(...\n      PUSH 20\t\t\twBTCReserve.getSupplyedAmount(...\n      PUSH 40\t\t\twBTCReserve.getSupplyedAmount(...\n      MLOAD \t\t\twBTCReserve.getSupplyedAmount(...\n      DUP1 \t\t\twBTCReserve.getSupplyedAmount(...\n      DUP4 \t\t\twBTCReserve.getSupplyedAmount(...\n      SUB \t\t\twBTCReserve.getSupplyedAmount(...\n      DUP2 \t\t\twBTCReserve.getSupplyedAmount(...\n      DUP7 \t\t\twBTCReserve.getSupplyedAmount(...\n      GAS \t\t\twBTCReserve.getSupplyedAmount(...\n      STATICCALL \t\t\twBTCReserve.getSupplyedAmount(...\n      ISZERO \t\t\twBTCReserve.getSupplyedAmount(...\n      DUP1 \t\t\twBTCReserve.getSupplyedAmount(...\n      ISZERO \t\t\twBTCReserve.getSupplyedAmount(...\n      PUSH [tag] 124\t\t\twBTCReserve.getSupplyedAmount(...\n      JUMPI \t\t\twBTCReserve.getSupplyedAmount(...\n      RETURNDATASIZE \t\t\twBTCReserve.getSupplyedAmount(...\n      PUSH 0\t\t\twBTCReserve.getSupplyedAmount(...\n      DUP1 \t\t\twBTCReserve.getSupplyedAmount(...\n      RETURNDATACOPY \t\t\twBTCReserve.getSupplyedAmount(...\n      RETURNDATASIZE \t\t\twBTCReserve.getSupplyedAmount(...\n      PUSH 0\t\t\twBTCReserve.getSupplyedAmount(...\n      REVERT \t\t\twBTCReserve.getSupplyedAmount(...\n    tag 124\t\t\twBTCReserve.getSupplyedAmount(...\n      JUMPDEST \t\t\twBTCReserve.getSupplyedAmount(...\n      POP \t\t\twBTCReserve.getSupplyedAmount(...\n      POP \t\t\twBTCReserve.getSupplyedAmount(...\n      POP \t\t\twBTCReserve.getSupplyedAmount(...\n      POP \t\t\twBTCReserve.getSupplyedAmount(...\n      PUSH 40\t\t\twBTCReserve.getSupplyedAmount(...\n      MLOAD \t\t\twBTCReserve.getSupplyedAmount(...\n      RETURNDATASIZE \t\t\twBTCReserve.getSupplyedAmount(...\n      PUSH 1F\t\t\twBTCReserve.getSupplyedAmount(...\n      NOT \t\t\twBTCReserve.getSupplyedAmount(...\n      PUSH 1F\t\t\twBTCReserve.getSupplyedAmount(...\n      DUP3 \t\t\twBTCReserve.getSupplyedAmount(...\n      ADD \t\t\twBTCReserve.getSupplyedAmount(...\n      AND \t\t\twBTCReserve.getSupplyedAmount(...\n      DUP3 \t\t\twBTCReserve.getSupplyedAmount(...\n      ADD \t\t\twBTCReserve.getSupplyedAmount(...\n      DUP1 \t\t\twBTCReserve.getSupplyedAmount(...\n      PUSH 40\t\t\twBTCReserve.getSupplyedAmount(...\n      MSTORE \t\t\twBTCReserve.getSupplyedAmount(...\n      POP \t\t\twBTCReserve.getSupplyedAmount(...\n      DUP2 \t\t\twBTCReserve.getSupplyedAmount(...\n      ADD \t\t\twBTCReserve.getSupplyedAmount(...\n      SWAP1 \t\t\twBTCReserve.getSupplyedAmount(...\n      PUSH [tag] 125\t\t\twBTCReserve.getSupplyedAmount(...\n      SWAP2 \t\t\twBTCReserve.getSupplyedAmount(...\n      SWAP1 \t\t\twBTCReserve.getSupplyedAmount(...\n      PUSH [tag] 65\t\t\twBTCReserve.getSupplyedAmount(...\n      JUMP \t\t\twBTCReserve.getSupplyedAmount(...\n    tag 125\t\t\twBTCReserve.getSupplyedAmount(...\n      JUMPDEST \t\t\twBTCReserve.getSupplyedAmount(...\n      DUP2 \t\t\tbalances\n      PUSH 0\t\t\t0\n      DUP2 \t\t\tbalances[0]\n      MLOAD \t\t\tbalances[0]\n      DUP2 \t\t\tbalances[0]\n      LT \t\t\tbalances[0]\n      PUSH [tag] 126\t\t\tbalances[0]\n      JUMPI \t\t\tbalances[0]\n      PUSH [tag] 127\t\t\tbalances[0]\n      PUSH [tag] 106\t\t\tbalances[0]\n      JUMP \t\t\tbalances[0]\n    tag 127\t\t\tbalances[0]\n      JUMPDEST \t\t\tbalances[0]\n    tag 126\t\t\tbalances[0]\n      JUMPDEST \t\t\tbalances[0]\n      PUSH 20\t\t\tbalances[0]\n      MUL \t\t\tbalances[0]\n      PUSH 20\t\t\tbalances[0]\n      ADD \t\t\tbalances[0]\n      ADD \t\t\tbalances[0]\n      DUP2 \t\t\tbalances[0] = wBTCReserve.getS...\n      DUP2 \t\t\tbalances[0] = wBTCReserve.getS...\n      MSTORE \t\t\tbalances[0] = wBTCReserve.getS...\n      POP \t\t\tbalances[0] = wBTCReserve.getS...\n      POP \t\t\tbalances[0] = wBTCReserve.getS...\n      PUSH 1\t\t\tusdcReserve\n      PUSH 0\t\t\tusdcReserve\n      SWAP1 \t\t\tusdcReserve\n      SLOAD \t\t\tusdcReserve\n      SWAP1 \t\t\tusdcReserve\n      PUSH 100\t\t\tusdcReserve\n      EXP \t\t\tusdcReserve\n      SWAP1 \t\t\tusdcReserve\n      DIV \t\t\tusdcReserve\n      PUSH FFFFFFFFFFFFFFFFFFFFFFFFFFFFFFFFFFFFFFFF\t\t\tusdcReserve\n      AND \t\t\tusdcReserve\n      PUSH FFFFFFFFFFFFFFFFFFFFFFFFFFFFFFFFFFFFFFFF\t\t\tusdcReserve.getSupplyedAmount\n      AND \t\t\tusdcReserve.getSupplyedAmount\n      PUSH AC75409A\t\t\tusdcReserve.getSupplyedAmount\n      DUP5 \t\t\tuser\n      PUSH 40\t\t\tusdcReserve.getSupplyedAmount(...\n      MLOAD \t\t\tusdcReserve.getSupplyedAmount(...\n      DUP3 \t\t\tusdcReserve.getSupplyedAmount(...\n      PUSH FFFFFFFF\t\t\tusdcReserve.getSupplyedAmount(...\n      AND \t\t\tusdcReserve.getSupplyedAmount(...\n      PUSH E0\t\t\tusdcReserve.getSupplyedAmount(...\n      SHL \t\t\tusdcReserve.getSupplyedAmount(...\n      DUP2 \t\t\tusdcReserve.getSupplyedAmount(...\n      MSTORE \t\t\tusdcReserve.getSupplyedAmount(...\n      PUSH 4\t\t\tusdcReserve.getSupplyedAmount(...\n      ADD \t\t\tusdcReserve.getSupplyedAmount(...\n      PUSH [tag] 128\t\t\tusdcReserve.getSupplyedAmount(...\n      SWAP2 \t\t\tusdcReserve.getSupplyedAmount(...\n      SWAP1 \t\t\tusdcReserve.getSupplyedAmount(...\n      PUSH [tag] 17\t\t\tusdcReserve.getSupplyedAmount(...\n      JUMP \t\t\tusdcReserve.getSupplyedAmount(...\n    tag 128\t\t\tusdcReserve.getSupplyedAmount(...\n      JUMPDEST \t\t\tusdcReserve.getSupplyedAmount(...\n      PUSH 20\t\t\tusdcReserve.getSupplyedAmount(...\n      PUSH 40\t\t\tusdcReserve.getSupplyedAmount(...\n      MLOAD \t\t\tusdcReserve.getSupplyedAmount(...\n      DUP1 \t\t\tusdcReserve.getSupplyedAmount(...\n      DUP4 \t\t\tusdcReserve.getSupplyedAmount(...\n      SUB \t\t\tusdcReserve.getSupplyedAmount(...\n      DUP2 \t\t\tusdcReserve.getSupplyedAmount(...\n      DUP7 \t\t\tusdcReserve.getSupplyedAmount(...\n      GAS \t\t\tusdcReserve.getSupplyedAmount(...\n      STATICCALL \t\t\tusdcReserve.getSupplyedAmount(...\n      ISZERO \t\t\tusdcReserve.getSupplyedAmount(...\n      DUP1 \t\t\tusdcReserve.getSupplyedAmount(...\n      ISZERO \t\t\tusdcReserve.getSupplyedAmount(...\n      PUSH [tag] 130\t\t\tusdcReserve.getSupplyedAmount(...\n      JUMPI \t\t\tusdcReserve.getSupplyedAmount(...\n      RETURNDATASIZE \t\t\tusdcReserve.getSupplyedAmount(...\n      PUSH 0\t\t\tusdcReserve.getSupplyedAmount(...\n      DUP1 \t\t\tusdcReserve.getSupplyedAmount(...\n      RETURNDATACOPY \t\t\tusdcReserve.getSupplyedAmount(...\n      RETURNDATASIZE \t\t\tusdcReserve.getSupplyedAmount(...\n      PUSH 0\t\t\tusdcReserve.getSupplyedAmount(...\n      REVERT \t\t\tusdcReserve.getSupplyedAmount(...\n    tag 130\t\t\tusdcReserve.getSupplyedAmount(...\n      JUMPDEST \t\t\tusdcReserve.getSupplyedAmount(...\n      POP \t\t\tusdcReserve.getSupplyedAmount(...\n      POP \t\t\tusdcReserve.getSupplyedAmount(...\n      POP \t\t\tusdcReserve.getSupplyedAmount(...\n      POP \t\t\tusdcReserve.getSupplyedAmount(...\n      PUSH 40\t\t\tusdcReserve.getSupplyedAmount(...\n      MLOAD \t\t\tusdcReserve.getSupplyedAmount(...\n      RETURNDATASIZE \t\t\tusdcReserve.getSupplyedAmount(...\n      PUSH 1F\t\t\tusdcReserve.getSupplyedAmount(...\n      NOT \t\t\tusdcReserve.getSupplyedAmount(...\n      PUSH 1F\t\t\tusdcReserve.getSupplyedAmount(...\n      DUP3 \t\t\tusdcReserve.getSupplyedAmount(...\n      ADD \t\t\tusdcReserve.getSupplyedAmount(...\n      AND \t\t\tusdcReserve.getSupplyedAmount(...\n      DUP3 \t\t\tusdcReserve.getSupplyedAmount(...\n      ADD \t\t\tusdcReserve.getSupplyedAmount(...\n      DUP1 \t\t\tusdcReserve.getSupplyedAmount(...\n      PUSH 40\t\t\tusdcReserve.getSupplyedAmount(...\n      MSTORE \t\t\tusdcReserve.getSupplyedAmount(...\n      POP \t\t\tusdcReserve.getSupplyedAmount(...\n      DUP2 \t\t\tusdcReserve.getSupplyedAmount(...\n      ADD \t\t\tusdcReserve.getSupplyedAmount(...\n      SWAP1 \t\t\tusdcReserve.getSupplyedAmount(...\n      PUSH [tag] 131\t\t\tusdcReserve.getSupplyedAmount(...\n      SWAP2 \t\t\tusdcReserve.getSupplyedAmount(...\n      SWAP1 \t\t\tusdcReserve.getSupplyedAmount(...\n      PUSH [tag] 65\t\t\tusdcReserve.getSupplyedAmount(...\n      JUMP \t\t\tusdcReserve.getSupplyedAmount(...\n    tag 131\t\t\tusdcReserve.getSupplyedAmount(...\n      JUMPDEST \t\t\tusdcReserve.getSupplyedAmount(...\n      DUP2 \t\t\tbalances\n      PUSH 1\t\t\t1\n      DUP2 \t\t\tbalances[1]\n      MLOAD \t\t\tbalances[1]\n      DUP2 \t\t\tbalances[1]\n      LT \t\t\tbalances[1]\n      PUSH [tag] 132\t\t\tbalances[1]\n      JUMPI \t\t\tbalances[1]\n      PUSH [tag] 133\t\t\tbalances[1]\n      PUSH [tag] 106\t\t\tbalances[1]\n      JUMP \t\t\tbalances[1]\n    tag 133\t\t\tbalances[1]\n      JUMPDEST \t\t\tbalances[1]\n    tag 132\t\t\tbalances[1]\n      JUMPDEST \t\t\tbalances[1]\n      PUSH 20\t\t\tbalances[1]\n      MUL \t\t\tbalances[1]\n      PUSH 20\t\t\tbalances[1]\n      ADD \t\t\tbalances[1]\n      ADD \t\t\tbalances[1]\n      DUP2 \t\t\tbalances[1] = usdcReserve.getS...\n      DUP2 \t\t\tbalances[1] = usdcReserve.getS...\n      MSTORE \t\t\tbalances[1] = usdcReserve.getS...\n      POP \t\t\tbalances[1] = usdcReserve.getS...\n      POP \t\t\tbalances[1] = usdcReserve.getS...\n      DUP1 \t\t\tbalances\n      SWAP2 \t\t\treturn balances\n      POP \t\t\treturn balances\n      POP \t\t\treturn balances\n      SWAP2 \t\t\tfunction getSupplyedBalances(a...\n      SWAP1 \t\t\tfunction getSupplyedBalances(a...\n      POP \t\t\tfunction getSupplyedBalances(a...\n      JUMP \t\t\tfunction getSupplyedBalances(a...\n    tag 51\t\t\tfunction getwBTC() public view...\n      JUMPDEST \t\t\tfunction getwBTC() public view...\n      PUSH 0\t\t\taddress\n      PUSH 2\t\t\twBTC\n      PUSH 0\t\t\twBTC\n      SWAP1 \t\t\twBTC\n      SLOAD \t\t\twBTC\n      SWAP1 \t\t\twBTC\n      PUSH 100\t\t\twBTC\n      EXP \t\t\twBTC\n      SWAP1 \t\t\twBTC\n      DIV \t\t\twBTC\n      PUSH FFFFFFFFFFFFFFFFFFFFFFFFFFFFFFFFFFFFFFFF\t\t\twBTC\n      AND \t\t\twBTC\n      SWAP1 \t\t\treturn address(wBTC)\n      POP \t\t\treturn address(wBTC)\n      SWAP1 \t\t\tfunction getwBTC() public view...\n      JUMP \t\t\tfunction getwBTC() public view...\n    tag 135\t\t\t-License-Identifier: MIT\\nprag...\n      JUMPDEST \t\t\t-License-Identifier: MIT\\nprag...\n      PUSH 0\t\t\tity ^0.\n      PUSH FFFFFFFFFFFFFFFFFFFFFFFFFFFFFFFFFFFFFFFF\t\t\timport \"./USDCReserve.sol\";\\n\\...\n      DUP3 \t\t\t.sol\"\n      AND \t\t\terve.sol\";\\nimport \"./USDCRese...\n      SWAP1 \t\t\t \"./WBTCReserve.sol\";\\nimport ...\n      POP \t\t\t \"./WBTCReserve.sol\";\\nimport ...\n      SWAP2 \t\t\t-License-Identifier: MIT\\nprag...\n      SWAP1 \t\t\t-License-Identifier: MIT\\nprag...\n      POP \t\t\t-License-Identifier: MIT\\nprag...\n      JUMP \t\t\t-License-Identifier: MIT\\nprag...\n    tag 136\t\t\t WBTCReserve wBTCReserve;\\n   ...\n      JUMPDEST \t\t\t WBTCReserve wBTCReserve;\\n   ...\n      PUSH 0\t\t\terve us\n      PUSH [tag] 166\t\t\t public wBTC;\\n    addres\n      DUP3 \t\t\taddre\n      PUSH [tag] 135\t\t\t public wBTC;\\n    addres\n      JUMP \t\t\t public wBTC;\\n    addres\n    tag 166\t\t\t public wBTC;\\n    addres\n      JUMPDEST \t\t\t public wBTC;\\n    addres\n      SWAP1 \t\t\t    address public wBTC;\\n    ...\n      POP \t\t\t    address public wBTC;\\n    ...\n      SWAP2 \t\t\t WBTCReserve wBTCReserve;\\n   ...\n      SWAP1 \t\t\t WBTCReserve wBTCReserve;\\n   ...\n      POP \t\t\t WBTCReserve wBTCReserve;\\n   ...\n      JUMP \t\t\t WBTCReserve wBTCReserve;\\n   ...\n    tag 137\t\t\tc;\\n    mapping(address => uin...\n      JUMPDEST \t\t\tc;\\n    mapping(address => uin...\n      PUSH [tag] 168\t\t\tnstructor(WBTCReserve _w\n      DUP2 \t\t\trve _\n      PUSH [tag] 136\t\t\tnstructor(WBTCReserve _w\n      JUMP \t\t\tnstructor(WBTCReserve _w\n    tag 168\t\t\tnstructor(WBTCReserve _w\n      JUMPDEST \t\t\tnstructor(WBTCReserve _w\n      DUP3 \t\t\t   \n      MSTORE \t\t\t80);\\n\\n    constructor(WBTCRe...\n      POP \t\t\tc;\\n    mapping(address => uin...\n      POP \t\t\tc;\\n    mapping(address => uin...\n      JUMP \t\t\tc;\\n    mapping(address => uin...\n    tag 17\t\t\tSDCReserve _usdcReserve, addre...\n      JUMPDEST \t\t\tSDCReserve _usdcReserve, addre...\n      PUSH 0\t\t\t _us\n      PUSH 20\t\t\ter\n      DUP3 \t\t\t = _wBTCR\n      ADD \t\t\terve = _wBTCReserv\n      SWAP1 \t\t\t wBTCReserve = _wBTCReserv\n      POP \t\t\t wBTCReserve = _wBTCReserv\n      PUSH [tag] 170\t\t\t usdcReserve = _usdcReserve;\\n...\n      PUSH 0\t\t\tt\n      DUP4 \t\t\tve(addres\n      ADD \t\t\teserve(address to\n      DUP5 \t\t\ttion g\n      PUSH [tag] 137\t\t\t usdcReserve = _usdcReserve;\\n...\n      JUMP \t\t\t usdcReserve = _usdcReserve;\\n...\n    tag 170\t\t\t usdcReserve = _usdcReserve;\\n...\n      JUMPDEST \t\t\t usdcReserve = _usdcReserve;\\n...\n      SWAP3 \t\t\tSDCReserve _usdcReserve, addre...\n      SWAP2 \t\t\tSDCReserve _usdcReserve, addre...\n      POP \t\t\tSDCReserve _usdcReserve, addre...\n      POP \t\t\tSDCReserve _usdcReserve, addre...\n      JUMP \t\t\tSDCReserve _usdcReserve, addre...\n    tag 139\t\t\tturn address(wBTCReserve);\\n  ...\n      JUMPDEST \t\t\tturn address(wBTCReserve);\\n  ...\n      PUSH 0\t\t\t \n      DUP1 \t\t\t \n      REVERT \t\t\tve);\\n       \n    tag 141\t\t\t returns (address){\\n        r...\n      JUMPDEST \t\t\t returns (address){\\n        r...\n      PUSH [tag] 175\t\t\tAssetsPrice() external v\n      DUP2 \t\t\trnal \n      PUSH [tag] 136\t\t\tAssetsPrice() external v\n      JUMP \t\t\tAssetsPrice() external v\n    tag 175\t\t\tAssetsPrice() external v\n      JUMPDEST \t\t\tAssetsPrice() external v\n      DUP2 \t\t\tion g\n      EQ \t\t\tnction getAssetsPrice() extern...\n      PUSH [tag] 176\t\t\t }\\n\\n    function getAssetsPr...\n      JUMPI \t\t\t }\\n\\n    function getAssetsPr...\n      PUSH 0\t\t\tn\n      DUP1 \t\t\t(\n      REVERT \t\t\teturns (uint\n    tag 176\t\t\t }\\n\\n    function getAssetsPr...\n      JUMPDEST \t\t\t }\\n\\n    function getAssetsPr...\n      POP \t\t\t returns (address){\\n        r...\n      JUMP \t\t\t returns (address){\\n        r...\n    tag 142\t\t\t{\\n        (uint256 wBTCPrice,...\n      JUMPDEST \t\t\t{\\n        (uint256 wBTCPrice,...\n      PUSH 0\t\t\tmp, u\n      DUP2 \t\t\tetAsse\n      CALLDATALOAD \t\t\twBTCReserve.getAsset\n      SWAP1 \t\t\timals) = wBTCReserve.getAsset\n      POP \t\t\timals) = wBTCReserve.getAsset\n      PUSH [tag] 178\t\t\t        uint256 usdcPrice = us...\n      DUP2 \t\t\t usdc\n      PUSH [tag] 141\t\t\t        uint256 usdcPrice = us...\n      JUMP \t\t\t        uint256 usdcPrice = us...\n    tag 178\t\t\t        uint256 usdcPrice = us...\n      JUMPDEST \t\t\t        uint256 usdcPrice = us...\n      SWAP3 \t\t\t{\\n        (uint256 wBTCPrice,...\n      SWAP2 \t\t\t{\\n        (uint256 wBTCPrice,...\n      POP \t\t\t{\\n        (uint256 wBTCPrice,...\n      POP \t\t\t{\\n        (uint256 wBTCPrice,...\n      JUMP \t\t\t{\\n        (uint256 wBTCPrice,...\n    tag 20\t\t\tsetPrice();\\n        uint256[]...\n      JUMPDEST \t\t\tsetPrice();\\n        uint256[]...\n      PUSH 0\t\t\t(2);\\n \n      PUSH 20\t\t\ts[\n      DUP3 \t\t\t       pr\n      DUP5 \t\t\tCPrice;\n      SUB \t\t\t wBTCPrice;\\n        pri\n      SLT \t\t\t0] = wBTCPrice;\\n        price...\n      ISZERO \t\t\tes[0] = wBTCPrice;\\n        pr...\n      PUSH [tag] 180\t\t\tes[0] = wBTCPrice;\\n        pr...\n      JUMPI \t\t\tes[0] = wBTCPrice;\\n        pr...\n      PUSH [tag] 181\t\t\t usdcPrice;\\n        return pr...\n      PUSH [tag] 139\t\t\t usdcPrice;\\n        return pr...\n      JUMP \t\t\t usdcPrice;\\n        return pr...\n    tag 181\t\t\t usdcPrice;\\n        return pr...\n      JUMPDEST \t\t\t usdcPrice;\\n        return pr...\n    tag 180\t\t\tes[0] = wBTCPrice;\\n        pr...\n      JUMPDEST \t\t\tes[0] = wBTCPrice;\\n        pr...\n      PUSH 0\t\t\t[\n      PUSH [tag] 182\t\t\t256[] memory balances = new ui...\n      DUP5 \t\t\t     ba\n      DUP3 \t\t\t](2);\\n\n      DUP6 \t\t\tew uint25\n      ADD \t\t\t = new uint256[](2);\\n \n      PUSH [tag] 142\t\t\t256[] memory balances = new ui...\n      JUMP \t\t\t256[] memory balances = new ui...\n    tag 182\t\t\t256[] memory balances = new ui...\n      JUMPDEST \t\t\t256[] memory balances = new ui...\n      SWAP2 \t\t\t      uint256[] memory balance...\n      POP \t\t\t      uint256[] memory balance...\n      POP \t\t\txternal view returns (uint256[...\n      SWAP3 \t\t\tsetPrice();\\n        uint256[]...\n      SWAP2 \t\t\tsetPrice();\\n        uint256[]...\n      POP \t\t\tsetPrice();\\n        uint256[]...\n      POP \t\t\tsetPrice();\\n        uint256[]...\n      JUMP \t\t\tsetPrice();\\n        uint256[]...\n    tag 143\t\t\tgetSupplyedAmount(user);\\n    ...\n      JUMPDEST \t\t\tgetSupplyedAmount(user);\\n    ...\n      PUSH 0\t\t\tnces[1]\n      DUP2 \t\t\tlyedA\n      SWAP1 \t\t\trve.getSupplyedA\n      POP \t\t\trve.getSupplyedA\n      SWAP2 \t\t\tgetSupplyedAmount(user);\\n    ...\n      SWAP1 \t\t\tgetSupplyedAmount(user);\\n    ...\n      POP \t\t\tgetSupplyedAmount(user);\\n    ...\n      JUMP \t\t\tgetSupplyedAmount(user);\\n    ...\n    tag 144\t\t\t\\n        return balances;\\n  ...\n      JUMPDEST \t\t\t\\n        return balances;\\n  ...\n      PUSH [tag] 185\t\t\ternal {\\n        require(\n      DUP2 \t\t\tquire\n      PUSH [tag] 143\t\t\ternal {\\n        require(\n      JUMP \t\t\ternal {\\n        require(\n    tag 185\t\t\ternal {\\n        require(\n      JUMPDEST \t\t\ternal {\\n        require(\n      DUP3 \t\t\t) e\n      MSTORE \t\t\t amount) external {\\n        r...\n      POP \t\t\t\\n        return balances;\\n  ...\n      POP \t\t\t\\n        return balances;\\n  ...\n      JUMP \t\t\t\\n        return balances;\\n  ...\n    tag 23\t\t\t);\\n        uint256 collateral...\n      JUMPDEST \t\t\t);\\n        uint256 collateral...\n      PUSH 0\t\t\tueBo\n      PUSH 20\t\t\t 1\n      DUP3 \t\t\t* wBTCLTV\n      ADD \t\t\tlue * wBTCLTV / 10\n      SWAP1 \t\t\tateralValue * wBTCLTV / 10\n      POP \t\t\tateralValue * wBTCLTV / 10\n      PUSH [tag] 187\t\t\t uint256 currentBorrowed = thi...\n      PUSH 0\t\t\t(\n      DUP4 \t\t\t    requi\n      ADD \t\t\t        require((\n      DUP5 \t\t\tsender\n      PUSH [tag] 144\t\t\t uint256 currentBorrowed = thi...\n      JUMP \t\t\t uint256 currentBorrowed = thi...\n    tag 187\t\t\t uint256 currentBorrowed = thi...\n      JUMPDEST \t\t\t uint256 currentBorrowed = thi...\n      SWAP3 \t\t\t);\\n        uint256 collateral...\n      SWAP2 \t\t\t);\\n        uint256 collateral...\n      POP \t\t\t);\\n        uint256 collateral...\n      POP \t\t\t);\\n        uint256 collateral...\n      JUMP \t\t\t);\\n        uint256 collateral...\n    tag 145\t\t\td + amount) < maxValueBorred, ...\n      JUMPDEST \t\t\td + amount) < maxValueBorred, ...\n      PUSH [tag] 189\t\t\t;\\n        borrowedUSDC[m\n      DUP2 \t\t\tUSDC[\n      PUSH [tag] 143\t\t\t;\\n        borrowedUSDC[m\n      JUMP \t\t\t;\\n        borrowedUSDC[m\n    tag 189\t\t\t;\\n        borrowedUSDC[m\n      JUMPDEST \t\t\t;\\n        borrowedUSDC[m\n      DUP2 \t\t\tlowed\n      EQ \t\t\t allowed\");\\n        borrowedU...\n      PUSH [tag] 190\t\t\tvalue than allowed\");\\n       ...\n      JUMPI \t\t\tvalue than allowed\");\\n       ...\n      PUSH 0\t\t\tm\n      DUP1 \t\t\t=\n      REVERT \t\t\tnder] += amo\n    tag 190\t\t\tvalue than allowed\");\\n       ...\n      JUMPDEST \t\t\tvalue than allowed\");\\n       ...\n      POP \t\t\td + amount) < maxValueBorred, ...\n      JUMP \t\t\td + amount) < maxValueBorred, ...\n    tag 146\t\t\tsdcReserve.executeTransaction(...\n      JUMPDEST \t\t\tsdcReserve.executeTransaction(...\n      PUSH 0\t\t\tnt);\\n\n      DUP2 \t\t\tss use\n      CALLDATALOAD \t\t\tgetDebt(address user\n      SWAP1 \t\t\tfunction getDebt(address user\n      POP \t\t\tfunction getDebt(address user\n      PUSH [tag] 192\t\t\tl view returns (uint256){\\n   ...\n      DUP2 \t\t\t     \n      PUSH [tag] 145\t\t\tl view returns (uint256){\\n   ...\n      JUMP \t\t\tl view returns (uint256){\\n   ...\n    tag 192\t\t\tl view returns (uint256){\\n   ...\n      JUMPDEST \t\t\tl view returns (uint256){\\n   ...\n      SWAP3 \t\t\tsdcReserve.executeTransaction(...\n      SWAP2 \t\t\tsdcReserve.executeTransaction(...\n      POP \t\t\tsdcReserve.executeTransaction(...\n      POP \t\t\tsdcReserve.executeTransaction(...\n      JUMP \t\t\tsdcReserve.executeTransaction(...\n    tag 29\t\t\tt = borrowedUSDC[user] * usdcR...\n      JUMPDEST \t\t\tt = borrowedUSDC[user] * usdcR...\n      PUSH 0\t\t\t debt;\n      DUP1 \t\t\t   }\\n\\n\n      PUSH 40\t\t\tex\n      DUP4 \t\t\tdress use\n      DUP6 \t\t\ttValue(\n      SUB \t\t\tpositValue(address user\n      SLT \t\t\tetDepositValue(address user) e...\n      ISZERO \t\t\tn getDepositValue(address user...\n      PUSH [tag] 194\t\t\tn getDepositValue(address user...\n      JUMPI \t\t\tn getDepositValue(address user...\n      PUSH [tag] 195\t\t\tal view returns (uint256){\\n  ...\n      PUSH [tag] 139\t\t\tal view returns (uint256){\\n  ...\n      JUMP \t\t\tal view returns (uint256){\\n  ...\n    tag 195\t\t\tal view returns (uint256){\\n  ...\n      JUMPDEST \t\t\tal view returns (uint256){\\n  ...\n    tag 194\t\t\tn getDepositValue(address user...\n      JUMPDEST \t\t\tn getDepositValue(address user...\n      PUSH 0\t\t\te\n      PUSH [tag] 196\t\t\tatValue = wBTCReserve.getSuppl...\n      DUP6 \t\t\t * wBTC\n      DUP3 \t\t\tunt(us\n      DUP7 \t\t\tSupplyedA\n      ADD \t\t\t.getSupplyedAmount(use\n      PUSH [tag] 142\t\t\tatValue = wBTCReserve.getSuppl...\n      JUMP \t\t\tatValue = wBTCReserve.getSuppl...\n    tag 196\t\t\tatValue = wBTCReserve.getSuppl...\n      JUMPDEST \t\t\tatValue = wBTCReserve.getSuppl...\n      SWAP3 \t\t\tnt256 collatValue = wBTCReserv...\n      POP \t\t\tnt256 collatValue = wBTCReserv...\n      POP \t\t\ts) = wBTCReserve.getAssetPrice...\n      PUSH 20\t\t\tlu\n      PUSH [tag] 197\t\t\t\n      DUP6 \t\t\t\n      DUP3 \t\t\t\n      DUP7 \t\t\t\n      ADD \t\t\t\n      PUSH [tag] 146\t\t\t\n      JUMP \t\t\t\n    tag 197\t\t\t\n      JUMPDEST \t\t\t\n      SWAP2 \t\t\t    \\n\\n}\\n\n      POP \t\t\t    \\n\\n}\\n\n      POP \t\t\tals);\\n        return collatVa...\n      SWAP3 \t\t\tt = borrowedUSDC[user] * usdcR...\n      POP \t\t\tt = borrowedUSDC[user] * usdcR...\n      SWAP3 \t\t\tt = borrowedUSDC[user] * usdcR...\n      SWAP1 \t\t\tt = borrowedUSDC[user] * usdcR...\n      POP \t\t\tt = borrowedUSDC[user] * usdcR...\n      JUMP \t\t\tt = borrowedUSDC[user] * usdcR...\n    tag 147\t\t\t\n      JUMPDEST \t\t\t\n      PUSH 0\t\t\t\n      DUP2 \t\t\t\n      MLOAD \t\t\t\n      SWAP1 \t\t\t\n      POP \t\t\t\n      SWAP2 \t\t\t\n      SWAP1 \t\t\t\n      POP \t\t\t\n      JUMP \t\t\t\n    tag 148\t\t\t\n      JUMPDEST \t\t\t\n      PUSH 0\t\t\t\n      DUP3 \t\t\t\n      DUP3 \t\t\t\n      MSTORE \t\t\t\n      PUSH 20\t\t\t\n      DUP3 \t\t\t\n      ADD \t\t\t\n      SWAP1 \t\t\t\n      POP \t\t\t\n      SWAP3 \t\t\t\n      SWAP2 \t\t\t\n      POP \t\t\t\n      POP \t\t\t\n      JUMP \t\t\t\n    tag 149\t\t\t\n      JUMPDEST \t\t\t\n      PUSH 0\t\t\t\n      DUP2 \t\t\t\n      SWAP1 \t\t\t\n      POP \t\t\t\n      PUSH 20\t\t\t\n      DUP3 \t\t\t\n      ADD \t\t\t\n      SWAP1 \t\t\t\n      POP \t\t\t\n      SWAP2 \t\t\t\n      SWAP1 \t\t\t\n      POP \t\t\t\n      JUMP \t\t\t\n    tag 150\t\t\t\n      JUMPDEST \t\t\t\n      PUSH [tag] 202\t\t\t\n      DUP2 \t\t\t\n      PUSH [tag] 143\t\t\t\n      JUMP \t\t\t\n    tag 202\t\t\t\n      JUMPDEST \t\t\t\n      DUP3 \t\t\t\n      MSTORE \t\t\t\n      POP \t\t\t\n      POP \t\t\t\n      JUMP \t\t\t\n    tag 151\t\t\t\n      JUMPDEST \t\t\t\n      PUSH 0\t\t\t\n      PUSH [tag] 204\t\t\t\n      DUP4 \t\t\t\n      DUP4 \t\t\t\n      PUSH [tag] 150\t\t\t\n      JUMP \t\t\t\n    tag 204\t\t\t\n      JUMPDEST \t\t\t\n      PUSH 20\t\t\t\n      DUP4 \t\t\t\n      ADD \t\t\t\n      SWAP1 \t\t\t\n      POP \t\t\t\n      SWAP3 \t\t\t\n      SWAP2 \t\t\t\n      POP \t\t\t\n      POP \t\t\t\n      JUMP \t\t\t\n    tag 152\t\t\t\n      JUMPDEST \t\t\t\n      PUSH 0\t\t\t\n      PUSH 20\t\t\t\n      DUP3 \t\t\t\n      ADD \t\t\t\n      SWAP1 \t\t\t\n      POP \t\t\t\n      SWAP2 \t\t\t\n      SWAP1 \t\t\t\n      POP \t\t\t\n      JUMP \t\t\t\n    tag 153\t\t\t\n      JUMPDEST \t\t\t\n      PUSH 0\t\t\t\n      PUSH [tag] 207\t\t\t\n      DUP3 \t\t\t\n      PUSH [tag] 147\t\t\t\n      JUMP \t\t\t\n    tag 207\t\t\t\n      JUMPDEST \t\t\t\n      PUSH [tag] 208\t\t\t\n      DUP2 \t\t\t\n      DUP6 \t\t\t\n      PUSH [tag] 148\t\t\t\n      JUMP \t\t\t\n    tag 208\t\t\t\n      JUMPDEST \t\t\t\n      SWAP4 \t\t\t\n      POP \t\t\t\n      PUSH [tag] 209\t\t\t\n      DUP4 \t\t\t\n      PUSH [tag] 149\t\t\t\n      JUMP \t\t\t\n    tag 209\t\t\t\n      JUMPDEST \t\t\t\n      DUP1 \t\t\t\n      PUSH 0\t\t\t\n    tag 210\t\t\t\n      JUMPDEST \t\t\t\n      DUP4 \t\t\t\n      DUP2 \t\t\t\n      LT \t\t\t\n      ISZERO \t\t\t\n      PUSH [tag] 212\t\t\t\n      JUMPI \t\t\t\n      DUP2 \t\t\t\n      MLOAD \t\t\t\n      PUSH [tag] 213\t\t\t\n      DUP9 \t\t\t\n      DUP3 \t\t\t\n      PUSH [tag] 151\t\t\t\n      JUMP \t\t\t\n    tag 213\t\t\t\n      JUMPDEST \t\t\t\n      SWAP8 \t\t\t\n      POP \t\t\t\n      PUSH [tag] 214\t\t\t\n      DUP4 \t\t\t\n      PUSH [tag] 152\t\t\t\n      JUMP \t\t\t\n    tag 214\t\t\t\n      JUMPDEST \t\t\t\n      SWAP3 \t\t\t\n      POP \t\t\t\n      POP \t\t\t\n      PUSH 1\t\t\t\n      DUP2 \t\t\t\n      ADD \t\t\t\n      SWAP1 \t\t\t\n      POP \t\t\t\n      PUSH [tag] 210\t\t\t\n      JUMP \t\t\t\n    tag 212\t\t\t\n      JUMPDEST \t\t\t\n      POP \t\t\t\n      DUP6 \t\t\t\n      SWAP4 \t\t\t\n      POP \t\t\t\n      POP \t\t\t\n      POP \t\t\t\n      POP \t\t\t\n      SWAP3 \t\t\t\n      SWAP2 \t\t\t\n      POP \t\t\t\n      POP \t\t\t\n      JUMP \t\t\t\n    tag 34\t\t\t\n      JUMPDEST \t\t\t\n      PUSH 0\t\t\t\n      PUSH 20\t\t\t\n      DUP3 \t\t\t\n      ADD \t\t\t\n      SWAP1 \t\t\t\n      POP \t\t\t\n      DUP2 \t\t\t\n      DUP2 \t\t\t\n      SUB \t\t\t\n      PUSH 0\t\t\t\n      DUP4 \t\t\t\n      ADD \t\t\t\n      MSTORE \t\t\t\n      PUSH [tag] 216\t\t\t\n      DUP2 \t\t\t\n      DUP5 \t\t\t\n      PUSH [tag] 153\t\t\t\n      JUMP \t\t\t\n    tag 216\t\t\t\n      JUMPDEST \t\t\t\n      SWAP1 \t\t\t\n      POP \t\t\t\n      SWAP3 \t\t\t\n      SWAP2 \t\t\t\n      POP \t\t\t\n      POP \t\t\t\n      JUMP \t\t\t\n    tag 154\t\t\t\n      JUMPDEST \t\t\t\n      PUSH 0\t\t\t\n      DUP2 \t\t\t\n      MLOAD \t\t\t\n      SWAP1 \t\t\t\n      POP \t\t\t\n      PUSH [tag] 218\t\t\t\n      DUP2 \t\t\t\n      PUSH [tag] 145\t\t\t\n      JUMP \t\t\t\n    tag 218\t\t\t\n      JUMPDEST \t\t\t\n      SWAP3 \t\t\t\n      SWAP2 \t\t\t\n      POP \t\t\t\n      POP \t\t\t\n      JUMP \t\t\t\n    tag 58\t\t\t\n      JUMPDEST \t\t\t\n      PUSH 0\t\t\t\n      DUP1 \t\t\t\n      PUSH 0\t\t\t\n      PUSH 60\t\t\t\n      DUP5 \t\t\t\n      DUP7 \t\t\t\n      SUB \t\t\t\n      SLT \t\t\t\n      ISZERO \t\t\t\n      PUSH [tag] 220\t\t\t\n      JUMPI \t\t\t\n      PUSH [tag] 221\t\t\t\n      PUSH [tag] 139\t\t\t\n      JUMP \t\t\t\n    tag 221\t\t\t\n      JUMPDEST \t\t\t\n    tag 220\t\t\t\n      JUMPDEST \t\t\t\n      PUSH 0\t\t\t\n      PUSH [tag] 222\t\t\t\n      DUP7 \t\t\t\n      DUP3 \t\t\t\n      DUP8 \t\t\t\n      ADD \t\t\t\n      PUSH [tag] 154\t\t\t\n      JUMP \t\t\t\n    tag 222\t\t\t\n      JUMPDEST \t\t\t\n      SWAP4 \t\t\t\n      POP \t\t\t\n      POP \t\t\t\n      PUSH 20\t\t\t\n      PUSH [tag] 223\t\t\t\n      DUP7 \t\t\t\n      DUP3 \t\t\t\n      DUP8 \t\t\t\n      ADD \t\t\t\n      PUSH [tag] 154\t\t\t\n      JUMP \t\t\t\n    tag 223\t\t\t\n      JUMPDEST \t\t\t\n      SWAP3 \t\t\t\n      POP \t\t\t\n      POP \t\t\t\n      PUSH 40\t\t\t\n      PUSH [tag] 224\t\t\t\n      DUP7 \t\t\t\n      DUP3 \t\t\t\n      DUP8 \t\t\t\n      ADD \t\t\t\n      PUSH [tag] 154\t\t\t\n      JUMP \t\t\t\n    tag 224\t\t\t\n      JUMPDEST \t\t\t\n      SWAP2 \t\t\t\n      POP \t\t\t\n      POP \t\t\t\n      SWAP3 \t\t\t\n      POP \t\t\t\n      SWAP3 \t\t\t\n      POP \t\t\t\n      SWAP3 \t\t\t\n      JUMP \t\t\t\n    tag 155\t\t\t\n      JUMPDEST \t\t\t\n      PUSH 4E487B7100000000000000000000000000000000000000000000000000000000\t\t\t\n      PUSH 0\t\t\t\n      MSTORE \t\t\t\n      PUSH 11\t\t\t\n      PUSH 4\t\t\t\n      MSTORE \t\t\t\n      PUSH 24\t\t\t\n      PUSH 0\t\t\t\n      REVERT \t\t\t\n    tag 156\t\t\t\n      JUMPDEST \t\t\t\n      PUSH 0\t\t\t\n      DUP2 \t\t\t\n      PUSH 1\t\t\t\n      SHR \t\t\t\n      SWAP1 \t\t\t\n      POP \t\t\t\n      SWAP2 \t\t\t\n      SWAP1 \t\t\t\n      POP \t\t\t\n      JUMP \t\t\t\n    tag 157\t\t\t\n      JUMPDEST \t\t\t\n      PUSH 0\t\t\t\n      DUP1 \t\t\t\n      DUP3 \t\t\t\n      SWAP2 \t\t\t\n      POP \t\t\t\n      DUP4 \t\t\t\n      SWAP1 \t\t\t\n      POP \t\t\t\n    tag 228\t\t\t\n      JUMPDEST \t\t\t\n      PUSH 1\t\t\t\n      DUP6 \t\t\t\n      GT \t\t\t\n      ISZERO \t\t\t\n      PUSH [tag] 230\t\t\t\n      JUMPI \t\t\t\n      DUP1 \t\t\t\n      DUP7 \t\t\t\n      DIV \t\t\t\n      DUP2 \t\t\t\n      GT \t\t\t\n      ISZERO \t\t\t\n      PUSH [tag] 231\t\t\t\n      JUMPI \t\t\t\n      PUSH [tag] 232\t\t\t\n      PUSH [tag] 155\t\t\t\n      JUMP \t\t\t\n    tag 232\t\t\t\n      JUMPDEST \t\t\t\n    tag 231\t\t\t\n      JUMPDEST \t\t\t\n      PUSH 1\t\t\t\n      DUP6 \t\t\t\n      AND \t\t\t\n      ISZERO \t\t\t\n      PUSH [tag] 233\t\t\t\n      JUMPI \t\t\t\n      DUP1 \t\t\t\n      DUP3 \t\t\t\n      MUL \t\t\t\n      SWAP2 \t\t\t\n      POP \t\t\t\n    tag 233\t\t\t\n      JUMPDEST \t\t\t\n      DUP1 \t\t\t\n      DUP2 \t\t\t\n      MUL \t\t\t\n      SWAP1 \t\t\t\n      POP \t\t\t\n      PUSH [tag] 234\t\t\t\n      DUP6 \t\t\t\n      PUSH [tag] 156\t\t\t\n      JUMP \t\t\t\n    tag 234\t\t\t\n      JUMPDEST \t\t\t\n      SWAP5 \t\t\t\n      POP \t\t\t\n      PUSH [tag] 228\t\t\t\n      JUMP \t\t\t\n    tag 230\t\t\t\n      JUMPDEST \t\t\t\n      SWAP5 \t\t\t\n      POP \t\t\t\n      SWAP5 \t\t\t\n      SWAP3 \t\t\t\n      POP \t\t\t\n      POP \t\t\t\n      POP \t\t\t\n      JUMP \t\t\t\n    tag 158\t\t\t\n      JUMPDEST \t\t\t\n      PUSH 0\t\t\t\n      DUP3 \t\t\t\n      PUSH [tag] 236\t\t\t\n      JUMPI \t\t\t\n      PUSH 1\t\t\t\n      SWAP1 \t\t\t\n      POP \t\t\t\n      PUSH [tag] 235\t\t\t\n      JUMP \t\t\t\n    tag 236\t\t\t\n      JUMPDEST \t\t\t\n      DUP2 \t\t\t\n      PUSH [tag] 237\t\t\t\n      JUMPI \t\t\t\n      PUSH 0\t\t\t\n      SWAP1 \t\t\t\n      POP \t\t\t\n      PUSH [tag] 235\t\t\t\n      JUMP \t\t\t\n    tag 237\t\t\t\n      JUMPDEST \t\t\t\n      DUP2 \t\t\t\n      PUSH 1\t\t\t\n      DUP2 \t\t\t\n      EQ \t\t\t\n      PUSH [tag] 239\t\t\t\n      JUMPI \t\t\t\n      PUSH 2\t\t\t\n      DUP2 \t\t\t\n      EQ \t\t\t\n      PUSH [tag] 240\t\t\t\n      JUMPI \t\t\t\n      PUSH [tag] 238\t\t\t\n      JUMP \t\t\t\n    tag 239\t\t\t\n      JUMPDEST \t\t\t\n      PUSH 1\t\t\t\n      SWAP2 \t\t\t\n      POP \t\t\t\n      POP \t\t\t\n      PUSH [tag] 235\t\t\t\n      JUMP \t\t\t\n    tag 240\t\t\t\n      JUMPDEST \t\t\t\n      PUSH FF\t\t\t\n      DUP5 \t\t\t\n      GT \t\t\t\n      ISZERO \t\t\t\n      PUSH [tag] 241\t\t\t\n      JUMPI \t\t\t\n      PUSH [tag] 242\t\t\t\n      PUSH [tag] 155\t\t\t\n      JUMP \t\t\t\n    tag 242\t\t\t\n      JUMPDEST \t\t\t\n    tag 241\t\t\t\n      JUMPDEST \t\t\t\n      DUP4 \t\t\t\n      PUSH 2\t\t\t\n      EXP \t\t\t\n      SWAP2 \t\t\t\n      POP \t\t\t\n      DUP5 \t\t\t\n      DUP3 \t\t\t\n      GT \t\t\t\n      ISZERO \t\t\t\n      PUSH [tag] 243\t\t\t\n      JUMPI \t\t\t\n      PUSH [tag] 244\t\t\t\n      PUSH [tag] 155\t\t\t\n      JUMP \t\t\t\n    tag 244\t\t\t\n      JUMPDEST \t\t\t\n    tag 243\t\t\t\n      JUMPDEST \t\t\t\n      POP \t\t\t\n      PUSH [tag] 235\t\t\t\n      JUMP \t\t\t\n    tag 238\t\t\t\n      JUMPDEST \t\t\t\n      POP \t\t\t\n      PUSH 20\t\t\t\n      DUP4 \t\t\t\n      LT \t\t\t\n      PUSH 133\t\t\t\n      DUP4 \t\t\t\n      LT \t\t\t\n      AND \t\t\t\n      PUSH 4E\t\t\t\n      DUP5 \t\t\t\n      LT \t\t\t\n      PUSH B\t\t\t\n      DUP5 \t\t\t\n      LT \t\t\t\n      AND \t\t\t\n      OR \t\t\t\n      ISZERO \t\t\t\n      PUSH [tag] 245\t\t\t\n      JUMPI \t\t\t\n      DUP3 \t\t\t\n      DUP3 \t\t\t\n      EXP \t\t\t\n      SWAP1 \t\t\t\n      POP \t\t\t\n      DUP4 \t\t\t\n      DUP2 \t\t\t\n      GT \t\t\t\n      ISZERO \t\t\t\n      PUSH [tag] 246\t\t\t\n      JUMPI \t\t\t\n      PUSH [tag] 247\t\t\t\n      PUSH [tag] 155\t\t\t\n      JUMP \t\t\t\n    tag 247\t\t\t\n      JUMPDEST \t\t\t\n    tag 246\t\t\t\n      JUMPDEST \t\t\t\n      PUSH [tag] 235\t\t\t\n      JUMP \t\t\t\n    tag 245\t\t\t\n      JUMPDEST \t\t\t\n      PUSH [tag] 248\t\t\t\n      DUP5 \t\t\t\n      DUP5 \t\t\t\n      DUP5 \t\t\t\n      PUSH 1\t\t\t\n      PUSH [tag] 157\t\t\t\n      JUMP \t\t\t\n    tag 248\t\t\t\n      JUMPDEST \t\t\t\n      SWAP3 \t\t\t\n      POP \t\t\t\n      SWAP1 \t\t\t\n      POP \t\t\t\n      DUP2 \t\t\t\n      DUP5 \t\t\t\n      DIV \t\t\t\n      DUP2 \t\t\t\n      GT \t\t\t\n      ISZERO \t\t\t\n      PUSH [tag] 249\t\t\t\n      JUMPI \t\t\t\n      PUSH [tag] 250\t\t\t\n      PUSH [tag] 155\t\t\t\n      JUMP \t\t\t\n    tag 250\t\t\t\n      JUMPDEST \t\t\t\n    tag 249\t\t\t\n      JUMPDEST \t\t\t\n      DUP2 \t\t\t\n      DUP2 \t\t\t\n      MUL \t\t\t\n      SWAP1 \t\t\t\n      POP \t\t\t\n    tag 235\t\t\t\n      JUMPDEST \t\t\t\n      SWAP4 \t\t\t\n      SWAP3 \t\t\t\n      POP \t\t\t\n      POP \t\t\t\n      POP \t\t\t\n      JUMP \t\t\t\n    tag 60\t\t\t\n      JUMPDEST \t\t\t\n      PUSH 0\t\t\t\n      PUSH [tag] 252\t\t\t\n      DUP3 \t\t\t\n      PUSH [tag] 143\t\t\t\n      JUMP \t\t\t\n    tag 252\t\t\t\n      JUMPDEST \t\t\t\n      SWAP2 \t\t\t\n      POP \t\t\t\n      PUSH [tag] 253\t\t\t\n      DUP4 \t\t\t\n      PUSH [tag] 143\t\t\t\n      JUMP \t\t\t\n    tag 253\t\t\t\n      JUMPDEST \t\t\t\n      SWAP3 \t\t\t\n      POP \t\t\t\n      PUSH [tag] 254\t\t\t\n      PUSH FFFFFFFFFFFFFFFFFFFFFFFFFFFFFFFFFFFFFFFFFFFFFFFFFFFFFFFFFFFFFFFF\t\t\t\n      DUP5 \t\t\t\n      DUP5 \t\t\t\n      PUSH [tag] 158\t\t\t\n      JUMP \t\t\t\n    tag 254\t\t\t\n      JUMPDEST \t\t\t\n      SWAP1 \t\t\t\n      POP \t\t\t\n      SWAP3 \t\t\t\n      SWAP2 \t\t\t\n      POP \t\t\t\n      POP \t\t\t\n      JUMP \t\t\t\n    tag 65\t\t\t\n      JUMPDEST \t\t\t\n      PUSH 0\t\t\t\n      PUSH 20\t\t\t\n      DUP3 \t\t\t\n      DUP5 \t\t\t\n      SUB \t\t\t\n      SLT \t\t\t\n      ISZERO \t\t\t\n      PUSH [tag] 256\t\t\t\n      JUMPI \t\t\t\n      PUSH [tag] 257\t\t\t\n      PUSH [tag] 139\t\t\t\n      JUMP \t\t\t\n    tag 257\t\t\t\n      JUMPDEST \t\t\t\n    tag 256\t\t\t\n      JUMPDEST \t\t\t\n      PUSH 0\t\t\t\n      PUSH [tag] 258\t\t\t\n      DUP5 \t\t\t\n      DUP3 \t\t\t\n      DUP6 \t\t\t\n      ADD \t\t\t\n      PUSH [tag] 154\t\t\t\n      JUMP \t\t\t\n    tag 258\t\t\t\n      JUMPDEST \t\t\t\n      SWAP2 \t\t\t\n      POP \t\t\t\n      POP \t\t\t\n      SWAP3 \t\t\t\n      SWAP2 \t\t\t\n      POP \t\t\t\n      POP \t\t\t\n      JUMP \t\t\t\n    tag 67\t\t\t\n      JUMPDEST \t\t\t\n      PUSH 0\t\t\t\n      PUSH [tag] 260\t\t\t\n      DUP3 \t\t\t\n      PUSH [tag] 143\t\t\t\n      JUMP \t\t\t\n    tag 260\t\t\t\n      JUMPDEST \t\t\t\n      SWAP2 \t\t\t\n      POP \t\t\t\n      PUSH [tag] 261\t\t\t\n      DUP4 \t\t\t\n      PUSH [tag] 143\t\t\t\n      JUMP \t\t\t\n    tag 261\t\t\t\n      JUMPDEST \t\t\t\n      SWAP3 \t\t\t\n      POP \t\t\t\n      DUP3 \t\t\t\n      DUP3 \t\t\t\n      MUL \t\t\t\n      PUSH [tag] 262\t\t\t\n      DUP2 \t\t\t\n      PUSH [tag] 143\t\t\t\n      JUMP \t\t\t\n    tag 262\t\t\t\n      JUMPDEST \t\t\t\n      SWAP2 \t\t\t\n      POP \t\t\t\n      DUP3 \t\t\t\n      DUP3 \t\t\t\n      DIV \t\t\t\n      DUP5 \t\t\t\n      EQ \t\t\t\n      DUP4 \t\t\t\n      ISZERO \t\t\t\n      OR \t\t\t\n      PUSH [tag] 263\t\t\t\n      JUMPI \t\t\t\n      PUSH [tag] 264\t\t\t\n      PUSH [tag] 155\t\t\t\n      JUMP \t\t\t\n    tag 264\t\t\t\n      JUMPDEST \t\t\t\n    tag 263\t\t\t\n      JUMPDEST \t\t\t\n      POP \t\t\t\n      SWAP3 \t\t\t\n      SWAP2 \t\t\t\n      POP \t\t\t\n      POP \t\t\t\n      JUMP \t\t\t\n    tag 159\t\t\t\n      JUMPDEST \t\t\t\n      PUSH 4E487B7100000000000000000000000000000000000000000000000000000000\t\t\t\n      PUSH 0\t\t\t\n      MSTORE \t\t\t\n      PUSH 12\t\t\t\n      PUSH 4\t\t\t\n      MSTORE \t\t\t\n      PUSH 24\t\t\t\n      PUSH 0\t\t\t\n      REVERT \t\t\t\n    tag 69\t\t\t\n      JUMPDEST \t\t\t\n      PUSH 0\t\t\t\n      PUSH [tag] 267\t\t\t\n      DUP3 \t\t\t\n      PUSH [tag] 143\t\t\t\n      JUMP \t\t\t\n    tag 267\t\t\t\n      JUMPDEST \t\t\t\n      SWAP2 \t\t\t\n      POP \t\t\t\n      PUSH [tag] 268\t\t\t\n      DUP4 \t\t\t\n      PUSH [tag] 143\t\t\t\n      JUMP \t\t\t\n    tag 268\t\t\t\n      JUMPDEST \t\t\t\n      SWAP3 \t\t\t\n      POP \t\t\t\n      DUP3 \t\t\t\n      PUSH [tag] 269\t\t\t\n      JUMPI \t\t\t\n      PUSH [tag] 270\t\t\t\n      PUSH [tag] 159\t\t\t\n      JUMP \t\t\t\n    tag 270\t\t\t\n      JUMPDEST \t\t\t\n    tag 269\t\t\t\n      JUMPDEST \t\t\t\n      DUP3 \t\t\t\n      DUP3 \t\t\t\n      DIV \t\t\t\n      SWAP1 \t\t\t\n      POP \t\t\t\n      SWAP3 \t\t\t\n      SWAP2 \t\t\t\n      POP \t\t\t\n      POP \t\t\t\n      JUMP \t\t\t\n    tag 83\t\t\t\n      JUMPDEST \t\t\t\n      PUSH 0\t\t\t\n      PUSH [tag] 272\t\t\t\n      DUP3 \t\t\t\n      PUSH [tag] 143\t\t\t\n      JUMP \t\t\t\n    tag 272\t\t\t\n      JUMPDEST \t\t\t\n      SWAP2 \t\t\t\n      POP \t\t\t\n      PUSH [tag] 273\t\t\t\n      DUP4 \t\t\t\n      PUSH [tag] 143\t\t\t\n      JUMP \t\t\t\n    tag 273\t\t\t\n      JUMPDEST \t\t\t\n      SWAP3 \t\t\t\n      POP \t\t\t\n      DUP3 \t\t\t\n      DUP3 \t\t\t\n      ADD \t\t\t\n      SWAP1 \t\t\t\n      POP \t\t\t\n      DUP1 \t\t\t\n      DUP3 \t\t\t\n      GT \t\t\t\n      ISZERO \t\t\t\n      PUSH [tag] 274\t\t\t\n      JUMPI \t\t\t\n      PUSH [tag] 275\t\t\t\n      PUSH [tag] 155\t\t\t\n      JUMP \t\t\t\n    tag 275\t\t\t\n      JUMPDEST \t\t\t\n    tag 274\t\t\t\n      JUMPDEST \t\t\t\n      SWAP3 \t\t\t\n      SWAP2 \t\t\t\n      POP \t\t\t\n      POP \t\t\t\n      JUMP \t\t\t\n    tag 160\t\t\t\n      JUMPDEST \t\t\t\n      PUSH 0\t\t\t\n      DUP3 \t\t\t\n      DUP3 \t\t\t\n      MSTORE \t\t\t\n      PUSH 20\t\t\t\n      DUP3 \t\t\t\n      ADD \t\t\t\n      SWAP1 \t\t\t\n      POP \t\t\t\n      SWAP3 \t\t\t\n      SWAP2 \t\t\t\n      POP \t\t\t\n      POP \t\t\t\n      JUMP \t\t\t\n    tag 161\t\t\t\n      JUMPDEST \t\t\t\n      PUSH 596F752077616E7420746F206D6F7265206D6F72652076616C7565207468616E\t\t\t\n      PUSH 0\t\t\t\n      DUP3 \t\t\t\n      ADD \t\t\t\n      MSTORE \t\t\t\n      PUSH 20616C6C6F776564000000000000000000000000000000000000000000000000\t\t\t\n      PUSH 20\t\t\t\n      DUP3 \t\t\t\n      ADD \t\t\t\n      MSTORE \t\t\t\n      POP \t\t\t\n      JUMP \t\t\t\n    tag 162\t\t\t\n      JUMPDEST \t\t\t\n      PUSH 0\t\t\t\n      PUSH [tag] 279\t\t\t\n      PUSH 28\t\t\t\n      DUP4 \t\t\t\n      PUSH [tag] 160\t\t\t\n      JUMP \t\t\t\n    tag 279\t\t\t\n      JUMPDEST \t\t\t\n      SWAP2 \t\t\t\n      POP \t\t\t\n      PUSH [tag] 280\t\t\t\n      DUP3 \t\t\t\n      PUSH [tag] 161\t\t\t\n      JUMP \t\t\t\n    tag 280\t\t\t\n      JUMPDEST \t\t\t\n      PUSH 40\t\t\t\n      DUP3 \t\t\t\n      ADD \t\t\t\n      SWAP1 \t\t\t\n      POP \t\t\t\n      SWAP2 \t\t\t\n      SWAP1 \t\t\t\n      POP \t\t\t\n      JUMP \t\t\t\n    tag 86\t\t\t\n      JUMPDEST \t\t\t\n      PUSH 0\t\t\t\n      PUSH 20\t\t\t\n      DUP3 \t\t\t\n      ADD \t\t\t\n      SWAP1 \t\t\t\n      POP \t\t\t\n      DUP2 \t\t\t\n      DUP2 \t\t\t\n      SUB \t\t\t\n      PUSH 0\t\t\t\n      DUP4 \t\t\t\n      ADD \t\t\t\n      MSTORE \t\t\t\n      PUSH [tag] 282\t\t\t\n      DUP2 \t\t\t\n      PUSH [tag] 162\t\t\t\n      JUMP \t\t\t\n    tag 282\t\t\t\n      JUMPDEST \t\t\t\n      SWAP1 \t\t\t\n      POP \t\t\t\n      SWAP2 \t\t\t\n      SWAP1 \t\t\t\n      POP \t\t\t\n      JUMP \t\t\t\n    tag 89\t\t\t\n      JUMPDEST \t\t\t\n      PUSH 0\t\t\t\n      PUSH 40\t\t\t\n      DUP3 \t\t\t\n      ADD \t\t\t\n      SWAP1 \t\t\t\n      POP \t\t\t\n      PUSH [tag] 284\t\t\t\n      PUSH 0\t\t\t\n      DUP4 \t\t\t\n      ADD \t\t\t\n      DUP6 \t\t\t\n      PUSH [tag] 137\t\t\t\n      JUMP \t\t\t\n    tag 284\t\t\t\n      JUMPDEST \t\t\t\n      PUSH [tag] 285\t\t\t\n      PUSH 20\t\t\t\n      DUP4 \t\t\t\n      ADD \t\t\t\n      DUP5 \t\t\t\n      PUSH [tag] 144\t\t\t\n      JUMP \t\t\t\n    tag 285\t\t\t\n      JUMPDEST \t\t\t\n      SWAP4 \t\t\t\n      SWAP3 \t\t\t\n      POP \t\t\t\n      POP \t\t\t\n      POP \t\t\t\n      JUMP \t\t\t\n    tag 102\t\t\t\n      JUMPDEST \t\t\t\n      PUSH 4E487B7100000000000000000000000000000000000000000000000000000000\t\t\t\n      PUSH 0\t\t\t\n      MSTORE \t\t\t\n      PUSH 41\t\t\t\n      PUSH 4\t\t\t\n      MSTORE \t\t\t\n      PUSH 24\t\t\t\n      PUSH 0\t\t\t\n      REVERT \t\t\t\n    tag 106\t\t\t\n      JUMPDEST \t\t\t\n      PUSH 4E487B7100000000000000000000000000000000000000000000000000000000\t\t\t\n      PUSH 0\t\t\t\n      MSTORE \t\t\t\n      PUSH 32\t\t\t\n      PUSH 4\t\t\t\n      MSTORE \t\t\t\n      PUSH 24\t\t\t\n      PUSH 0\t\t\t\n      REVERT \t\t\t\n    .data\n"
}