{
	"compilerInput": "{\"language\":\"Solidity\",\"sources\":{\"contracts/USDCReserve.sol\":{\"content\":\"// SPDX-License-Identifier: MIT\\npragma solidity ^0.8.0;\\n\\nimport \\\"@openzeppelin/contracts/token/ERC20/IERC20.sol\\\";\\n\\ncontract USDCReserve {\\n\\n    IERC20 usdc;\\n    mapping(address => uint256) public balances;\\n    address owner;\\n    address pool;\\n\\n    \\n    constructor(address _usdc) {\\n        usdc = IERC20(_usdc);\\n        owner = msg.sender;\\n    }\\n\\n    function supply(uint256 amount) external {\\n        IERC20(address(usdc)).transferFrom(msg.sender, address(this), amount);\\n        balances[msg.sender] += amount;\\n    }\\n    \\n\\n    function getSupplyedAmount(address user) external view returns (uint256) {\\n        return balances[user];\\n    }\\n\\n    function withdraw(uint256 amount) external {\\n        require(balances[msg.sender] >= amount, \\\"Insufficient balance\\\");\\n        IERC20(address(usdc)).transfer(msg.sender, amount);\\n        balances[msg.sender] -= amount;\\n    }\\n\\n    function getAssetPrice() external view returns (uint256) {\\n        return 1;\\n    }\\n\\n    function getAssetAddress() external view returns (address) {\\n        return address(usdc);\\n    }\\n\\n    function setPool(address _pool) external{\\n        require(msg.sender == address(owner));\\n        pool = _pool;\\n    }\\n\\n    function executeTransaction(address user, uint256 amount) external {\\n        require(msg.sender == pool);\\n        IERC20(address(usdc)).transfer(user, amount);\\n    }\\n}\\n\"},\"@openzeppelin/contracts/token/ERC20/IERC20.sol\":{\"content\":\"// SPDX-License-Identifier: MIT\\n// OpenZeppelin Contracts (last updated v5.0.0) (token/ERC20/IERC20.sol)\\n\\npragma solidity ^0.8.20;\\n\\n/**\\n * @dev Interface of the ERC20 standard as defined in the EIP.\\n */\\ninterface IERC20 {\\n    /**\\n     * @dev Emitted when `value` tokens are moved from one account (`from`) to\\n     * another (`to`).\\n     *\\n     * Note that `value` may be zero.\\n     */\\n    event Transfer(address indexed from, address indexed to, uint256 value);\\n\\n    /**\\n     * @dev Emitted when the allowance of a `spender` for an `owner` is set by\\n     * a call to {approve}. `value` is the new allowance.\\n     */\\n    event Approval(address indexed owner, address indexed spender, uint256 value);\\n\\n    /**\\n     * @dev Returns the value of tokens in existence.\\n     */\\n    function totalSupply() external view returns (uint256);\\n\\n    /**\\n     * @dev Returns the value of tokens owned by `account`.\\n     */\\n    function balanceOf(address account) external view returns (uint256);\\n\\n    /**\\n     * @dev Moves a `value` amount of tokens from the caller's account to `to`.\\n     *\\n     * Returns a boolean value indicating whether the operation succeeded.\\n     *\\n     * Emits a {Transfer} event.\\n     */\\n    function transfer(address to, uint256 value) external returns (bool);\\n\\n    /**\\n     * @dev Returns the remaining number of tokens that `spender` will be\\n     * allowed to spend on behalf of `owner` through {transferFrom}. This is\\n     * zero by default.\\n     *\\n     * This value changes when {approve} or {transferFrom} are called.\\n     */\\n    function allowance(address owner, address spender) external view returns (uint256);\\n\\n    /**\\n     * @dev Sets a `value` amount of tokens as the allowance of `spender` over the\\n     * caller's tokens.\\n     *\\n     * Returns a boolean value indicating whether the operation succeeded.\\n     *\\n     * IMPORTANT: Beware that changing an allowance with this method brings the risk\\n     * that someone may use both the old and the new allowance by unfortunate\\n     * transaction ordering. One possible solution to mitigate this race\\n     * condition is to first reduce the spender's allowance to 0 and set the\\n     * desired value afterwards:\\n     * https://github.com/ethereum/EIPs/issues/20#issuecomment-263524729\\n     *\\n     * Emits an {Approval} event.\\n     */\\n    function approve(address spender, uint256 value) external returns (bool);\\n\\n    /**\\n     * @dev Moves a `value` amount of tokens from `from` to `to` using the\\n     * allowance mechanism. `value` is then deducted from the caller's\\n     * allowance.\\n     *\\n     * Returns a boolean value indicating whether the operation succeeded.\\n     *\\n     * Emits a {Transfer} event.\\n     */\\n    function transferFrom(address from, address to, uint256 value) external returns (bool);\\n}\\n\"}},\"settings\":{\"optimizer\":{\"enabled\":false,\"runs\":200},\"outputSelection\":{\"*\":{\"\":[\"ast\"],\"*\":[\"abi\",\"metadata\",\"devdoc\",\"userdoc\",\"storageLayout\",\"evm.legacyAssembly\",\"evm.bytecode\",\"evm.deployedBytecode\",\"evm.methodIdentifiers\",\"evm.gasEstimates\",\"evm.assembly\"]}},\"remappings\":[],\"evmVersion\":\"london\"}}",
	"name": "USDCReserve",
	"bytecode": {
		"linkReferences": {},
		"object": "608060405234801561001057600080fd5b50604051610b29380380610b298339818101604052810190610032919061011c565b806000806101000a81548173ffffffffffffffffffffffffffffffffffffffff021916908373ffffffffffffffffffffffffffffffffffffffff16021790555033600260006101000a81548173ffffffffffffffffffffffffffffffffffffffff021916908373ffffffffffffffffffffffffffffffffffffffff16021790555050610149565b600080fd5b600073ffffffffffffffffffffffffffffffffffffffff82169050919050565b60006100e9826100be565b9050919050565b6100f9816100de565b811461010457600080fd5b50565b600081519050610116816100f0565b92915050565b600060208284031215610132576101316100b9565b5b600061014084828501610107565b91505092915050565b6109d1806101586000396000f3fe608060405234801561001057600080fd5b50600436106100885760003560e01c8063670ab5e91161005b578063670ab5e914610111578063683ae0831461012f578063ac75409a1461014b578063e54f08801461017b57610088565b806327e235e31461008d5780632e1a7d4d146100bd57806335403023146100d95780634437152a146100f5575b600080fd5b6100a760048036038101906100a2919061069e565b610199565b6040516100b491906106e4565b60405180910390f35b6100d760048036038101906100d2919061072b565b6101b1565b005b6100f360048036038101906100ee919061072b565b61032b565b005b61010f600480360381019061010a919061069e565b610425565b005b6101196104c3565b6040516101269190610767565b60405180910390f35b61014960048036038101906101449190610782565b6104ec565b005b6101656004803603810190610160919061069e565b6105e9565b60405161017291906106e4565b60405180910390f35b610183610632565b60405161019091906106e4565b60405180910390f35b60016020528060005260406000206000915090505481565b80600160003373ffffffffffffffffffffffffffffffffffffffff1673ffffffffffffffffffffffffffffffffffffffff168152602001908152602001600020541015610233576040517f08c379a000000000000000000000000000000000000000000000000000000000815260040161022a9061081f565b60405180910390fd5b60008054906101000a900473ffffffffffffffffffffffffffffffffffffffff1673ffffffffffffffffffffffffffffffffffffffff1663a9059cbb33836040518363ffffffff1660e01b815260040161028e92919061083f565b6020604051808303816000875af11580156102ad573d6000803e3d6000fd5b505050506040513d601f19601f820116820180604052508101906102d191906108a0565b5080600160003373ffffffffffffffffffffffffffffffffffffffff1673ffffffffffffffffffffffffffffffffffffffff168152602001908152602001600020600082825461032191906108fc565b9250508190555050565b60008054906101000a900473ffffffffffffffffffffffffffffffffffffffff1673ffffffffffffffffffffffffffffffffffffffff166323b872dd3330846040518463ffffffff1660e01b815260040161038893929190610930565b6020604051808303816000875af11580156103a7573d6000803e3d6000fd5b505050506040513d601f19601f820116820180604052508101906103cb91906108a0565b5080600160003373ffffffffffffffffffffffffffffffffffffffff1673ffffffffffffffffffffffffffffffffffffffff168152602001908152602001600020600082825461041b9190610967565b9250508190555050565b600260009054906101000a900473ffffffffffffffffffffffffffffffffffffffff1673ffffffffffffffffffffffffffffffffffffffff163373ffffffffffffffffffffffffffffffffffffffff161461047f57600080fd5b80600360006101000a81548173ffffffffffffffffffffffffffffffffffffffff021916908373ffffffffffffffffffffffffffffffffffffffff16021790555050565b60008060009054906101000a900473ffffffffffffffffffffffffffffffffffffffff16905090565b600360009054906101000a900473ffffffffffffffffffffffffffffffffffffffff1673ffffffffffffffffffffffffffffffffffffffff163373ffffffffffffffffffffffffffffffffffffffff161461054657600080fd5b60008054906101000a900473ffffffffffffffffffffffffffffffffffffffff1673ffffffffffffffffffffffffffffffffffffffff1663a9059cbb83836040518363ffffffff1660e01b81526004016105a192919061083f565b6020604051808303816000875af11580156105c0573d6000803e3d6000fd5b505050506040513d601f19601f820116820180604052508101906105e491906108a0565b505050565b6000600160008373ffffffffffffffffffffffffffffffffffffffff1673ffffffffffffffffffffffffffffffffffffffff168152602001908152602001600020549050919050565b60006001905090565b600080fd5b600073ffffffffffffffffffffffffffffffffffffffff82169050919050565b600061066b82610640565b9050919050565b61067b81610660565b811461068657600080fd5b50565b60008135905061069881610672565b92915050565b6000602082840312156106b4576106b361063b565b5b60006106c284828501610689565b91505092915050565b6000819050919050565b6106de816106cb565b82525050565b60006020820190506106f960008301846106d5565b92915050565b610708816106cb565b811461071357600080fd5b50565b600081359050610725816106ff565b92915050565b6000602082840312156107415761074061063b565b5b600061074f84828501610716565b91505092915050565b61076181610660565b82525050565b600060208201905061077c6000830184610758565b92915050565b600080604083850312156107995761079861063b565b5b60006107a785828601610689565b92505060206107b885828601610716565b9150509250929050565b600082825260208201905092915050565b7f496e73756666696369656e742062616c616e6365000000000000000000000000600082015250565b60006108096014836107c2565b9150610814826107d3565b602082019050919050565b60006020820190508181036000830152610838816107fc565b9050919050565b60006040820190506108546000830185610758565b61086160208301846106d5565b9392505050565b60008115159050919050565b61087d81610868565b811461088857600080fd5b50565b60008151905061089a81610874565b92915050565b6000602082840312156108b6576108b561063b565b5b60006108c48482850161088b565b91505092915050565b7f4e487b7100000000000000000000000000000000000000000000000000000000600052601160045260246000fd5b6000610907826106cb565b9150610912836106cb565b925082820390508181111561092a576109296108cd565b5b92915050565b60006060820190506109456000830186610758565b6109526020830185610758565b61095f60408301846106d5565b949350505050565b6000610972826106cb565b915061097d836106cb565b9250828201905080821115610995576109946108cd565b5b9291505056fea26469706673582212201fefaee3e97ed3d876a390fe671c760674a9693afcc065e5f16fdf641ad9846d64736f6c63430008180033",
		"opcodes": "PUSH1 0x80 PUSH1 0x40 MSTORE CALLVALUE DUP1 ISZERO PUSH2 0x10 JUMPI PUSH1 0x0 DUP1 REVERT JUMPDEST POP PUSH1 0x40 MLOAD PUSH2 0xB29 CODESIZE SUB DUP1 PUSH2 0xB29 DUP4 CODECOPY DUP2 DUP2 ADD PUSH1 0x40 MSTORE DUP2 ADD SWAP1 PUSH2 0x32 SWAP2 SWAP1 PUSH2 0x11C JUMP JUMPDEST DUP1 PUSH1 0x0 DUP1 PUSH2 0x100 EXP DUP2 SLOAD DUP2 PUSH20 0xFFFFFFFFFFFFFFFFFFFFFFFFFFFFFFFFFFFFFFFF MUL NOT AND SWAP1 DUP4 PUSH20 0xFFFFFFFFFFFFFFFFFFFFFFFFFFFFFFFFFFFFFFFF AND MUL OR SWAP1 SSTORE POP CALLER PUSH1 0x2 PUSH1 0x0 PUSH2 0x100 EXP DUP2 SLOAD DUP2 PUSH20 0xFFFFFFFFFFFFFFFFFFFFFFFFFFFFFFFFFFFFFFFF MUL NOT AND SWAP1 DUP4 PUSH20 0xFFFFFFFFFFFFFFFFFFFFFFFFFFFFFFFFFFFFFFFF AND MUL OR SWAP1 SSTORE POP POP PUSH2 0x149 JUMP JUMPDEST PUSH1 0x0 DUP1 REVERT JUMPDEST PUSH1 0x0 PUSH20 0xFFFFFFFFFFFFFFFFFFFFFFFFFFFFFFFFFFFFFFFF DUP3 AND SWAP1 POP SWAP2 SWAP1 POP JUMP JUMPDEST PUSH1 0x0 PUSH2 0xE9 DUP3 PUSH2 0xBE JUMP JUMPDEST SWAP1 POP SWAP2 SWAP1 POP JUMP JUMPDEST PUSH2 0xF9 DUP2 PUSH2 0xDE JUMP JUMPDEST DUP2 EQ PUSH2 0x104 JUMPI PUSH1 0x0 DUP1 REVERT JUMPDEST POP JUMP JUMPDEST PUSH1 0x0 DUP2 MLOAD SWAP1 POP PUSH2 0x116 DUP2 PUSH2 0xF0 JUMP JUMPDEST SWAP3 SWAP2 POP POP JUMP JUMPDEST PUSH1 0x0 PUSH1 0x20 DUP3 DUP5 SUB SLT ISZERO PUSH2 0x132 JUMPI PUSH2 0x131 PUSH2 0xB9 JUMP JUMPDEST JUMPDEST PUSH1 0x0 PUSH2 0x140 DUP5 DUP3 DUP6 ADD PUSH2 0x107 JUMP JUMPDEST SWAP2 POP POP SWAP3 SWAP2 POP POP JUMP JUMPDEST PUSH2 0x9D1 DUP1 PUSH2 0x158 PUSH1 0x0 CODECOPY PUSH1 0x0 RETURN INVALID PUSH1 0x80 PUSH1 0x40 MSTORE CALLVALUE DUP1 ISZERO PUSH2 0x10 JUMPI PUSH1 0x0 DUP1 REVERT JUMPDEST POP PUSH1 0x4 CALLDATASIZE LT PUSH2 0x88 JUMPI PUSH1 0x0 CALLDATALOAD PUSH1 0xE0 SHR DUP1 PUSH4 0x670AB5E9 GT PUSH2 0x5B JUMPI DUP1 PUSH4 0x670AB5E9 EQ PUSH2 0x111 JUMPI DUP1 PUSH4 0x683AE083 EQ PUSH2 0x12F JUMPI DUP1 PUSH4 0xAC75409A EQ PUSH2 0x14B JUMPI DUP1 PUSH4 0xE54F0880 EQ PUSH2 0x17B JUMPI PUSH2 0x88 JUMP JUMPDEST DUP1 PUSH4 0x27E235E3 EQ PUSH2 0x8D JUMPI DUP1 PUSH4 0x2E1A7D4D EQ PUSH2 0xBD JUMPI DUP1 PUSH4 0x35403023 EQ PUSH2 0xD9 JUMPI DUP1 PUSH4 0x4437152A EQ PUSH2 0xF5 JUMPI JUMPDEST PUSH1 0x0 DUP1 REVERT JUMPDEST PUSH2 0xA7 PUSH1 0x4 DUP1 CALLDATASIZE SUB DUP2 ADD SWAP1 PUSH2 0xA2 SWAP2 SWAP1 PUSH2 0x69E JUMP JUMPDEST PUSH2 0x199 JUMP JUMPDEST PUSH1 0x40 MLOAD PUSH2 0xB4 SWAP2 SWAP1 PUSH2 0x6E4 JUMP JUMPDEST PUSH1 0x40 MLOAD DUP1 SWAP2 SUB SWAP1 RETURN JUMPDEST PUSH2 0xD7 PUSH1 0x4 DUP1 CALLDATASIZE SUB DUP2 ADD SWAP1 PUSH2 0xD2 SWAP2 SWAP1 PUSH2 0x72B JUMP JUMPDEST PUSH2 0x1B1 JUMP JUMPDEST STOP JUMPDEST PUSH2 0xF3 PUSH1 0x4 DUP1 CALLDATASIZE SUB DUP2 ADD SWAP1 PUSH2 0xEE SWAP2 SWAP1 PUSH2 0x72B JUMP JUMPDEST PUSH2 0x32B JUMP JUMPDEST STOP JUMPDEST PUSH2 0x10F PUSH1 0x4 DUP1 CALLDATASIZE SUB DUP2 ADD SWAP1 PUSH2 0x10A SWAP2 SWAP1 PUSH2 0x69E JUMP JUMPDEST PUSH2 0x425 JUMP JUMPDEST STOP JUMPDEST PUSH2 0x119 PUSH2 0x4C3 JUMP JUMPDEST PUSH1 0x40 MLOAD PUSH2 0x126 SWAP2 SWAP1 PUSH2 0x767 JUMP JUMPDEST PUSH1 0x40 MLOAD DUP1 SWAP2 SUB SWAP1 RETURN JUMPDEST PUSH2 0x149 PUSH1 0x4 DUP1 CALLDATASIZE SUB DUP2 ADD SWAP1 PUSH2 0x144 SWAP2 SWAP1 PUSH2 0x782 JUMP JUMPDEST PUSH2 0x4EC JUMP JUMPDEST STOP JUMPDEST PUSH2 0x165 PUSH1 0x4 DUP1 CALLDATASIZE SUB DUP2 ADD SWAP1 PUSH2 0x160 SWAP2 SWAP1 PUSH2 0x69E JUMP JUMPDEST PUSH2 0x5E9 JUMP JUMPDEST PUSH1 0x40 MLOAD PUSH2 0x172 SWAP2 SWAP1 PUSH2 0x6E4 JUMP JUMPDEST PUSH1 0x40 MLOAD DUP1 SWAP2 SUB SWAP1 RETURN JUMPDEST PUSH2 0x183 PUSH2 0x632 JUMP JUMPDEST PUSH1 0x40 MLOAD PUSH2 0x190 SWAP2 SWAP1 PUSH2 0x6E4 JUMP JUMPDEST PUSH1 0x40 MLOAD DUP1 SWAP2 SUB SWAP1 RETURN JUMPDEST PUSH1 0x1 PUSH1 0x20 MSTORE DUP1 PUSH1 0x0 MSTORE PUSH1 0x40 PUSH1 0x0 KECCAK256 PUSH1 0x0 SWAP2 POP SWAP1 POP SLOAD DUP2 JUMP JUMPDEST DUP1 PUSH1 0x1 PUSH1 0x0 CALLER PUSH20 0xFFFFFFFFFFFFFFFFFFFFFFFFFFFFFFFFFFFFFFFF AND PUSH20 0xFFFFFFFFFFFFFFFFFFFFFFFFFFFFFFFFFFFFFFFF AND DUP2 MSTORE PUSH1 0x20 ADD SWAP1 DUP2 MSTORE PUSH1 0x20 ADD PUSH1 0x0 KECCAK256 SLOAD LT ISZERO PUSH2 0x233 JUMPI PUSH1 0x40 MLOAD PUSH32 0x8C379A000000000000000000000000000000000000000000000000000000000 DUP2 MSTORE PUSH1 0x4 ADD PUSH2 0x22A SWAP1 PUSH2 0x81F JUMP JUMPDEST PUSH1 0x40 MLOAD DUP1 SWAP2 SUB SWAP1 REVERT JUMPDEST PUSH1 0x0 DUP1 SLOAD SWAP1 PUSH2 0x100 EXP SWAP1 DIV PUSH20 0xFFFFFFFFFFFFFFFFFFFFFFFFFFFFFFFFFFFFFFFF AND PUSH20 0xFFFFFFFFFFFFFFFFFFFFFFFFFFFFFFFFFFFFFFFF AND PUSH4 0xA9059CBB CALLER DUP4 PUSH1 0x40 MLOAD DUP4 PUSH4 0xFFFFFFFF AND PUSH1 0xE0 SHL DUP2 MSTORE PUSH1 0x4 ADD PUSH2 0x28E SWAP3 SWAP2 SWAP1 PUSH2 0x83F JUMP JUMPDEST PUSH1 0x20 PUSH1 0x40 MLOAD DUP1 DUP4 SUB DUP2 PUSH1 0x0 DUP8 GAS CALL ISZERO DUP1 ISZERO PUSH2 0x2AD JUMPI RETURNDATASIZE PUSH1 0x0 DUP1 RETURNDATACOPY RETURNDATASIZE PUSH1 0x0 REVERT JUMPDEST POP POP POP POP PUSH1 0x40 MLOAD RETURNDATASIZE PUSH1 0x1F NOT PUSH1 0x1F DUP3 ADD AND DUP3 ADD DUP1 PUSH1 0x40 MSTORE POP DUP2 ADD SWAP1 PUSH2 0x2D1 SWAP2 SWAP1 PUSH2 0x8A0 JUMP JUMPDEST POP DUP1 PUSH1 0x1 PUSH1 0x0 CALLER PUSH20 0xFFFFFFFFFFFFFFFFFFFFFFFFFFFFFFFFFFFFFFFF AND PUSH20 0xFFFFFFFFFFFFFFFFFFFFFFFFFFFFFFFFFFFFFFFF AND DUP2 MSTORE PUSH1 0x20 ADD SWAP1 DUP2 MSTORE PUSH1 0x20 ADD PUSH1 0x0 KECCAK256 PUSH1 0x0 DUP3 DUP3 SLOAD PUSH2 0x321 SWAP2 SWAP1 PUSH2 0x8FC JUMP JUMPDEST SWAP3 POP POP DUP2 SWAP1 SSTORE POP POP JUMP JUMPDEST PUSH1 0x0 DUP1 SLOAD SWAP1 PUSH2 0x100 EXP SWAP1 DIV PUSH20 0xFFFFFFFFFFFFFFFFFFFFFFFFFFFFFFFFFFFFFFFF AND PUSH20 0xFFFFFFFFFFFFFFFFFFFFFFFFFFFFFFFFFFFFFFFF AND PUSH4 0x23B872DD CALLER ADDRESS DUP5 PUSH1 0x40 MLOAD DUP5 PUSH4 0xFFFFFFFF AND PUSH1 0xE0 SHL DUP2 MSTORE PUSH1 0x4 ADD PUSH2 0x388 SWAP4 SWAP3 SWAP2 SWAP1 PUSH2 0x930 JUMP JUMPDEST PUSH1 0x20 PUSH1 0x40 MLOAD DUP1 DUP4 SUB DUP2 PUSH1 0x0 DUP8 GAS CALL ISZERO DUP1 ISZERO PUSH2 0x3A7 JUMPI RETURNDATASIZE PUSH1 0x0 DUP1 RETURNDATACOPY RETURNDATASIZE PUSH1 0x0 REVERT JUMPDEST POP POP POP POP PUSH1 0x40 MLOAD RETURNDATASIZE PUSH1 0x1F NOT PUSH1 0x1F DUP3 ADD AND DUP3 ADD DUP1 PUSH1 0x40 MSTORE POP DUP2 ADD SWAP1 PUSH2 0x3CB SWAP2 SWAP1 PUSH2 0x8A0 JUMP JUMPDEST POP DUP1 PUSH1 0x1 PUSH1 0x0 CALLER PUSH20 0xFFFFFFFFFFFFFFFFFFFFFFFFFFFFFFFFFFFFFFFF AND PUSH20 0xFFFFFFFFFFFFFFFFFFFFFFFFFFFFFFFFFFFFFFFF AND DUP2 MSTORE PUSH1 0x20 ADD SWAP1 DUP2 MSTORE PUSH1 0x20 ADD PUSH1 0x0 KECCAK256 PUSH1 0x0 DUP3 DUP3 SLOAD PUSH2 0x41B SWAP2 SWAP1 PUSH2 0x967 JUMP JUMPDEST SWAP3 POP POP DUP2 SWAP1 SSTORE POP POP JUMP JUMPDEST PUSH1 0x2 PUSH1 0x0 SWAP1 SLOAD SWAP1 PUSH2 0x100 EXP SWAP1 DIV PUSH20 0xFFFFFFFFFFFFFFFFFFFFFFFFFFFFFFFFFFFFFFFF AND PUSH20 0xFFFFFFFFFFFFFFFFFFFFFFFFFFFFFFFFFFFFFFFF AND CALLER PUSH20 0xFFFFFFFFFFFFFFFFFFFFFFFFFFFFFFFFFFFFFFFF AND EQ PUSH2 0x47F JUMPI PUSH1 0x0 DUP1 REVERT JUMPDEST DUP1 PUSH1 0x3 PUSH1 0x0 PUSH2 0x100 EXP DUP2 SLOAD DUP2 PUSH20 0xFFFFFFFFFFFFFFFFFFFFFFFFFFFFFFFFFFFFFFFF MUL NOT AND SWAP1 DUP4 PUSH20 0xFFFFFFFFFFFFFFFFFFFFFFFFFFFFFFFFFFFFFFFF AND MUL OR SWAP1 SSTORE POP POP JUMP JUMPDEST PUSH1 0x0 DUP1 PUSH1 0x0 SWAP1 SLOAD SWAP1 PUSH2 0x100 EXP SWAP1 DIV PUSH20 0xFFFFFFFFFFFFFFFFFFFFFFFFFFFFFFFFFFFFFFFF AND SWAP1 POP SWAP1 JUMP JUMPDEST PUSH1 0x3 PUSH1 0x0 SWAP1 SLOAD SWAP1 PUSH2 0x100 EXP SWAP1 DIV PUSH20 0xFFFFFFFFFFFFFFFFFFFFFFFFFFFFFFFFFFFFFFFF AND PUSH20 0xFFFFFFFFFFFFFFFFFFFFFFFFFFFFFFFFFFFFFFFF AND CALLER PUSH20 0xFFFFFFFFFFFFFFFFFFFFFFFFFFFFFFFFFFFFFFFF AND EQ PUSH2 0x546 JUMPI PUSH1 0x0 DUP1 REVERT JUMPDEST PUSH1 0x0 DUP1 SLOAD SWAP1 PUSH2 0x100 EXP SWAP1 DIV PUSH20 0xFFFFFFFFFFFFFFFFFFFFFFFFFFFFFFFFFFFFFFFF AND PUSH20 0xFFFFFFFFFFFFFFFFFFFFFFFFFFFFFFFFFFFFFFFF AND PUSH4 0xA9059CBB DUP4 DUP4 PUSH1 0x40 MLOAD DUP4 PUSH4 0xFFFFFFFF AND PUSH1 0xE0 SHL DUP2 MSTORE PUSH1 0x4 ADD PUSH2 0x5A1 SWAP3 SWAP2 SWAP1 PUSH2 0x83F JUMP JUMPDEST PUSH1 0x20 PUSH1 0x40 MLOAD DUP1 DUP4 SUB DUP2 PUSH1 0x0 DUP8 GAS CALL ISZERO DUP1 ISZERO PUSH2 0x5C0 JUMPI RETURNDATASIZE PUSH1 0x0 DUP1 RETURNDATACOPY RETURNDATASIZE PUSH1 0x0 REVERT JUMPDEST POP POP POP POP PUSH1 0x40 MLOAD RETURNDATASIZE PUSH1 0x1F NOT PUSH1 0x1F DUP3 ADD AND DUP3 ADD DUP1 PUSH1 0x40 MSTORE POP DUP2 ADD SWAP1 PUSH2 0x5E4 SWAP2 SWAP1 PUSH2 0x8A0 JUMP JUMPDEST POP POP POP JUMP JUMPDEST PUSH1 0x0 PUSH1 0x1 PUSH1 0x0 DUP4 PUSH20 0xFFFFFFFFFFFFFFFFFFFFFFFFFFFFFFFFFFFFFFFF AND PUSH20 0xFFFFFFFFFFFFFFFFFFFFFFFFFFFFFFFFFFFFFFFF AND DUP2 MSTORE PUSH1 0x20 ADD SWAP1 DUP2 MSTORE PUSH1 0x20 ADD PUSH1 0x0 KECCAK256 SLOAD SWAP1 POP SWAP2 SWAP1 POP JUMP JUMPDEST PUSH1 0x0 PUSH1 0x1 SWAP1 POP SWAP1 JUMP JUMPDEST PUSH1 0x0 DUP1 REVERT JUMPDEST PUSH1 0x0 PUSH20 0xFFFFFFFFFFFFFFFFFFFFFFFFFFFFFFFFFFFFFFFF DUP3 AND SWAP1 POP SWAP2 SWAP1 POP JUMP JUMPDEST PUSH1 0x0 PUSH2 0x66B DUP3 PUSH2 0x640 JUMP JUMPDEST SWAP1 POP SWAP2 SWAP1 POP JUMP JUMPDEST PUSH2 0x67B DUP2 PUSH2 0x660 JUMP JUMPDEST DUP2 EQ PUSH2 0x686 JUMPI PUSH1 0x0 DUP1 REVERT JUMPDEST POP JUMP JUMPDEST PUSH1 0x0 DUP2 CALLDATALOAD SWAP1 POP PUSH2 0x698 DUP2 PUSH2 0x672 JUMP JUMPDEST SWAP3 SWAP2 POP POP JUMP JUMPDEST PUSH1 0x0 PUSH1 0x20 DUP3 DUP5 SUB SLT ISZERO PUSH2 0x6B4 JUMPI PUSH2 0x6B3 PUSH2 0x63B JUMP JUMPDEST JUMPDEST PUSH1 0x0 PUSH2 0x6C2 DUP5 DUP3 DUP6 ADD PUSH2 0x689 JUMP JUMPDEST SWAP2 POP POP SWAP3 SWAP2 POP POP JUMP JUMPDEST PUSH1 0x0 DUP2 SWAP1 POP SWAP2 SWAP1 POP JUMP JUMPDEST PUSH2 0x6DE DUP2 PUSH2 0x6CB JUMP JUMPDEST DUP3 MSTORE POP POP JUMP JUMPDEST PUSH1 0x0 PUSH1 0x20 DUP3 ADD SWAP1 POP PUSH2 0x6F9 PUSH1 0x0 DUP4 ADD DUP5 PUSH2 0x6D5 JUMP JUMPDEST SWAP3 SWAP2 POP POP JUMP JUMPDEST PUSH2 0x708 DUP2 PUSH2 0x6CB JUMP JUMPDEST DUP2 EQ PUSH2 0x713 JUMPI PUSH1 0x0 DUP1 REVERT JUMPDEST POP JUMP JUMPDEST PUSH1 0x0 DUP2 CALLDATALOAD SWAP1 POP PUSH2 0x725 DUP2 PUSH2 0x6FF JUMP JUMPDEST SWAP3 SWAP2 POP POP JUMP JUMPDEST PUSH1 0x0 PUSH1 0x20 DUP3 DUP5 SUB SLT ISZERO PUSH2 0x741 JUMPI PUSH2 0x740 PUSH2 0x63B JUMP JUMPDEST JUMPDEST PUSH1 0x0 PUSH2 0x74F DUP5 DUP3 DUP6 ADD PUSH2 0x716 JUMP JUMPDEST SWAP2 POP POP SWAP3 SWAP2 POP POP JUMP JUMPDEST PUSH2 0x761 DUP2 PUSH2 0x660 JUMP JUMPDEST DUP3 MSTORE POP POP JUMP JUMPDEST PUSH1 0x0 PUSH1 0x20 DUP3 ADD SWAP1 POP PUSH2 0x77C PUSH1 0x0 DUP4 ADD DUP5 PUSH2 0x758 JUMP JUMPDEST SWAP3 SWAP2 POP POP JUMP JUMPDEST PUSH1 0x0 DUP1 PUSH1 0x40 DUP4 DUP6 SUB SLT ISZERO PUSH2 0x799 JUMPI PUSH2 0x798 PUSH2 0x63B JUMP JUMPDEST JUMPDEST PUSH1 0x0 PUSH2 0x7A7 DUP6 DUP3 DUP7 ADD PUSH2 0x689 JUMP JUMPDEST SWAP3 POP POP PUSH1 0x20 PUSH2 0x7B8 DUP6 DUP3 DUP7 ADD PUSH2 0x716 JUMP JUMPDEST SWAP2 POP POP SWAP3 POP SWAP3 SWAP1 POP JUMP JUMPDEST PUSH1 0x0 DUP3 DUP3 MSTORE PUSH1 0x20 DUP3 ADD SWAP1 POP SWAP3 SWAP2 POP POP JUMP JUMPDEST PUSH32 0x496E73756666696369656E742062616C616E6365000000000000000000000000 PUSH1 0x0 DUP3 ADD MSTORE POP JUMP JUMPDEST PUSH1 0x0 PUSH2 0x809 PUSH1 0x14 DUP4 PUSH2 0x7C2 JUMP JUMPDEST SWAP2 POP PUSH2 0x814 DUP3 PUSH2 0x7D3 JUMP JUMPDEST PUSH1 0x20 DUP3 ADD SWAP1 POP SWAP2 SWAP1 POP JUMP JUMPDEST PUSH1 0x0 PUSH1 0x20 DUP3 ADD SWAP1 POP DUP2 DUP2 SUB PUSH1 0x0 DUP4 ADD MSTORE PUSH2 0x838 DUP2 PUSH2 0x7FC JUMP JUMPDEST SWAP1 POP SWAP2 SWAP1 POP JUMP JUMPDEST PUSH1 0x0 PUSH1 0x40 DUP3 ADD SWAP1 POP PUSH2 0x854 PUSH1 0x0 DUP4 ADD DUP6 PUSH2 0x758 JUMP JUMPDEST PUSH2 0x861 PUSH1 0x20 DUP4 ADD DUP5 PUSH2 0x6D5 JUMP JUMPDEST SWAP4 SWAP3 POP POP POP JUMP JUMPDEST PUSH1 0x0 DUP2 ISZERO ISZERO SWAP1 POP SWAP2 SWAP1 POP JUMP JUMPDEST PUSH2 0x87D DUP2 PUSH2 0x868 JUMP JUMPDEST DUP2 EQ PUSH2 0x888 JUMPI PUSH1 0x0 DUP1 REVERT JUMPDEST POP JUMP JUMPDEST PUSH1 0x0 DUP2 MLOAD SWAP1 POP PUSH2 0x89A DUP2 PUSH2 0x874 JUMP JUMPDEST SWAP3 SWAP2 POP POP JUMP JUMPDEST PUSH1 0x0 PUSH1 0x20 DUP3 DUP5 SUB SLT ISZERO PUSH2 0x8B6 JUMPI PUSH2 0x8B5 PUSH2 0x63B JUMP JUMPDEST JUMPDEST PUSH1 0x0 PUSH2 0x8C4 DUP5 DUP3 DUP6 ADD PUSH2 0x88B JUMP JUMPDEST SWAP2 POP POP SWAP3 SWAP2 POP POP JUMP JUMPDEST PUSH32 0x4E487B7100000000000000000000000000000000000000000000000000000000 PUSH1 0x0 MSTORE PUSH1 0x11 PUSH1 0x4 MSTORE PUSH1 0x24 PUSH1 0x0 REVERT JUMPDEST PUSH1 0x0 PUSH2 0x907 DUP3 PUSH2 0x6CB JUMP JUMPDEST SWAP2 POP PUSH2 0x912 DUP4 PUSH2 0x6CB JUMP JUMPDEST SWAP3 POP DUP3 DUP3 SUB SWAP1 POP DUP2 DUP2 GT ISZERO PUSH2 0x92A JUMPI PUSH2 0x929 PUSH2 0x8CD JUMP JUMPDEST JUMPDEST SWAP3 SWAP2 POP POP JUMP JUMPDEST PUSH1 0x0 PUSH1 0x60 DUP3 ADD SWAP1 POP PUSH2 0x945 PUSH1 0x0 DUP4 ADD DUP7 PUSH2 0x758 JUMP JUMPDEST PUSH2 0x952 PUSH1 0x20 DUP4 ADD DUP6 PUSH2 0x758 JUMP JUMPDEST PUSH2 0x95F PUSH1 0x40 DUP4 ADD DUP5 PUSH2 0x6D5 JUMP JUMPDEST SWAP5 SWAP4 POP POP POP POP JUMP JUMPDEST PUSH1 0x0 PUSH2 0x972 DUP3 PUSH2 0x6CB JUMP JUMPDEST SWAP2 POP PUSH2 0x97D DUP4 PUSH2 0x6CB JUMP JUMPDEST SWAP3 POP DUP3 DUP3 ADD SWAP1 POP DUP1 DUP3 GT ISZERO PUSH2 0x995 JUMPI PUSH2 0x994 PUSH2 0x8CD JUMP JUMPDEST JUMPDEST SWAP3 SWAP2 POP POP JUMP INVALID LOG2 PUSH5 0x6970667358 0x22 SLT KECCAK256 0x1F 0xEF 0xAE 0xE3 0xE9 PUSH31 0xD3D876A390FE671C760674A9693AFCC065E5F16FDF641AD9846D64736F6C63 NUMBER STOP ADDMOD XOR STOP CALLER "
	},
	"abi": [
		{
			"inputs": [
				{
					"internalType": "address",
					"name": "_usdc",
					"type": "address"
				}
			],
			"stateMutability": "nonpayable",
			"type": "constructor"
		},
		{
			"inputs": [
				{
					"internalType": "address",
					"name": "",
					"type": "address"
				}
			],
			"name": "balances",
			"outputs": [
				{
					"internalType": "uint256",
					"name": "",
					"type": "uint256"
				}
			],
			"stateMutability": "view",
			"type": "function"
		},
		{
			"inputs": [
				{
					"internalType": "address",
					"name": "user",
					"type": "address"
				},
				{
					"internalType": "uint256",
					"name": "amount",
					"type": "uint256"
				}
			],
			"name": "executeTransaction",
			"outputs": [],
			"stateMutability": "nonpayable",
			"type": "function"
		},
		{
			"inputs": [],
			"name": "getAssetAddress",
			"outputs": [
				{
					"internalType": "address",
					"name": "",
					"type": "address"
				}
			],
			"stateMutability": "view",
			"type": "function"
		},
		{
			"inputs": [],
			"name": "getAssetPrice",
			"outputs": [
				{
					"internalType": "uint256",
					"name": "",
					"type": "uint256"
				}
			],
			"stateMutability": "view",
			"type": "function"
		},
		{
			"inputs": [
				{
					"internalType": "address",
					"name": "user",
					"type": "address"
				}
			],
			"name": "getSupplyedAmount",
			"outputs": [
				{
					"internalType": "uint256",
					"name": "",
					"type": "uint256"
				}
			],
			"stateMutability": "view",
			"type": "function"
		},
		{
			"inputs": [
				{
					"internalType": "address",
					"name": "_pool",
					"type": "address"
				}
			],
			"name": "setPool",
			"outputs": [],
			"stateMutability": "nonpayable",
			"type": "function"
		},
		{
			"inputs": [
				{
					"internalType": "uint256",
					"name": "amount",
					"type": "uint256"
				}
			],
			"name": "supply",
			"outputs": [],
			"stateMutability": "nonpayable",
			"type": "function"
		},
		{
			"inputs": [
				{
					"internalType": "uint256",
					"name": "amount",
					"type": "uint256"
				}
			],
			"name": "withdraw",
			"outputs": [],
			"stateMutability": "nonpayable",
			"type": "function"
		}
	],
	"storageLayout": {
		"storage": [
			{
				"astId": 83,
				"contract": "contracts/USDCReserve.sol:USDCReserve",
				"label": "usdc",
				"offset": 0,
				"slot": "0",
				"type": "t_contract(IERC20)77"
			},
			{
				"astId": 87,
				"contract": "contracts/USDCReserve.sol:USDCReserve",
				"label": "balances",
				"offset": 0,
				"slot": "1",
				"type": "t_mapping(t_address,t_uint256)"
			},
			{
				"astId": 89,
				"contract": "contracts/USDCReserve.sol:USDCReserve",
				"label": "owner",
				"offset": 0,
				"slot": "2",
				"type": "t_address"
			},
			{
				"astId": 91,
				"contract": "contracts/USDCReserve.sol:USDCReserve",
				"label": "pool",
				"offset": 0,
				"slot": "3",
				"type": "t_address"
			}
		],
		"types": {
			"t_address": {
				"encoding": "inplace",
				"label": "address",
				"numberOfBytes": "20"
			},
			"t_contract(IERC20)77": {
				"encoding": "inplace",
				"label": "contract IERC20",
				"numberOfBytes": "20"
			},
			"t_mapping(t_address,t_uint256)": {
				"encoding": "mapping",
				"key": "t_address",
				"label": "mapping(address => uint256)",
				"numberOfBytes": "32",
				"value": "t_uint256"
			},
			"t_uint256": {
				"encoding": "inplace",
				"label": "uint256",
				"numberOfBytes": "32"
			}
		}
	},
	"web3Deploy": "var _usdc = /* var of type address here */ ;\nvar usdcreserveContract = new web3.eth.Contract([{\"inputs\":[{\"internalType\":\"address\",\"name\":\"_usdc\",\"type\":\"address\"}],\"stateMutability\":\"nonpayable\",\"type\":\"constructor\"},{\"inputs\":[{\"internalType\":\"address\",\"name\":\"\",\"type\":\"address\"}],\"name\":\"balances\",\"outputs\":[{\"internalType\":\"uint256\",\"name\":\"\",\"type\":\"uint256\"}],\"stateMutability\":\"view\",\"type\":\"function\"},{\"inputs\":[{\"internalType\":\"address\",\"name\":\"user\",\"type\":\"address\"},{\"internalType\":\"uint256\",\"name\":\"amount\",\"type\":\"uint256\"}],\"name\":\"executeTransaction\",\"outputs\":[],\"stateMutability\":\"nonpayable\",\"type\":\"function\"},{\"inputs\":[],\"name\":\"getAssetAddress\",\"outputs\":[{\"internalType\":\"address\",\"name\":\"\",\"type\":\"address\"}],\"stateMutability\":\"view\",\"type\":\"function\"},{\"inputs\":[],\"name\":\"getAssetPrice\",\"outputs\":[{\"internalType\":\"uint256\",\"name\":\"\",\"type\":\"uint256\"}],\"stateMutability\":\"view\",\"type\":\"function\"},{\"inputs\":[{\"internalType\":\"address\",\"name\":\"user\",\"type\":\"address\"}],\"name\":\"getSupplyedAmount\",\"outputs\":[{\"internalType\":\"uint256\",\"name\":\"\",\"type\":\"uint256\"}],\"stateMutability\":\"view\",\"type\":\"function\"},{\"inputs\":[{\"internalType\":\"address\",\"name\":\"_pool\",\"type\":\"address\"}],\"name\":\"setPool\",\"outputs\":[],\"stateMutability\":\"nonpayable\",\"type\":\"function\"},{\"inputs\":[{\"internalType\":\"uint256\",\"name\":\"amount\",\"type\":\"uint256\"}],\"name\":\"supply\",\"outputs\":[],\"stateMutability\":\"nonpayable\",\"type\":\"function\"},{\"inputs\":[{\"internalType\":\"uint256\",\"name\":\"amount\",\"type\":\"uint256\"}],\"name\":\"withdraw\",\"outputs\":[],\"stateMutability\":\"nonpayable\",\"type\":\"function\"}]);\nvar usdcreserve = usdcreserveContract.deploy({\n     data: '0x608060405234801561001057600080fd5b50604051610b29380380610b298339818101604052810190610032919061011c565b806000806101000a81548173ffffffffffffffffffffffffffffffffffffffff021916908373ffffffffffffffffffffffffffffffffffffffff16021790555033600260006101000a81548173ffffffffffffffffffffffffffffffffffffffff021916908373ffffffffffffffffffffffffffffffffffffffff16021790555050610149565b600080fd5b600073ffffffffffffffffffffffffffffffffffffffff82169050919050565b60006100e9826100be565b9050919050565b6100f9816100de565b811461010457600080fd5b50565b600081519050610116816100f0565b92915050565b600060208284031215610132576101316100b9565b5b600061014084828501610107565b91505092915050565b6109d1806101586000396000f3fe608060405234801561001057600080fd5b50600436106100885760003560e01c8063670ab5e91161005b578063670ab5e914610111578063683ae0831461012f578063ac75409a1461014b578063e54f08801461017b57610088565b806327e235e31461008d5780632e1a7d4d146100bd57806335403023146100d95780634437152a146100f5575b600080fd5b6100a760048036038101906100a2919061069e565b610199565b6040516100b491906106e4565b60405180910390f35b6100d760048036038101906100d2919061072b565b6101b1565b005b6100f360048036038101906100ee919061072b565b61032b565b005b61010f600480360381019061010a919061069e565b610425565b005b6101196104c3565b6040516101269190610767565b60405180910390f35b61014960048036038101906101449190610782565b6104ec565b005b6101656004803603810190610160919061069e565b6105e9565b60405161017291906106e4565b60405180910390f35b610183610632565b60405161019091906106e4565b60405180910390f35b60016020528060005260406000206000915090505481565b80600160003373ffffffffffffffffffffffffffffffffffffffff1673ffffffffffffffffffffffffffffffffffffffff168152602001908152602001600020541015610233576040517f08c379a000000000000000000000000000000000000000000000000000000000815260040161022a9061081f565b60405180910390fd5b60008054906101000a900473ffffffffffffffffffffffffffffffffffffffff1673ffffffffffffffffffffffffffffffffffffffff1663a9059cbb33836040518363ffffffff1660e01b815260040161028e92919061083f565b6020604051808303816000875af11580156102ad573d6000803e3d6000fd5b505050506040513d601f19601f820116820180604052508101906102d191906108a0565b5080600160003373ffffffffffffffffffffffffffffffffffffffff1673ffffffffffffffffffffffffffffffffffffffff168152602001908152602001600020600082825461032191906108fc565b9250508190555050565b60008054906101000a900473ffffffffffffffffffffffffffffffffffffffff1673ffffffffffffffffffffffffffffffffffffffff166323b872dd3330846040518463ffffffff1660e01b815260040161038893929190610930565b6020604051808303816000875af11580156103a7573d6000803e3d6000fd5b505050506040513d601f19601f820116820180604052508101906103cb91906108a0565b5080600160003373ffffffffffffffffffffffffffffffffffffffff1673ffffffffffffffffffffffffffffffffffffffff168152602001908152602001600020600082825461041b9190610967565b9250508190555050565b600260009054906101000a900473ffffffffffffffffffffffffffffffffffffffff1673ffffffffffffffffffffffffffffffffffffffff163373ffffffffffffffffffffffffffffffffffffffff161461047f57600080fd5b80600360006101000a81548173ffffffffffffffffffffffffffffffffffffffff021916908373ffffffffffffffffffffffffffffffffffffffff16021790555050565b60008060009054906101000a900473ffffffffffffffffffffffffffffffffffffffff16905090565b600360009054906101000a900473ffffffffffffffffffffffffffffffffffffffff1673ffffffffffffffffffffffffffffffffffffffff163373ffffffffffffffffffffffffffffffffffffffff161461054657600080fd5b60008054906101000a900473ffffffffffffffffffffffffffffffffffffffff1673ffffffffffffffffffffffffffffffffffffffff1663a9059cbb83836040518363ffffffff1660e01b81526004016105a192919061083f565b6020604051808303816000875af11580156105c0573d6000803e3d6000fd5b505050506040513d601f19601f820116820180604052508101906105e491906108a0565b505050565b6000600160008373ffffffffffffffffffffffffffffffffffffffff1673ffffffffffffffffffffffffffffffffffffffff168152602001908152602001600020549050919050565b60006001905090565b600080fd5b600073ffffffffffffffffffffffffffffffffffffffff82169050919050565b600061066b82610640565b9050919050565b61067b81610660565b811461068657600080fd5b50565b60008135905061069881610672565b92915050565b6000602082840312156106b4576106b361063b565b5b60006106c284828501610689565b91505092915050565b6000819050919050565b6106de816106cb565b82525050565b60006020820190506106f960008301846106d5565b92915050565b610708816106cb565b811461071357600080fd5b50565b600081359050610725816106ff565b92915050565b6000602082840312156107415761074061063b565b5b600061074f84828501610716565b91505092915050565b61076181610660565b82525050565b600060208201905061077c6000830184610758565b92915050565b600080604083850312156107995761079861063b565b5b60006107a785828601610689565b92505060206107b885828601610716565b9150509250929050565b600082825260208201905092915050565b7f496e73756666696369656e742062616c616e6365000000000000000000000000600082015250565b60006108096014836107c2565b9150610814826107d3565b602082019050919050565b60006020820190508181036000830152610838816107fc565b9050919050565b60006040820190506108546000830185610758565b61086160208301846106d5565b9392505050565b60008115159050919050565b61087d81610868565b811461088857600080fd5b50565b60008151905061089a81610874565b92915050565b6000602082840312156108b6576108b561063b565b5b60006108c48482850161088b565b91505092915050565b7f4e487b7100000000000000000000000000000000000000000000000000000000600052601160045260246000fd5b6000610907826106cb565b9150610912836106cb565b925082820390508181111561092a576109296108cd565b5b92915050565b60006060820190506109456000830186610758565b6109526020830185610758565b61095f60408301846106d5565b949350505050565b6000610972826106cb565b915061097d836106cb565b9250828201905080821115610995576109946108cd565b5b9291505056fea26469706673582212201fefaee3e97ed3d876a390fe671c760674a9693afcc065e5f16fdf641ad9846d64736f6c63430008180033', \n     arguments: [\n          _usdc,\n     ]\n}).send({\n     from: web3.eth.accounts[0], \n     gas: '4700000'\n   }, function (e, contract){\n    console.log(e, contract);\n    if (typeof contract.address !== 'undefined') {\n         console.log('Contract mined! address: ' + contract.address + ' transactionHash: ' + contract.transactionHash);\n    }\n })",
	"functionHashes": {
		"35403023": "supply(uint256)",
		"27e235e3": "balances(address)",
		"683ae083": "executeTransaction(address,uint256)",
		"670ab5e9": "getAssetAddress()",
		"e54f0880": "getAssetPrice()",
		"ac75409a": "getSupplyedAmount(address)",
		"4437152a": "setPool(address)",
		"2e1a7d4d": "withdraw(uint256)"
	},
	"gasEstimates": {
		"Creation": {
			"codeDepositCost": "502600",
			"executionCost": "infinite",
			"totalCost": "infinite"
		},
		"External": {
			"balances(address)": "2815",
			"executeTransaction(address,uint256)": "infinite",
			"getAssetAddress()": "2522",
			"getAssetPrice()": "403",
			"getSupplyedAmount(address)": "2885",
			"setPool(address)": "26959",
			"supply(uint256)": "infinite",
			"withdraw(uint256)": "infinite"
		}
	},
	"devdoc": {
		"kind": "dev",
		"methods": {},
		"version": 1
	},
	"userdoc": {
		"kind": "user",
		"methods": {},
		"version": 1
	},
	"Runtime Bytecode": {
		"immutableReferences": {},
		"linkReferences": {},
		"object": "608060405234801561001057600080fd5b50600436106100885760003560e01c8063670ab5e91161005b578063670ab5e914610111578063683ae0831461012f578063ac75409a1461014b578063e54f08801461017b57610088565b806327e235e31461008d5780632e1a7d4d146100bd57806335403023146100d95780634437152a146100f5575b600080fd5b6100a760048036038101906100a2919061069e565b610199565b6040516100b491906106e4565b60405180910390f35b6100d760048036038101906100d2919061072b565b6101b1565b005b6100f360048036038101906100ee919061072b565b61032b565b005b61010f600480360381019061010a919061069e565b610425565b005b6101196104c3565b6040516101269190610767565b60405180910390f35b61014960048036038101906101449190610782565b6104ec565b005b6101656004803603810190610160919061069e565b6105e9565b60405161017291906106e4565b60405180910390f35b610183610632565b60405161019091906106e4565b60405180910390f35b60016020528060005260406000206000915090505481565b80600160003373ffffffffffffffffffffffffffffffffffffffff1673ffffffffffffffffffffffffffffffffffffffff168152602001908152602001600020541015610233576040517f08c379a000000000000000000000000000000000000000000000000000000000815260040161022a9061081f565b60405180910390fd5b60008054906101000a900473ffffffffffffffffffffffffffffffffffffffff1673ffffffffffffffffffffffffffffffffffffffff1663a9059cbb33836040518363ffffffff1660e01b815260040161028e92919061083f565b6020604051808303816000875af11580156102ad573d6000803e3d6000fd5b505050506040513d601f19601f820116820180604052508101906102d191906108a0565b5080600160003373ffffffffffffffffffffffffffffffffffffffff1673ffffffffffffffffffffffffffffffffffffffff168152602001908152602001600020600082825461032191906108fc565b9250508190555050565b60008054906101000a900473ffffffffffffffffffffffffffffffffffffffff1673ffffffffffffffffffffffffffffffffffffffff166323b872dd3330846040518463ffffffff1660e01b815260040161038893929190610930565b6020604051808303816000875af11580156103a7573d6000803e3d6000fd5b505050506040513d601f19601f820116820180604052508101906103cb91906108a0565b5080600160003373ffffffffffffffffffffffffffffffffffffffff1673ffffffffffffffffffffffffffffffffffffffff168152602001908152602001600020600082825461041b9190610967565b9250508190555050565b600260009054906101000a900473ffffffffffffffffffffffffffffffffffffffff1673ffffffffffffffffffffffffffffffffffffffff163373ffffffffffffffffffffffffffffffffffffffff161461047f57600080fd5b80600360006101000a81548173ffffffffffffffffffffffffffffffffffffffff021916908373ffffffffffffffffffffffffffffffffffffffff16021790555050565b60008060009054906101000a900473ffffffffffffffffffffffffffffffffffffffff16905090565b600360009054906101000a900473ffffffffffffffffffffffffffffffffffffffff1673ffffffffffffffffffffffffffffffffffffffff163373ffffffffffffffffffffffffffffffffffffffff161461054657600080fd5b60008054906101000a900473ffffffffffffffffffffffffffffffffffffffff1673ffffffffffffffffffffffffffffffffffffffff1663a9059cbb83836040518363ffffffff1660e01b81526004016105a192919061083f565b6020604051808303816000875af11580156105c0573d6000803e3d6000fd5b505050506040513d601f19601f820116820180604052508101906105e491906108a0565b505050565b6000600160008373ffffffffffffffffffffffffffffffffffffffff1673ffffffffffffffffffffffffffffffffffffffff168152602001908152602001600020549050919050565b60006001905090565b600080fd5b600073ffffffffffffffffffffffffffffffffffffffff82169050919050565b600061066b82610640565b9050919050565b61067b81610660565b811461068657600080fd5b50565b60008135905061069881610672565b92915050565b6000602082840312156106b4576106b361063b565b5b60006106c284828501610689565b91505092915050565b6000819050919050565b6106de816106cb565b82525050565b60006020820190506106f960008301846106d5565b92915050565b610708816106cb565b811461071357600080fd5b50565b600081359050610725816106ff565b92915050565b6000602082840312156107415761074061063b565b5b600061074f84828501610716565b91505092915050565b61076181610660565b82525050565b600060208201905061077c6000830184610758565b92915050565b600080604083850312156107995761079861063b565b5b60006107a785828601610689565b92505060206107b885828601610716565b9150509250929050565b600082825260208201905092915050565b7f496e73756666696369656e742062616c616e6365000000000000000000000000600082015250565b60006108096014836107c2565b9150610814826107d3565b602082019050919050565b60006020820190508181036000830152610838816107fc565b9050919050565b60006040820190506108546000830185610758565b61086160208301846106d5565b9392505050565b60008115159050919050565b61087d81610868565b811461088857600080fd5b50565b60008151905061089a81610874565b92915050565b6000602082840312156108b6576108b561063b565b5b60006108c48482850161088b565b91505092915050565b7f4e487b7100000000000000000000000000000000000000000000000000000000600052601160045260246000fd5b6000610907826106cb565b9150610912836106cb565b925082820390508181111561092a576109296108cd565b5b92915050565b60006060820190506109456000830186610758565b6109526020830185610758565b61095f60408301846106d5565b949350505050565b6000610972826106cb565b915061097d836106cb565b9250828201905080821115610995576109946108cd565b5b9291505056fea26469706673582212201fefaee3e97ed3d876a390fe671c760674a9693afcc065e5f16fdf641ad9846d64736f6c63430008180033",
		"opcodes": "PUSH1 0x80 PUSH1 0x40 MSTORE CALLVALUE DUP1 ISZERO PUSH2 0x10 JUMPI PUSH1 0x0 DUP1 REVERT JUMPDEST POP PUSH1 0x4 CALLDATASIZE LT PUSH2 0x88 JUMPI PUSH1 0x0 CALLDATALOAD PUSH1 0xE0 SHR DUP1 PUSH4 0x670AB5E9 GT PUSH2 0x5B JUMPI DUP1 PUSH4 0x670AB5E9 EQ PUSH2 0x111 JUMPI DUP1 PUSH4 0x683AE083 EQ PUSH2 0x12F JUMPI DUP1 PUSH4 0xAC75409A EQ PUSH2 0x14B JUMPI DUP1 PUSH4 0xE54F0880 EQ PUSH2 0x17B JUMPI PUSH2 0x88 JUMP JUMPDEST DUP1 PUSH4 0x27E235E3 EQ PUSH2 0x8D JUMPI DUP1 PUSH4 0x2E1A7D4D EQ PUSH2 0xBD JUMPI DUP1 PUSH4 0x35403023 EQ PUSH2 0xD9 JUMPI DUP1 PUSH4 0x4437152A EQ PUSH2 0xF5 JUMPI JUMPDEST PUSH1 0x0 DUP1 REVERT JUMPDEST PUSH2 0xA7 PUSH1 0x4 DUP1 CALLDATASIZE SUB DUP2 ADD SWAP1 PUSH2 0xA2 SWAP2 SWAP1 PUSH2 0x69E JUMP JUMPDEST PUSH2 0x199 JUMP JUMPDEST PUSH1 0x40 MLOAD PUSH2 0xB4 SWAP2 SWAP1 PUSH2 0x6E4 JUMP JUMPDEST PUSH1 0x40 MLOAD DUP1 SWAP2 SUB SWAP1 RETURN JUMPDEST PUSH2 0xD7 PUSH1 0x4 DUP1 CALLDATASIZE SUB DUP2 ADD SWAP1 PUSH2 0xD2 SWAP2 SWAP1 PUSH2 0x72B JUMP JUMPDEST PUSH2 0x1B1 JUMP JUMPDEST STOP JUMPDEST PUSH2 0xF3 PUSH1 0x4 DUP1 CALLDATASIZE SUB DUP2 ADD SWAP1 PUSH2 0xEE SWAP2 SWAP1 PUSH2 0x72B JUMP JUMPDEST PUSH2 0x32B JUMP JUMPDEST STOP JUMPDEST PUSH2 0x10F PUSH1 0x4 DUP1 CALLDATASIZE SUB DUP2 ADD SWAP1 PUSH2 0x10A SWAP2 SWAP1 PUSH2 0x69E JUMP JUMPDEST PUSH2 0x425 JUMP JUMPDEST STOP JUMPDEST PUSH2 0x119 PUSH2 0x4C3 JUMP JUMPDEST PUSH1 0x40 MLOAD PUSH2 0x126 SWAP2 SWAP1 PUSH2 0x767 JUMP JUMPDEST PUSH1 0x40 MLOAD DUP1 SWAP2 SUB SWAP1 RETURN JUMPDEST PUSH2 0x149 PUSH1 0x4 DUP1 CALLDATASIZE SUB DUP2 ADD SWAP1 PUSH2 0x144 SWAP2 SWAP1 PUSH2 0x782 JUMP JUMPDEST PUSH2 0x4EC JUMP JUMPDEST STOP JUMPDEST PUSH2 0x165 PUSH1 0x4 DUP1 CALLDATASIZE SUB DUP2 ADD SWAP1 PUSH2 0x160 SWAP2 SWAP1 PUSH2 0x69E JUMP JUMPDEST PUSH2 0x5E9 JUMP JUMPDEST PUSH1 0x40 MLOAD PUSH2 0x172 SWAP2 SWAP1 PUSH2 0x6E4 JUMP JUMPDEST PUSH1 0x40 MLOAD DUP1 SWAP2 SUB SWAP1 RETURN JUMPDEST PUSH2 0x183 PUSH2 0x632 JUMP JUMPDEST PUSH1 0x40 MLOAD PUSH2 0x190 SWAP2 SWAP1 PUSH2 0x6E4 JUMP JUMPDEST PUSH1 0x40 MLOAD DUP1 SWAP2 SUB SWAP1 RETURN JUMPDEST PUSH1 0x1 PUSH1 0x20 MSTORE DUP1 PUSH1 0x0 MSTORE PUSH1 0x40 PUSH1 0x0 KECCAK256 PUSH1 0x0 SWAP2 POP SWAP1 POP SLOAD DUP2 JUMP JUMPDEST DUP1 PUSH1 0x1 PUSH1 0x0 CALLER PUSH20 0xFFFFFFFFFFFFFFFFFFFFFFFFFFFFFFFFFFFFFFFF AND PUSH20 0xFFFFFFFFFFFFFFFFFFFFFFFFFFFFFFFFFFFFFFFF AND DUP2 MSTORE PUSH1 0x20 ADD SWAP1 DUP2 MSTORE PUSH1 0x20 ADD PUSH1 0x0 KECCAK256 SLOAD LT ISZERO PUSH2 0x233 JUMPI PUSH1 0x40 MLOAD PUSH32 0x8C379A000000000000000000000000000000000000000000000000000000000 DUP2 MSTORE PUSH1 0x4 ADD PUSH2 0x22A SWAP1 PUSH2 0x81F JUMP JUMPDEST PUSH1 0x40 MLOAD DUP1 SWAP2 SUB SWAP1 REVERT JUMPDEST PUSH1 0x0 DUP1 SLOAD SWAP1 PUSH2 0x100 EXP SWAP1 DIV PUSH20 0xFFFFFFFFFFFFFFFFFFFFFFFFFFFFFFFFFFFFFFFF AND PUSH20 0xFFFFFFFFFFFFFFFFFFFFFFFFFFFFFFFFFFFFFFFF AND PUSH4 0xA9059CBB CALLER DUP4 PUSH1 0x40 MLOAD DUP4 PUSH4 0xFFFFFFFF AND PUSH1 0xE0 SHL DUP2 MSTORE PUSH1 0x4 ADD PUSH2 0x28E SWAP3 SWAP2 SWAP1 PUSH2 0x83F JUMP JUMPDEST PUSH1 0x20 PUSH1 0x40 MLOAD DUP1 DUP4 SUB DUP2 PUSH1 0x0 DUP8 GAS CALL ISZERO DUP1 ISZERO PUSH2 0x2AD JUMPI RETURNDATASIZE PUSH1 0x0 DUP1 RETURNDATACOPY RETURNDATASIZE PUSH1 0x0 REVERT JUMPDEST POP POP POP POP PUSH1 0x40 MLOAD RETURNDATASIZE PUSH1 0x1F NOT PUSH1 0x1F DUP3 ADD AND DUP3 ADD DUP1 PUSH1 0x40 MSTORE POP DUP2 ADD SWAP1 PUSH2 0x2D1 SWAP2 SWAP1 PUSH2 0x8A0 JUMP JUMPDEST POP DUP1 PUSH1 0x1 PUSH1 0x0 CALLER PUSH20 0xFFFFFFFFFFFFFFFFFFFFFFFFFFFFFFFFFFFFFFFF AND PUSH20 0xFFFFFFFFFFFFFFFFFFFFFFFFFFFFFFFFFFFFFFFF AND DUP2 MSTORE PUSH1 0x20 ADD SWAP1 DUP2 MSTORE PUSH1 0x20 ADD PUSH1 0x0 KECCAK256 PUSH1 0x0 DUP3 DUP3 SLOAD PUSH2 0x321 SWAP2 SWAP1 PUSH2 0x8FC JUMP JUMPDEST SWAP3 POP POP DUP2 SWAP1 SSTORE POP POP JUMP JUMPDEST PUSH1 0x0 DUP1 SLOAD SWAP1 PUSH2 0x100 EXP SWAP1 DIV PUSH20 0xFFFFFFFFFFFFFFFFFFFFFFFFFFFFFFFFFFFFFFFF AND PUSH20 0xFFFFFFFFFFFFFFFFFFFFFFFFFFFFFFFFFFFFFFFF AND PUSH4 0x23B872DD CALLER ADDRESS DUP5 PUSH1 0x40 MLOAD DUP5 PUSH4 0xFFFFFFFF AND PUSH1 0xE0 SHL DUP2 MSTORE PUSH1 0x4 ADD PUSH2 0x388 SWAP4 SWAP3 SWAP2 SWAP1 PUSH2 0x930 JUMP JUMPDEST PUSH1 0x20 PUSH1 0x40 MLOAD DUP1 DUP4 SUB DUP2 PUSH1 0x0 DUP8 GAS CALL ISZERO DUP1 ISZERO PUSH2 0x3A7 JUMPI RETURNDATASIZE PUSH1 0x0 DUP1 RETURNDATACOPY RETURNDATASIZE PUSH1 0x0 REVERT JUMPDEST POP POP POP POP PUSH1 0x40 MLOAD RETURNDATASIZE PUSH1 0x1F NOT PUSH1 0x1F DUP3 ADD AND DUP3 ADD DUP1 PUSH1 0x40 MSTORE POP DUP2 ADD SWAP1 PUSH2 0x3CB SWAP2 SWAP1 PUSH2 0x8A0 JUMP JUMPDEST POP DUP1 PUSH1 0x1 PUSH1 0x0 CALLER PUSH20 0xFFFFFFFFFFFFFFFFFFFFFFFFFFFFFFFFFFFFFFFF AND PUSH20 0xFFFFFFFFFFFFFFFFFFFFFFFFFFFFFFFFFFFFFFFF AND DUP2 MSTORE PUSH1 0x20 ADD SWAP1 DUP2 MSTORE PUSH1 0x20 ADD PUSH1 0x0 KECCAK256 PUSH1 0x0 DUP3 DUP3 SLOAD PUSH2 0x41B SWAP2 SWAP1 PUSH2 0x967 JUMP JUMPDEST SWAP3 POP POP DUP2 SWAP1 SSTORE POP POP JUMP JUMPDEST PUSH1 0x2 PUSH1 0x0 SWAP1 SLOAD SWAP1 PUSH2 0x100 EXP SWAP1 DIV PUSH20 0xFFFFFFFFFFFFFFFFFFFFFFFFFFFFFFFFFFFFFFFF AND PUSH20 0xFFFFFFFFFFFFFFFFFFFFFFFFFFFFFFFFFFFFFFFF AND CALLER PUSH20 0xFFFFFFFFFFFFFFFFFFFFFFFFFFFFFFFFFFFFFFFF AND EQ PUSH2 0x47F JUMPI PUSH1 0x0 DUP1 REVERT JUMPDEST DUP1 PUSH1 0x3 PUSH1 0x0 PUSH2 0x100 EXP DUP2 SLOAD DUP2 PUSH20 0xFFFFFFFFFFFFFFFFFFFFFFFFFFFFFFFFFFFFFFFF MUL NOT AND SWAP1 DUP4 PUSH20 0xFFFFFFFFFFFFFFFFFFFFFFFFFFFFFFFFFFFFFFFF AND MUL OR SWAP1 SSTORE POP POP JUMP JUMPDEST PUSH1 0x0 DUP1 PUSH1 0x0 SWAP1 SLOAD SWAP1 PUSH2 0x100 EXP SWAP1 DIV PUSH20 0xFFFFFFFFFFFFFFFFFFFFFFFFFFFFFFFFFFFFFFFF AND SWAP1 POP SWAP1 JUMP JUMPDEST PUSH1 0x3 PUSH1 0x0 SWAP1 SLOAD SWAP1 PUSH2 0x100 EXP SWAP1 DIV PUSH20 0xFFFFFFFFFFFFFFFFFFFFFFFFFFFFFFFFFFFFFFFF AND PUSH20 0xFFFFFFFFFFFFFFFFFFFFFFFFFFFFFFFFFFFFFFFF AND CALLER PUSH20 0xFFFFFFFFFFFFFFFFFFFFFFFFFFFFFFFFFFFFFFFF AND EQ PUSH2 0x546 JUMPI PUSH1 0x0 DUP1 REVERT JUMPDEST PUSH1 0x0 DUP1 SLOAD SWAP1 PUSH2 0x100 EXP SWAP1 DIV PUSH20 0xFFFFFFFFFFFFFFFFFFFFFFFFFFFFFFFFFFFFFFFF AND PUSH20 0xFFFFFFFFFFFFFFFFFFFFFFFFFFFFFFFFFFFFFFFF AND PUSH4 0xA9059CBB DUP4 DUP4 PUSH1 0x40 MLOAD DUP4 PUSH4 0xFFFFFFFF AND PUSH1 0xE0 SHL DUP2 MSTORE PUSH1 0x4 ADD PUSH2 0x5A1 SWAP3 SWAP2 SWAP1 PUSH2 0x83F JUMP JUMPDEST PUSH1 0x20 PUSH1 0x40 MLOAD DUP1 DUP4 SUB DUP2 PUSH1 0x0 DUP8 GAS CALL ISZERO DUP1 ISZERO PUSH2 0x5C0 JUMPI RETURNDATASIZE PUSH1 0x0 DUP1 RETURNDATACOPY RETURNDATASIZE PUSH1 0x0 REVERT JUMPDEST POP POP POP POP PUSH1 0x40 MLOAD RETURNDATASIZE PUSH1 0x1F NOT PUSH1 0x1F DUP3 ADD AND DUP3 ADD DUP1 PUSH1 0x40 MSTORE POP DUP2 ADD SWAP1 PUSH2 0x5E4 SWAP2 SWAP1 PUSH2 0x8A0 JUMP JUMPDEST POP POP POP JUMP JUMPDEST PUSH1 0x0 PUSH1 0x1 PUSH1 0x0 DUP4 PUSH20 0xFFFFFFFFFFFFFFFFFFFFFFFFFFFFFFFFFFFFFFFF AND PUSH20 0xFFFFFFFFFFFFFFFFFFFFFFFFFFFFFFFFFFFFFFFF AND DUP2 MSTORE PUSH1 0x20 ADD SWAP1 DUP2 MSTORE PUSH1 0x20 ADD PUSH1 0x0 KECCAK256 SLOAD SWAP1 POP SWAP2 SWAP1 POP JUMP JUMPDEST PUSH1 0x0 PUSH1 0x1 SWAP1 POP SWAP1 JUMP JUMPDEST PUSH1 0x0 DUP1 REVERT JUMPDEST PUSH1 0x0 PUSH20 0xFFFFFFFFFFFFFFFFFFFFFFFFFFFFFFFFFFFFFFFF DUP3 AND SWAP1 POP SWAP2 SWAP1 POP JUMP JUMPDEST PUSH1 0x0 PUSH2 0x66B DUP3 PUSH2 0x640 JUMP JUMPDEST SWAP1 POP SWAP2 SWAP1 POP JUMP JUMPDEST PUSH2 0x67B DUP2 PUSH2 0x660 JUMP JUMPDEST DUP2 EQ PUSH2 0x686 JUMPI PUSH1 0x0 DUP1 REVERT JUMPDEST POP JUMP JUMPDEST PUSH1 0x0 DUP2 CALLDATALOAD SWAP1 POP PUSH2 0x698 DUP2 PUSH2 0x672 JUMP JUMPDEST SWAP3 SWAP2 POP POP JUMP JUMPDEST PUSH1 0x0 PUSH1 0x20 DUP3 DUP5 SUB SLT ISZERO PUSH2 0x6B4 JUMPI PUSH2 0x6B3 PUSH2 0x63B JUMP JUMPDEST JUMPDEST PUSH1 0x0 PUSH2 0x6C2 DUP5 DUP3 DUP6 ADD PUSH2 0x689 JUMP JUMPDEST SWAP2 POP POP SWAP3 SWAP2 POP POP JUMP JUMPDEST PUSH1 0x0 DUP2 SWAP1 POP SWAP2 SWAP1 POP JUMP JUMPDEST PUSH2 0x6DE DUP2 PUSH2 0x6CB JUMP JUMPDEST DUP3 MSTORE POP POP JUMP JUMPDEST PUSH1 0x0 PUSH1 0x20 DUP3 ADD SWAP1 POP PUSH2 0x6F9 PUSH1 0x0 DUP4 ADD DUP5 PUSH2 0x6D5 JUMP JUMPDEST SWAP3 SWAP2 POP POP JUMP JUMPDEST PUSH2 0x708 DUP2 PUSH2 0x6CB JUMP JUMPDEST DUP2 EQ PUSH2 0x713 JUMPI PUSH1 0x0 DUP1 REVERT JUMPDEST POP JUMP JUMPDEST PUSH1 0x0 DUP2 CALLDATALOAD SWAP1 POP PUSH2 0x725 DUP2 PUSH2 0x6FF JUMP JUMPDEST SWAP3 SWAP2 POP POP JUMP JUMPDEST PUSH1 0x0 PUSH1 0x20 DUP3 DUP5 SUB SLT ISZERO PUSH2 0x741 JUMPI PUSH2 0x740 PUSH2 0x63B JUMP JUMPDEST JUMPDEST PUSH1 0x0 PUSH2 0x74F DUP5 DUP3 DUP6 ADD PUSH2 0x716 JUMP JUMPDEST SWAP2 POP POP SWAP3 SWAP2 POP POP JUMP JUMPDEST PUSH2 0x761 DUP2 PUSH2 0x660 JUMP JUMPDEST DUP3 MSTORE POP POP JUMP JUMPDEST PUSH1 0x0 PUSH1 0x20 DUP3 ADD SWAP1 POP PUSH2 0x77C PUSH1 0x0 DUP4 ADD DUP5 PUSH2 0x758 JUMP JUMPDEST SWAP3 SWAP2 POP POP JUMP JUMPDEST PUSH1 0x0 DUP1 PUSH1 0x40 DUP4 DUP6 SUB SLT ISZERO PUSH2 0x799 JUMPI PUSH2 0x798 PUSH2 0x63B JUMP JUMPDEST JUMPDEST PUSH1 0x0 PUSH2 0x7A7 DUP6 DUP3 DUP7 ADD PUSH2 0x689 JUMP JUMPDEST SWAP3 POP POP PUSH1 0x20 PUSH2 0x7B8 DUP6 DUP3 DUP7 ADD PUSH2 0x716 JUMP JUMPDEST SWAP2 POP POP SWAP3 POP SWAP3 SWAP1 POP JUMP JUMPDEST PUSH1 0x0 DUP3 DUP3 MSTORE PUSH1 0x20 DUP3 ADD SWAP1 POP SWAP3 SWAP2 POP POP JUMP JUMPDEST PUSH32 0x496E73756666696369656E742062616C616E6365000000000000000000000000 PUSH1 0x0 DUP3 ADD MSTORE POP JUMP JUMPDEST PUSH1 0x0 PUSH2 0x809 PUSH1 0x14 DUP4 PUSH2 0x7C2 JUMP JUMPDEST SWAP2 POP PUSH2 0x814 DUP3 PUSH2 0x7D3 JUMP JUMPDEST PUSH1 0x20 DUP3 ADD SWAP1 POP SWAP2 SWAP1 POP JUMP JUMPDEST PUSH1 0x0 PUSH1 0x20 DUP3 ADD SWAP1 POP DUP2 DUP2 SUB PUSH1 0x0 DUP4 ADD MSTORE PUSH2 0x838 DUP2 PUSH2 0x7FC JUMP JUMPDEST SWAP1 POP SWAP2 SWAP1 POP JUMP JUMPDEST PUSH1 0x0 PUSH1 0x40 DUP3 ADD SWAP1 POP PUSH2 0x854 PUSH1 0x0 DUP4 ADD DUP6 PUSH2 0x758 JUMP JUMPDEST PUSH2 0x861 PUSH1 0x20 DUP4 ADD DUP5 PUSH2 0x6D5 JUMP JUMPDEST SWAP4 SWAP3 POP POP POP JUMP JUMPDEST PUSH1 0x0 DUP2 ISZERO ISZERO SWAP1 POP SWAP2 SWAP1 POP JUMP JUMPDEST PUSH2 0x87D DUP2 PUSH2 0x868 JUMP JUMPDEST DUP2 EQ PUSH2 0x888 JUMPI PUSH1 0x0 DUP1 REVERT JUMPDEST POP JUMP JUMPDEST PUSH1 0x0 DUP2 MLOAD SWAP1 POP PUSH2 0x89A DUP2 PUSH2 0x874 JUMP JUMPDEST SWAP3 SWAP2 POP POP JUMP JUMPDEST PUSH1 0x0 PUSH1 0x20 DUP3 DUP5 SUB SLT ISZERO PUSH2 0x8B6 JUMPI PUSH2 0x8B5 PUSH2 0x63B JUMP JUMPDEST JUMPDEST PUSH1 0x0 PUSH2 0x8C4 DUP5 DUP3 DUP6 ADD PUSH2 0x88B JUMP JUMPDEST SWAP2 POP POP SWAP3 SWAP2 POP POP JUMP JUMPDEST PUSH32 0x4E487B7100000000000000000000000000000000000000000000000000000000 PUSH1 0x0 MSTORE PUSH1 0x11 PUSH1 0x4 MSTORE PUSH1 0x24 PUSH1 0x0 REVERT JUMPDEST PUSH1 0x0 PUSH2 0x907 DUP3 PUSH2 0x6CB JUMP JUMPDEST SWAP2 POP PUSH2 0x912 DUP4 PUSH2 0x6CB JUMP JUMPDEST SWAP3 POP DUP3 DUP3 SUB SWAP1 POP DUP2 DUP2 GT ISZERO PUSH2 0x92A JUMPI PUSH2 0x929 PUSH2 0x8CD JUMP JUMPDEST JUMPDEST SWAP3 SWAP2 POP POP JUMP JUMPDEST PUSH1 0x0 PUSH1 0x60 DUP3 ADD SWAP1 POP PUSH2 0x945 PUSH1 0x0 DUP4 ADD DUP7 PUSH2 0x758 JUMP JUMPDEST PUSH2 0x952 PUSH1 0x20 DUP4 ADD DUP6 PUSH2 0x758 JUMP JUMPDEST PUSH2 0x95F PUSH1 0x40 DUP4 ADD DUP5 PUSH2 0x6D5 JUMP JUMPDEST SWAP5 SWAP4 POP POP POP POP JUMP JUMPDEST PUSH1 0x0 PUSH2 0x972 DUP3 PUSH2 0x6CB JUMP JUMPDEST SWAP2 POP PUSH2 0x97D DUP4 PUSH2 0x6CB JUMP JUMPDEST SWAP3 POP DUP3 DUP3 ADD SWAP1 POP DUP1 DUP3 GT ISZERO PUSH2 0x995 JUMPI PUSH2 0x994 PUSH2 0x8CD JUMP JUMPDEST JUMPDEST SWAP3 SWAP2 POP POP JUMP INVALID LOG2 PUSH5 0x6970667358 0x22 SLT KECCAK256 0x1F 0xEF 0xAE 0xE3 0xE9 PUSH31 0xD3D876A390FE671C760674A9693AFCC065E5F16FDF641AD9846D64736F6C63 NUMBER STOP ADDMOD XOR STOP CALLER "
	},
	"Assembly": ".code\n  PUSH 80\t\t\tcontract USDCReserve {\\n\\n    ...\n  PUSH 40\t\t\tcontract USDCReserve {\\n\\n    ...\n  MSTORE \t\t\tcontract USDCReserve {\\n\\n    ...\n  CALLVALUE \t\t\tconstructor(address _usdc) {\\n...\n  DUP1 \t\t\tconstructor(address _usdc) {\\n...\n  ISZERO \t\t\tconstructor(address _usdc) {\\n...\n  PUSH [tag] 1\t\t\tconstructor(address _usdc) {\\n...\n  JUMPI \t\t\tconstructor(address _usdc) {\\n...\n  PUSH 0\t\t\tconstructor(address _usdc) {\\n...\n  DUP1 \t\t\tconstructor(address _usdc) {\\n...\n  REVERT \t\t\tconstructor(address _usdc) {\\n...\ntag 1\t\t\tconstructor(address _usdc) {\\n...\n  JUMPDEST \t\t\tconstructor(address _usdc) {\\n...\n  POP \t\t\tconstructor(address _usdc) {\\n...\n  PUSH 40\t\t\tconstructor(address _usdc) {\\n...\n  MLOAD \t\t\tconstructor(address _usdc) {\\n...\n  PUSHSIZE \t\t\tconstructor(address _usdc) {\\n...\n  CODESIZE \t\t\tconstructor(address _usdc) {\\n...\n  SUB \t\t\tconstructor(address _usdc) {\\n...\n  DUP1 \t\t\tconstructor(address _usdc) {\\n...\n  PUSHSIZE \t\t\tconstructor(address _usdc) {\\n...\n  DUP4 \t\t\tconstructor(address _usdc) {\\n...\n  CODECOPY \t\t\tconstructor(address _usdc) {\\n...\n  DUP2 \t\t\tconstructor(address _usdc) {\\n...\n  DUP2 \t\t\tconstructor(address _usdc) {\\n...\n  ADD \t\t\tconstructor(address _usdc) {\\n...\n  PUSH 40\t\t\tconstructor(address _usdc) {\\n...\n  MSTORE \t\t\tconstructor(address _usdc) {\\n...\n  DUP2 \t\t\tconstructor(address _usdc) {\\n...\n  ADD \t\t\tconstructor(address _usdc) {\\n...\n  SWAP1 \t\t\tconstructor(address _usdc) {\\n...\n  PUSH [tag] 2\t\t\tconstructor(address _usdc) {\\n...\n  SWAP2 \t\t\tconstructor(address _usdc) {\\n...\n  SWAP1 \t\t\tconstructor(address _usdc) {\\n...\n  PUSH [tag] 3\t\t\tconstructor(address _usdc) {\\n...\n  JUMP \t\t\tconstructor(address _usdc) {\\n...\ntag 2\t\t\tconstructor(address _usdc) {\\n...\n  JUMPDEST \t\t\tconstructor(address _usdc) {\\n...\n  DUP1 \t\t\t_usdc\n  PUSH 0\t\t\tusdc\n  DUP1 \t\t\tusdc\n  PUSH 100\t\t\tusdc = IERC20(_usdc)\n  EXP \t\t\tusdc = IERC20(_usdc)\n  DUP2 \t\t\tusdc = IERC20(_usdc)\n  SLOAD \t\t\tusdc = IERC20(_usdc)\n  DUP2 \t\t\tusdc = IERC20(_usdc)\n  PUSH FFFFFFFFFFFFFFFFFFFFFFFFFFFFFFFFFFFFFFFF\t\t\tusdc = IERC20(_usdc)\n  MUL \t\t\tusdc = IERC20(_usdc)\n  NOT \t\t\tusdc = IERC20(_usdc)\n  AND \t\t\tusdc = IERC20(_usdc)\n  SWAP1 \t\t\tusdc = IERC20(_usdc)\n  DUP4 \t\t\tusdc = IERC20(_usdc)\n  PUSH FFFFFFFFFFFFFFFFFFFFFFFFFFFFFFFFFFFFFFFF\t\t\tusdc = IERC20(_usdc)\n  AND \t\t\tusdc = IERC20(_usdc)\n  MUL \t\t\tusdc = IERC20(_usdc)\n  OR \t\t\tusdc = IERC20(_usdc)\n  SWAP1 \t\t\tusdc = IERC20(_usdc)\n  SSTORE \t\t\tusdc = IERC20(_usdc)\n  POP \t\t\tusdc = IERC20(_usdc)\n  CALLER \t\t\tmsg.sender\n  PUSH 2\t\t\towner\n  PUSH 0\t\t\towner\n  PUSH 100\t\t\towner = msg.sender\n  EXP \t\t\towner = msg.sender\n  DUP2 \t\t\towner = msg.sender\n  SLOAD \t\t\towner = msg.sender\n  DUP2 \t\t\towner = msg.sender\n  PUSH FFFFFFFFFFFFFFFFFFFFFFFFFFFFFFFFFFFFFFFF\t\t\towner = msg.sender\n  MUL \t\t\towner = msg.sender\n  NOT \t\t\towner = msg.sender\n  AND \t\t\towner = msg.sender\n  SWAP1 \t\t\towner = msg.sender\n  DUP4 \t\t\towner = msg.sender\n  PUSH FFFFFFFFFFFFFFFFFFFFFFFFFFFFFFFFFFFFFFFF\t\t\towner = msg.sender\n  AND \t\t\towner = msg.sender\n  MUL \t\t\towner = msg.sender\n  OR \t\t\towner = msg.sender\n  SWAP1 \t\t\towner = msg.sender\n  SSTORE \t\t\towner = msg.sender\n  POP \t\t\towner = msg.sender\n  POP \t\t\tconstructor(address _usdc) {\\n...\n  PUSH [tag] 6\t\t\tcontract USDCReserve {\\n\\n    ...\n  JUMP \t\t\tcontract USDCReserve {\\n\\n    ...\ntag 8\t\t\t/token/ERC20/IERC20.sol\";\\n\\nc...\n  JUMPDEST \t\t\t/token/ERC20/IERC20.sol\";\\n\\nc...\n  PUSH 0\t\t\tl\n  DUP1 \t\t\t \n  REVERT \t\t\t public bala\ntag 10\t\t\tder;\\n    }\\n\\n    function su...\n  JUMPDEST \t\t\tder;\\n    }\\n\\n    function su...\n  PUSH 0\t\t\t56 amou\n  PUSH FFFFFFFFFFFFFFFFFFFFFFFFFFFFFFFFFFFFFFFF\t\t\tress(usdc)).transferFrom(msg.s...\n  DUP3 \t\t\tC20(a\n  AND \t\t\t IERC20(address(usdc)).transfe...\n  SWAP1 \t\t\tl {\\n        IERC20(address(us...\n  POP \t\t\tl {\\n        IERC20(address(us...\n  SWAP2 \t\t\tder;\\n    }\\n\\n    function su...\n  SWAP1 \t\t\tder;\\n    }\\n\\n    function su...\n  POP \t\t\tder;\\n    }\\n\\n    function su...\n  JUMP \t\t\tder;\\n    }\\n\\n    function su...\ntag 11\t\t\tunt);\\n        balances[msg.se...\n  JUMPDEST \t\t\tunt);\\n        balances[msg.se...\n  PUSH 0\t\t\t amount\n  PUSH [tag] 20\t\t\ttion getSupplyedAmount(a\n  DUP3 \t\t\tount(\n  PUSH [tag] 10\t\t\ttion getSupplyedAmount(a\n  JUMP \t\t\ttion getSupplyedAmount(a\ntag 20\t\t\ttion getSupplyedAmount(a\n  JUMPDEST \t\t\ttion getSupplyedAmount(a\n  SWAP1 \t\t\t \\n\\n    function getSupplyedA...\n  POP \t\t\t \\n\\n    function getSupplyedA...\n  SWAP2 \t\t\tunt);\\n        balances[msg.se...\n  SWAP1 \t\t\tunt);\\n        balances[msg.se...\n  POP \t\t\tunt);\\n        balances[msg.se...\n  JUMP \t\t\tunt);\\n        balances[msg.se...\ntag 12\t\t\t external view returns (uint25...\n  JUMPDEST \t\t\t external view returns (uint25...\n  PUSH [tag] 22\t\t\t    function withdraw(ui\n  DUP2 \t\t\traw(u\n  PUSH [tag] 11\t\t\t    function withdraw(ui\n  JUMP \t\t\t    function withdraw(ui\ntag 22\t\t\t    function withdraw(ui\n  JUMPDEST \t\t\t    function withdraw(ui\n  DUP2 \t\t\t    }\n  EQ \t\t\t];\\n    }\\n\\n    function with...\n  PUSH [tag] 23\t\t\tances[user];\\n    }\\n\\n    fun...\n  JUMPI \t\t\tances[user];\\n    }\\n\\n    fun...\n  PUSH 0\t\t\tx\n  DUP1 \t\t\t)\n  REVERT \t\t\t amount) ext\ntag 23\t\t\tances[user];\\n    }\\n\\n    fun...\n  JUMPDEST \t\t\tances[user];\\n    }\\n\\n    fun...\n  POP \t\t\t external view returns (uint25...\n  JUMP \t\t\t external view returns (uint25...\ntag 13\t\t\t  require(balances[msg.sender]...\n  JUMPDEST \t\t\t  require(balances[msg.sender]...\n  PUSH 0\t\t\talanc\n  DUP2 \t\t\ts(usdc\n  MLOAD \t\t\taddress(usdc)\n  SWAP1 \t\t\t  IERC20(address(usdc)\n  POP \t\t\t  IERC20(address(usdc)\n  PUSH [tag] 25\t\t\tr(msg.sender, amount);\\n      ...\n  DUP2 \t\t\t    b\n  PUSH [tag] 12\t\t\tr(msg.sender, amount);\\n      ...\n  JUMP \t\t\tr(msg.sender, amount);\\n      ...\ntag 25\t\t\tr(msg.sender, amount);\\n      ...\n  JUMPDEST \t\t\tr(msg.sender, amount);\\n      ...\n  SWAP3 \t\t\t  require(balances[msg.sender]...\n  SWAP2 \t\t\t  require(balances[msg.sender]...\n  POP \t\t\t  require(balances[msg.sender]...\n  POP \t\t\t  require(balances[msg.sender]...\n  JUMP \t\t\t  require(balances[msg.sender]...\ntag 3\t\t\tender] -= amount;\\n    }\\n\\n  ...\n  JUMPDEST \t\t\tender] -= amount;\\n    }\\n\\n  ...\n  PUSH 0\t\t\tturns \n  PUSH 20\t\t\tnc\n  DUP3 \t\t\t   }\\n\\n   \n  DUP5 \t\t\tturn 1;\n  SUB \t\t\t  return 1;\\n    }\\n\\n    \n  SLT \t\t\t      return 1;\\n    }\\n\\n    ...\n  ISZERO \t\t\t\\n        return 1;\\n    }\\n\\n...\n  PUSH [tag] 27\t\t\t\\n        return 1;\\n    }\\n\\n...\n  JUMPI \t\t\t\\n        return 1;\\n    }\\n\\n...\n  PUSH [tag] 28\t\t\t getAssetAddress() external vi...\n  PUSH [tag] 8\t\t\t getAssetAddress() external vi...\n  JUMP \t\t\t getAssetAddress() external vi...\ntag 28\t\t\t getAssetAddress() external vi...\n  JUMPDEST \t\t\t getAssetAddress() external vi...\ntag 27\t\t\t\\n        return 1;\\n    }\\n\\n...\n  JUMPDEST \t\t\t\\n        return 1;\\n    }\\n\\n...\n  PUSH 0\t\t\tp\n  PUSH [tag] 29\t\t\tequire(msg.sender == address(o...\n  DUP5 \t\t\tol;\\n   \n  DUP3 \t\t\tool = \n  DUP6 \t\t\t;\\n       \n  ADD \t\t\ter));\\n        pool = _\n  PUSH [tag] 13\t\t\tequire(msg.sender == address(o...\n  JUMP \t\t\tequire(msg.sender == address(o...\ntag 29\t\t\tequire(msg.sender == address(o...\n  JUMPDEST \t\t\tequire(msg.sender == address(o...\n  SWAP2 \t\t\t\\n        require(msg.sender =...\n  POP \t\t\t\\n        require(msg.sender =...\n  POP \t\t\t   function setPool(address _p...\n  SWAP3 \t\t\tender] -= amount;\\n    }\\n\\n  ...\n  SWAP2 \t\t\tender] -= amount;\\n    }\\n\\n  ...\n  POP \t\t\tender] -= amount;\\n    }\\n\\n  ...\n  POP \t\t\tender] -= amount;\\n    }\\n\\n  ...\n  JUMP \t\t\tender] -= amount;\\n    }\\n\\n  ...\ntag 6\t\t\tcontract USDCReserve {\\n\\n    ...\n  JUMPDEST \t\t\tcontract USDCReserve {\\n\\n    ...\n  PUSH #[$] 0000000000000000000000000000000000000000000000000000000000000000\t\t\tcontract USDCReserve {\\n\\n    ...\n  DUP1 \t\t\tcontract USDCReserve {\\n\\n    ...\n  PUSH [$] 0000000000000000000000000000000000000000000000000000000000000000\t\t\tcontract USDCReserve {\\n\\n    ...\n  PUSH 0\t\t\tcontract USDCReserve {\\n\\n    ...\n  CODECOPY \t\t\tcontract USDCReserve {\\n\\n    ...\n  PUSH 0\t\t\tcontract USDCReserve {\\n\\n    ...\n  RETURN \t\t\tcontract USDCReserve {\\n\\n    ...\n.data\n  0:\n    .code\n      PUSH 80\t\t\tcontract USDCReserve {\\n\\n    ...\n      PUSH 40\t\t\tcontract USDCReserve {\\n\\n    ...\n      MSTORE \t\t\tcontract USDCReserve {\\n\\n    ...\n      CALLVALUE \t\t\tcontract USDCReserve {\\n\\n    ...\n      DUP1 \t\t\tcontract USDCReserve {\\n\\n    ...\n      ISZERO \t\t\tcontract USDCReserve {\\n\\n    ...\n      PUSH [tag] 1\t\t\tcontract USDCReserve {\\n\\n    ...\n      JUMPI \t\t\tcontract USDCReserve {\\n\\n    ...\n      PUSH 0\t\t\tcontract USDCReserve {\\n\\n    ...\n      DUP1 \t\t\tcontract USDCReserve {\\n\\n    ...\n      REVERT \t\t\tcontract USDCReserve {\\n\\n    ...\n    tag 1\t\t\tcontract USDCReserve {\\n\\n    ...\n      JUMPDEST \t\t\tcontract USDCReserve {\\n\\n    ...\n      POP \t\t\tcontract USDCReserve {\\n\\n    ...\n      PUSH 4\t\t\tcontract USDCReserve {\\n\\n    ...\n      CALLDATASIZE \t\t\tcontract USDCReserve {\\n\\n    ...\n      LT \t\t\tcontract USDCReserve {\\n\\n    ...\n      PUSH [tag] 2\t\t\tcontract USDCReserve {\\n\\n    ...\n      JUMPI \t\t\tcontract USDCReserve {\\n\\n    ...\n      PUSH 0\t\t\tcontract USDCReserve {\\n\\n    ...\n      CALLDATALOAD \t\t\tcontract USDCReserve {\\n\\n    ...\n      PUSH E0\t\t\tcontract USDCReserve {\\n\\n    ...\n      SHR \t\t\tcontract USDCReserve {\\n\\n    ...\n      DUP1 \t\t\tcontract USDCReserve {\\n\\n    ...\n      PUSH 670AB5E9\t\t\tcontract USDCReserve {\\n\\n    ...\n      GT \t\t\tcontract USDCReserve {\\n\\n    ...\n      PUSH [tag] 11\t\t\tcontract USDCReserve {\\n\\n    ...\n      JUMPI \t\t\tcontract USDCReserve {\\n\\n    ...\n      DUP1 \t\t\tcontract USDCReserve {\\n\\n    ...\n      PUSH 670AB5E9\t\t\tcontract USDCReserve {\\n\\n    ...\n      EQ \t\t\tcontract USDCReserve {\\n\\n    ...\n      PUSH [tag] 7\t\t\tcontract USDCReserve {\\n\\n    ...\n      JUMPI \t\t\tcontract USDCReserve {\\n\\n    ...\n      DUP1 \t\t\tcontract USDCReserve {\\n\\n    ...\n      PUSH 683AE083\t\t\tcontract USDCReserve {\\n\\n    ...\n      EQ \t\t\tcontract USDCReserve {\\n\\n    ...\n      PUSH [tag] 8\t\t\tcontract USDCReserve {\\n\\n    ...\n      JUMPI \t\t\tcontract USDCReserve {\\n\\n    ...\n      DUP1 \t\t\tcontract USDCReserve {\\n\\n    ...\n      PUSH AC75409A\t\t\tcontract USDCReserve {\\n\\n    ...\n      EQ \t\t\tcontract USDCReserve {\\n\\n    ...\n      PUSH [tag] 9\t\t\tcontract USDCReserve {\\n\\n    ...\n      JUMPI \t\t\tcontract USDCReserve {\\n\\n    ...\n      DUP1 \t\t\tcontract USDCReserve {\\n\\n    ...\n      PUSH E54F0880\t\t\tcontract USDCReserve {\\n\\n    ...\n      EQ \t\t\tcontract USDCReserve {\\n\\n    ...\n      PUSH [tag] 10\t\t\tcontract USDCReserve {\\n\\n    ...\n      JUMPI \t\t\tcontract USDCReserve {\\n\\n    ...\n      PUSH [tag] 2\t\t\tcontract USDCReserve {\\n\\n    ...\n      JUMP \t\t\tcontract USDCReserve {\\n\\n    ...\n    tag 11\t\t\tcontract USDCReserve {\\n\\n    ...\n      JUMPDEST \t\t\tcontract USDCReserve {\\n\\n    ...\n      DUP1 \t\t\tcontract USDCReserve {\\n\\n    ...\n      PUSH 27E235E3\t\t\tcontract USDCReserve {\\n\\n    ...\n      EQ \t\t\tcontract USDCReserve {\\n\\n    ...\n      PUSH [tag] 3\t\t\tcontract USDCReserve {\\n\\n    ...\n      JUMPI \t\t\tcontract USDCReserve {\\n\\n    ...\n      DUP1 \t\t\tcontract USDCReserve {\\n\\n    ...\n      PUSH 2E1A7D4D\t\t\tcontract USDCReserve {\\n\\n    ...\n      EQ \t\t\tcontract USDCReserve {\\n\\n    ...\n      PUSH [tag] 4\t\t\tcontract USDCReserve {\\n\\n    ...\n      JUMPI \t\t\tcontract USDCReserve {\\n\\n    ...\n      DUP1 \t\t\tcontract USDCReserve {\\n\\n    ...\n      PUSH 35403023\t\t\tcontract USDCReserve {\\n\\n    ...\n      EQ \t\t\tcontract USDCReserve {\\n\\n    ...\n      PUSH [tag] 5\t\t\tcontract USDCReserve {\\n\\n    ...\n      JUMPI \t\t\tcontract USDCReserve {\\n\\n    ...\n      DUP1 \t\t\tcontract USDCReserve {\\n\\n    ...\n      PUSH 4437152A\t\t\tcontract USDCReserve {\\n\\n    ...\n      EQ \t\t\tcontract USDCReserve {\\n\\n    ...\n      PUSH [tag] 6\t\t\tcontract USDCReserve {\\n\\n    ...\n      JUMPI \t\t\tcontract USDCReserve {\\n\\n    ...\n    tag 2\t\t\tcontract USDCReserve {\\n\\n    ...\n      JUMPDEST \t\t\tcontract USDCReserve {\\n\\n    ...\n      PUSH 0\t\t\tcontract USDCReserve {\\n\\n    ...\n      DUP1 \t\t\tcontract USDCReserve {\\n\\n    ...\n      REVERT \t\t\tcontract USDCReserve {\\n\\n    ...\n    tag 3\t\t\tmapping(address => uint256) pu...\n      JUMPDEST \t\t\tmapping(address => uint256) pu...\n      PUSH [tag] 12\t\t\tmapping(address => uint256) pu...\n      PUSH 4\t\t\tmapping(address => uint256) pu...\n      DUP1 \t\t\tmapping(address => uint256) pu...\n      CALLDATASIZE \t\t\tmapping(address => uint256) pu...\n      SUB \t\t\tmapping(address => uint256) pu...\n      DUP2 \t\t\tmapping(address => uint256) pu...\n      ADD \t\t\tmapping(address => uint256) pu...\n      SWAP1 \t\t\tmapping(address => uint256) pu...\n      PUSH [tag] 13\t\t\tmapping(address => uint256) pu...\n      SWAP2 \t\t\tmapping(address => uint256) pu...\n      SWAP1 \t\t\tmapping(address => uint256) pu...\n      PUSH [tag] 14\t\t\tmapping(address => uint256) pu...\n      JUMP \t\t\tmapping(address => uint256) pu...\n    tag 13\t\t\tmapping(address => uint256) pu...\n      JUMPDEST \t\t\tmapping(address => uint256) pu...\n      PUSH [tag] 15\t\t\tmapping(address => uint256) pu...\n      JUMP \t\t\tmapping(address => uint256) pu...\n    tag 12\t\t\tmapping(address => uint256) pu...\n      JUMPDEST \t\t\tmapping(address => uint256) pu...\n      PUSH 40\t\t\tmapping(address => uint256) pu...\n      MLOAD \t\t\tmapping(address => uint256) pu...\n      PUSH [tag] 16\t\t\tmapping(address => uint256) pu...\n      SWAP2 \t\t\tmapping(address => uint256) pu...\n      SWAP1 \t\t\tmapping(address => uint256) pu...\n      PUSH [tag] 17\t\t\tmapping(address => uint256) pu...\n      JUMP \t\t\tmapping(address => uint256) pu...\n    tag 16\t\t\tmapping(address => uint256) pu...\n      JUMPDEST \t\t\tmapping(address => uint256) pu...\n      PUSH 40\t\t\tmapping(address => uint256) pu...\n      MLOAD \t\t\tmapping(address => uint256) pu...\n      DUP1 \t\t\tmapping(address => uint256) pu...\n      SWAP2 \t\t\tmapping(address => uint256) pu...\n      SUB \t\t\tmapping(address => uint256) pu...\n      SWAP1 \t\t\tmapping(address => uint256) pu...\n      RETURN \t\t\tmapping(address => uint256) pu...\n    tag 4\t\t\tfunction withdraw(uint256 amou...\n      JUMPDEST \t\t\tfunction withdraw(uint256 amou...\n      PUSH [tag] 18\t\t\tfunction withdraw(uint256 amou...\n      PUSH 4\t\t\tfunction withdraw(uint256 amou...\n      DUP1 \t\t\tfunction withdraw(uint256 amou...\n      CALLDATASIZE \t\t\tfunction withdraw(uint256 amou...\n      SUB \t\t\tfunction withdraw(uint256 amou...\n      DUP2 \t\t\tfunction withdraw(uint256 amou...\n      ADD \t\t\tfunction withdraw(uint256 amou...\n      SWAP1 \t\t\tfunction withdraw(uint256 amou...\n      PUSH [tag] 19\t\t\tfunction withdraw(uint256 amou...\n      SWAP2 \t\t\tfunction withdraw(uint256 amou...\n      SWAP1 \t\t\tfunction withdraw(uint256 amou...\n      PUSH [tag] 20\t\t\tfunction withdraw(uint256 amou...\n      JUMP \t\t\tfunction withdraw(uint256 amou...\n    tag 19\t\t\tfunction withdraw(uint256 amou...\n      JUMPDEST \t\t\tfunction withdraw(uint256 amou...\n      PUSH [tag] 21\t\t\tfunction withdraw(uint256 amou...\n      JUMP \t\t\tfunction withdraw(uint256 amou...\n    tag 18\t\t\tfunction withdraw(uint256 amou...\n      JUMPDEST \t\t\tfunction withdraw(uint256 amou...\n      STOP \t\t\tfunction withdraw(uint256 amou...\n    tag 5\t\t\tfunction supply(uint256 amount...\n      JUMPDEST \t\t\tfunction supply(uint256 amount...\n      PUSH [tag] 22\t\t\tfunction supply(uint256 amount...\n      PUSH 4\t\t\tfunction supply(uint256 amount...\n      DUP1 \t\t\tfunction supply(uint256 amount...\n      CALLDATASIZE \t\t\tfunction supply(uint256 amount...\n      SUB \t\t\tfunction supply(uint256 amount...\n      DUP2 \t\t\tfunction supply(uint256 amount...\n      ADD \t\t\tfunction supply(uint256 amount...\n      SWAP1 \t\t\tfunction supply(uint256 amount...\n      PUSH [tag] 23\t\t\tfunction supply(uint256 amount...\n      SWAP2 \t\t\tfunction supply(uint256 amount...\n      SWAP1 \t\t\tfunction supply(uint256 amount...\n      PUSH [tag] 20\t\t\tfunction supply(uint256 amount...\n      JUMP \t\t\tfunction supply(uint256 amount...\n    tag 23\t\t\tfunction supply(uint256 amount...\n      JUMPDEST \t\t\tfunction supply(uint256 amount...\n      PUSH [tag] 24\t\t\tfunction supply(uint256 amount...\n      JUMP \t\t\tfunction supply(uint256 amount...\n    tag 22\t\t\tfunction supply(uint256 amount...\n      JUMPDEST \t\t\tfunction supply(uint256 amount...\n      STOP \t\t\tfunction supply(uint256 amount...\n    tag 6\t\t\tfunction setPool(address _pool...\n      JUMPDEST \t\t\tfunction setPool(address _pool...\n      PUSH [tag] 25\t\t\tfunction setPool(address _pool...\n      PUSH 4\t\t\tfunction setPool(address _pool...\n      DUP1 \t\t\tfunction setPool(address _pool...\n      CALLDATASIZE \t\t\tfunction setPool(address _pool...\n      SUB \t\t\tfunction setPool(address _pool...\n      DUP2 \t\t\tfunction setPool(address _pool...\n      ADD \t\t\tfunction setPool(address _pool...\n      SWAP1 \t\t\tfunction setPool(address _pool...\n      PUSH [tag] 26\t\t\tfunction setPool(address _pool...\n      SWAP2 \t\t\tfunction setPool(address _pool...\n      SWAP1 \t\t\tfunction setPool(address _pool...\n      PUSH [tag] 14\t\t\tfunction setPool(address _pool...\n      JUMP \t\t\tfunction setPool(address _pool...\n    tag 26\t\t\tfunction setPool(address _pool...\n      JUMPDEST \t\t\tfunction setPool(address _pool...\n      PUSH [tag] 27\t\t\tfunction setPool(address _pool...\n      JUMP \t\t\tfunction setPool(address _pool...\n    tag 25\t\t\tfunction setPool(address _pool...\n      JUMPDEST \t\t\tfunction setPool(address _pool...\n      STOP \t\t\tfunction setPool(address _pool...\n    tag 7\t\t\tfunction getAssetAddress() ext...\n      JUMPDEST \t\t\tfunction getAssetAddress() ext...\n      PUSH [tag] 28\t\t\tfunction getAssetAddress() ext...\n      PUSH [tag] 29\t\t\tfunction getAssetAddress() ext...\n      JUMP \t\t\tfunction getAssetAddress() ext...\n    tag 28\t\t\tfunction getAssetAddress() ext...\n      JUMPDEST \t\t\tfunction getAssetAddress() ext...\n      PUSH 40\t\t\tfunction getAssetAddress() ext...\n      MLOAD \t\t\tfunction getAssetAddress() ext...\n      PUSH [tag] 30\t\t\tfunction getAssetAddress() ext...\n      SWAP2 \t\t\tfunction getAssetAddress() ext...\n      SWAP1 \t\t\tfunction getAssetAddress() ext...\n      PUSH [tag] 31\t\t\tfunction getAssetAddress() ext...\n      JUMP \t\t\tfunction getAssetAddress() ext...\n    tag 30\t\t\tfunction getAssetAddress() ext...\n      JUMPDEST \t\t\tfunction getAssetAddress() ext...\n      PUSH 40\t\t\tfunction getAssetAddress() ext...\n      MLOAD \t\t\tfunction getAssetAddress() ext...\n      DUP1 \t\t\tfunction getAssetAddress() ext...\n      SWAP2 \t\t\tfunction getAssetAddress() ext...\n      SUB \t\t\tfunction getAssetAddress() ext...\n      SWAP1 \t\t\tfunction getAssetAddress() ext...\n      RETURN \t\t\tfunction getAssetAddress() ext...\n    tag 8\t\t\tfunction executeTransaction(ad...\n      JUMPDEST \t\t\tfunction executeTransaction(ad...\n      PUSH [tag] 32\t\t\tfunction executeTransaction(ad...\n      PUSH 4\t\t\tfunction executeTransaction(ad...\n      DUP1 \t\t\tfunction executeTransaction(ad...\n      CALLDATASIZE \t\t\tfunction executeTransaction(ad...\n      SUB \t\t\tfunction executeTransaction(ad...\n      DUP2 \t\t\tfunction executeTransaction(ad...\n      ADD \t\t\tfunction executeTransaction(ad...\n      SWAP1 \t\t\tfunction executeTransaction(ad...\n      PUSH [tag] 33\t\t\tfunction executeTransaction(ad...\n      SWAP2 \t\t\tfunction executeTransaction(ad...\n      SWAP1 \t\t\tfunction executeTransaction(ad...\n      PUSH [tag] 34\t\t\tfunction executeTransaction(ad...\n      JUMP \t\t\tfunction executeTransaction(ad...\n    tag 33\t\t\tfunction executeTransaction(ad...\n      JUMPDEST \t\t\tfunction executeTransaction(ad...\n      PUSH [tag] 35\t\t\tfunction executeTransaction(ad...\n      JUMP \t\t\tfunction executeTransaction(ad...\n    tag 32\t\t\tfunction executeTransaction(ad...\n      JUMPDEST \t\t\tfunction executeTransaction(ad...\n      STOP \t\t\tfunction executeTransaction(ad...\n    tag 9\t\t\tfunction getSupplyedAmount(add...\n      JUMPDEST \t\t\tfunction getSupplyedAmount(add...\n      PUSH [tag] 36\t\t\tfunction getSupplyedAmount(add...\n      PUSH 4\t\t\tfunction getSupplyedAmount(add...\n      DUP1 \t\t\tfunction getSupplyedAmount(add...\n      CALLDATASIZE \t\t\tfunction getSupplyedAmount(add...\n      SUB \t\t\tfunction getSupplyedAmount(add...\n      DUP2 \t\t\tfunction getSupplyedAmount(add...\n      ADD \t\t\tfunction getSupplyedAmount(add...\n      SWAP1 \t\t\tfunction getSupplyedAmount(add...\n      PUSH [tag] 37\t\t\tfunction getSupplyedAmount(add...\n      SWAP2 \t\t\tfunction getSupplyedAmount(add...\n      SWAP1 \t\t\tfunction getSupplyedAmount(add...\n      PUSH [tag] 14\t\t\tfunction getSupplyedAmount(add...\n      JUMP \t\t\tfunction getSupplyedAmount(add...\n    tag 37\t\t\tfunction getSupplyedAmount(add...\n      JUMPDEST \t\t\tfunction getSupplyedAmount(add...\n      PUSH [tag] 38\t\t\tfunction getSupplyedAmount(add...\n      JUMP \t\t\tfunction getSupplyedAmount(add...\n    tag 36\t\t\tfunction getSupplyedAmount(add...\n      JUMPDEST \t\t\tfunction getSupplyedAmount(add...\n      PUSH 40\t\t\tfunction getSupplyedAmount(add...\n      MLOAD \t\t\tfunction getSupplyedAmount(add...\n      PUSH [tag] 39\t\t\tfunction getSupplyedAmount(add...\n      SWAP2 \t\t\tfunction getSupplyedAmount(add...\n      SWAP1 \t\t\tfunction getSupplyedAmount(add...\n      PUSH [tag] 17\t\t\tfunction getSupplyedAmount(add...\n      JUMP \t\t\tfunction getSupplyedAmount(add...\n    tag 39\t\t\tfunction getSupplyedAmount(add...\n      JUMPDEST \t\t\tfunction getSupplyedAmount(add...\n      PUSH 40\t\t\tfunction getSupplyedAmount(add...\n      MLOAD \t\t\tfunction getSupplyedAmount(add...\n      DUP1 \t\t\tfunction getSupplyedAmount(add...\n      SWAP2 \t\t\tfunction getSupplyedAmount(add...\n      SUB \t\t\tfunction getSupplyedAmount(add...\n      SWAP1 \t\t\tfunction getSupplyedAmount(add...\n      RETURN \t\t\tfunction getSupplyedAmount(add...\n    tag 10\t\t\tfunction getAssetPrice() exter...\n      JUMPDEST \t\t\tfunction getAssetPrice() exter...\n      PUSH [tag] 40\t\t\tfunction getAssetPrice() exter...\n      PUSH [tag] 41\t\t\tfunction getAssetPrice() exter...\n      JUMP \t\t\tfunction getAssetPrice() exter...\n    tag 40\t\t\tfunction getAssetPrice() exter...\n      JUMPDEST \t\t\tfunction getAssetPrice() exter...\n      PUSH 40\t\t\tfunction getAssetPrice() exter...\n      MLOAD \t\t\tfunction getAssetPrice() exter...\n      PUSH [tag] 42\t\t\tfunction getAssetPrice() exter...\n      SWAP2 \t\t\tfunction getAssetPrice() exter...\n      SWAP1 \t\t\tfunction getAssetPrice() exter...\n      PUSH [tag] 17\t\t\tfunction getAssetPrice() exter...\n      JUMP \t\t\tfunction getAssetPrice() exter...\n    tag 42\t\t\tfunction getAssetPrice() exter...\n      JUMPDEST \t\t\tfunction getAssetPrice() exter...\n      PUSH 40\t\t\tfunction getAssetPrice() exter...\n      MLOAD \t\t\tfunction getAssetPrice() exter...\n      DUP1 \t\t\tfunction getAssetPrice() exter...\n      SWAP2 \t\t\tfunction getAssetPrice() exter...\n      SUB \t\t\tfunction getAssetPrice() exter...\n      SWAP1 \t\t\tfunction getAssetPrice() exter...\n      RETURN \t\t\tfunction getAssetPrice() exter...\n    tag 15\t\t\tmapping(address => uint256) pu...\n      JUMPDEST \t\t\tmapping(address => uint256) pu...\n      PUSH 1\t\t\tmapping(address => uint256) pu...\n      PUSH 20\t\t\tmapping(address => uint256) pu...\n      MSTORE \t\t\tmapping(address => uint256) pu...\n      DUP1 \t\t\tmapping(address => uint256) pu...\n      PUSH 0\t\t\tmapping(address => uint256) pu...\n      MSTORE \t\t\tmapping(address => uint256) pu...\n      PUSH 40\t\t\tmapping(address => uint256) pu...\n      PUSH 0\t\t\tmapping(address => uint256) pu...\n      KECCAK256 \t\t\tmapping(address => uint256) pu...\n      PUSH 0\t\t\tmapping(address => uint256) pu...\n      SWAP2 \t\t\tmapping(address => uint256) pu...\n      POP \t\t\tmapping(address => uint256) pu...\n      SWAP1 \t\t\tmapping(address => uint256) pu...\n      POP \t\t\tmapping(address => uint256) pu...\n      SLOAD \t\t\tmapping(address => uint256) pu...\n      DUP2 \t\t\tmapping(address => uint256) pu...\n      JUMP \t\t\tmapping(address => uint256) pu...\n    tag 21\t\t\tfunction withdraw(uint256 amou...\n      JUMPDEST \t\t\tfunction withdraw(uint256 amou...\n      DUP1 \t\t\tamount\n      PUSH 1\t\t\tbalances\n      PUSH 0\t\t\tbalances[msg.sender]\n      CALLER \t\t\tmsg.sender\n      PUSH FFFFFFFFFFFFFFFFFFFFFFFFFFFFFFFFFFFFFFFF\t\t\tbalances[msg.sender]\n      AND \t\t\tbalances[msg.sender]\n      PUSH FFFFFFFFFFFFFFFFFFFFFFFFFFFFFFFFFFFFFFFF\t\t\tbalances[msg.sender]\n      AND \t\t\tbalances[msg.sender]\n      DUP2 \t\t\tbalances[msg.sender]\n      MSTORE \t\t\tbalances[msg.sender]\n      PUSH 20\t\t\tbalances[msg.sender]\n      ADD \t\t\tbalances[msg.sender]\n      SWAP1 \t\t\tbalances[msg.sender]\n      DUP2 \t\t\tbalances[msg.sender]\n      MSTORE \t\t\tbalances[msg.sender]\n      PUSH 20\t\t\tbalances[msg.sender]\n      ADD \t\t\tbalances[msg.sender]\n      PUSH 0\t\t\tbalances[msg.sender]\n      KECCAK256 \t\t\tbalances[msg.sender]\n      SLOAD \t\t\tbalances[msg.sender]\n      LT \t\t\tbalances[msg.sender] >= amount\n      ISZERO \t\t\tbalances[msg.sender] >= amount\n      PUSH [tag] 44\t\t\trequire(balances[msg.sender] >...\n      JUMPI \t\t\trequire(balances[msg.sender] >...\n      PUSH 40\t\t\trequire(balances[msg.sender] >...\n      MLOAD \t\t\trequire(balances[msg.sender] >...\n      PUSH 8C379A000000000000000000000000000000000000000000000000000000000\t\t\trequire(balances[msg.sender] >...\n      DUP2 \t\t\trequire(balances[msg.sender] >...\n      MSTORE \t\t\trequire(balances[msg.sender] >...\n      PUSH 4\t\t\trequire(balances[msg.sender] >...\n      ADD \t\t\trequire(balances[msg.sender] >...\n      PUSH [tag] 45\t\t\trequire(balances[msg.sender] >...\n      SWAP1 \t\t\trequire(balances[msg.sender] >...\n      PUSH [tag] 46\t\t\trequire(balances[msg.sender] >...\n      JUMP \t\t\trequire(balances[msg.sender] >...\n    tag 45\t\t\trequire(balances[msg.sender] >...\n      JUMPDEST \t\t\trequire(balances[msg.sender] >...\n      PUSH 40\t\t\trequire(balances[msg.sender] >...\n      MLOAD \t\t\trequire(balances[msg.sender] >...\n      DUP1 \t\t\trequire(balances[msg.sender] >...\n      SWAP2 \t\t\trequire(balances[msg.sender] >...\n      SUB \t\t\trequire(balances[msg.sender] >...\n      SWAP1 \t\t\trequire(balances[msg.sender] >...\n      REVERT \t\t\trequire(balances[msg.sender] >...\n    tag 44\t\t\trequire(balances[msg.sender] >...\n      JUMPDEST \t\t\trequire(balances[msg.sender] >...\n      PUSH 0\t\t\tusdc\n      DUP1 \t\t\tusdc\n      SLOAD \t\t\tusdc\n      SWAP1 \t\t\tusdc\n      PUSH 100\t\t\tusdc\n      EXP \t\t\tusdc\n      SWAP1 \t\t\tusdc\n      DIV \t\t\tusdc\n      PUSH FFFFFFFFFFFFFFFFFFFFFFFFFFFFFFFFFFFFFFFF\t\t\tusdc\n      AND \t\t\tusdc\n      PUSH FFFFFFFFFFFFFFFFFFFFFFFFFFFFFFFFFFFFFFFF\t\t\tIERC20(address(usdc)).transfer\n      AND \t\t\tIERC20(address(usdc)).transfer\n      PUSH A9059CBB\t\t\tIERC20(address(usdc)).transfer\n      CALLER \t\t\tmsg.sender\n      DUP4 \t\t\tamount\n      PUSH 40\t\t\tIERC20(address(usdc)).transfer...\n      MLOAD \t\t\tIERC20(address(usdc)).transfer...\n      DUP4 \t\t\tIERC20(address(usdc)).transfer...\n      PUSH FFFFFFFF\t\t\tIERC20(address(usdc)).transfer...\n      AND \t\t\tIERC20(address(usdc)).transfer...\n      PUSH E0\t\t\tIERC20(address(usdc)).transfer...\n      SHL \t\t\tIERC20(address(usdc)).transfer...\n      DUP2 \t\t\tIERC20(address(usdc)).transfer...\n      MSTORE \t\t\tIERC20(address(usdc)).transfer...\n      PUSH 4\t\t\tIERC20(address(usdc)).transfer...\n      ADD \t\t\tIERC20(address(usdc)).transfer...\n      PUSH [tag] 47\t\t\tIERC20(address(usdc)).transfer...\n      SWAP3 \t\t\tIERC20(address(usdc)).transfer...\n      SWAP2 \t\t\tIERC20(address(usdc)).transfer...\n      SWAP1 \t\t\tIERC20(address(usdc)).transfer...\n      PUSH [tag] 48\t\t\tIERC20(address(usdc)).transfer...\n      JUMP \t\t\tIERC20(address(usdc)).transfer...\n    tag 47\t\t\tIERC20(address(usdc)).transfer...\n      JUMPDEST \t\t\tIERC20(address(usdc)).transfer...\n      PUSH 20\t\t\tIERC20(address(usdc)).transfer...\n      PUSH 40\t\t\tIERC20(address(usdc)).transfer...\n      MLOAD \t\t\tIERC20(address(usdc)).transfer...\n      DUP1 \t\t\tIERC20(address(usdc)).transfer...\n      DUP4 \t\t\tIERC20(address(usdc)).transfer...\n      SUB \t\t\tIERC20(address(usdc)).transfer...\n      DUP2 \t\t\tIERC20(address(usdc)).transfer...\n      PUSH 0\t\t\tIERC20(address(usdc)).transfer...\n      DUP8 \t\t\tIERC20(address(usdc)).transfer...\n      GAS \t\t\tIERC20(address(usdc)).transfer...\n      CALL \t\t\tIERC20(address(usdc)).transfer...\n      ISZERO \t\t\tIERC20(address(usdc)).transfer...\n      DUP1 \t\t\tIERC20(address(usdc)).transfer...\n      ISZERO \t\t\tIERC20(address(usdc)).transfer...\n      PUSH [tag] 50\t\t\tIERC20(address(usdc)).transfer...\n      JUMPI \t\t\tIERC20(address(usdc)).transfer...\n      RETURNDATASIZE \t\t\tIERC20(address(usdc)).transfer...\n      PUSH 0\t\t\tIERC20(address(usdc)).transfer...\n      DUP1 \t\t\tIERC20(address(usdc)).transfer...\n      RETURNDATACOPY \t\t\tIERC20(address(usdc)).transfer...\n      RETURNDATASIZE \t\t\tIERC20(address(usdc)).transfer...\n      PUSH 0\t\t\tIERC20(address(usdc)).transfer...\n      REVERT \t\t\tIERC20(address(usdc)).transfer...\n    tag 50\t\t\tIERC20(address(usdc)).transfer...\n      JUMPDEST \t\t\tIERC20(address(usdc)).transfer...\n      POP \t\t\tIERC20(address(usdc)).transfer...\n      POP \t\t\tIERC20(address(usdc)).transfer...\n      POP \t\t\tIERC20(address(usdc)).transfer...\n      POP \t\t\tIERC20(address(usdc)).transfer...\n      PUSH 40\t\t\tIERC20(address(usdc)).transfer...\n      MLOAD \t\t\tIERC20(address(usdc)).transfer...\n      RETURNDATASIZE \t\t\tIERC20(address(usdc)).transfer...\n      PUSH 1F\t\t\tIERC20(address(usdc)).transfer...\n      NOT \t\t\tIERC20(address(usdc)).transfer...\n      PUSH 1F\t\t\tIERC20(address(usdc)).transfer...\n      DUP3 \t\t\tIERC20(address(usdc)).transfer...\n      ADD \t\t\tIERC20(address(usdc)).transfer...\n      AND \t\t\tIERC20(address(usdc)).transfer...\n      DUP3 \t\t\tIERC20(address(usdc)).transfer...\n      ADD \t\t\tIERC20(address(usdc)).transfer...\n      DUP1 \t\t\tIERC20(address(usdc)).transfer...\n      PUSH 40\t\t\tIERC20(address(usdc)).transfer...\n      MSTORE \t\t\tIERC20(address(usdc)).transfer...\n      POP \t\t\tIERC20(address(usdc)).transfer...\n      DUP2 \t\t\tIERC20(address(usdc)).transfer...\n      ADD \t\t\tIERC20(address(usdc)).transfer...\n      SWAP1 \t\t\tIERC20(address(usdc)).transfer...\n      PUSH [tag] 51\t\t\tIERC20(address(usdc)).transfer...\n      SWAP2 \t\t\tIERC20(address(usdc)).transfer...\n      SWAP1 \t\t\tIERC20(address(usdc)).transfer...\n      PUSH [tag] 52\t\t\tIERC20(address(usdc)).transfer...\n      JUMP \t\t\tIERC20(address(usdc)).transfer...\n    tag 51\t\t\tIERC20(address(usdc)).transfer...\n      JUMPDEST \t\t\tIERC20(address(usdc)).transfer...\n      POP \t\t\tIERC20(address(usdc)).transfer...\n      DUP1 \t\t\tamount\n      PUSH 1\t\t\tbalances\n      PUSH 0\t\t\tbalances[msg.sender]\n      CALLER \t\t\tmsg.sender\n      PUSH FFFFFFFFFFFFFFFFFFFFFFFFFFFFFFFFFFFFFFFF\t\t\tbalances[msg.sender]\n      AND \t\t\tbalances[msg.sender]\n      PUSH FFFFFFFFFFFFFFFFFFFFFFFFFFFFFFFFFFFFFFFF\t\t\tbalances[msg.sender]\n      AND \t\t\tbalances[msg.sender]\n      DUP2 \t\t\tbalances[msg.sender]\n      MSTORE \t\t\tbalances[msg.sender]\n      PUSH 20\t\t\tbalances[msg.sender]\n      ADD \t\t\tbalances[msg.sender]\n      SWAP1 \t\t\tbalances[msg.sender]\n      DUP2 \t\t\tbalances[msg.sender]\n      MSTORE \t\t\tbalances[msg.sender]\n      PUSH 20\t\t\tbalances[msg.sender]\n      ADD \t\t\tbalances[msg.sender]\n      PUSH 0\t\t\tbalances[msg.sender]\n      KECCAK256 \t\t\tbalances[msg.sender]\n      PUSH 0\t\t\tbalances[msg.sender]\n      DUP3 \t\t\tbalances[msg.sender] -= amount\n      DUP3 \t\t\tbalances[msg.sender] -= amount\n      SLOAD \t\t\tbalances[msg.sender] -= amount\n      PUSH [tag] 53\t\t\tbalances[msg.sender] -= amount\n      SWAP2 \t\t\tbalances[msg.sender] -= amount\n      SWAP1 \t\t\tbalances[msg.sender] -= amount\n      PUSH [tag] 54\t\t\tbalances[msg.sender] -= amount\n      JUMP \t\t\tbalances[msg.sender] -= amount\n    tag 53\t\t\tbalances[msg.sender] -= amount\n      JUMPDEST \t\t\tbalances[msg.sender] -= amount\n      SWAP3 \t\t\tbalances[msg.sender] -= amount\n      POP \t\t\tbalances[msg.sender] -= amount\n      POP \t\t\tbalances[msg.sender] -= amount\n      DUP2 \t\t\tbalances[msg.sender] -= amount\n      SWAP1 \t\t\tbalances[msg.sender] -= amount\n      SSTORE \t\t\tbalances[msg.sender] -= amount\n      POP \t\t\tbalances[msg.sender] -= amount\n      POP \t\t\tfunction withdraw(uint256 amou...\n      JUMP \t\t\tfunction withdraw(uint256 amou...\n    tag 24\t\t\tfunction supply(uint256 amount...\n      JUMPDEST \t\t\tfunction supply(uint256 amount...\n      PUSH 0\t\t\tusdc\n      DUP1 \t\t\tusdc\n      SLOAD \t\t\tusdc\n      SWAP1 \t\t\tusdc\n      PUSH 100\t\t\tusdc\n      EXP \t\t\tusdc\n      SWAP1 \t\t\tusdc\n      DIV \t\t\tusdc\n      PUSH FFFFFFFFFFFFFFFFFFFFFFFFFFFFFFFFFFFFFFFF\t\t\tusdc\n      AND \t\t\tusdc\n      PUSH FFFFFFFFFFFFFFFFFFFFFFFFFFFFFFFFFFFFFFFF\t\t\tIERC20(address(usdc)).transfer...\n      AND \t\t\tIERC20(address(usdc)).transfer...\n      PUSH 23B872DD\t\t\tIERC20(address(usdc)).transfer...\n      CALLER \t\t\tmsg.sender\n      ADDRESS \t\t\tthis\n      DUP5 \t\t\tamount\n      PUSH 40\t\t\tIERC20(address(usdc)).transfer...\n      MLOAD \t\t\tIERC20(address(usdc)).transfer...\n      DUP5 \t\t\tIERC20(address(usdc)).transfer...\n      PUSH FFFFFFFF\t\t\tIERC20(address(usdc)).transfer...\n      AND \t\t\tIERC20(address(usdc)).transfer...\n      PUSH E0\t\t\tIERC20(address(usdc)).transfer...\n      SHL \t\t\tIERC20(address(usdc)).transfer...\n      DUP2 \t\t\tIERC20(address(usdc)).transfer...\n      MSTORE \t\t\tIERC20(address(usdc)).transfer...\n      PUSH 4\t\t\tIERC20(address(usdc)).transfer...\n      ADD \t\t\tIERC20(address(usdc)).transfer...\n      PUSH [tag] 56\t\t\tIERC20(address(usdc)).transfer...\n      SWAP4 \t\t\tIERC20(address(usdc)).transfer...\n      SWAP3 \t\t\tIERC20(address(usdc)).transfer...\n      SWAP2 \t\t\tIERC20(address(usdc)).transfer...\n      SWAP1 \t\t\tIERC20(address(usdc)).transfer...\n      PUSH [tag] 57\t\t\tIERC20(address(usdc)).transfer...\n      JUMP \t\t\tIERC20(address(usdc)).transfer...\n    tag 56\t\t\tIERC20(address(usdc)).transfer...\n      JUMPDEST \t\t\tIERC20(address(usdc)).transfer...\n      PUSH 20\t\t\tIERC20(address(usdc)).transfer...\n      PUSH 40\t\t\tIERC20(address(usdc)).transfer...\n      MLOAD \t\t\tIERC20(address(usdc)).transfer...\n      DUP1 \t\t\tIERC20(address(usdc)).transfer...\n      DUP4 \t\t\tIERC20(address(usdc)).transfer...\n      SUB \t\t\tIERC20(address(usdc)).transfer...\n      DUP2 \t\t\tIERC20(address(usdc)).transfer...\n      PUSH 0\t\t\tIERC20(address(usdc)).transfer...\n      DUP8 \t\t\tIERC20(address(usdc)).transfer...\n      GAS \t\t\tIERC20(address(usdc)).transfer...\n      CALL \t\t\tIERC20(address(usdc)).transfer...\n      ISZERO \t\t\tIERC20(address(usdc)).transfer...\n      DUP1 \t\t\tIERC20(address(usdc)).transfer...\n      ISZERO \t\t\tIERC20(address(usdc)).transfer...\n      PUSH [tag] 59\t\t\tIERC20(address(usdc)).transfer...\n      JUMPI \t\t\tIERC20(address(usdc)).transfer...\n      RETURNDATASIZE \t\t\tIERC20(address(usdc)).transfer...\n      PUSH 0\t\t\tIERC20(address(usdc)).transfer...\n      DUP1 \t\t\tIERC20(address(usdc)).transfer...\n      RETURNDATACOPY \t\t\tIERC20(address(usdc)).transfer...\n      RETURNDATASIZE \t\t\tIERC20(address(usdc)).transfer...\n      PUSH 0\t\t\tIERC20(address(usdc)).transfer...\n      REVERT \t\t\tIERC20(address(usdc)).transfer...\n    tag 59\t\t\tIERC20(address(usdc)).transfer...\n      JUMPDEST \t\t\tIERC20(address(usdc)).transfer...\n      POP \t\t\tIERC20(address(usdc)).transfer...\n      POP \t\t\tIERC20(address(usdc)).transfer...\n      POP \t\t\tIERC20(address(usdc)).transfer...\n      POP \t\t\tIERC20(address(usdc)).transfer...\n      PUSH 40\t\t\tIERC20(address(usdc)).transfer...\n      MLOAD \t\t\tIERC20(address(usdc)).transfer...\n      RETURNDATASIZE \t\t\tIERC20(address(usdc)).transfer...\n      PUSH 1F\t\t\tIERC20(address(usdc)).transfer...\n      NOT \t\t\tIERC20(address(usdc)).transfer...\n      PUSH 1F\t\t\tIERC20(address(usdc)).transfer...\n      DUP3 \t\t\tIERC20(address(usdc)).transfer...\n      ADD \t\t\tIERC20(address(usdc)).transfer...\n      AND \t\t\tIERC20(address(usdc)).transfer...\n      DUP3 \t\t\tIERC20(address(usdc)).transfer...\n      ADD \t\t\tIERC20(address(usdc)).transfer...\n      DUP1 \t\t\tIERC20(address(usdc)).transfer...\n      PUSH 40\t\t\tIERC20(address(usdc)).transfer...\n      MSTORE \t\t\tIERC20(address(usdc)).transfer...\n      POP \t\t\tIERC20(address(usdc)).transfer...\n      DUP2 \t\t\tIERC20(address(usdc)).transfer...\n      ADD \t\t\tIERC20(address(usdc)).transfer...\n      SWAP1 \t\t\tIERC20(address(usdc)).transfer...\n      PUSH [tag] 60\t\t\tIERC20(address(usdc)).transfer...\n      SWAP2 \t\t\tIERC20(address(usdc)).transfer...\n      SWAP1 \t\t\tIERC20(address(usdc)).transfer...\n      PUSH [tag] 52\t\t\tIERC20(address(usdc)).transfer...\n      JUMP \t\t\tIERC20(address(usdc)).transfer...\n    tag 60\t\t\tIERC20(address(usdc)).transfer...\n      JUMPDEST \t\t\tIERC20(address(usdc)).transfer...\n      POP \t\t\tIERC20(address(usdc)).transfer...\n      DUP1 \t\t\tamount\n      PUSH 1\t\t\tbalances\n      PUSH 0\t\t\tbalances[msg.sender]\n      CALLER \t\t\tmsg.sender\n      PUSH FFFFFFFFFFFFFFFFFFFFFFFFFFFFFFFFFFFFFFFF\t\t\tbalances[msg.sender]\n      AND \t\t\tbalances[msg.sender]\n      PUSH FFFFFFFFFFFFFFFFFFFFFFFFFFFFFFFFFFFFFFFF\t\t\tbalances[msg.sender]\n      AND \t\t\tbalances[msg.sender]\n      DUP2 \t\t\tbalances[msg.sender]\n      MSTORE \t\t\tbalances[msg.sender]\n      PUSH 20\t\t\tbalances[msg.sender]\n      ADD \t\t\tbalances[msg.sender]\n      SWAP1 \t\t\tbalances[msg.sender]\n      DUP2 \t\t\tbalances[msg.sender]\n      MSTORE \t\t\tbalances[msg.sender]\n      PUSH 20\t\t\tbalances[msg.sender]\n      ADD \t\t\tbalances[msg.sender]\n      PUSH 0\t\t\tbalances[msg.sender]\n      KECCAK256 \t\t\tbalances[msg.sender]\n      PUSH 0\t\t\tbalances[msg.sender]\n      DUP3 \t\t\tbalances[msg.sender] += amount\n      DUP3 \t\t\tbalances[msg.sender] += amount\n      SLOAD \t\t\tbalances[msg.sender] += amount\n      PUSH [tag] 61\t\t\tbalances[msg.sender] += amount\n      SWAP2 \t\t\tbalances[msg.sender] += amount\n      SWAP1 \t\t\tbalances[msg.sender] += amount\n      PUSH [tag] 62\t\t\tbalances[msg.sender] += amount\n      JUMP \t\t\tbalances[msg.sender] += amount\n    tag 61\t\t\tbalances[msg.sender] += amount\n      JUMPDEST \t\t\tbalances[msg.sender] += amount\n      SWAP3 \t\t\tbalances[msg.sender] += amount\n      POP \t\t\tbalances[msg.sender] += amount\n      POP \t\t\tbalances[msg.sender] += amount\n      DUP2 \t\t\tbalances[msg.sender] += amount\n      SWAP1 \t\t\tbalances[msg.sender] += amount\n      SSTORE \t\t\tbalances[msg.sender] += amount\n      POP \t\t\tbalances[msg.sender] += amount\n      POP \t\t\tfunction supply(uint256 amount...\n      JUMP \t\t\tfunction supply(uint256 amount...\n    tag 27\t\t\tfunction setPool(address _pool...\n      JUMPDEST \t\t\tfunction setPool(address _pool...\n      PUSH 2\t\t\towner\n      PUSH 0\t\t\towner\n      SWAP1 \t\t\towner\n      SLOAD \t\t\towner\n      SWAP1 \t\t\towner\n      PUSH 100\t\t\towner\n      EXP \t\t\towner\n      SWAP1 \t\t\towner\n      DIV \t\t\towner\n      PUSH FFFFFFFFFFFFFFFFFFFFFFFFFFFFFFFFFFFFFFFF\t\t\towner\n      AND \t\t\towner\n      PUSH FFFFFFFFFFFFFFFFFFFFFFFFFFFFFFFFFFFFFFFF\t\t\tmsg.sender == address(owner)\n      AND \t\t\tmsg.sender == address(owner)\n      CALLER \t\t\tmsg.sender\n      PUSH FFFFFFFFFFFFFFFFFFFFFFFFFFFFFFFFFFFFFFFF\t\t\tmsg.sender == address(owner)\n      AND \t\t\tmsg.sender == address(owner)\n      EQ \t\t\tmsg.sender == address(owner)\n      PUSH [tag] 64\t\t\trequire(msg.sender == address(...\n      JUMPI \t\t\trequire(msg.sender == address(...\n      PUSH 0\t\t\trequire(msg.sender == address(...\n      DUP1 \t\t\trequire(msg.sender == address(...\n      REVERT \t\t\trequire(msg.sender == address(...\n    tag 64\t\t\trequire(msg.sender == address(...\n      JUMPDEST \t\t\trequire(msg.sender == address(...\n      DUP1 \t\t\t_pool\n      PUSH 3\t\t\tpool\n      PUSH 0\t\t\tpool\n      PUSH 100\t\t\tpool = _pool\n      EXP \t\t\tpool = _pool\n      DUP2 \t\t\tpool = _pool\n      SLOAD \t\t\tpool = _pool\n      DUP2 \t\t\tpool = _pool\n      PUSH FFFFFFFFFFFFFFFFFFFFFFFFFFFFFFFFFFFFFFFF\t\t\tpool = _pool\n      MUL \t\t\tpool = _pool\n      NOT \t\t\tpool = _pool\n      AND \t\t\tpool = _pool\n      SWAP1 \t\t\tpool = _pool\n      DUP4 \t\t\tpool = _pool\n      PUSH FFFFFFFFFFFFFFFFFFFFFFFFFFFFFFFFFFFFFFFF\t\t\tpool = _pool\n      AND \t\t\tpool = _pool\n      MUL \t\t\tpool = _pool\n      OR \t\t\tpool = _pool\n      SWAP1 \t\t\tpool = _pool\n      SSTORE \t\t\tpool = _pool\n      POP \t\t\tpool = _pool\n      POP \t\t\tfunction setPool(address _pool...\n      JUMP \t\t\tfunction setPool(address _pool...\n    tag 29\t\t\tfunction getAssetAddress() ext...\n      JUMPDEST \t\t\tfunction getAssetAddress() ext...\n      PUSH 0\t\t\taddress\n      DUP1 \t\t\tusdc\n      PUSH 0\t\t\tusdc\n      SWAP1 \t\t\tusdc\n      SLOAD \t\t\tusdc\n      SWAP1 \t\t\tusdc\n      PUSH 100\t\t\tusdc\n      EXP \t\t\tusdc\n      SWAP1 \t\t\tusdc\n      DIV \t\t\tusdc\n      PUSH FFFFFFFFFFFFFFFFFFFFFFFFFFFFFFFFFFFFFFFF\t\t\tusdc\n      AND \t\t\tusdc\n      SWAP1 \t\t\treturn address(usdc)\n      POP \t\t\treturn address(usdc)\n      SWAP1 \t\t\tfunction getAssetAddress() ext...\n      JUMP \t\t\tfunction getAssetAddress() ext...\n    tag 35\t\t\tfunction executeTransaction(ad...\n      JUMPDEST \t\t\tfunction executeTransaction(ad...\n      PUSH 3\t\t\tpool\n      PUSH 0\t\t\tpool\n      SWAP1 \t\t\tpool\n      SLOAD \t\t\tpool\n      SWAP1 \t\t\tpool\n      PUSH 100\t\t\tpool\n      EXP \t\t\tpool\n      SWAP1 \t\t\tpool\n      DIV \t\t\tpool\n      PUSH FFFFFFFFFFFFFFFFFFFFFFFFFFFFFFFFFFFFFFFF\t\t\tpool\n      AND \t\t\tpool\n      PUSH FFFFFFFFFFFFFFFFFFFFFFFFFFFFFFFFFFFFFFFF\t\t\tmsg.sender == pool\n      AND \t\t\tmsg.sender == pool\n      CALLER \t\t\tmsg.sender\n      PUSH FFFFFFFFFFFFFFFFFFFFFFFFFFFFFFFFFFFFFFFF\t\t\tmsg.sender == pool\n      AND \t\t\tmsg.sender == pool\n      EQ \t\t\tmsg.sender == pool\n      PUSH [tag] 67\t\t\trequire(msg.sender == pool)\n      JUMPI \t\t\trequire(msg.sender == pool)\n      PUSH 0\t\t\trequire(msg.sender == pool)\n      DUP1 \t\t\trequire(msg.sender == pool)\n      REVERT \t\t\trequire(msg.sender == pool)\n    tag 67\t\t\trequire(msg.sender == pool)\n      JUMPDEST \t\t\trequire(msg.sender == pool)\n      PUSH 0\t\t\tusdc\n      DUP1 \t\t\tusdc\n      SLOAD \t\t\tusdc\n      SWAP1 \t\t\tusdc\n      PUSH 100\t\t\tusdc\n      EXP \t\t\tusdc\n      SWAP1 \t\t\tusdc\n      DIV \t\t\tusdc\n      PUSH FFFFFFFFFFFFFFFFFFFFFFFFFFFFFFFFFFFFFFFF\t\t\tusdc\n      AND \t\t\tusdc\n      PUSH FFFFFFFFFFFFFFFFFFFFFFFFFFFFFFFFFFFFFFFF\t\t\tIERC20(address(usdc)).transfer\n      AND \t\t\tIERC20(address(usdc)).transfer\n      PUSH A9059CBB\t\t\tIERC20(address(usdc)).transfer\n      DUP4 \t\t\tuser\n      DUP4 \t\t\tamount\n      PUSH 40\t\t\tIERC20(address(usdc)).transfer...\n      MLOAD \t\t\tIERC20(address(usdc)).transfer...\n      DUP4 \t\t\tIERC20(address(usdc)).transfer...\n      PUSH FFFFFFFF\t\t\tIERC20(address(usdc)).transfer...\n      AND \t\t\tIERC20(address(usdc)).transfer...\n      PUSH E0\t\t\tIERC20(address(usdc)).transfer...\n      SHL \t\t\tIERC20(address(usdc)).transfer...\n      DUP2 \t\t\tIERC20(address(usdc)).transfer...\n      MSTORE \t\t\tIERC20(address(usdc)).transfer...\n      PUSH 4\t\t\tIERC20(address(usdc)).transfer...\n      ADD \t\t\tIERC20(address(usdc)).transfer...\n      PUSH [tag] 68\t\t\tIERC20(address(usdc)).transfer...\n      SWAP3 \t\t\tIERC20(address(usdc)).transfer...\n      SWAP2 \t\t\tIERC20(address(usdc)).transfer...\n      SWAP1 \t\t\tIERC20(address(usdc)).transfer...\n      PUSH [tag] 48\t\t\tIERC20(address(usdc)).transfer...\n      JUMP \t\t\tIERC20(address(usdc)).transfer...\n    tag 68\t\t\tIERC20(address(usdc)).transfer...\n      JUMPDEST \t\t\tIERC20(address(usdc)).transfer...\n      PUSH 20\t\t\tIERC20(address(usdc)).transfer...\n      PUSH 40\t\t\tIERC20(address(usdc)).transfer...\n      MLOAD \t\t\tIERC20(address(usdc)).transfer...\n      DUP1 \t\t\tIERC20(address(usdc)).transfer...\n      DUP4 \t\t\tIERC20(address(usdc)).transfer...\n      SUB \t\t\tIERC20(address(usdc)).transfer...\n      DUP2 \t\t\tIERC20(address(usdc)).transfer...\n      PUSH 0\t\t\tIERC20(address(usdc)).transfer...\n      DUP8 \t\t\tIERC20(address(usdc)).transfer...\n      GAS \t\t\tIERC20(address(usdc)).transfer...\n      CALL \t\t\tIERC20(address(usdc)).transfer...\n      ISZERO \t\t\tIERC20(address(usdc)).transfer...\n      DUP1 \t\t\tIERC20(address(usdc)).transfer...\n      ISZERO \t\t\tIERC20(address(usdc)).transfer...\n      PUSH [tag] 70\t\t\tIERC20(address(usdc)).transfer...\n      JUMPI \t\t\tIERC20(address(usdc)).transfer...\n      RETURNDATASIZE \t\t\tIERC20(address(usdc)).transfer...\n      PUSH 0\t\t\tIERC20(address(usdc)).transfer...\n      DUP1 \t\t\tIERC20(address(usdc)).transfer...\n      RETURNDATACOPY \t\t\tIERC20(address(usdc)).transfer...\n      RETURNDATASIZE \t\t\tIERC20(address(usdc)).transfer...\n      PUSH 0\t\t\tIERC20(address(usdc)).transfer...\n      REVERT \t\t\tIERC20(address(usdc)).transfer...\n    tag 70\t\t\tIERC20(address(usdc)).transfer...\n      JUMPDEST \t\t\tIERC20(address(usdc)).transfer...\n      POP \t\t\tIERC20(address(usdc)).transfer...\n      POP \t\t\tIERC20(address(usdc)).transfer...\n      POP \t\t\tIERC20(address(usdc)).transfer...\n      POP \t\t\tIERC20(address(usdc)).transfer...\n      PUSH 40\t\t\tIERC20(address(usdc)).transfer...\n      MLOAD \t\t\tIERC20(address(usdc)).transfer...\n      RETURNDATASIZE \t\t\tIERC20(address(usdc)).transfer...\n      PUSH 1F\t\t\tIERC20(address(usdc)).transfer...\n      NOT \t\t\tIERC20(address(usdc)).transfer...\n      PUSH 1F\t\t\tIERC20(address(usdc)).transfer...\n      DUP3 \t\t\tIERC20(address(usdc)).transfer...\n      ADD \t\t\tIERC20(address(usdc)).transfer...\n      AND \t\t\tIERC20(address(usdc)).transfer...\n      DUP3 \t\t\tIERC20(address(usdc)).transfer...\n      ADD \t\t\tIERC20(address(usdc)).transfer...\n      DUP1 \t\t\tIERC20(address(usdc)).transfer...\n      PUSH 40\t\t\tIERC20(address(usdc)).transfer...\n      MSTORE \t\t\tIERC20(address(usdc)).transfer...\n      POP \t\t\tIERC20(address(usdc)).transfer...\n      DUP2 \t\t\tIERC20(address(usdc)).transfer...\n      ADD \t\t\tIERC20(address(usdc)).transfer...\n      SWAP1 \t\t\tIERC20(address(usdc)).transfer...\n      PUSH [tag] 71\t\t\tIERC20(address(usdc)).transfer...\n      SWAP2 \t\t\tIERC20(address(usdc)).transfer...\n      SWAP1 \t\t\tIERC20(address(usdc)).transfer...\n      PUSH [tag] 52\t\t\tIERC20(address(usdc)).transfer...\n      JUMP \t\t\tIERC20(address(usdc)).transfer...\n    tag 71\t\t\tIERC20(address(usdc)).transfer...\n      JUMPDEST \t\t\tIERC20(address(usdc)).transfer...\n      POP \t\t\tIERC20(address(usdc)).transfer...\n      POP \t\t\tfunction executeTransaction(ad...\n      POP \t\t\tfunction executeTransaction(ad...\n      JUMP \t\t\tfunction executeTransaction(ad...\n    tag 38\t\t\tfunction getSupplyedAmount(add...\n      JUMPDEST \t\t\tfunction getSupplyedAmount(add...\n      PUSH 0\t\t\tuint256\n      PUSH 1\t\t\tbalances\n      PUSH 0\t\t\tbalances[user]\n      DUP4 \t\t\tuser\n      PUSH FFFFFFFFFFFFFFFFFFFFFFFFFFFFFFFFFFFFFFFF\t\t\tbalances[user]\n      AND \t\t\tbalances[user]\n      PUSH FFFFFFFFFFFFFFFFFFFFFFFFFFFFFFFFFFFFFFFF\t\t\tbalances[user]\n      AND \t\t\tbalances[user]\n      DUP2 \t\t\tbalances[user]\n      MSTORE \t\t\tbalances[user]\n      PUSH 20\t\t\tbalances[user]\n      ADD \t\t\tbalances[user]\n      SWAP1 \t\t\tbalances[user]\n      DUP2 \t\t\tbalances[user]\n      MSTORE \t\t\tbalances[user]\n      PUSH 20\t\t\tbalances[user]\n      ADD \t\t\tbalances[user]\n      PUSH 0\t\t\tbalances[user]\n      KECCAK256 \t\t\tbalances[user]\n      SLOAD \t\t\tbalances[user]\n      SWAP1 \t\t\treturn balances[user]\n      POP \t\t\treturn balances[user]\n      SWAP2 \t\t\tfunction getSupplyedAmount(add...\n      SWAP1 \t\t\tfunction getSupplyedAmount(add...\n      POP \t\t\tfunction getSupplyedAmount(add...\n      JUMP \t\t\tfunction getSupplyedAmount(add...\n    tag 41\t\t\tfunction getAssetPrice() exter...\n      JUMPDEST \t\t\tfunction getAssetPrice() exter...\n      PUSH 0\t\t\tuint256\n      PUSH 1\t\t\t1\n      SWAP1 \t\t\treturn 1\n      POP \t\t\treturn 1\n      SWAP1 \t\t\tfunction getAssetPrice() exter...\n      JUMP \t\t\tfunction getAssetPrice() exter...\n    tag 75\t\t\t/token/ERC20/IERC20.sol\";\\n\\nc...\n      JUMPDEST \t\t\t/token/ERC20/IERC20.sol\";\\n\\nc...\n      PUSH 0\t\t\tl\n      DUP1 \t\t\t \n      REVERT \t\t\t public bala\n    tag 77\t\t\tder;\\n    }\\n\\n    function su...\n      JUMPDEST \t\t\tder;\\n    }\\n\\n    function su...\n      PUSH 0\t\t\t56 amou\n      PUSH FFFFFFFFFFFFFFFFFFFFFFFFFFFFFFFFFFFFFFFF\t\t\tress(usdc)).transferFrom(msg.s...\n      DUP3 \t\t\tC20(a\n      AND \t\t\t IERC20(address(usdc)).transfe...\n      SWAP1 \t\t\tl {\\n        IERC20(address(us...\n      POP \t\t\tl {\\n        IERC20(address(us...\n      SWAP2 \t\t\tder;\\n    }\\n\\n    function su...\n      SWAP1 \t\t\tder;\\n    }\\n\\n    function su...\n      POP \t\t\tder;\\n    }\\n\\n    function su...\n      JUMP \t\t\tder;\\n    }\\n\\n    function su...\n    tag 78\t\t\tunt);\\n        balances[msg.se...\n      JUMPDEST \t\t\tunt);\\n        balances[msg.se...\n      PUSH 0\t\t\t amount\n      PUSH [tag] 99\t\t\ttion getSupplyedAmount(a\n      DUP3 \t\t\tount(\n      PUSH [tag] 77\t\t\ttion getSupplyedAmount(a\n      JUMP \t\t\ttion getSupplyedAmount(a\n    tag 99\t\t\ttion getSupplyedAmount(a\n      JUMPDEST \t\t\ttion getSupplyedAmount(a\n      SWAP1 \t\t\t \\n\\n    function getSupplyedA...\n      POP \t\t\t \\n\\n    function getSupplyedA...\n      SWAP2 \t\t\tunt);\\n        balances[msg.se...\n      SWAP1 \t\t\tunt);\\n        balances[msg.se...\n      POP \t\t\tunt);\\n        balances[msg.se...\n      JUMP \t\t\tunt);\\n        balances[msg.se...\n    tag 79\t\t\t external view returns (uint25...\n      JUMPDEST \t\t\t external view returns (uint25...\n      PUSH [tag] 101\t\t\t    function withdraw(ui\n      DUP2 \t\t\traw(u\n      PUSH [tag] 78\t\t\t    function withdraw(ui\n      JUMP \t\t\t    function withdraw(ui\n    tag 101\t\t\t    function withdraw(ui\n      JUMPDEST \t\t\t    function withdraw(ui\n      DUP2 \t\t\t    }\n      EQ \t\t\t];\\n    }\\n\\n    function with...\n      PUSH [tag] 102\t\t\tances[user];\\n    }\\n\\n    fun...\n      JUMPI \t\t\tances[user];\\n    }\\n\\n    fun...\n      PUSH 0\t\t\tx\n      DUP1 \t\t\t)\n      REVERT \t\t\t amount) ext\n    tag 102\t\t\tances[user];\\n    }\\n\\n    fun...\n      JUMPDEST \t\t\tances[user];\\n    }\\n\\n    fun...\n      POP \t\t\t external view returns (uint25...\n      JUMP \t\t\t external view returns (uint25...\n    tag 80\t\t\t  require(balances[msg.sender]...\n      JUMPDEST \t\t\t  require(balances[msg.sender]...\n      PUSH 0\t\t\tuffic\n      DUP2 \t\t\tdress(\n      CALLDATALOAD \t\t\t    IERC20(address(u\n      SWAP1 \t\t\te\");\\n        IERC20(address(u\n      POP \t\t\te\");\\n        IERC20(address(u\n      PUSH [tag] 104\t\t\tnsfer(msg.sender, amount);\\n  ...\n      DUP2 \t\t\t     \n      PUSH [tag] 79\t\t\tnsfer(msg.sender, amount);\\n  ...\n      JUMP \t\t\tnsfer(msg.sender, amount);\\n  ...\n    tag 104\t\t\tnsfer(msg.sender, amount);\\n  ...\n      JUMPDEST \t\t\tnsfer(msg.sender, amount);\\n  ...\n      SWAP3 \t\t\t  require(balances[msg.sender]...\n      SWAP2 \t\t\t  require(balances[msg.sender]...\n      POP \t\t\t  require(balances[msg.sender]...\n      POP \t\t\t  require(balances[msg.sender]...\n      JUMP \t\t\t  require(balances[msg.sender]...\n    tag 14\t\t\tsg.sender] -= amount;\\n    }\\n...\n      JUMPDEST \t\t\tsg.sender] -= amount;\\n    }\\n...\n      PUSH 0\t\t\txterna\n      PUSH 20\t\t\t;\\n\n      DUP3 \t\t\t    retur\n      DUP5 \t\t\t6) {\\n  \n      SUB \t\t\tnt256) {\\n        return\n      SLT \t\t\t (uint256) {\\n        return 1...\n      ISZERO \t\t\trns (uint256) {\\n        retur...\n      PUSH [tag] 106\t\t\trns (uint256) {\\n        retur...\n      JUMPI \t\t\trns (uint256) {\\n        retur...\n      PUSH [tag] 107\t\t\t}\\n\\n    function getAssetAddr...\n      PUSH [tag] 75\t\t\t}\\n\\n    function getAssetAddr...\n      JUMP \t\t\t}\\n\\n    function getAssetAddr...\n    tag 107\t\t\t}\\n\\n    function getAssetAddr...\n      JUMPDEST \t\t\t}\\n\\n    function getAssetAddr...\n    tag 106\t\t\trns (uint256) {\\n        retur...\n      JUMPDEST \t\t\trns (uint256) {\\n        retur...\n      PUSH 0\t\t\tt\n      PUSH [tag] 108\t\t\trnal{\\n        require(msg.sen...\n      DUP5 \t\t\twner));\n      DUP3 \t\t\taddres\n      DUP6 \t\t\t.sender =\n      ADD \t\t\t(msg.sender == address\n      PUSH [tag] 80\t\t\trnal{\\n        require(msg.sen...\n      JUMP \t\t\trnal{\\n        require(msg.sen...\n    tag 108\t\t\trnal{\\n        require(msg.sen...\n      JUMPDEST \t\t\trnal{\\n        require(msg.sen...\n      SWAP2 \t\t\tpool) external{\\n        requi...\n      POP \t\t\tpool) external{\\n        requi...\n      POP \t\t\tusdc);\\n    }\\n\\n    function ...\n      SWAP3 \t\t\tsg.sender] -= amount;\\n    }\\n...\n      SWAP2 \t\t\tsg.sender] -= amount;\\n    }\\n...\n      POP \t\t\tsg.sender] -= amount;\\n    }\\n...\n      POP \t\t\tsg.sender] -= amount;\\n    }\\n...\n      JUMP \t\t\tsg.sender] -= amount;\\n    }\\n...\n    tag 81\t\t\t   }\\n\\n    function executeTr...\n      JUMPDEST \t\t\t   }\\n\\n    function executeTr...\n      PUSH 0\t\t\t(addres\n      DUP2 \t\t\t) ext\n      SWAP1 \t\t\tt256 amount) ext\n      POP \t\t\tt256 amount) ext\n      SWAP2 \t\t\t   }\\n\\n    function executeTr...\n      SWAP1 \t\t\t   }\\n\\n    function executeTr...\n      POP \t\t\t   }\\n\\n    function executeTr...\n      JUMP \t\t\t   }\\n\\n    function executeTr...\n    tag 82\t\t\t    require(msg.sender == pool...\n      JUMPDEST \t\t\t    require(msg.sender == pool...\n      PUSH [tag] 111\t\t\t    }\\n}\\n\n      DUP2 \t\t\t\n      PUSH [tag] 81\t\t\t    }\\n}\\n\n      JUMP \t\t\t    }\\n}\\n\n    tag 111\t\t\t    }\\n}\\n\n      JUMPDEST \t\t\t    }\\n}\\n\n      DUP3 \t\t\tnt)\n      MSTORE \t\t\tr, amount);\\n    }\\n}\\n\n      POP \t\t\t    require(msg.sender == pool...\n      POP \t\t\t    require(msg.sender == pool...\n      JUMP \t\t\t    require(msg.sender == pool...\n    tag 17\t\t\t\n      JUMPDEST \t\t\t\n      PUSH 0\t\t\t\n      PUSH 20\t\t\t\n      DUP3 \t\t\t\n      ADD \t\t\t\n      SWAP1 \t\t\t\n      POP \t\t\t\n      PUSH [tag] 113\t\t\t\n      PUSH 0\t\t\t\n      DUP4 \t\t\t\n      ADD \t\t\t\n      DUP5 \t\t\t\n      PUSH [tag] 82\t\t\t\n      JUMP \t\t\t\n    tag 113\t\t\t\n      JUMPDEST \t\t\t\n      SWAP3 \t\t\t\n      SWAP2 \t\t\t\n      POP \t\t\t\n      POP \t\t\t\n      JUMP \t\t\t\n    tag 83\t\t\t\n      JUMPDEST \t\t\t\n      PUSH [tag] 115\t\t\t\n      DUP2 \t\t\t\n      PUSH [tag] 81\t\t\t\n      JUMP \t\t\t\n    tag 115\t\t\t\n      JUMPDEST \t\t\t\n      DUP2 \t\t\t\n      EQ \t\t\t\n      PUSH [tag] 116\t\t\t\n      JUMPI \t\t\t\n      PUSH 0\t\t\t\n      DUP1 \t\t\t\n      REVERT \t\t\t\n    tag 116\t\t\t\n      JUMPDEST \t\t\t\n      POP \t\t\t\n      JUMP \t\t\t\n    tag 84\t\t\t\n      JUMPDEST \t\t\t\n      PUSH 0\t\t\t\n      DUP2 \t\t\t\n      CALLDATALOAD \t\t\t\n      SWAP1 \t\t\t\n      POP \t\t\t\n      PUSH [tag] 118\t\t\t\n      DUP2 \t\t\t\n      PUSH [tag] 83\t\t\t\n      JUMP \t\t\t\n    tag 118\t\t\t\n      JUMPDEST \t\t\t\n      SWAP3 \t\t\t\n      SWAP2 \t\t\t\n      POP \t\t\t\n      POP \t\t\t\n      JUMP \t\t\t\n    tag 20\t\t\t\n      JUMPDEST \t\t\t\n      PUSH 0\t\t\t\n      PUSH 20\t\t\t\n      DUP3 \t\t\t\n      DUP5 \t\t\t\n      SUB \t\t\t\n      SLT \t\t\t\n      ISZERO \t\t\t\n      PUSH [tag] 120\t\t\t\n      JUMPI \t\t\t\n      PUSH [tag] 121\t\t\t\n      PUSH [tag] 75\t\t\t\n      JUMP \t\t\t\n    tag 121\t\t\t\n      JUMPDEST \t\t\t\n    tag 120\t\t\t\n      JUMPDEST \t\t\t\n      PUSH 0\t\t\t\n      PUSH [tag] 122\t\t\t\n      DUP5 \t\t\t\n      DUP3 \t\t\t\n      DUP6 \t\t\t\n      ADD \t\t\t\n      PUSH [tag] 84\t\t\t\n      JUMP \t\t\t\n    tag 122\t\t\t\n      JUMPDEST \t\t\t\n      SWAP2 \t\t\t\n      POP \t\t\t\n      POP \t\t\t\n      SWAP3 \t\t\t\n      SWAP2 \t\t\t\n      POP \t\t\t\n      POP \t\t\t\n      JUMP \t\t\t\n    tag 85\t\t\t\n      JUMPDEST \t\t\t\n      PUSH [tag] 124\t\t\t\n      DUP2 \t\t\t\n      PUSH [tag] 78\t\t\t\n      JUMP \t\t\t\n    tag 124\t\t\t\n      JUMPDEST \t\t\t\n      DUP3 \t\t\t\n      MSTORE \t\t\t\n      POP \t\t\t\n      POP \t\t\t\n      JUMP \t\t\t\n    tag 31\t\t\t\n      JUMPDEST \t\t\t\n      PUSH 0\t\t\t\n      PUSH 20\t\t\t\n      DUP3 \t\t\t\n      ADD \t\t\t\n      SWAP1 \t\t\t\n      POP \t\t\t\n      PUSH [tag] 126\t\t\t\n      PUSH 0\t\t\t\n      DUP4 \t\t\t\n      ADD \t\t\t\n      DUP5 \t\t\t\n      PUSH [tag] 85\t\t\t\n      JUMP \t\t\t\n    tag 126\t\t\t\n      JUMPDEST \t\t\t\n      SWAP3 \t\t\t\n      SWAP2 \t\t\t\n      POP \t\t\t\n      POP \t\t\t\n      JUMP \t\t\t\n    tag 34\t\t\t\n      JUMPDEST \t\t\t\n      PUSH 0\t\t\t\n      DUP1 \t\t\t\n      PUSH 40\t\t\t\n      DUP4 \t\t\t\n      DUP6 \t\t\t\n      SUB \t\t\t\n      SLT \t\t\t\n      ISZERO \t\t\t\n      PUSH [tag] 128\t\t\t\n      JUMPI \t\t\t\n      PUSH [tag] 129\t\t\t\n      PUSH [tag] 75\t\t\t\n      JUMP \t\t\t\n    tag 129\t\t\t\n      JUMPDEST \t\t\t\n    tag 128\t\t\t\n      JUMPDEST \t\t\t\n      PUSH 0\t\t\t\n      PUSH [tag] 130\t\t\t\n      DUP6 \t\t\t\n      DUP3 \t\t\t\n      DUP7 \t\t\t\n      ADD \t\t\t\n      PUSH [tag] 80\t\t\t\n      JUMP \t\t\t\n    tag 130\t\t\t\n      JUMPDEST \t\t\t\n      SWAP3 \t\t\t\n      POP \t\t\t\n      POP \t\t\t\n      PUSH 20\t\t\t\n      PUSH [tag] 131\t\t\t\n      DUP6 \t\t\t\n      DUP3 \t\t\t\n      DUP7 \t\t\t\n      ADD \t\t\t\n      PUSH [tag] 84\t\t\t\n      JUMP \t\t\t\n    tag 131\t\t\t\n      JUMPDEST \t\t\t\n      SWAP2 \t\t\t\n      POP \t\t\t\n      POP \t\t\t\n      SWAP3 \t\t\t\n      POP \t\t\t\n      SWAP3 \t\t\t\n      SWAP1 \t\t\t\n      POP \t\t\t\n      JUMP \t\t\t\n    tag 86\t\t\t\n      JUMPDEST \t\t\t\n      PUSH 0\t\t\t\n      DUP3 \t\t\t\n      DUP3 \t\t\t\n      MSTORE \t\t\t\n      PUSH 20\t\t\t\n      DUP3 \t\t\t\n      ADD \t\t\t\n      SWAP1 \t\t\t\n      POP \t\t\t\n      SWAP3 \t\t\t\n      SWAP2 \t\t\t\n      POP \t\t\t\n      POP \t\t\t\n      JUMP \t\t\t\n    tag 87\t\t\t\n      JUMPDEST \t\t\t\n      PUSH 496E73756666696369656E742062616C616E6365000000000000000000000000\t\t\t\n      PUSH 0\t\t\t\n      DUP3 \t\t\t\n      ADD \t\t\t\n      MSTORE \t\t\t\n      POP \t\t\t\n      JUMP \t\t\t\n    tag 88\t\t\t\n      JUMPDEST \t\t\t\n      PUSH 0\t\t\t\n      PUSH [tag] 135\t\t\t\n      PUSH 14\t\t\t\n      DUP4 \t\t\t\n      PUSH [tag] 86\t\t\t\n      JUMP \t\t\t\n    tag 135\t\t\t\n      JUMPDEST \t\t\t\n      SWAP2 \t\t\t\n      POP \t\t\t\n      PUSH [tag] 136\t\t\t\n      DUP3 \t\t\t\n      PUSH [tag] 87\t\t\t\n      JUMP \t\t\t\n    tag 136\t\t\t\n      JUMPDEST \t\t\t\n      PUSH 20\t\t\t\n      DUP3 \t\t\t\n      ADD \t\t\t\n      SWAP1 \t\t\t\n      POP \t\t\t\n      SWAP2 \t\t\t\n      SWAP1 \t\t\t\n      POP \t\t\t\n      JUMP \t\t\t\n    tag 46\t\t\t\n      JUMPDEST \t\t\t\n      PUSH 0\t\t\t\n      PUSH 20\t\t\t\n      DUP3 \t\t\t\n      ADD \t\t\t\n      SWAP1 \t\t\t\n      POP \t\t\t\n      DUP2 \t\t\t\n      DUP2 \t\t\t\n      SUB \t\t\t\n      PUSH 0\t\t\t\n      DUP4 \t\t\t\n      ADD \t\t\t\n      MSTORE \t\t\t\n      PUSH [tag] 138\t\t\t\n      DUP2 \t\t\t\n      PUSH [tag] 88\t\t\t\n      JUMP \t\t\t\n    tag 138\t\t\t\n      JUMPDEST \t\t\t\n      SWAP1 \t\t\t\n      POP \t\t\t\n      SWAP2 \t\t\t\n      SWAP1 \t\t\t\n      POP \t\t\t\n      JUMP \t\t\t\n    tag 48\t\t\t\n      JUMPDEST \t\t\t\n      PUSH 0\t\t\t\n      PUSH 40\t\t\t\n      DUP3 \t\t\t\n      ADD \t\t\t\n      SWAP1 \t\t\t\n      POP \t\t\t\n      PUSH [tag] 140\t\t\t\n      PUSH 0\t\t\t\n      DUP4 \t\t\t\n      ADD \t\t\t\n      DUP6 \t\t\t\n      PUSH [tag] 85\t\t\t\n      JUMP \t\t\t\n    tag 140\t\t\t\n      JUMPDEST \t\t\t\n      PUSH [tag] 141\t\t\t\n      PUSH 20\t\t\t\n      DUP4 \t\t\t\n      ADD \t\t\t\n      DUP5 \t\t\t\n      PUSH [tag] 82\t\t\t\n      JUMP \t\t\t\n    tag 141\t\t\t\n      JUMPDEST \t\t\t\n      SWAP4 \t\t\t\n      SWAP3 \t\t\t\n      POP \t\t\t\n      POP \t\t\t\n      POP \t\t\t\n      JUMP \t\t\t\n    tag 89\t\t\t\n      JUMPDEST \t\t\t\n      PUSH 0\t\t\t\n      DUP2 \t\t\t\n      ISZERO \t\t\t\n      ISZERO \t\t\t\n      SWAP1 \t\t\t\n      POP \t\t\t\n      SWAP2 \t\t\t\n      SWAP1 \t\t\t\n      POP \t\t\t\n      JUMP \t\t\t\n    tag 90\t\t\t\n      JUMPDEST \t\t\t\n      PUSH [tag] 144\t\t\t\n      DUP2 \t\t\t\n      PUSH [tag] 89\t\t\t\n      JUMP \t\t\t\n    tag 144\t\t\t\n      JUMPDEST \t\t\t\n      DUP2 \t\t\t\n      EQ \t\t\t\n      PUSH [tag] 145\t\t\t\n      JUMPI \t\t\t\n      PUSH 0\t\t\t\n      DUP1 \t\t\t\n      REVERT \t\t\t\n    tag 145\t\t\t\n      JUMPDEST \t\t\t\n      POP \t\t\t\n      JUMP \t\t\t\n    tag 91\t\t\t\n      JUMPDEST \t\t\t\n      PUSH 0\t\t\t\n      DUP2 \t\t\t\n      MLOAD \t\t\t\n      SWAP1 \t\t\t\n      POP \t\t\t\n      PUSH [tag] 147\t\t\t\n      DUP2 \t\t\t\n      PUSH [tag] 90\t\t\t\n      JUMP \t\t\t\n    tag 147\t\t\t\n      JUMPDEST \t\t\t\n      SWAP3 \t\t\t\n      SWAP2 \t\t\t\n      POP \t\t\t\n      POP \t\t\t\n      JUMP \t\t\t\n    tag 52\t\t\t\n      JUMPDEST \t\t\t\n      PUSH 0\t\t\t\n      PUSH 20\t\t\t\n      DUP3 \t\t\t\n      DUP5 \t\t\t\n      SUB \t\t\t\n      SLT \t\t\t\n      ISZERO \t\t\t\n      PUSH [tag] 149\t\t\t\n      JUMPI \t\t\t\n      PUSH [tag] 150\t\t\t\n      PUSH [tag] 75\t\t\t\n      JUMP \t\t\t\n    tag 150\t\t\t\n      JUMPDEST \t\t\t\n    tag 149\t\t\t\n      JUMPDEST \t\t\t\n      PUSH 0\t\t\t\n      PUSH [tag] 151\t\t\t\n      DUP5 \t\t\t\n      DUP3 \t\t\t\n      DUP6 \t\t\t\n      ADD \t\t\t\n      PUSH [tag] 91\t\t\t\n      JUMP \t\t\t\n    tag 151\t\t\t\n      JUMPDEST \t\t\t\n      SWAP2 \t\t\t\n      POP \t\t\t\n      POP \t\t\t\n      SWAP3 \t\t\t\n      SWAP2 \t\t\t\n      POP \t\t\t\n      POP \t\t\t\n      JUMP \t\t\t\n    tag 92\t\t\t\n      JUMPDEST \t\t\t\n      PUSH 4E487B7100000000000000000000000000000000000000000000000000000000\t\t\t\n      PUSH 0\t\t\t\n      MSTORE \t\t\t\n      PUSH 11\t\t\t\n      PUSH 4\t\t\t\n      MSTORE \t\t\t\n      PUSH 24\t\t\t\n      PUSH 0\t\t\t\n      REVERT \t\t\t\n    tag 54\t\t\t\n      JUMPDEST \t\t\t\n      PUSH 0\t\t\t\n      PUSH [tag] 154\t\t\t\n      DUP3 \t\t\t\n      PUSH [tag] 81\t\t\t\n      JUMP \t\t\t\n    tag 154\t\t\t\n      JUMPDEST \t\t\t\n      SWAP2 \t\t\t\n      POP \t\t\t\n      PUSH [tag] 155\t\t\t\n      DUP4 \t\t\t\n      PUSH [tag] 81\t\t\t\n      JUMP \t\t\t\n    tag 155\t\t\t\n      JUMPDEST \t\t\t\n      SWAP3 \t\t\t\n      POP \t\t\t\n      DUP3 \t\t\t\n      DUP3 \t\t\t\n      SUB \t\t\t\n      SWAP1 \t\t\t\n      POP \t\t\t\n      DUP2 \t\t\t\n      DUP2 \t\t\t\n      GT \t\t\t\n      ISZERO \t\t\t\n      PUSH [tag] 156\t\t\t\n      JUMPI \t\t\t\n      PUSH [tag] 157\t\t\t\n      PUSH [tag] 92\t\t\t\n      JUMP \t\t\t\n    tag 157\t\t\t\n      JUMPDEST \t\t\t\n    tag 156\t\t\t\n      JUMPDEST \t\t\t\n      SWAP3 \t\t\t\n      SWAP2 \t\t\t\n      POP \t\t\t\n      POP \t\t\t\n      JUMP \t\t\t\n    tag 57\t\t\t\n      JUMPDEST \t\t\t\n      PUSH 0\t\t\t\n      PUSH 60\t\t\t\n      DUP3 \t\t\t\n      ADD \t\t\t\n      SWAP1 \t\t\t\n      POP \t\t\t\n      PUSH [tag] 159\t\t\t\n      PUSH 0\t\t\t\n      DUP4 \t\t\t\n      ADD \t\t\t\n      DUP7 \t\t\t\n      PUSH [tag] 85\t\t\t\n      JUMP \t\t\t\n    tag 159\t\t\t\n      JUMPDEST \t\t\t\n      PUSH [tag] 160\t\t\t\n      PUSH 20\t\t\t\n      DUP4 \t\t\t\n      ADD \t\t\t\n      DUP6 \t\t\t\n      PUSH [tag] 85\t\t\t\n      JUMP \t\t\t\n    tag 160\t\t\t\n      JUMPDEST \t\t\t\n      PUSH [tag] 161\t\t\t\n      PUSH 40\t\t\t\n      DUP4 \t\t\t\n      ADD \t\t\t\n      DUP5 \t\t\t\n      PUSH [tag] 82\t\t\t\n      JUMP \t\t\t\n    tag 161\t\t\t\n      JUMPDEST \t\t\t\n      SWAP5 \t\t\t\n      SWAP4 \t\t\t\n      POP \t\t\t\n      POP \t\t\t\n      POP \t\t\t\n      POP \t\t\t\n      JUMP \t\t\t\n    tag 62\t\t\t\n      JUMPDEST \t\t\t\n      PUSH 0\t\t\t\n      PUSH [tag] 163\t\t\t\n      DUP3 \t\t\t\n      PUSH [tag] 81\t\t\t\n      JUMP \t\t\t\n    tag 163\t\t\t\n      JUMPDEST \t\t\t\n      SWAP2 \t\t\t\n      POP \t\t\t\n      PUSH [tag] 164\t\t\t\n      DUP4 \t\t\t\n      PUSH [tag] 81\t\t\t\n      JUMP \t\t\t\n    tag 164\t\t\t\n      JUMPDEST \t\t\t\n      SWAP3 \t\t\t\n      POP \t\t\t\n      DUP3 \t\t\t\n      DUP3 \t\t\t\n      ADD \t\t\t\n      SWAP1 \t\t\t\n      POP \t\t\t\n      DUP1 \t\t\t\n      DUP3 \t\t\t\n      GT \t\t\t\n      ISZERO \t\t\t\n      PUSH [tag] 165\t\t\t\n      JUMPI \t\t\t\n      PUSH [tag] 166\t\t\t\n      PUSH [tag] 92\t\t\t\n      JUMP \t\t\t\n    tag 166\t\t\t\n      JUMPDEST \t\t\t\n    tag 165\t\t\t\n      JUMPDEST \t\t\t\n      SWAP3 \t\t\t\n      SWAP2 \t\t\t\n      POP \t\t\t\n      POP \t\t\t\n      JUMP \t\t\t\n    .data\n"
}