{
	"compilerInput": "{\"language\":\"Solidity\",\"sources\":{\"contracts/WBTCReserve.sol\":{\"content\":\"// SPDX-License-Identifier: MIT\\npragma solidity ^0.8.0;\\n\\nimport \\\"@openzeppelin/contracts/token/ERC20/IERC20.sol\\\";\\nimport \\\"@flarenetwork/flare-periphery-contracts/flare/util-contracts/userInterfaces/IFlareContractRegistry.sol\\\";\\nimport \\\"@flarenetwork/flare-periphery-contracts/flare/ftso/userInterfaces/IFtsoRegistry.sol\\\";\\n\\n\\ncontract WBTCReserve {\\n\\n    struct priceStruct {\\n        uint256 price;\\n        uint256 timestamp;\\n        uint256 decimals;\\n\\n    }\\n\\n    IERC20 wbtc;\\n    mapping(address => uint256) public balances;\\n    address private constant FLARE_CONTRACT_REGISTRY =\\n        0xaD67FE66660Fb8dFE9d6b1b4240d8650e30F6019;\\n\\n    \\n    constructor(address _wBTC) {\\n        wbtc = IERC20(_wBTC);\\n    }\\n\\n    function supply(uint256 amount) external {\\n        IERC20(address(wbtc)).transferFrom(msg.sender, address(this), amount);\\n        balances[msg.sender] += amount;\\n    }\\n    \\n\\n    function getSupplyedAmount(address user) external view returns (uint256) {\\n        return balances[user];\\n    }\\n\\n    function withdraw(uint256 amount) external {\\n        require(balances[msg.sender] >= amount, \\\"Insufficient balance\\\");\\n        IERC20(address(wbtc)).transfer(msg.sender, amount);\\n        balances[msg.sender] -= amount;\\n    }\\n\\n    function getAssetPrice() external view returns (uint256, uint256, uint256){\\n        uint256 _price;\\n        uint256 _timestamp;\\n        uint256 _decimals;\\n\\n        IFlareContractRegistry contractRegistry = IFlareContractRegistry(\\n            FLARE_CONTRACT_REGISTRY);\\n\\n        // 3. Retrieve the FTSO Registry\\n        IFtsoRegistry ftsoRegistry = IFtsoRegistry(\\n            contractRegistry.getContractAddressByName('FtsoRegistry'));\\n\\n        // 4. Get latest price\\n        (_price, _timestamp, _decimals) =\\n            ftsoRegistry.getCurrentPriceWithDecimals(\\\"testBTC\\\");\\n        return (_price, _timestamp, _decimals);\\n    }\\n\\n    function getAssetAddress() external view returns (address) {\\n        return address(wbtc);\\n    }\\n}\\n\"},\"@flarenetwork/flare-periphery-contracts/flare/ftso/userInterfaces/IFtsoRegistry.sol\":{\"content\":\"// SPDX-License-Identifier: MIT\\npragma solidity >=0.7.6 <0.9;\\npragma abicoder v2;\\n\\nimport \\\"../ftso/interface/IIFtso.sol\\\";\\nimport \\\"../genesis/interface/IFtsoRegistryGenesis.sol\\\";\\n\\ninterface IFtsoRegistry is IFtsoRegistryGenesis {\\n\\n    struct PriceInfo {\\n        uint256 ftsoIndex;\\n        uint256 price;\\n        uint256 decimals;\\n        uint256 timestamp;\\n    }\\n\\n    function getFtso(uint256 _ftsoIndex) external view returns(IIFtso _activeFtsoAddress);\\n    function getFtsoBySymbol(string memory _symbol) external view returns(IIFtso _activeFtsoAddress);\\n    function getSupportedIndices() external view returns(uint256[] memory _supportedIndices);\\n    function getSupportedSymbols() external view returns(string[] memory _supportedSymbols);\\n    function getSupportedFtsos() external view returns(IIFtso[] memory _ftsos);\\n    function getFtsoIndex(string memory _symbol) external view returns (uint256 _assetIndex);\\n    function getFtsoSymbol(uint256 _ftsoIndex) external view returns (string memory _symbol);\\n    function getCurrentPrice(uint256 _ftsoIndex) external view returns(uint256 _price, uint256 _timestamp);\\n    function getCurrentPrice(string memory _symbol) external view returns(uint256 _price, uint256 _timestamp);\\n    function getCurrentPriceWithDecimals(uint256 _assetIndex) external view\\n        returns(uint256 _price, uint256 _timestamp, uint256 _assetPriceUsdDecimals);\\n    function getCurrentPriceWithDecimals(string memory _symbol) external view\\n        returns(uint256 _price, uint256 _timestamp, uint256 _assetPriceUsdDecimals);\\n\\n    function getAllCurrentPrices() external view returns (PriceInfo[] memory);\\n    function getCurrentPricesByIndices(uint256[] memory _indices) external view returns (PriceInfo[] memory);\\n    function getCurrentPricesBySymbols(string[] memory _symbols) external view returns (PriceInfo[] memory);\\n\\n    function getSupportedIndicesAndFtsos() external view \\n        returns(uint256[] memory _supportedIndices, IIFtso[] memory _ftsos);\\n\\n    function getSupportedSymbolsAndFtsos() external view \\n        returns(string[] memory _supportedSymbols, IIFtso[] memory _ftsos);\\n\\n    function getSupportedIndicesAndSymbols() external view \\n        returns(uint256[] memory _supportedIndices, string[] memory _supportedSymbols);\\n\\n    function getSupportedIndicesSymbolsAndFtsos() external view \\n        returns(uint256[] memory _supportedIndices, string[] memory _supportedSymbols, IIFtso[] memory _ftsos);\\n}\\n\"},\"@flarenetwork/flare-periphery-contracts/flare/util-contracts/userInterfaces/IFlareContractRegistry.sol\":{\"content\":\"// SPDX-License-Identifier: MIT\\npragma solidity >=0.7.6 <0.9;\\npragma abicoder v2;\\n\\ninterface IFlareContractRegistry {\\n    /**\\n     * @notice Returns contract address for the given name - might be address(0)\\n     * @param _name             name of the contract\\n     */\\n    function getContractAddressByName(string calldata _name) external view returns(address);\\n\\n    /**\\n     * @notice Returns contract address for the given name hash - might be address(0)\\n     * @param _nameHash         hash of the contract name (keccak256(abi.encode(name))\\n     */\\n    function getContractAddressByHash(bytes32 _nameHash) external view returns(address);\\n\\n    /**\\n     * @notice Returns contract addresses for the given names - might be address(0)\\n     * @param _names            names of the contracts\\n     */\\n    function getContractAddressesByName(string[] calldata _names) external view returns(address[] memory);\\n\\n    /**\\n     * @notice Returns contract addresses for the given name hashes - might be address(0)\\n     * @param _nameHashes       hashes of the contract names (keccak256(abi.encode(name))\\n     */\\n    function getContractAddressesByHash(bytes32[] calldata _nameHashes) external view returns(address[] memory);\\n\\n    /**\\n     * @notice Returns all contract names and corresponding addresses\\n     */\\n    function getAllContracts() external view returns(string[] memory _names, address[] memory _addresses);\\n}\\n\"},\"@openzeppelin/contracts/token/ERC20/IERC20.sol\":{\"content\":\"// SPDX-License-Identifier: MIT\\n// OpenZeppelin Contracts (last updated v5.0.0) (token/ERC20/IERC20.sol)\\n\\npragma solidity ^0.8.20;\\n\\n/**\\n * @dev Interface of the ERC20 standard as defined in the EIP.\\n */\\ninterface IERC20 {\\n    /**\\n     * @dev Emitted when `value` tokens are moved from one account (`from`) to\\n     * another (`to`).\\n     *\\n     * Note that `value` may be zero.\\n     */\\n    event Transfer(address indexed from, address indexed to, uint256 value);\\n\\n    /**\\n     * @dev Emitted when the allowance of a `spender` for an `owner` is set by\\n     * a call to {approve}. `value` is the new allowance.\\n     */\\n    event Approval(address indexed owner, address indexed spender, uint256 value);\\n\\n    /**\\n     * @dev Returns the value of tokens in existence.\\n     */\\n    function totalSupply() external view returns (uint256);\\n\\n    /**\\n     * @dev Returns the value of tokens owned by `account`.\\n     */\\n    function balanceOf(address account) external view returns (uint256);\\n\\n    /**\\n     * @dev Moves a `value` amount of tokens from the caller's account to `to`.\\n     *\\n     * Returns a boolean value indicating whether the operation succeeded.\\n     *\\n     * Emits a {Transfer} event.\\n     */\\n    function transfer(address to, uint256 value) external returns (bool);\\n\\n    /**\\n     * @dev Returns the remaining number of tokens that `spender` will be\\n     * allowed to spend on behalf of `owner` through {transferFrom}. This is\\n     * zero by default.\\n     *\\n     * This value changes when {approve} or {transferFrom} are called.\\n     */\\n    function allowance(address owner, address spender) external view returns (uint256);\\n\\n    /**\\n     * @dev Sets a `value` amount of tokens as the allowance of `spender` over the\\n     * caller's tokens.\\n     *\\n     * Returns a boolean value indicating whether the operation succeeded.\\n     *\\n     * IMPORTANT: Beware that changing an allowance with this method brings the risk\\n     * that someone may use both the old and the new allowance by unfortunate\\n     * transaction ordering. One possible solution to mitigate this race\\n     * condition is to first reduce the spender's allowance to 0 and set the\\n     * desired value afterwards:\\n     * https://github.com/ethereum/EIPs/issues/20#issuecomment-263524729\\n     *\\n     * Emits an {Approval} event.\\n     */\\n    function approve(address spender, uint256 value) external returns (bool);\\n\\n    /**\\n     * @dev Moves a `value` amount of tokens from `from` to `to` using the\\n     * allowance mechanism. `value` is then deducted from the caller's\\n     * allowance.\\n     *\\n     * Returns a boolean value indicating whether the operation succeeded.\\n     *\\n     * Emits a {Transfer} event.\\n     */\\n    function transferFrom(address from, address to, uint256 value) external returns (bool);\\n}\\n\"},\"@flarenetwork/flare-periphery-contracts/flare/ftso/genesis/interface/IFtsoRegistryGenesis.sol\":{\"content\":\"\\n// SPDX-License-Identifier: MIT\\npragma solidity >=0.7.6 <0.9;\\n\\nimport \\\"./IFtsoGenesis.sol\\\";\\n\\n\\ninterface IFtsoRegistryGenesis {\\n\\n    function getFtsos(uint256[] memory _indices) external view returns(IFtsoGenesis[] memory _ftsos);\\n}\\n\"},\"@flarenetwork/flare-periphery-contracts/flare/ftso/ftso/interface/IIFtso.sol\":{\"content\":\"// SPDX-License-Identifier: MIT\\npragma solidity >=0.7.6 <0.9;\\n\\nimport \\\"../../genesis/interface/IFtsoGenesis.sol\\\";\\nimport \\\"../../userInterfaces/IFtso.sol\\\";\\nimport \\\"../../../util-contracts/token/token/interface/IIVPToken.sol\\\";\\n\\n\\ninterface IIFtso is IFtso, IFtsoGenesis {\\n\\n    /// function finalizePriceReveal\\n    /// called by reward manager only on correct timing.\\n    /// if price reveal period for epoch x ended. finalize.\\n    /// iterate list of price submissions\\n    /// find weighted median\\n    /// find adjucant 50% of price submissions.\\n    /// Allocate reward for any price submission which is same as a \\\"winning\\\" submission\\n    function finalizePriceEpoch(uint256 _epochId, bool _returnRewardData) external\\n        returns(\\n            address[] memory _eligibleAddresses,\\n            uint256[] memory _natWeights,\\n            uint256 _totalNatWeight\\n        );\\n\\n    function fallbackFinalizePriceEpoch(uint256 _epochId) external;\\n\\n    function forceFinalizePriceEpoch(uint256 _epochId) external;\\n\\n    // activateFtso will be called by ftso manager once ftso is added \\n    // before this is done, FTSO can't run\\n    function activateFtso(\\n        uint256 _firstEpochStartTs,\\n        uint256 _submitPeriodSeconds,\\n        uint256 _revealPeriodSeconds\\n    ) external;\\n\\n    function deactivateFtso() external;\\n\\n    // update initial price and timestamp - only if not active\\n    function updateInitialPrice(uint256 _initialPriceUSD, uint256 _initialPriceTimestamp) external;\\n\\n    function configureEpochs(\\n        uint256 _maxVotePowerNatThresholdFraction,\\n        uint256 _maxVotePowerAssetThresholdFraction,\\n        uint256 _lowAssetUSDThreshold,\\n        uint256 _highAssetUSDThreshold,\\n        uint256 _highAssetTurnoutThresholdBIPS,\\n        uint256 _lowNatTurnoutThresholdBIPS,\\n        uint256 _elasticBandRewardBIPS,\\n        uint256 _elasticBandWidthPPM,\\n        address[] memory _trustedAddresses\\n    ) external;\\n\\n    function setAsset(IIVPToken _asset) external;\\n\\n    function setAssetFtsos(IIFtso[] memory _assetFtsos) external;\\n\\n    // current vote power block will update per reward epoch. \\n    // the FTSO doesn't have notion of reward epochs.\\n    // reward manager only can set this data. \\n    function setVotePowerBlock(uint256 _blockNumber) external;\\n\\n    function initializeCurrentEpochStateForReveal(uint256 _circulatingSupplyNat, bool _fallbackMode) external;\\n  \\n    /**\\n     * @notice Returns ftso manager address\\n     */\\n    function ftsoManager() external view returns (address);\\n\\n    /**\\n     * @notice Returns the FTSO asset\\n     * @dev Asset is null in case of multi-asset FTSO\\n     */\\n    function getAsset() external view returns (IIVPToken);\\n\\n    /**\\n     * @notice Returns the Asset FTSOs\\n     * @dev AssetFtsos is not null only in case of multi-asset FTSO\\n     */\\n    function getAssetFtsos() external view returns (IIFtso[] memory);\\n\\n    /**\\n     * @notice Returns current configuration of epoch state\\n     * @return _maxVotePowerNatThresholdFraction        High threshold for native token vote power per voter\\n     * @return _maxVotePowerAssetThresholdFraction      High threshold for asset vote power per voter\\n     * @return _lowAssetUSDThreshold            Threshold for low asset vote power\\n     * @return _highAssetUSDThreshold           Threshold for high asset vote power\\n     * @return _highAssetTurnoutThresholdBIPS   Threshold for high asset turnout\\n     * @return _lowNatTurnoutThresholdBIPS      Threshold for low nat turnout\\n     * @return _elasticBandRewardBIPS           Hybrid reward band, where _elasticBandRewardBIPS goes to the \\n        elastic band (prices within _elasticBandWidthPPM of the median) \\n        and 10000 - elasticBandRewardBIPS to the IQR \\n     * @return _elasticBandWidthPPM             Prices within _elasticBandWidthPPM of median are rewarded\\n     * @return _trustedAddresses                Trusted addresses - use their prices if low nat turnout is not achieved\\n     */\\n    function epochsConfiguration() external view \\n        returns (\\n            uint256 _maxVotePowerNatThresholdFraction,\\n            uint256 _maxVotePowerAssetThresholdFraction,\\n            uint256 _lowAssetUSDThreshold,\\n            uint256 _highAssetUSDThreshold,\\n            uint256 _highAssetTurnoutThresholdBIPS,\\n            uint256 _lowNatTurnoutThresholdBIPS,\\n            uint256 _elasticBandRewardBIPS,\\n            uint256 _elasticBandWidthPPM,\\n            address[] memory _trustedAddresses\\n        );\\n\\n    /**\\n     * @notice Returns parameters necessary for approximately replicating vote weighting.\\n     * @return _assets                  the list of Assets that are accounted in vote\\n     * @return _assetMultipliers        weight of each asset in (multiasset) ftso, mutiplied by TERA\\n     * @return _totalVotePowerNat       total native token vote power at block\\n     * @return _totalVotePowerAsset     total combined asset vote power at block\\n     * @return _assetWeightRatio        ratio of combined asset vp vs. native token vp (in BIPS)\\n     * @return _votePowerBlock          vote powewr block for given epoch\\n     */\\n    function getVoteWeightingParameters() external view \\n        returns (\\n            IIVPToken[] memory _assets,\\n            uint256[] memory _assetMultipliers,\\n            uint256 _totalVotePowerNat,\\n            uint256 _totalVotePowerAsset,\\n            uint256 _assetWeightRatio,\\n            uint256 _votePowerBlock\\n        );\\n\\n    function wNat() external view returns (IIVPToken);\\n}\\n\"},\"@flarenetwork/flare-periphery-contracts/flare/ftso/genesis/interface/IFtsoGenesis.sol\":{\"content\":\"\\n// SPDX-License-Identifier: MIT\\npragma solidity >=0.7.6 <0.9;\\n\\n\\ninterface IFtsoGenesis {\\n\\n    /**\\n     * @notice Reveals submitted price during epoch reveal period - only price submitter\\n     * @param _voter                Voter address\\n     * @param _epochId              Id of the epoch in which the price hash was submitted\\n     * @param _price                Submitted price in USD\\n     * @notice The hash of _price and _random must be equal to the submitted hash\\n     * @notice Emits PriceRevealed event\\n     */\\n    function revealPriceSubmitter(\\n        address _voter,\\n        uint256 _epochId,\\n        uint256 _price,\\n        uint256 _wNatVP\\n    ) external;\\n\\n    /**\\n     * @notice Get (and cache) wNat vote power for specified voter and given epoch id\\n     * @param _voter                Voter address\\n     * @param _epochId              Id of the epoch in which the price hash was submitted\\n     * @return wNat vote power\\n     */\\n    function wNatVotePowerCached(address _voter, uint256 _epochId) external returns (uint256);\\n}\\n\"},\"@flarenetwork/flare-periphery-contracts/flare/util-contracts/token/token/interface/IIVPToken.sol\":{\"content\":\"// SPDX-License-Identifier: MIT\\npragma solidity >=0.7.6 <0.9;\\n\\nimport \\\"../../userInterfaces/IVPToken.sol\\\";\\nimport \\\"../../../../governance/userInterfaces/IGovernanceVotePower.sol\\\";\\nimport \\\"./IIVPContract.sol\\\";\\nimport \\\"./IIGovernanceVotePower.sol\\\";\\nimport \\\"./IICleanable.sol\\\";\\n\\ninterface IIVPToken is IVPToken, IICleanable {\\n    /**\\n     * Set the contract that is allowed to set cleanupBlockNumber.\\n     * Usually this will be an instance of CleanupBlockNumberManager.\\n     */\\n    function setCleanupBlockNumberManager(address _cleanupBlockNumberManager) external;\\n    \\n    /**\\n     * Sets new governance vote power contract that allows token owners to participate in governance voting\\n     * and delegate governance vote power. \\n     */\\n    function setGovernanceVotePower(IIGovernanceVotePower _governanceVotePower) external;\\n    \\n    /**\\n    * @notice Get the total vote power at block `_blockNumber` using cache.\\n    *   It tries to read the cached value and if not found, reads the actual value and stores it in cache.\\n    *   Can only be used if `_blockNumber` is in the past, otherwise reverts.    \\n    * @param _blockNumber The block number at which to fetch.\\n    * @return The total vote power at the block (sum of all accounts' vote powers).\\n    */\\n    function totalVotePowerAtCached(uint256 _blockNumber) external returns(uint256);\\n    \\n    /**\\n    * @notice Get the vote power of `_owner` at block `_blockNumber` using cache.\\n    *   It tries to read the cached value and if not found, reads the actual value and stores it in cache.\\n    *   Can only be used if _blockNumber is in the past, otherwise reverts.    \\n    * @param _owner The address to get voting power.\\n    * @param _blockNumber The block number at which to fetch.\\n    * @return Vote power of `_owner` at `_blockNumber`.\\n    */\\n    function votePowerOfAtCached(address _owner, uint256 _blockNumber) external returns(uint256);\\n\\n    /**\\n     * Return vote powers for several addresses in a batch.\\n     * @param _owners The list of addresses to fetch vote power of.\\n     * @param _blockNumber The block number at which to fetch.\\n     * @return A list of vote powers.\\n     */    \\n    function batchVotePowerOfAt(\\n        address[] memory _owners, \\n        uint256 _blockNumber\\n    ) external view returns(uint256[] memory);\\n}\\n\"},\"@flarenetwork/flare-periphery-contracts/flare/ftso/userInterfaces/IFtso.sol\":{\"content\":\"// SPDX-License-Identifier: MIT\\npragma solidity >=0.7.6 <0.9;\\n\\ninterface IFtso {\\n    enum PriceFinalizationType {\\n        // initial state\\n        NOT_FINALIZED,\\n        // median calculation used to find price\\n        WEIGHTED_MEDIAN,\\n        // low turnout - price calculated from median of trusted addresses\\n        TRUSTED_ADDRESSES,\\n        // low turnout + no votes from trusted addresses - price copied from previous epoch\\n        PREVIOUS_PRICE_COPIED,\\n        // price calculated from median of trusted addresses - triggered due to an exception\\n        TRUSTED_ADDRESSES_EXCEPTION,\\n        // previous price copied - triggered due to an exception\\n        PREVIOUS_PRICE_COPIED_EXCEPTION\\n    }\\n\\n    event PriceRevealed(\\n        address indexed voter, uint256 indexed epochId, uint256 price, uint256 timestamp,\\n        uint256 votePowerNat, uint256 votePowerAsset\\n    );\\n\\n    event PriceFinalized(\\n        uint256 indexed epochId, uint256 price, bool rewardedFtso,\\n        uint256 lowIQRRewardPrice, uint256 highIQRRewardPrice,\\n        uint256 lowElasticBandRewardPrice, uint256 highElasticBandRewardPrice, \\n        PriceFinalizationType finalizationType, uint256 timestamp\\n    );\\n\\n    event PriceEpochInitializedOnFtso(\\n        uint256 indexed epochId, uint256 endTime, uint256 timestamp\\n    );\\n\\n    event LowTurnout(\\n        uint256 indexed epochId,\\n        uint256 natTurnout,\\n        uint256 lowNatTurnoutThresholdBIPS,\\n        uint256 timestamp\\n    );\\n\\n    /**\\n     * @notice Returns if FTSO is active\\n     */\\n    function active() external view returns (bool);\\n\\n    /**\\n     * @notice Returns the FTSO symbol\\n     */\\n    function symbol() external view returns (string memory);\\n\\n    /**\\n     * @notice Returns current epoch id\\n     */\\n    function getCurrentEpochId() external view returns (uint256);\\n\\n    /**\\n     * @notice Returns id of the epoch which was opened for price submission at the specified timestamp\\n     * @param _timestamp            Timestamp as seconds from unix epoch\\n     */\\n    function getEpochId(uint256 _timestamp) external view returns (uint256);\\n    \\n    /**\\n     * @notice Returns random number of the specified epoch\\n     * @param _epochId              Id of the epoch\\n     */\\n    function getRandom(uint256 _epochId) external view returns (uint256);\\n\\n    /**\\n     * @notice Returns asset price consented in specific epoch\\n     * @param _epochId              Id of the epoch\\n     * @return Price in USD multiplied by ASSET_PRICE_USD_DECIMALS\\n     */\\n    function getEpochPrice(uint256 _epochId) external view returns (uint256);\\n\\n    /**\\n     * @notice Returns current epoch data\\n     * @return _epochId                 Current epoch id\\n     * @return _epochSubmitEndTime      End time of the current epoch price submission as seconds from unix epoch\\n     * @return _epochRevealEndTime      End time of the current epoch price reveal as seconds from unix epoch\\n     * @return _votePowerBlock          Vote power block for the current epoch\\n     * @return _fallbackMode            Current epoch in fallback mode - only votes from trusted addresses will be used\\n     * @dev half-closed intervals - end time not included\\n     */\\n    function getPriceEpochData() external view returns (\\n        uint256 _epochId,\\n        uint256 _epochSubmitEndTime,\\n        uint256 _epochRevealEndTime,\\n        uint256 _votePowerBlock,\\n        bool _fallbackMode\\n    );\\n\\n    /**\\n     * @notice Returns current epoch data\\n     * @return _firstEpochStartTs           First epoch start timestamp\\n     * @return _submitPeriodSeconds         Submit period in seconds\\n     * @return _revealPeriodSeconds         Reveal period in seconds\\n     */\\n    function getPriceEpochConfiguration() external view returns (\\n        uint256 _firstEpochStartTs,\\n        uint256 _submitPeriodSeconds,\\n        uint256 _revealPeriodSeconds\\n    );\\n    \\n    /**\\n     * @notice Returns asset price submitted by voter in specific epoch\\n     * @param _epochId              Id of the epoch\\n     * @param _voter                Address of the voter\\n     * @return Price in USD multiplied by ASSET_PRICE_USD_DECIMALS\\n     */\\n    function getEpochPriceForVoter(uint256 _epochId, address _voter) external view returns (uint256);\\n\\n    /**\\n     * @notice Returns current asset price\\n     * @return _price               Price in USD multiplied by ASSET_PRICE_USD_DECIMALS\\n     * @return _timestamp           Time when price was updated for the last time\\n     */\\n    function getCurrentPrice() external view returns (uint256 _price, uint256 _timestamp);\\n\\n    /**\\n     * @notice Returns current asset price and number of decimals\\n     * @return _price                   Price in USD multiplied by ASSET_PRICE_USD_DECIMALS\\n     * @return _timestamp               Time when price was updated for the last time\\n     * @return _assetPriceUsdDecimals   Number of decimals used for USD price\\n     */\\n    function getCurrentPriceWithDecimals() external view returns (\\n        uint256 _price,\\n        uint256 _timestamp,\\n        uint256 _assetPriceUsdDecimals\\n    );\\n    \\n    /**\\n     * @notice Returns current asset price calculated from trusted providers\\n     * @return _price               Price in USD multiplied by ASSET_PRICE_USD_DECIMALS\\n     * @return _timestamp           Time when price was updated for the last time\\n     */\\n    function getCurrentPriceFromTrustedProviders() external view returns (uint256 _price, uint256 _timestamp);\\n\\n    /**\\n     * @notice Returns current asset price calculated from trusted providers and number of decimals\\n     * @return _price                   Price in USD multiplied by ASSET_PRICE_USD_DECIMALS\\n     * @return _timestamp               Time when price was updated for the last time\\n     * @return _assetPriceUsdDecimals   Number of decimals used for USD price\\n     */\\n    function getCurrentPriceWithDecimalsFromTrustedProviders() external view returns (\\n        uint256 _price,\\n        uint256 _timestamp,\\n        uint256 _assetPriceUsdDecimals\\n    );\\n\\n    /**\\n     * @notice Returns current asset price details\\n     * @return _price                                   Price in USD multiplied by ASSET_PRICE_USD_DECIMALS\\n     * @return _priceTimestamp                          Time when price was updated for the last time\\n     * @return _priceFinalizationType                   Finalization type when price was updated for the last time\\n     * @return _lastPriceEpochFinalizationTimestamp     Time when last price epoch was finalized\\n     * @return _lastPriceEpochFinalizationType          Finalization type of last finalized price epoch\\n     */\\n    function getCurrentPriceDetails() external view returns (\\n        uint256 _price,\\n        uint256 _priceTimestamp,\\n        PriceFinalizationType _priceFinalizationType,\\n        uint256 _lastPriceEpochFinalizationTimestamp,\\n        PriceFinalizationType _lastPriceEpochFinalizationType\\n    );\\n\\n    /**\\n     * @notice Returns current random number\\n     */\\n    function getCurrentRandom() external view returns (uint256);\\n}\\n\"},\"@flarenetwork/flare-periphery-contracts/flare/util-contracts/token/token/interface/IICleanable.sol\":{\"content\":\"// SPDX-License-Identifier: MIT\\npragma solidity >=0.7.6 <0.9;\\n\\ninterface IICleanable {\\n    /**\\n     * Set the contract that is allowed to call history cleaning methods.\\n     */\\n    function setCleanerContract(address _cleanerContract) external;\\n    \\n    /**\\n     * Set the cleanup block number.\\n     * Historic data for the blocks before `cleanupBlockNumber` can be erased,\\n     * history before that block should never be used since it can be inconsistent.\\n     * In particular, cleanup block number must be before current vote power block.\\n     * @param _blockNumber The new cleanup block number.\\n     */\\n    function setCleanupBlockNumber(uint256 _blockNumber) external;\\n    \\n    /**\\n     * Get the current cleanup block number.\\n     */\\n    function cleanupBlockNumber() external view returns (uint256);\\n}\\n\"},\"@flarenetwork/flare-periphery-contracts/flare/util-contracts/token/token/interface/IIGovernanceVotePower.sol\":{\"content\":\"// SPDX-License-Identifier: MIT\\npragma solidity >=0.7.6 <0.9;\\n\\nimport \\\"../../userInterfaces/IVPToken.sol\\\";\\nimport \\\"../../../infrastructure/userInterfaces/IPChainStakeMirror.sol\\\";\\nimport \\\"../../../../governance/userInterfaces/IGovernanceVotePower.sol\\\";\\n\\n/**\\n * Internal interface for contracts delegating their governance vote power.\\n */\\ninterface IIGovernanceVotePower is IGovernanceVotePower {\\n    /**\\n     * Emitted when a delegate's vote power changes, as a result of a new delegation\\n     * or a token transfer, for example.\\n     *\\n     * The event is always emitted from a `GovernanceVotePower` contract.\\n     * @param delegate The account receiving the changing delegated vote power.\\n     * @param previousBalance Delegated vote power before the change.\\n     * @param newBalance Delegated vote power after the change.\\n     */\\n    event DelegateVotesChanged(\\n        address indexed delegate,\\n        uint256 previousBalance,\\n        uint256 newBalance\\n    );\\n\\n    /**\\n     * Emitted when an account starts delegating vote power or switches its delegation\\n     * to another address.\\n     *\\n     * The event is always emitted from a `GovernanceVotePower` contract.\\n     * @param delegator Account delegating its vote power.\\n     * @param fromDelegate Account receiving the delegation before the change.\\n     * Can be address(0) if there was no previous delegation.\\n     * @param toDelegate Account receiving the delegation after the change.\\n     * Can be address(0) if `delegator` just undelegated all its vote power.\\n     */\\n    event DelegateChanged(\\n        address indexed delegator,\\n        address indexed fromDelegate,\\n        address indexed toDelegate\\n    );\\n\\n    /**\\n     * Update governance vote power of all involved delegates after tokens are transferred.\\n     *\\n     * This function **MUST** be called after each governance token transfer for the\\n     * delegates to reflect the correct balance.\\n     * @param _from Source address of the transfer.\\n     * @param _to Destination address of the transfer.\\n     * @param _fromBalance _Ignored._\\n     * @param _toBalance _Ignored._\\n     * @param _amount Amount being transferred.\\n     */\\n    function updateAtTokenTransfer(\\n        address _from,\\n        address _to,\\n        uint256 _fromBalance,\\n        uint256 _toBalance,\\n        uint256 _amount\\n    ) external;\\n\\n    /**\\n     * Set the cleanup block number.\\n     * Historic data for the blocks before `cleanupBlockNumber` can be erased.\\n     * History before that block should never be used since it can be inconsistent.\\n     * In particular, cleanup block number must be lower than the current vote power block.\\n     * @param _blockNumber The new cleanup block number.\\n     */\\n    function setCleanupBlockNumber(uint256 _blockNumber) external;\\n\\n    /**\\n     * Set the contract that is allowed to call history cleaning methods.\\n     * @param _cleanerContract Address of the cleanup contract.\\n     * Usually this will be an instance of `CleanupBlockNumberManager`.\\n     */\\n    function setCleanerContract(address _cleanerContract) external;\\n\\n    /**\\n     * Get the token that this governance vote power contract belongs to.\\n     * @return The IVPToken interface owning this contract.\\n     */\\n    function ownerToken() external view returns (IVPToken);\\n\\n    /**\\n     * Get the stake mirror contract that this governance vote power contract belongs to.\\n     * @return The IPChainStakeMirror interface owning this contract.\\n     */\\n    function pChainStakeMirror() external view returns (IPChainStakeMirror);\\n\\n    /**\\n     * Get the current cleanup block number set with `setCleanupBlockNumber()`.\\n     * @return The currently set cleanup block number.\\n     */\\n    function getCleanupBlockNumber() external view returns(uint256);\\n}\\n\"},\"@flarenetwork/flare-periphery-contracts/flare/util-contracts/token/token/interface/IIVPContract.sol\":{\"content\":\"// SPDX-License-Identifier: MIT\\npragma solidity >=0.7.6 <0.9;\\n\\nimport \\\"../../userInterfaces/IVPToken.sol\\\";\\nimport \\\"../../userInterfaces/IVPContractEvents.sol\\\";\\nimport \\\"./IICleanable.sol\\\";\\n\\ninterface IIVPContract is IICleanable, IVPContractEvents {\\n    /**\\n     * Update vote powers when tokens are transfered.\\n     * Also update delegated vote powers for percentage delegation\\n     * and check for enough funds for explicit delegations.\\n     **/\\n    function updateAtTokenTransfer(\\n        address _from, \\n        address _to, \\n        uint256 _fromBalance,\\n        uint256 _toBalance,\\n        uint256 _amount\\n    ) external;\\n\\n    /**\\n     * @notice Delegate `_bips` percentage of voting power to `_to` from `_from`\\n     * @param _from The address of the delegator\\n     * @param _to The address of the recipient\\n     * @param _balance The delegator's current balance\\n     * @param _bips The percentage of voting power to be delegated expressed in basis points (1/100 of one percent).\\n     *   Not cumulative - every call resets the delegation value (and value of 0 revokes delegation).\\n     **/\\n    function delegate(\\n        address _from, \\n        address _to, \\n        uint256 _balance, \\n        uint256 _bips\\n    ) external;\\n    \\n    /**\\n     * @notice Explicitly delegate `_amount` of voting power to `_to` from `msg.sender`.\\n     * @param _from The address of the delegator\\n     * @param _to The address of the recipient\\n     * @param _balance The delegator's current balance\\n     * @param _amount An explicit vote power amount to be delegated.\\n     *   Not cumulative - every call resets the delegation value (and value of 0 undelegates `to`).\\n     **/    \\n    function delegateExplicit(\\n        address _from, \\n        address _to, \\n        uint256 _balance, \\n        uint _amount\\n    ) external;    \\n\\n    /**\\n     * @notice Revoke all delegation from sender to `_who` at given block. \\n     *    Only affects the reads via `votePowerOfAtCached()` in the block `_blockNumber`.\\n     *    Block `_blockNumber` must be in the past. \\n     *    This method should be used only to prevent rogue delegate voting in the current voting block.\\n     *    To stop delegating use delegate/delegateExplicit with value of 0 or undelegateAll/undelegateAllExplicit.\\n     * @param _from The address of the delegator\\n     * @param _who Address of the delegatee\\n     * @param _balance The delegator's current balance\\n     * @param _blockNumber The block number at which to revoke delegation.\\n     **/\\n    function revokeDelegationAt(\\n        address _from, \\n        address _who, \\n        uint256 _balance,\\n        uint _blockNumber\\n    ) external;\\n    \\n        /**\\n     * @notice Undelegate all voting power for delegates of `msg.sender`\\n     *    Can only be used with percentage delegation.\\n     *    Does not reset delegation mode back to NOTSET.\\n     * @param _from The address of the delegator\\n     **/\\n    function undelegateAll(\\n        address _from,\\n        uint256 _balance\\n    ) external;\\n    \\n    /**\\n     * @notice Undelegate all explicit vote power by amount delegates for `msg.sender`.\\n     *    Can only be used with explicit delegation.\\n     *    Does not reset delegation mode back to NOTSET.\\n     * @param _from The address of the delegator\\n     * @param _delegateAddresses Explicit delegation does not store delegatees' addresses, \\n     *   so the caller must supply them.\\n     * @return The amount still delegated (in case the list of delegates was incomplete).\\n     */\\n    function undelegateAllExplicit(\\n        address _from, \\n        address[] memory _delegateAddresses\\n    ) external returns (uint256);\\n    \\n    /**\\n    * @notice Get the vote power of `_who` at block `_blockNumber`\\n    *   Reads/updates cache and upholds revocations.\\n    * @param _who The address to get voting power.\\n    * @param _blockNumber The block number at which to fetch.\\n    * @return Vote power of `_who` at `_blockNumber`.\\n    */\\n    function votePowerOfAtCached(address _who, uint256 _blockNumber) external returns(uint256);\\n    \\n    /**\\n     * @notice Get the current vote power of `_who`.\\n     * @param _who The address to get voting power.\\n     * @return Current vote power of `_who`.\\n     */\\n    function votePowerOf(address _who) external view returns(uint256);\\n    \\n    /**\\n    * @notice Get the vote power of `_who` at block `_blockNumber`\\n    * @param _who The address to get voting power.\\n    * @param _blockNumber The block number at which to fetch.\\n    * @return Vote power of `_who` at `_blockNumber`.\\n    */\\n    function votePowerOfAt(address _who, uint256 _blockNumber) external view returns(uint256);\\n\\n    /**\\n    * @notice Get the vote power of `_who` at block `_blockNumber`, ignoring revocation information (and cache).\\n    * @param _who The address to get voting power.\\n    * @param _blockNumber The block number at which to fetch.\\n    * @return Vote power of `_who` at `_blockNumber`. Result doesn't change if vote power is revoked.\\n    */\\n    function votePowerOfAtIgnoringRevocation(address _who, uint256 _blockNumber) external view returns(uint256);\\n\\n    /**\\n     * Return vote powers for several addresses in a batch.\\n     * @param _owners The list of addresses to fetch vote power of.\\n     * @param _blockNumber The block number at which to fetch.\\n     * @return A list of vote powers.\\n     */    \\n    function batchVotePowerOfAt(\\n        address[] memory _owners, \\n        uint256 _blockNumber\\n    )\\n        external view returns(uint256[] memory);\\n\\n    /**\\n    * @notice Get current delegated vote power `_from` delegator delegated `_to` delegatee.\\n    * @param _from Address of delegator\\n    * @param _to Address of delegatee\\n    * @param _balance The delegator's current balance\\n    * @return The delegated vote power.\\n    */\\n    function votePowerFromTo(\\n        address _from, \\n        address _to, \\n        uint256 _balance\\n    ) external view returns(uint256);\\n    \\n    /**\\n    * @notice Get delegated the vote power `_from` delegator delegated `_to` delegatee at `_blockNumber`.\\n    * @param _from Address of delegator\\n    * @param _to Address of delegatee\\n    * @param _balance The delegator's current balance\\n    * @param _blockNumber The block number at which to fetch.\\n    * @return The delegated vote power.\\n    */\\n    function votePowerFromToAt(\\n        address _from, \\n        address _to, \\n        uint256 _balance,\\n        uint _blockNumber\\n    ) external view returns(uint256);\\n\\n    /**\\n     * @notice Compute the current undelegated vote power of `_owner`\\n     * @param _owner The address to get undelegated voting power.\\n     * @param _balance Owner's current balance\\n     * @return The unallocated vote power of `_owner`\\n     */\\n    function undelegatedVotePowerOf(\\n        address _owner,\\n        uint256 _balance\\n    ) external view returns(uint256);\\n\\n    /**\\n     * @notice Get the undelegated vote power of `_owner` at given block.\\n     * @param _owner The address to get undelegated voting power.\\n     * @param _blockNumber The block number at which to fetch.\\n     * @return The undelegated vote power of `_owner` (= owner's own balance minus all delegations from owner)\\n     */\\n    function undelegatedVotePowerOfAt(\\n        address _owner, \\n        uint256 _balance,\\n        uint256 _blockNumber\\n    ) external view returns(uint256);\\n\\n    /**\\n     * @notice Get the delegation mode for '_who'. This mode determines whether vote power is\\n     *  allocated by percentage or by explicit value.\\n     * @param _who The address to get delegation mode.\\n     * @return Delegation mode (NOTSET=0, PERCENTAGE=1, AMOUNT=2))\\n     */\\n    function delegationModeOf(address _who) external view returns (uint256);\\n    \\n    /**\\n    * @notice Get the vote power delegation `_delegateAddresses` \\n    *  and `pcts` of an `_owner`. Returned in two separate positional arrays.\\n    * @param _owner The address to get delegations.\\n    * @return _delegateAddresses Positional array of delegation addresses.\\n    * @return _bips Positional array of delegation percents specified in basis points (1/100 or 1 percent)\\n    * @return _count The number of delegates.\\n    * @return _delegationMode The mode of the delegation (NOTSET=0, PERCENTAGE=1, AMOUNT=2).\\n    */\\n    function delegatesOf(\\n        address _owner\\n    )\\n        external view \\n        returns (\\n            address[] memory _delegateAddresses, \\n            uint256[] memory _bips,\\n            uint256 _count,\\n            uint256 _delegationMode\\n        );\\n\\n    /**\\n    * @notice Get the vote power delegation `delegationAddresses` \\n    *  and `pcts` of an `_owner`. Returned in two separate positional arrays.\\n    * @param _owner The address to get delegations.\\n    * @param _blockNumber The block for which we want to know the delegations.\\n    * @return _delegateAddresses Positional array of delegation addresses.\\n    * @return _bips Positional array of delegation percents specified in basis points (1/100 or 1 percent)\\n    * @return _count The number of delegates.\\n    * @return _delegationMode The mode of the delegation (NOTSET=0, PERCENTAGE=1, AMOUNT=2).\\n    */\\n    function delegatesOfAt(\\n        address _owner,\\n        uint256 _blockNumber\\n    )\\n        external view \\n        returns (\\n            address[] memory _delegateAddresses, \\n            uint256[] memory _bips,\\n            uint256 _count,\\n            uint256 _delegationMode\\n        );\\n\\n    /**\\n     * The VPToken (or some other contract) that owns this VPContract.\\n     * All state changing methods may be called only from this address.\\n     * This is because original msg.sender is sent in `_from` parameter\\n     * and we must be sure that it cannot be faked by directly calling VPContract.\\n     * Owner token is also used in case of replacement to recover vote powers from balances.\\n     */\\n    function ownerToken() external view returns (IVPToken);\\n    \\n    /**\\n     * Return true if this IIVPContract is configured to be used as a replacement for other contract.\\n     * It means that vote powers are not necessarily correct at the initialization, therefore\\n     * every method that reads vote power must check whether it is initialized for that address and block.\\n     */\\n    function isReplacement() external view returns (bool);\\n}\\n\"},\"@flarenetwork/flare-periphery-contracts/flare/governance/userInterfaces/IGovernanceVotePower.sol\":{\"content\":\"// SPDX-License-Identifier: MIT\\npragma solidity >=0.7.6 <0.9;\\n\\n/**\\n * Interface for contracts delegating their governance vote power.\\n */\\ninterface IGovernanceVotePower {\\n    /**\\n     * Delegates all governance vote power of `msg.sender` to address `_to`.\\n     * @param _to The address of the recipient.\\n     */\\n    function delegate(address _to) external;\\n\\n    /**\\n     * Undelegates all governance vote power of `msg.sender`.\\n     */\\n    function undelegate() external;\\n\\n    /**\\n     * Gets the governance vote power of an address at a given block number, including\\n     * all delegations made to it.\\n     * @param _who The address being queried.\\n     * @param _blockNumber The block number at which to fetch the vote power.\\n     * @return Governance vote power of `_who` at `_blockNumber`.\\n     */\\n    function votePowerOfAt(address _who, uint256 _blockNumber) external view returns(uint256);\\n\\n    /**\\n     * Gets the governance vote power of an address at the latest block, including\\n     * all delegations made to it.\\n     * @param _who The address being queried.\\n     * @return Governance vote power of `account` at the lastest block.\\n     */\\n    function getVotes(address _who) external view returns (uint256);\\n\\n    /**\\n     * Gets the address an account is delegating its governance vote power to, at a given block number.\\n     * @param _who The address being queried.\\n     * @param _blockNumber The block number at which to fetch the address.\\n     * @return Address where `_who` was delegating its governance vote power at block `_blockNumber`.\\n     */\\n    function getDelegateOfAt(address _who, uint256 _blockNumber) external view returns (address);\\n\\n    /**\\n     * Gets the address an account is delegating its governance vote power to, at the latest block number.\\n     * @param _who The address being queried.\\n     * @return Address where `_who` is currently delegating its governance vote power.\\n     */\\n    function getDelegateOfAtNow(address _who) external view returns (address);\\n}\\n\"},\"@flarenetwork/flare-periphery-contracts/flare/util-contracts/token/userInterfaces/IVPToken.sol\":{\"content\":\"// SPDX-License-Identifier: MIT\\npragma solidity >=0.7.6 <0.9;\\n\\nimport {IERC20} from \\\"@openzeppelin/contracts/token/ERC20/IERC20.sol\\\";\\nimport \\\"../../../governance/userInterfaces/IGovernanceVotePower.sol\\\";\\nimport \\\"./IVPContractEvents.sol\\\";\\n\\ninterface IVPToken is IERC20 {\\n    /**\\n     * @notice Delegate by percentage `_bips` of voting power to `_to` from `msg.sender`.\\n     * @param _to The address of the recipient\\n     * @param _bips The percentage of voting power to be delegated expressed in basis points (1/100 of one percent).\\n     *   Not cumulative - every call resets the delegation value (and value of 0 undelegates `to`).\\n     **/\\n    function delegate(address _to, uint256 _bips) external;\\n    \\n    /**\\n     * @notice Undelegate all percentage delegations from the sender and then delegate corresponding \\n     *   `_bips` percentage of voting power from the sender to each member of `_delegatees`.\\n     * @param _delegatees The addresses of the new recipients.\\n     * @param _bips The percentages of voting power to be delegated expressed in basis points (1/100 of one percent).\\n     *   Total of all `_bips` values must be at most 10000.\\n     **/\\n    function batchDelegate(address[] memory _delegatees, uint256[] memory _bips) external;\\n        \\n    /**\\n     * @notice Explicitly delegate `_amount` of voting power to `_to` from `msg.sender`.\\n     * @param _to The address of the recipient\\n     * @param _amount An explicit vote power amount to be delegated.\\n     *   Not cumulative - every call resets the delegation value (and value of 0 undelegates `to`).\\n     **/    \\n    function delegateExplicit(address _to, uint _amount) external;\\n\\n    /**\\n    * @notice Revoke all delegation from sender to `_who` at given block. \\n    *    Only affects the reads via `votePowerOfAtCached()` in the block `_blockNumber`.\\n    *    Block `_blockNumber` must be in the past. \\n    *    This method should be used only to prevent rogue delegate voting in the current voting block.\\n    *    To stop delegating use delegate/delegateExplicit with value of 0 or undelegateAll/undelegateAllExplicit.\\n    * @param _who Address of the delegatee\\n    * @param _blockNumber The block number at which to revoke delegation.\\n    */\\n    function revokeDelegationAt(address _who, uint _blockNumber) external;\\n    \\n    /**\\n     * @notice Undelegate all voting power for delegates of `msg.sender`\\n     *    Can only be used with percentage delegation.\\n     *    Does not reset delegation mode back to NOTSET.\\n     **/\\n    function undelegateAll() external;\\n    \\n    /**\\n     * @notice Undelegate all explicit vote power by amount delegates for `msg.sender`.\\n     *    Can only be used with explicit delegation.\\n     *    Does not reset delegation mode back to NOTSET.\\n     * @param _delegateAddresses Explicit delegation does not store delegatees' addresses, \\n     *   so the caller must supply them.\\n     * @return The amount still delegated (in case the list of delegates was incomplete).\\n     */\\n    function undelegateAllExplicit(address[] memory _delegateAddresses) external returns (uint256);\\n\\n\\n    /**\\n     * @dev Should be compatible with ERC20 method\\n     */\\n    function name() external view returns (string memory);\\n\\n    /**\\n     * @dev Should be compatible with ERC20 method\\n     */\\n    function symbol() external view returns (string memory);\\n\\n    /**\\n     * @dev Should be compatible with ERC20 method\\n     */\\n    function decimals() external view returns (uint8);\\n    \\n\\n    /**\\n     * @notice Total amount of tokens at a specific `_blockNumber`.\\n     * @param _blockNumber The block number when the totalSupply is queried\\n     * @return The total amount of tokens at `_blockNumber`\\n     **/\\n    function totalSupplyAt(uint _blockNumber) external view returns(uint256);\\n\\n    /**\\n     * @dev Queries the token balance of `_owner` at a specific `_blockNumber`.\\n     * @param _owner The address from which the balance will be retrieved.\\n     * @param _blockNumber The block number when the balance is queried.\\n     * @return The balance at `_blockNumber`.\\n     **/\\n    function balanceOfAt(address _owner, uint _blockNumber) external view returns (uint256);\\n\\n    \\n    /**\\n     * @notice Get the current total vote power.\\n     * @return The current total vote power (sum of all accounts' vote powers).\\n     */\\n    function totalVotePower() external view returns(uint256);\\n    \\n    /**\\n    * @notice Get the total vote power at block `_blockNumber`\\n    * @param _blockNumber The block number at which to fetch.\\n    * @return The total vote power at the block  (sum of all accounts' vote powers).\\n    */\\n    function totalVotePowerAt(uint _blockNumber) external view returns(uint256);\\n\\n    /**\\n     * @notice Get the current vote power of `_owner`.\\n     * @param _owner The address to get voting power.\\n     * @return Current vote power of `_owner`.\\n     */\\n    function votePowerOf(address _owner) external view returns(uint256);\\n    \\n    /**\\n    * @notice Get the vote power of `_owner` at block `_blockNumber`\\n    * @param _owner The address to get voting power.\\n    * @param _blockNumber The block number at which to fetch.\\n    * @return Vote power of `_owner` at `_blockNumber`.\\n    */\\n    function votePowerOfAt(address _owner, uint256 _blockNumber) external view returns(uint256);\\n\\n    /**\\n    * @notice Get the vote power of `_owner` at block `_blockNumber`, ignoring revocation information (and cache).\\n    * @param _owner The address to get voting power.\\n    * @param _blockNumber The block number at which to fetch.\\n    * @return Vote power of `_owner` at `_blockNumber`. Result doesn't change if vote power is revoked.\\n    */\\n    function votePowerOfAtIgnoringRevocation(address _owner, uint256 _blockNumber) external view returns(uint256);\\n\\n    /**\\n     * @notice Get the delegation mode for '_who'. This mode determines whether vote power is\\n     *  allocated by percentage or by explicit value. Once the delegation mode is set, \\n     *  it never changes, even if all delegations are removed.\\n     * @param _who The address to get delegation mode.\\n     * @return delegation mode: 0 = NOTSET, 1 = PERCENTAGE, 2 = AMOUNT (i.e. explicit)\\n     */\\n    function delegationModeOf(address _who) external view returns(uint256);\\n        \\n    /**\\n    * @notice Get current delegated vote power `_from` delegator delegated `_to` delegatee.\\n    * @param _from Address of delegator\\n    * @param _to Address of delegatee\\n    * @return The delegated vote power.\\n    */\\n    function votePowerFromTo(address _from, address _to) external view returns(uint256);\\n    \\n    /**\\n    * @notice Get delegated the vote power `_from` delegator delegated `_to` delegatee at `_blockNumber`.\\n    * @param _from Address of delegator\\n    * @param _to Address of delegatee\\n    * @param _blockNumber The block number at which to fetch.\\n    * @return The delegated vote power.\\n    */\\n    function votePowerFromToAt(address _from, address _to, uint _blockNumber) external view returns(uint256);\\n    \\n    /**\\n     * @notice Compute the current undelegated vote power of `_owner`\\n     * @param _owner The address to get undelegated voting power.\\n     * @return The unallocated vote power of `_owner`\\n     */\\n    function undelegatedVotePowerOf(address _owner) external view returns(uint256);\\n    \\n    /**\\n     * @notice Get the undelegated vote power of `_owner` at given block.\\n     * @param _owner The address to get undelegated voting power.\\n     * @param _blockNumber The block number at which to fetch.\\n     * @return The undelegated vote power of `_owner` (= owner's own balance minus all delegations from owner)\\n     */\\n    function undelegatedVotePowerOfAt(address _owner, uint256 _blockNumber) external view returns(uint256);\\n    \\n    /**\\n    * @notice Get the vote power delegation `delegationAddresses` \\n    *  and `_bips` of `_who`. Returned in two separate positional arrays.\\n    * @param _who The address to get delegations.\\n    * @return _delegateAddresses Positional array of delegation addresses.\\n    * @return _bips Positional array of delegation percents specified in basis points (1/100 or 1 percent)\\n    * @return _count The number of delegates.\\n    * @return _delegationMode The mode of the delegation (NOTSET=0, PERCENTAGE=1, AMOUNT=2).\\n    */\\n    function delegatesOf(address _who)\\n        external view \\n        returns (\\n            address[] memory _delegateAddresses,\\n            uint256[] memory _bips,\\n            uint256 _count, \\n            uint256 _delegationMode\\n        );\\n        \\n    /**\\n    * @notice Get the vote power delegation `delegationAddresses` \\n    *  and `pcts` of `_who`. Returned in two separate positional arrays.\\n    * @param _who The address to get delegations.\\n    * @param _blockNumber The block for which we want to know the delegations.\\n    * @return _delegateAddresses Positional array of delegation addresses.\\n    * @return _bips Positional array of delegation percents specified in basis points (1/100 or 1 percent)\\n    * @return _count The number of delegates.\\n    * @return _delegationMode The mode of the delegation (NOTSET=0, PERCENTAGE=1, AMOUNT=2).\\n    */\\n    function delegatesOfAt(address _who, uint256 _blockNumber)\\n        external view \\n        returns (\\n            address[] memory _delegateAddresses, \\n            uint256[] memory _bips, \\n            uint256 _count, \\n            uint256 _delegationMode\\n        );\\n\\n    /**\\n     * Returns VPContract used for readonly operations (view methods).\\n     * The only non-view method that might be called on it is `revokeDelegationAt`.\\n     *\\n     * @notice `readVotePowerContract` is almost always equal to `writeVotePowerContract`\\n     * except during upgrade from one VPContract to a new version (which should happen\\n     * rarely or never and will be anounced before).\\n     *\\n     * @notice You shouldn't call any methods on VPContract directly, all are exposed\\n     * via VPToken (and state changing methods are forbidden from direct calls). \\n     * This is the reason why this method returns `IVPContractEvents` - it should only be used\\n     * for listening to events (`Revoke` only).\\n     */\\n    function readVotePowerContract() external view returns (IVPContractEvents);\\n\\n    /**\\n     * Returns VPContract used for state changing operations (non-view methods).\\n     * The only non-view method that might be called on it is `revokeDelegationAt`.\\n     *\\n     * @notice `writeVotePowerContract` is almost always equal to `readVotePowerContract`\\n     * except during upgrade from one VPContract to a new version (which should happen\\n     * rarely or never and will be anounced before). In the case of upgrade,\\n     * `writeVotePowerContract` will be replaced first to establish delegations, and\\n     * after some perio (e.g. after a reward epoch ends) `readVotePowerContract` will be set equal to it.\\n     *\\n     * @notice You shouldn't call any methods on VPContract directly, all are exposed\\n     * via VPToken (and state changing methods are forbidden from direct calls). \\n     * This is the reason why this method returns `IVPContractEvents` - it should only be used\\n     * for listening to events (`Delegate` and `Revoke` only).\\n     */\\n    function writeVotePowerContract() external view returns (IVPContractEvents);\\n    \\n    /**\\n     * When set, allows token owners to participate in governance voting\\n     * and delegate governance vote power.\\n     */\\n    function governanceVotePower() external view returns (IGovernanceVotePower);\\n}\\n\"},\"@flarenetwork/flare-periphery-contracts/flare/util-contracts/token/userInterfaces/IVPContractEvents.sol\":{\"content\":\"// SPDX-License-Identifier: MIT\\npragma solidity >=0.7.6 <0.9;\\n\\ninterface IVPContractEvents {\\n    /**\\n     * Event triggered when an account delegates or undelegates another account. \\n     * Definition: `votePowerFromTo(from, to)` is `changed` from `priorVotePower` to `newVotePower`.\\n     * For undelegation, `newVotePower` is 0.\\n     *\\n     * Note: the event is always emitted from VPToken's `writeVotePowerContract`.\\n     */\\n    event Delegate(address indexed from, address indexed to, uint256 priorVotePower, uint256 newVotePower);\\n    \\n    /**\\n     * Event triggered only when account `delegator` revokes delegation to `delegatee`\\n     * for a single block in the past (typically the current vote block).\\n     *\\n     * Note: the event is always emitted from VPToken's `writeVotePowerContract` and/or `readVotePowerContract`.\\n     */\\n    event Revoke(address indexed delegator, address indexed delegatee, uint256 votePower, uint256 blockNumber);\\n}\\n\"},\"@flarenetwork/flare-periphery-contracts/flare/util-contracts/infrastructure/userInterfaces/IPChainStakeMirror.sol\":{\"content\":\"// SPDX-License-Identifier: MIT\\npragma solidity >=0.7.6 <0.9;\\npragma abicoder v2;\\n\\nimport \\\"./IPChainVotePower.sol\\\";\\nimport \\\"./IPChainStakeMirrorVerifier.sol\\\";\\n\\n\\n/**\\n * Interface for the `PChainStakeMirror` contract.\\n */\\ninterface IPChainStakeMirror is IPChainVotePower {\\n\\n    /**\\n     * Event emitted when max updates per block is set.\\n     * @param maxUpdatesPerBlock new number of max updated per block\\n     */\\n    event MaxUpdatesPerBlockSet(uint256 maxUpdatesPerBlock);\\n\\n    /**\\n     * Event emitted when the stake is confirmed.\\n     * @param owner The address who opened the stake.\\n     * @param nodeId Node id to which the stake was added.\\n     * @param txHash Unique tx hash - keccak256(abi.encode(PChainStake.txId, PChainStake.inputAddress));\\n     * @param amountWei Stake amount (in wei).\\n     * @param pChainTxId P-chain transaction id.\\n     */\\n    event StakeConfirmed(\\n        address indexed owner,\\n        bytes20 indexed nodeId,\\n        bytes32 indexed txHash,\\n        uint256 amountWei,\\n        bytes32 pChainTxId\\n    );\\n\\n    /**\\n     * Event emitted when the stake has ended.\\n     * @param owner The address whose stake has ended.\\n     * @param nodeId Node id from which the stake was removed.\\n     * @param txHash Unique tx hash - keccak256(abi.encode(PChainStake.txId, PChainStake.inputAddress));\\n     * @param amountWei Stake amount (in wei).\\n     */\\n    event StakeEnded(\\n        address indexed owner,\\n        bytes20 indexed nodeId,\\n        bytes32 indexed txHash,\\n        uint256 amountWei\\n    );\\n\\n    /**\\n     * Event emitted when the stake was revoked.\\n     * @param owner The address whose stake has ended.\\n     * @param nodeId Node id from which the stake was removed.\\n     * @param txHash Unique tx hash - keccak256(abi.encode(PChainStake.txId, PChainStake.inputAddress));\\n     * @param amountWei Stake amount (in wei).\\n     */\\n    event StakeRevoked(\\n        address indexed owner,\\n        bytes20 indexed nodeId,\\n        bytes32 indexed txHash,\\n        uint256 amountWei\\n    );\\n\\n    /**\\n     * Method for P-chain stake mirroring using `PChainStake` data and Merkle proof.\\n     * @param _stakeData Information about P-chain stake.\\n     * @param _merkleProof Merkle proof that should be used to prove the P-chain stake.\\n     */\\n    function mirrorStake(\\n        IPChainStakeMirrorVerifier.PChainStake calldata _stakeData,\\n        bytes32[] calldata _merkleProof\\n    )\\n        external;\\n\\n    /**\\n     * Method for checking if active stake (stake start time <= block.timestamp < stake end time) was already mirrored.\\n     * @param _txId P-chain stake transaction id.\\n     * @param _inputAddress P-chain address that opened stake.\\n     * @return True if stake is active and mirrored.\\n     */\\n    function isActiveStakeMirrored(bytes32 _txId, bytes20 _inputAddress) external view returns(bool);\\n\\n    /**\\n     * Total amount of tokens at current block.\\n     * @return The current total amount of tokens.\\n     **/\\n    function totalSupply() external view returns (uint256);\\n\\n    /**\\n     * Total amount of tokens at a specific `_blockNumber`.\\n     * @param _blockNumber The block number when the totalSupply is queried.\\n     * @return The total amount of tokens at `_blockNumber`.\\n     **/\\n    function totalSupplyAt(uint _blockNumber) external view returns(uint256);\\n\\n    /**\\n     * Queries the token balance of `_owner` at current block.\\n     * @param _owner The address from which the balance will be retrieved.\\n     * @return The current balance.\\n     **/\\n    function balanceOf(address _owner) external view returns (uint256);\\n\\n    /**\\n     * Queries the token balance of `_owner` at a specific `_blockNumber`.\\n     * @param _owner The address from which the balance will be retrieved.\\n     * @param _blockNumber The block number when the balance is queried.\\n     * @return The balance at `_blockNumber`.\\n     **/\\n    function balanceOfAt(address _owner, uint _blockNumber) external view returns (uint256);\\n}\\n\"},\"@flarenetwork/flare-periphery-contracts/flare/util-contracts/infrastructure/userInterfaces/IPChainStakeMirrorVerifier.sol\":{\"content\":\"// SPDX-License-Identifier: MIT\\npragma solidity >=0.7.6 <0.9;\\npragma abicoder v2;\\n\\n/**\\n * Interface with structure for P-chain stake mirror verifications.\\n */\\ninterface IPChainStakeMirrorVerifier {\\n\\n    /**\\n     * Structure describing the P-chain stake.\\n     */\\n    struct PChainStake {\\n        // Hash of the transaction on the underlying chain.\\n        bytes32 txId;\\n        // Type of the staking/delegation transaction: '0' for 'ADD_VALIDATOR_TX' and '1' for 'ADD_DELEGATOR_TX'.\\n        uint8 stakingType;\\n        // Input address that triggered the staking or delegation transaction.\\n        // See https://support.avax.network/en/articles/4596397-what-is-an-address for address definition for P-chain.\\n        bytes20 inputAddress;\\n        // NodeID to which staking or delegation is done.\\n        // For definitions, see https://github.com/ava-labs/avalanchego/blob/master/ids/node_id.go.\\n        bytes20 nodeId;\\n        // Start time of the staking/delegation in seconds (Unix epoch).\\n        uint64 startTime;\\n        // End time of the staking/delegation in seconds (Unix epoch).\\n        uint64 endTime;\\n        // Staked or delegated amount in Gwei (nano FLR).\\n        uint64 weight;\\n    }\\n}\\n\"},\"@flarenetwork/flare-periphery-contracts/flare/util-contracts/infrastructure/userInterfaces/IPChainVotePower.sol\":{\"content\":\"// SPDX-License-Identifier: MIT\\npragma solidity >=0.7.6 <0.9;\\n\\n/**\\n * Interface for the vote power part of the `PChainStakeMirror` contract.\\n */\\ninterface IPChainVotePower {\\n\\n    /**\\n     * Event triggered when a stake is confirmed or at the time it ends.\\n     * Definition: `votePowerFromTo(owner, nodeId)` is `changed` from `priorVotePower` to `newVotePower`.\\n     * @param owner The account that has changed the amount of vote power it is staking.\\n     * @param nodeId The node id whose received vote power has changed.\\n     * @param priorVotePower The vote power originally on that node id.\\n     * @param newVotePower The new vote power that triggered this event.\\n     */\\n    event VotePowerChanged(\\n        address indexed owner,\\n        bytes20 indexed nodeId,\\n        uint256 priorVotePower,\\n        uint256 newVotePower\\n    );\\n\\n    /**\\n     * Emitted when a vote power cache entry is created.\\n     * Allows history cleaners to track vote power cache cleanup opportunities off-chain.\\n     * @param nodeId The node id whose vote power has just been cached.\\n     * @param blockNumber The block number at which the vote power has been cached.\\n     */\\n    event VotePowerCacheCreated(bytes20 nodeId, uint256 blockNumber);\\n\\n    /**\\n    * Get the vote power of `_owner` at block `_blockNumber` using cache.\\n    *   It tries to read the cached value and if not found, reads the actual value and stores it in cache.\\n    *   Can only be used if _blockNumber is in the past, otherwise reverts.\\n    * @param _owner The node id to get voting power.\\n    * @param _blockNumber The block number at which to fetch.\\n    * @return Vote power of `_owner` at `_blockNumber`.\\n    */\\n    function votePowerOfAtCached(bytes20 _owner, uint256 _blockNumber) external returns(uint256);\\n\\n    /**\\n    * Get the total vote power at block `_blockNumber` using cache.\\n    *   It tries to read the cached value and if not found, reads the actual value and stores it in cache.\\n    *   Can only be used if `_blockNumber` is in the past, otherwise reverts.\\n    * @param _blockNumber The block number at which to fetch.\\n    * @return The total vote power at the block (sum of all accounts' vote powers).\\n    */\\n    function totalVotePowerAtCached(uint256 _blockNumber) external returns(uint256);\\n\\n    /**\\n     * Get the current total vote power.\\n     * @return The current total vote power (sum of all accounts' vote powers).\\n     */\\n    function totalVotePower() external view returns(uint256);\\n\\n    /**\\n    * Get the total vote power at block `_blockNumber`\\n    * @param _blockNumber The block number at which to fetch.\\n    * @return The total vote power at the block  (sum of all accounts' vote powers).\\n    */\\n    function totalVotePowerAt(uint _blockNumber) external view returns(uint256);\\n\\n    /**\\n     * Get the amounts and node ids being staked to by a vote power owner.\\n     * @param _owner The address being queried.\\n     * @return _nodeIds Array of node ids.\\n     * @return _amounts Array of staked amounts, for each node id.\\n     */\\n    function stakesOf(address _owner)\\n        external view\\n        returns (\\n            bytes20[] memory _nodeIds,\\n            uint256[] memory _amounts\\n        );\\n\\n    /**\\n     * Get the amounts and node ids being staked to by a vote power owner,\\n     * at a given block.\\n     * @param _owner The address being queried.\\n     * @param _blockNumber The block number being queried.\\n     * @return _nodeIds Array of node ids.\\n     * @return _amounts Array of staked amounts, for each node id.\\n     */\\n    function stakesOfAt(\\n        address _owner,\\n        uint256 _blockNumber\\n    )\\n        external view\\n        returns (\\n            bytes20[] memory _nodeIds,\\n            uint256[] memory _amounts\\n        );\\n\\n    /**\\n     * Get the current vote power of `_nodeId`.\\n     * @param _nodeId The node id to get voting power.\\n     * @return Current vote power of `_nodeId`.\\n     */\\n    function votePowerOf(bytes20 _nodeId) external view returns(uint256);\\n\\n    /**\\n    * Get the vote power of `_nodeId` at block `_blockNumber`\\n    * @param _nodeId The node id to get voting power.\\n    * @param _blockNumber The block number at which to fetch.\\n    * @return Vote power of `_nodeId` at `_blockNumber`.\\n    */\\n    function votePowerOfAt(bytes20 _nodeId, uint256 _blockNumber) external view returns(uint256);\\n\\n    /**\\n    * Get current staked vote power from `_owner` staked to `_nodeId`.\\n    * @param _owner Address of vote power owner.\\n    * @param _nodeId Node id.\\n    * @return The staked vote power.\\n    */\\n    function votePowerFromTo(address _owner, bytes20 _nodeId) external view returns(uint256);\\n\\n    /**\\n    * Get current staked vote power from `_owner` staked to `_nodeId` at `_blockNumber`.\\n    * @param _owner Address of vote power owner.\\n    * @param _nodeId Node id.\\n    * @param _blockNumber The block number at which to fetch.\\n    * @return The staked vote power.\\n    */\\n    function votePowerFromToAt(address _owner, bytes20 _nodeId, uint _blockNumber) external view returns(uint256);\\n\\n    /**\\n     * Return vote powers for several node ids in a batch.\\n     * @param _nodeIds The list of node ids to fetch vote power of.\\n     * @param _blockNumber The block number at which to fetch.\\n     * @return A list of vote powers.\\n     */\\n    function batchVotePowerOfAt(\\n        bytes20[] memory _nodeIds,\\n        uint256 _blockNumber\\n    ) external view returns(uint256[] memory);\\n}\\n\"}},\"settings\":{\"optimizer\":{\"enabled\":false,\"runs\":200},\"outputSelection\":{\"*\":{\"\":[\"ast\"],\"*\":[\"abi\",\"metadata\",\"devdoc\",\"userdoc\",\"storageLayout\",\"evm.legacyAssembly\",\"evm.bytecode\",\"evm.deployedBytecode\",\"evm.methodIdentifiers\",\"evm.gasEstimates\",\"evm.assembly\"]}},\"remappings\":[],\"evmVersion\":\"london\"}}",
	"name": "WBTCReserve",
	"bytecode": {
		"linkReferences": {},
		"object": "608060405234801561001057600080fd5b50604051610b96380380610b96833981810160405281019061003291906100db565b806000806101000a81548173ffffffffffffffffffffffffffffffffffffffff021916908373ffffffffffffffffffffffffffffffffffffffff16021790555050610108565b600080fd5b600073ffffffffffffffffffffffffffffffffffffffff82169050919050565b60006100a88261007d565b9050919050565b6100b88161009d565b81146100c357600080fd5b50565b6000815190506100d5816100af565b92915050565b6000602082840312156100f1576100f0610078565b5b60006100ff848285016100c6565b91505092915050565b610a7f806101176000396000f3fe608060405234801561001057600080fd5b50600436106100625760003560e01c806327e235e3146100675780632e1a7d4d1461009757806335403023146100b3578063670ab5e9146100cf578063ac75409a146100ed578063e54f08801461011d575b600080fd5b610081600480360381019061007c91906105d3565b61013d565b60405161008e9190610619565b60405180910390f35b6100b160048036038101906100ac9190610660565b610155565b005b6100cd60048036038101906100c89190610660565b6102cf565b005b6100d76103c9565b6040516100e4919061069c565b60405180910390f35b610107600480360381019061010291906105d3565b6103f2565b6040516101149190610619565b60405180910390f35b61012561043b565b604051610134939291906106b7565b60405180910390f35b60016020528060005260406000206000915090505481565b80600160003373ffffffffffffffffffffffffffffffffffffffff1673ffffffffffffffffffffffffffffffffffffffff1681526020019081526020016000205410156101d7576040517f08c379a00000000000000000000000000000000000000000000000000000000081526004016101ce9061074b565b60405180910390fd5b60008054906101000a900473ffffffffffffffffffffffffffffffffffffffff1673ffffffffffffffffffffffffffffffffffffffff1663a9059cbb33836040518363ffffffff1660e01b815260040161023292919061076b565b6020604051808303816000875af1158015610251573d6000803e3d6000fd5b505050506040513d601f19601f8201168201806040525081019061027591906107cc565b5080600160003373ffffffffffffffffffffffffffffffffffffffff1673ffffffffffffffffffffffffffffffffffffffff16815260200190815260200160002060008282546102c59190610828565b9250508190555050565b60008054906101000a900473ffffffffffffffffffffffffffffffffffffffff1673ffffffffffffffffffffffffffffffffffffffff166323b872dd3330846040518463ffffffff1660e01b815260040161032c9392919061085c565b6020604051808303816000875af115801561034b573d6000803e3d6000fd5b505050506040513d601f19601f8201168201806040525081019061036f91906107cc565b5080600160003373ffffffffffffffffffffffffffffffffffffffff1673ffffffffffffffffffffffffffffffffffffffff16815260200190815260200160002060008282546103bf9190610893565b9250508190555050565b60008060009054906101000a900473ffffffffffffffffffffffffffffffffffffffff16905090565b6000600160008373ffffffffffffffffffffffffffffffffffffffff1673ffffffffffffffffffffffffffffffffffffffff168152602001908152602001600020549050919050565b600080600080600080600073ad67fe66660fb8dfe9d6b1b4240d8650e30f6019905060008173ffffffffffffffffffffffffffffffffffffffff166382760fca6040518163ffffffff1660e01b815260040161049690610913565b602060405180830381865afa1580156104b3573d6000803e3d6000fd5b505050506040513d601f19601f820116820180604052508101906104d79190610948565b90508073ffffffffffffffffffffffffffffffffffffffff1663a69afdc66040518163ffffffff1660e01b8152600401610510906109c1565b606060405180830381865afa15801561052d573d6000803e3d6000fd5b505050506040513d601f19601f8201168201806040525081019061055191906109f6565b8095508196508297505050508484849750975097505050505050909192565b600080fd5b600073ffffffffffffffffffffffffffffffffffffffff82169050919050565b60006105a082610575565b9050919050565b6105b081610595565b81146105bb57600080fd5b50565b6000813590506105cd816105a7565b92915050565b6000602082840312156105e9576105e8610570565b5b60006105f7848285016105be565b91505092915050565b6000819050919050565b61061381610600565b82525050565b600060208201905061062e600083018461060a565b92915050565b61063d81610600565b811461064857600080fd5b50565b60008135905061065a81610634565b92915050565b60006020828403121561067657610675610570565b5b60006106848482850161064b565b91505092915050565b61069681610595565b82525050565b60006020820190506106b1600083018461068d565b92915050565b60006060820190506106cc600083018661060a565b6106d9602083018561060a565b6106e6604083018461060a565b949350505050565b600082825260208201905092915050565b7f496e73756666696369656e742062616c616e6365000000000000000000000000600082015250565b60006107356014836106ee565b9150610740826106ff565b602082019050919050565b6000602082019050818103600083015261076481610728565b9050919050565b6000604082019050610780600083018561068d565b61078d602083018461060a565b9392505050565b60008115159050919050565b6107a981610794565b81146107b457600080fd5b50565b6000815190506107c6816107a0565b92915050565b6000602082840312156107e2576107e1610570565b5b60006107f0848285016107b7565b91505092915050565b7f4e487b7100000000000000000000000000000000000000000000000000000000600052601160045260246000fd5b600061083382610600565b915061083e83610600565b9250828203905081811115610856576108556107f9565b5b92915050565b6000606082019050610871600083018661068d565b61087e602083018561068d565b61088b604083018461060a565b949350505050565b600061089e82610600565b91506108a983610600565b92508282019050808211156108c1576108c06107f9565b5b92915050565b7f4674736f52656769737472790000000000000000000000000000000000000000600082015250565b60006108fd600c836106ee565b9150610908826108c7565b602082019050919050565b6000602082019050818103600083015261092c816108f0565b9050919050565b600081519050610942816105a7565b92915050565b60006020828403121561095e5761095d610570565b5b600061096c84828501610933565b91505092915050565b7f7465737442544300000000000000000000000000000000000000000000000000600082015250565b60006109ab6007836106ee565b91506109b682610975565b602082019050919050565b600060208201905081810360008301526109da8161099e565b9050919050565b6000815190506109f081610634565b92915050565b600080600060608486031215610a0f57610a0e610570565b5b6000610a1d868287016109e1565b9350506020610a2e868287016109e1565b9250506040610a3f868287016109e1565b915050925092509256fea2646970667358221220888ff0eaa63c195f20779878a15a9701af06881d39b0c12575a96e965beedd3064736f6c63430008180033",
		"opcodes": "PUSH1 0x80 PUSH1 0x40 MSTORE CALLVALUE DUP1 ISZERO PUSH2 0x10 JUMPI PUSH1 0x0 DUP1 REVERT JUMPDEST POP PUSH1 0x40 MLOAD PUSH2 0xB96 CODESIZE SUB DUP1 PUSH2 0xB96 DUP4 CODECOPY DUP2 DUP2 ADD PUSH1 0x40 MSTORE DUP2 ADD SWAP1 PUSH2 0x32 SWAP2 SWAP1 PUSH2 0xDB JUMP JUMPDEST DUP1 PUSH1 0x0 DUP1 PUSH2 0x100 EXP DUP2 SLOAD DUP2 PUSH20 0xFFFFFFFFFFFFFFFFFFFFFFFFFFFFFFFFFFFFFFFF MUL NOT AND SWAP1 DUP4 PUSH20 0xFFFFFFFFFFFFFFFFFFFFFFFFFFFFFFFFFFFFFFFF AND MUL OR SWAP1 SSTORE POP POP PUSH2 0x108 JUMP JUMPDEST PUSH1 0x0 DUP1 REVERT JUMPDEST PUSH1 0x0 PUSH20 0xFFFFFFFFFFFFFFFFFFFFFFFFFFFFFFFFFFFFFFFF DUP3 AND SWAP1 POP SWAP2 SWAP1 POP JUMP JUMPDEST PUSH1 0x0 PUSH2 0xA8 DUP3 PUSH2 0x7D JUMP JUMPDEST SWAP1 POP SWAP2 SWAP1 POP JUMP JUMPDEST PUSH2 0xB8 DUP2 PUSH2 0x9D JUMP JUMPDEST DUP2 EQ PUSH2 0xC3 JUMPI PUSH1 0x0 DUP1 REVERT JUMPDEST POP JUMP JUMPDEST PUSH1 0x0 DUP2 MLOAD SWAP1 POP PUSH2 0xD5 DUP2 PUSH2 0xAF JUMP JUMPDEST SWAP3 SWAP2 POP POP JUMP JUMPDEST PUSH1 0x0 PUSH1 0x20 DUP3 DUP5 SUB SLT ISZERO PUSH2 0xF1 JUMPI PUSH2 0xF0 PUSH2 0x78 JUMP JUMPDEST JUMPDEST PUSH1 0x0 PUSH2 0xFF DUP5 DUP3 DUP6 ADD PUSH2 0xC6 JUMP JUMPDEST SWAP2 POP POP SWAP3 SWAP2 POP POP JUMP JUMPDEST PUSH2 0xA7F DUP1 PUSH2 0x117 PUSH1 0x0 CODECOPY PUSH1 0x0 RETURN INVALID PUSH1 0x80 PUSH1 0x40 MSTORE CALLVALUE DUP1 ISZERO PUSH2 0x10 JUMPI PUSH1 0x0 DUP1 REVERT JUMPDEST POP PUSH1 0x4 CALLDATASIZE LT PUSH2 0x62 JUMPI PUSH1 0x0 CALLDATALOAD PUSH1 0xE0 SHR DUP1 PUSH4 0x27E235E3 EQ PUSH2 0x67 JUMPI DUP1 PUSH4 0x2E1A7D4D EQ PUSH2 0x97 JUMPI DUP1 PUSH4 0x35403023 EQ PUSH2 0xB3 JUMPI DUP1 PUSH4 0x670AB5E9 EQ PUSH2 0xCF JUMPI DUP1 PUSH4 0xAC75409A EQ PUSH2 0xED JUMPI DUP1 PUSH4 0xE54F0880 EQ PUSH2 0x11D JUMPI JUMPDEST PUSH1 0x0 DUP1 REVERT JUMPDEST PUSH2 0x81 PUSH1 0x4 DUP1 CALLDATASIZE SUB DUP2 ADD SWAP1 PUSH2 0x7C SWAP2 SWAP1 PUSH2 0x5D3 JUMP JUMPDEST PUSH2 0x13D JUMP JUMPDEST PUSH1 0x40 MLOAD PUSH2 0x8E SWAP2 SWAP1 PUSH2 0x619 JUMP JUMPDEST PUSH1 0x40 MLOAD DUP1 SWAP2 SUB SWAP1 RETURN JUMPDEST PUSH2 0xB1 PUSH1 0x4 DUP1 CALLDATASIZE SUB DUP2 ADD SWAP1 PUSH2 0xAC SWAP2 SWAP1 PUSH2 0x660 JUMP JUMPDEST PUSH2 0x155 JUMP JUMPDEST STOP JUMPDEST PUSH2 0xCD PUSH1 0x4 DUP1 CALLDATASIZE SUB DUP2 ADD SWAP1 PUSH2 0xC8 SWAP2 SWAP1 PUSH2 0x660 JUMP JUMPDEST PUSH2 0x2CF JUMP JUMPDEST STOP JUMPDEST PUSH2 0xD7 PUSH2 0x3C9 JUMP JUMPDEST PUSH1 0x40 MLOAD PUSH2 0xE4 SWAP2 SWAP1 PUSH2 0x69C JUMP JUMPDEST PUSH1 0x40 MLOAD DUP1 SWAP2 SUB SWAP1 RETURN JUMPDEST PUSH2 0x107 PUSH1 0x4 DUP1 CALLDATASIZE SUB DUP2 ADD SWAP1 PUSH2 0x102 SWAP2 SWAP1 PUSH2 0x5D3 JUMP JUMPDEST PUSH2 0x3F2 JUMP JUMPDEST PUSH1 0x40 MLOAD PUSH2 0x114 SWAP2 SWAP1 PUSH2 0x619 JUMP JUMPDEST PUSH1 0x40 MLOAD DUP1 SWAP2 SUB SWAP1 RETURN JUMPDEST PUSH2 0x125 PUSH2 0x43B JUMP JUMPDEST PUSH1 0x40 MLOAD PUSH2 0x134 SWAP4 SWAP3 SWAP2 SWAP1 PUSH2 0x6B7 JUMP JUMPDEST PUSH1 0x40 MLOAD DUP1 SWAP2 SUB SWAP1 RETURN JUMPDEST PUSH1 0x1 PUSH1 0x20 MSTORE DUP1 PUSH1 0x0 MSTORE PUSH1 0x40 PUSH1 0x0 KECCAK256 PUSH1 0x0 SWAP2 POP SWAP1 POP SLOAD DUP2 JUMP JUMPDEST DUP1 PUSH1 0x1 PUSH1 0x0 CALLER PUSH20 0xFFFFFFFFFFFFFFFFFFFFFFFFFFFFFFFFFFFFFFFF AND PUSH20 0xFFFFFFFFFFFFFFFFFFFFFFFFFFFFFFFFFFFFFFFF AND DUP2 MSTORE PUSH1 0x20 ADD SWAP1 DUP2 MSTORE PUSH1 0x20 ADD PUSH1 0x0 KECCAK256 SLOAD LT ISZERO PUSH2 0x1D7 JUMPI PUSH1 0x40 MLOAD PUSH32 0x8C379A000000000000000000000000000000000000000000000000000000000 DUP2 MSTORE PUSH1 0x4 ADD PUSH2 0x1CE SWAP1 PUSH2 0x74B JUMP JUMPDEST PUSH1 0x40 MLOAD DUP1 SWAP2 SUB SWAP1 REVERT JUMPDEST PUSH1 0x0 DUP1 SLOAD SWAP1 PUSH2 0x100 EXP SWAP1 DIV PUSH20 0xFFFFFFFFFFFFFFFFFFFFFFFFFFFFFFFFFFFFFFFF AND PUSH20 0xFFFFFFFFFFFFFFFFFFFFFFFFFFFFFFFFFFFFFFFF AND PUSH4 0xA9059CBB CALLER DUP4 PUSH1 0x40 MLOAD DUP4 PUSH4 0xFFFFFFFF AND PUSH1 0xE0 SHL DUP2 MSTORE PUSH1 0x4 ADD PUSH2 0x232 SWAP3 SWAP2 SWAP1 PUSH2 0x76B JUMP JUMPDEST PUSH1 0x20 PUSH1 0x40 MLOAD DUP1 DUP4 SUB DUP2 PUSH1 0x0 DUP8 GAS CALL ISZERO DUP1 ISZERO PUSH2 0x251 JUMPI RETURNDATASIZE PUSH1 0x0 DUP1 RETURNDATACOPY RETURNDATASIZE PUSH1 0x0 REVERT JUMPDEST POP POP POP POP PUSH1 0x40 MLOAD RETURNDATASIZE PUSH1 0x1F NOT PUSH1 0x1F DUP3 ADD AND DUP3 ADD DUP1 PUSH1 0x40 MSTORE POP DUP2 ADD SWAP1 PUSH2 0x275 SWAP2 SWAP1 PUSH2 0x7CC JUMP JUMPDEST POP DUP1 PUSH1 0x1 PUSH1 0x0 CALLER PUSH20 0xFFFFFFFFFFFFFFFFFFFFFFFFFFFFFFFFFFFFFFFF AND PUSH20 0xFFFFFFFFFFFFFFFFFFFFFFFFFFFFFFFFFFFFFFFF AND DUP2 MSTORE PUSH1 0x20 ADD SWAP1 DUP2 MSTORE PUSH1 0x20 ADD PUSH1 0x0 KECCAK256 PUSH1 0x0 DUP3 DUP3 SLOAD PUSH2 0x2C5 SWAP2 SWAP1 PUSH2 0x828 JUMP JUMPDEST SWAP3 POP POP DUP2 SWAP1 SSTORE POP POP JUMP JUMPDEST PUSH1 0x0 DUP1 SLOAD SWAP1 PUSH2 0x100 EXP SWAP1 DIV PUSH20 0xFFFFFFFFFFFFFFFFFFFFFFFFFFFFFFFFFFFFFFFF AND PUSH20 0xFFFFFFFFFFFFFFFFFFFFFFFFFFFFFFFFFFFFFFFF AND PUSH4 0x23B872DD CALLER ADDRESS DUP5 PUSH1 0x40 MLOAD DUP5 PUSH4 0xFFFFFFFF AND PUSH1 0xE0 SHL DUP2 MSTORE PUSH1 0x4 ADD PUSH2 0x32C SWAP4 SWAP3 SWAP2 SWAP1 PUSH2 0x85C JUMP JUMPDEST PUSH1 0x20 PUSH1 0x40 MLOAD DUP1 DUP4 SUB DUP2 PUSH1 0x0 DUP8 GAS CALL ISZERO DUP1 ISZERO PUSH2 0x34B JUMPI RETURNDATASIZE PUSH1 0x0 DUP1 RETURNDATACOPY RETURNDATASIZE PUSH1 0x0 REVERT JUMPDEST POP POP POP POP PUSH1 0x40 MLOAD RETURNDATASIZE PUSH1 0x1F NOT PUSH1 0x1F DUP3 ADD AND DUP3 ADD DUP1 PUSH1 0x40 MSTORE POP DUP2 ADD SWAP1 PUSH2 0x36F SWAP2 SWAP1 PUSH2 0x7CC JUMP JUMPDEST POP DUP1 PUSH1 0x1 PUSH1 0x0 CALLER PUSH20 0xFFFFFFFFFFFFFFFFFFFFFFFFFFFFFFFFFFFFFFFF AND PUSH20 0xFFFFFFFFFFFFFFFFFFFFFFFFFFFFFFFFFFFFFFFF AND DUP2 MSTORE PUSH1 0x20 ADD SWAP1 DUP2 MSTORE PUSH1 0x20 ADD PUSH1 0x0 KECCAK256 PUSH1 0x0 DUP3 DUP3 SLOAD PUSH2 0x3BF SWAP2 SWAP1 PUSH2 0x893 JUMP JUMPDEST SWAP3 POP POP DUP2 SWAP1 SSTORE POP POP JUMP JUMPDEST PUSH1 0x0 DUP1 PUSH1 0x0 SWAP1 SLOAD SWAP1 PUSH2 0x100 EXP SWAP1 DIV PUSH20 0xFFFFFFFFFFFFFFFFFFFFFFFFFFFFFFFFFFFFFFFF AND SWAP1 POP SWAP1 JUMP JUMPDEST PUSH1 0x0 PUSH1 0x1 PUSH1 0x0 DUP4 PUSH20 0xFFFFFFFFFFFFFFFFFFFFFFFFFFFFFFFFFFFFFFFF AND PUSH20 0xFFFFFFFFFFFFFFFFFFFFFFFFFFFFFFFFFFFFFFFF AND DUP2 MSTORE PUSH1 0x20 ADD SWAP1 DUP2 MSTORE PUSH1 0x20 ADD PUSH1 0x0 KECCAK256 SLOAD SWAP1 POP SWAP2 SWAP1 POP JUMP JUMPDEST PUSH1 0x0 DUP1 PUSH1 0x0 DUP1 PUSH1 0x0 DUP1 PUSH1 0x0 PUSH20 0xAD67FE66660FB8DFE9D6B1B4240D8650E30F6019 SWAP1 POP PUSH1 0x0 DUP2 PUSH20 0xFFFFFFFFFFFFFFFFFFFFFFFFFFFFFFFFFFFFFFFF AND PUSH4 0x82760FCA PUSH1 0x40 MLOAD DUP2 PUSH4 0xFFFFFFFF AND PUSH1 0xE0 SHL DUP2 MSTORE PUSH1 0x4 ADD PUSH2 0x496 SWAP1 PUSH2 0x913 JUMP JUMPDEST PUSH1 0x20 PUSH1 0x40 MLOAD DUP1 DUP4 SUB DUP2 DUP7 GAS STATICCALL ISZERO DUP1 ISZERO PUSH2 0x4B3 JUMPI RETURNDATASIZE PUSH1 0x0 DUP1 RETURNDATACOPY RETURNDATASIZE PUSH1 0x0 REVERT JUMPDEST POP POP POP POP PUSH1 0x40 MLOAD RETURNDATASIZE PUSH1 0x1F NOT PUSH1 0x1F DUP3 ADD AND DUP3 ADD DUP1 PUSH1 0x40 MSTORE POP DUP2 ADD SWAP1 PUSH2 0x4D7 SWAP2 SWAP1 PUSH2 0x948 JUMP JUMPDEST SWAP1 POP DUP1 PUSH20 0xFFFFFFFFFFFFFFFFFFFFFFFFFFFFFFFFFFFFFFFF AND PUSH4 0xA69AFDC6 PUSH1 0x40 MLOAD DUP2 PUSH4 0xFFFFFFFF AND PUSH1 0xE0 SHL DUP2 MSTORE PUSH1 0x4 ADD PUSH2 0x510 SWAP1 PUSH2 0x9C1 JUMP JUMPDEST PUSH1 0x60 PUSH1 0x40 MLOAD DUP1 DUP4 SUB DUP2 DUP7 GAS STATICCALL ISZERO DUP1 ISZERO PUSH2 0x52D JUMPI RETURNDATASIZE PUSH1 0x0 DUP1 RETURNDATACOPY RETURNDATASIZE PUSH1 0x0 REVERT JUMPDEST POP POP POP POP PUSH1 0x40 MLOAD RETURNDATASIZE PUSH1 0x1F NOT PUSH1 0x1F DUP3 ADD AND DUP3 ADD DUP1 PUSH1 0x40 MSTORE POP DUP2 ADD SWAP1 PUSH2 0x551 SWAP2 SWAP1 PUSH2 0x9F6 JUMP JUMPDEST DUP1 SWAP6 POP DUP2 SWAP7 POP DUP3 SWAP8 POP POP POP POP DUP5 DUP5 DUP5 SWAP8 POP SWAP8 POP SWAP8 POP POP POP POP POP POP SWAP1 SWAP2 SWAP3 JUMP JUMPDEST PUSH1 0x0 DUP1 REVERT JUMPDEST PUSH1 0x0 PUSH20 0xFFFFFFFFFFFFFFFFFFFFFFFFFFFFFFFFFFFFFFFF DUP3 AND SWAP1 POP SWAP2 SWAP1 POP JUMP JUMPDEST PUSH1 0x0 PUSH2 0x5A0 DUP3 PUSH2 0x575 JUMP JUMPDEST SWAP1 POP SWAP2 SWAP1 POP JUMP JUMPDEST PUSH2 0x5B0 DUP2 PUSH2 0x595 JUMP JUMPDEST DUP2 EQ PUSH2 0x5BB JUMPI PUSH1 0x0 DUP1 REVERT JUMPDEST POP JUMP JUMPDEST PUSH1 0x0 DUP2 CALLDATALOAD SWAP1 POP PUSH2 0x5CD DUP2 PUSH2 0x5A7 JUMP JUMPDEST SWAP3 SWAP2 POP POP JUMP JUMPDEST PUSH1 0x0 PUSH1 0x20 DUP3 DUP5 SUB SLT ISZERO PUSH2 0x5E9 JUMPI PUSH2 0x5E8 PUSH2 0x570 JUMP JUMPDEST JUMPDEST PUSH1 0x0 PUSH2 0x5F7 DUP5 DUP3 DUP6 ADD PUSH2 0x5BE JUMP JUMPDEST SWAP2 POP POP SWAP3 SWAP2 POP POP JUMP JUMPDEST PUSH1 0x0 DUP2 SWAP1 POP SWAP2 SWAP1 POP JUMP JUMPDEST PUSH2 0x613 DUP2 PUSH2 0x600 JUMP JUMPDEST DUP3 MSTORE POP POP JUMP JUMPDEST PUSH1 0x0 PUSH1 0x20 DUP3 ADD SWAP1 POP PUSH2 0x62E PUSH1 0x0 DUP4 ADD DUP5 PUSH2 0x60A JUMP JUMPDEST SWAP3 SWAP2 POP POP JUMP JUMPDEST PUSH2 0x63D DUP2 PUSH2 0x600 JUMP JUMPDEST DUP2 EQ PUSH2 0x648 JUMPI PUSH1 0x0 DUP1 REVERT JUMPDEST POP JUMP JUMPDEST PUSH1 0x0 DUP2 CALLDATALOAD SWAP1 POP PUSH2 0x65A DUP2 PUSH2 0x634 JUMP JUMPDEST SWAP3 SWAP2 POP POP JUMP JUMPDEST PUSH1 0x0 PUSH1 0x20 DUP3 DUP5 SUB SLT ISZERO PUSH2 0x676 JUMPI PUSH2 0x675 PUSH2 0x570 JUMP JUMPDEST JUMPDEST PUSH1 0x0 PUSH2 0x684 DUP5 DUP3 DUP6 ADD PUSH2 0x64B JUMP JUMPDEST SWAP2 POP POP SWAP3 SWAP2 POP POP JUMP JUMPDEST PUSH2 0x696 DUP2 PUSH2 0x595 JUMP JUMPDEST DUP3 MSTORE POP POP JUMP JUMPDEST PUSH1 0x0 PUSH1 0x20 DUP3 ADD SWAP1 POP PUSH2 0x6B1 PUSH1 0x0 DUP4 ADD DUP5 PUSH2 0x68D JUMP JUMPDEST SWAP3 SWAP2 POP POP JUMP JUMPDEST PUSH1 0x0 PUSH1 0x60 DUP3 ADD SWAP1 POP PUSH2 0x6CC PUSH1 0x0 DUP4 ADD DUP7 PUSH2 0x60A JUMP JUMPDEST PUSH2 0x6D9 PUSH1 0x20 DUP4 ADD DUP6 PUSH2 0x60A JUMP JUMPDEST PUSH2 0x6E6 PUSH1 0x40 DUP4 ADD DUP5 PUSH2 0x60A JUMP JUMPDEST SWAP5 SWAP4 POP POP POP POP JUMP JUMPDEST PUSH1 0x0 DUP3 DUP3 MSTORE PUSH1 0x20 DUP3 ADD SWAP1 POP SWAP3 SWAP2 POP POP JUMP JUMPDEST PUSH32 0x496E73756666696369656E742062616C616E6365000000000000000000000000 PUSH1 0x0 DUP3 ADD MSTORE POP JUMP JUMPDEST PUSH1 0x0 PUSH2 0x735 PUSH1 0x14 DUP4 PUSH2 0x6EE JUMP JUMPDEST SWAP2 POP PUSH2 0x740 DUP3 PUSH2 0x6FF JUMP JUMPDEST PUSH1 0x20 DUP3 ADD SWAP1 POP SWAP2 SWAP1 POP JUMP JUMPDEST PUSH1 0x0 PUSH1 0x20 DUP3 ADD SWAP1 POP DUP2 DUP2 SUB PUSH1 0x0 DUP4 ADD MSTORE PUSH2 0x764 DUP2 PUSH2 0x728 JUMP JUMPDEST SWAP1 POP SWAP2 SWAP1 POP JUMP JUMPDEST PUSH1 0x0 PUSH1 0x40 DUP3 ADD SWAP1 POP PUSH2 0x780 PUSH1 0x0 DUP4 ADD DUP6 PUSH2 0x68D JUMP JUMPDEST PUSH2 0x78D PUSH1 0x20 DUP4 ADD DUP5 PUSH2 0x60A JUMP JUMPDEST SWAP4 SWAP3 POP POP POP JUMP JUMPDEST PUSH1 0x0 DUP2 ISZERO ISZERO SWAP1 POP SWAP2 SWAP1 POP JUMP JUMPDEST PUSH2 0x7A9 DUP2 PUSH2 0x794 JUMP JUMPDEST DUP2 EQ PUSH2 0x7B4 JUMPI PUSH1 0x0 DUP1 REVERT JUMPDEST POP JUMP JUMPDEST PUSH1 0x0 DUP2 MLOAD SWAP1 POP PUSH2 0x7C6 DUP2 PUSH2 0x7A0 JUMP JUMPDEST SWAP3 SWAP2 POP POP JUMP JUMPDEST PUSH1 0x0 PUSH1 0x20 DUP3 DUP5 SUB SLT ISZERO PUSH2 0x7E2 JUMPI PUSH2 0x7E1 PUSH2 0x570 JUMP JUMPDEST JUMPDEST PUSH1 0x0 PUSH2 0x7F0 DUP5 DUP3 DUP6 ADD PUSH2 0x7B7 JUMP JUMPDEST SWAP2 POP POP SWAP3 SWAP2 POP POP JUMP JUMPDEST PUSH32 0x4E487B7100000000000000000000000000000000000000000000000000000000 PUSH1 0x0 MSTORE PUSH1 0x11 PUSH1 0x4 MSTORE PUSH1 0x24 PUSH1 0x0 REVERT JUMPDEST PUSH1 0x0 PUSH2 0x833 DUP3 PUSH2 0x600 JUMP JUMPDEST SWAP2 POP PUSH2 0x83E DUP4 PUSH2 0x600 JUMP JUMPDEST SWAP3 POP DUP3 DUP3 SUB SWAP1 POP DUP2 DUP2 GT ISZERO PUSH2 0x856 JUMPI PUSH2 0x855 PUSH2 0x7F9 JUMP JUMPDEST JUMPDEST SWAP3 SWAP2 POP POP JUMP JUMPDEST PUSH1 0x0 PUSH1 0x60 DUP3 ADD SWAP1 POP PUSH2 0x871 PUSH1 0x0 DUP4 ADD DUP7 PUSH2 0x68D JUMP JUMPDEST PUSH2 0x87E PUSH1 0x20 DUP4 ADD DUP6 PUSH2 0x68D JUMP JUMPDEST PUSH2 0x88B PUSH1 0x40 DUP4 ADD DUP5 PUSH2 0x60A JUMP JUMPDEST SWAP5 SWAP4 POP POP POP POP JUMP JUMPDEST PUSH1 0x0 PUSH2 0x89E DUP3 PUSH2 0x600 JUMP JUMPDEST SWAP2 POP PUSH2 0x8A9 DUP4 PUSH2 0x600 JUMP JUMPDEST SWAP3 POP DUP3 DUP3 ADD SWAP1 POP DUP1 DUP3 GT ISZERO PUSH2 0x8C1 JUMPI PUSH2 0x8C0 PUSH2 0x7F9 JUMP JUMPDEST JUMPDEST SWAP3 SWAP2 POP POP JUMP JUMPDEST PUSH32 0x4674736F52656769737472790000000000000000000000000000000000000000 PUSH1 0x0 DUP3 ADD MSTORE POP JUMP JUMPDEST PUSH1 0x0 PUSH2 0x8FD PUSH1 0xC DUP4 PUSH2 0x6EE JUMP JUMPDEST SWAP2 POP PUSH2 0x908 DUP3 PUSH2 0x8C7 JUMP JUMPDEST PUSH1 0x20 DUP3 ADD SWAP1 POP SWAP2 SWAP1 POP JUMP JUMPDEST PUSH1 0x0 PUSH1 0x20 DUP3 ADD SWAP1 POP DUP2 DUP2 SUB PUSH1 0x0 DUP4 ADD MSTORE PUSH2 0x92C DUP2 PUSH2 0x8F0 JUMP JUMPDEST SWAP1 POP SWAP2 SWAP1 POP JUMP JUMPDEST PUSH1 0x0 DUP2 MLOAD SWAP1 POP PUSH2 0x942 DUP2 PUSH2 0x5A7 JUMP JUMPDEST SWAP3 SWAP2 POP POP JUMP JUMPDEST PUSH1 0x0 PUSH1 0x20 DUP3 DUP5 SUB SLT ISZERO PUSH2 0x95E JUMPI PUSH2 0x95D PUSH2 0x570 JUMP JUMPDEST JUMPDEST PUSH1 0x0 PUSH2 0x96C DUP5 DUP3 DUP6 ADD PUSH2 0x933 JUMP JUMPDEST SWAP2 POP POP SWAP3 SWAP2 POP POP JUMP JUMPDEST PUSH32 0x7465737442544300000000000000000000000000000000000000000000000000 PUSH1 0x0 DUP3 ADD MSTORE POP JUMP JUMPDEST PUSH1 0x0 PUSH2 0x9AB PUSH1 0x7 DUP4 PUSH2 0x6EE JUMP JUMPDEST SWAP2 POP PUSH2 0x9B6 DUP3 PUSH2 0x975 JUMP JUMPDEST PUSH1 0x20 DUP3 ADD SWAP1 POP SWAP2 SWAP1 POP JUMP JUMPDEST PUSH1 0x0 PUSH1 0x20 DUP3 ADD SWAP1 POP DUP2 DUP2 SUB PUSH1 0x0 DUP4 ADD MSTORE PUSH2 0x9DA DUP2 PUSH2 0x99E JUMP JUMPDEST SWAP1 POP SWAP2 SWAP1 POP JUMP JUMPDEST PUSH1 0x0 DUP2 MLOAD SWAP1 POP PUSH2 0x9F0 DUP2 PUSH2 0x634 JUMP JUMPDEST SWAP3 SWAP2 POP POP JUMP JUMPDEST PUSH1 0x0 DUP1 PUSH1 0x0 PUSH1 0x60 DUP5 DUP7 SUB SLT ISZERO PUSH2 0xA0F JUMPI PUSH2 0xA0E PUSH2 0x570 JUMP JUMPDEST JUMPDEST PUSH1 0x0 PUSH2 0xA1D DUP7 DUP3 DUP8 ADD PUSH2 0x9E1 JUMP JUMPDEST SWAP4 POP POP PUSH1 0x20 PUSH2 0xA2E DUP7 DUP3 DUP8 ADD PUSH2 0x9E1 JUMP JUMPDEST SWAP3 POP POP PUSH1 0x40 PUSH2 0xA3F DUP7 DUP3 DUP8 ADD PUSH2 0x9E1 JUMP JUMPDEST SWAP2 POP POP SWAP3 POP SWAP3 POP SWAP3 JUMP INVALID LOG2 PUSH5 0x6970667358 0x22 SLT KECCAK256 DUP9 DUP16 CREATE 0xEA 0xA6 EXTCODECOPY NOT PUSH0 KECCAK256 PUSH24 0x9878A15A9701AF06881D39B0C12575A96E965BEEDD306473 PUSH16 0x6C634300081800330000000000000000 "
	},
	"abi": [
		{
			"inputs": [
				{
					"internalType": "address",
					"name": "_wBTC",
					"type": "address"
				}
			],
			"stateMutability": "nonpayable",
			"type": "constructor"
		},
		{
			"inputs": [
				{
					"internalType": "address",
					"name": "",
					"type": "address"
				}
			],
			"name": "balances",
			"outputs": [
				{
					"internalType": "uint256",
					"name": "",
					"type": "uint256"
				}
			],
			"stateMutability": "view",
			"type": "function"
		},
		{
			"inputs": [],
			"name": "getAssetAddress",
			"outputs": [
				{
					"internalType": "address",
					"name": "",
					"type": "address"
				}
			],
			"stateMutability": "view",
			"type": "function"
		},
		{
			"inputs": [],
			"name": "getAssetPrice",
			"outputs": [
				{
					"internalType": "uint256",
					"name": "",
					"type": "uint256"
				},
				{
					"internalType": "uint256",
					"name": "",
					"type": "uint256"
				},
				{
					"internalType": "uint256",
					"name": "",
					"type": "uint256"
				}
			],
			"stateMutability": "view",
			"type": "function"
		},
		{
			"inputs": [
				{
					"internalType": "address",
					"name": "user",
					"type": "address"
				}
			],
			"name": "getSupplyedAmount",
			"outputs": [
				{
					"internalType": "uint256",
					"name": "",
					"type": "uint256"
				}
			],
			"stateMutability": "view",
			"type": "function"
		},
		{
			"inputs": [
				{
					"internalType": "uint256",
					"name": "amount",
					"type": "uint256"
				}
			],
			"name": "supply",
			"outputs": [],
			"stateMutability": "nonpayable",
			"type": "function"
		},
		{
			"inputs": [
				{
					"internalType": "uint256",
					"name": "amount",
					"type": "uint256"
				}
			],
			"name": "withdraw",
			"outputs": [],
			"stateMutability": "nonpayable",
			"type": "function"
		}
	],
	"storageLayout": {
		"storage": [
			{
				"astId": 1671,
				"contract": "contracts/WBTCReserve.sol:WBTCReserve",
				"label": "wbtc",
				"offset": 0,
				"slot": "0",
				"type": "t_contract(IERC20)1656"
			},
			{
				"astId": 1675,
				"contract": "contracts/WBTCReserve.sol:WBTCReserve",
				"label": "balances",
				"offset": 0,
				"slot": "1",
				"type": "t_mapping(t_address,t_uint256)"
			}
		],
		"types": {
			"t_address": {
				"encoding": "inplace",
				"label": "address",
				"numberOfBytes": "20"
			},
			"t_contract(IERC20)1656": {
				"encoding": "inplace",
				"label": "contract IERC20",
				"numberOfBytes": "20"
			},
			"t_mapping(t_address,t_uint256)": {
				"encoding": "mapping",
				"key": "t_address",
				"label": "mapping(address => uint256)",
				"numberOfBytes": "32",
				"value": "t_uint256"
			},
			"t_uint256": {
				"encoding": "inplace",
				"label": "uint256",
				"numberOfBytes": "32"
			}
		}
	},
	"web3Deploy": "var _wBTC = /* var of type address here */ ;\nvar wbtcreserveContract = new web3.eth.Contract([{\"inputs\":[{\"internalType\":\"address\",\"name\":\"_wBTC\",\"type\":\"address\"}],\"stateMutability\":\"nonpayable\",\"type\":\"constructor\"},{\"inputs\":[{\"internalType\":\"address\",\"name\":\"\",\"type\":\"address\"}],\"name\":\"balances\",\"outputs\":[{\"internalType\":\"uint256\",\"name\":\"\",\"type\":\"uint256\"}],\"stateMutability\":\"view\",\"type\":\"function\"},{\"inputs\":[],\"name\":\"getAssetAddress\",\"outputs\":[{\"internalType\":\"address\",\"name\":\"\",\"type\":\"address\"}],\"stateMutability\":\"view\",\"type\":\"function\"},{\"inputs\":[],\"name\":\"getAssetPrice\",\"outputs\":[{\"internalType\":\"uint256\",\"name\":\"\",\"type\":\"uint256\"},{\"internalType\":\"uint256\",\"name\":\"\",\"type\":\"uint256\"},{\"internalType\":\"uint256\",\"name\":\"\",\"type\":\"uint256\"}],\"stateMutability\":\"view\",\"type\":\"function\"},{\"inputs\":[{\"internalType\":\"address\",\"name\":\"user\",\"type\":\"address\"}],\"name\":\"getSupplyedAmount\",\"outputs\":[{\"internalType\":\"uint256\",\"name\":\"\",\"type\":\"uint256\"}],\"stateMutability\":\"view\",\"type\":\"function\"},{\"inputs\":[{\"internalType\":\"uint256\",\"name\":\"amount\",\"type\":\"uint256\"}],\"name\":\"supply\",\"outputs\":[],\"stateMutability\":\"nonpayable\",\"type\":\"function\"},{\"inputs\":[{\"internalType\":\"uint256\",\"name\":\"amount\",\"type\":\"uint256\"}],\"name\":\"withdraw\",\"outputs\":[],\"stateMutability\":\"nonpayable\",\"type\":\"function\"}]);\nvar wbtcreserve = wbtcreserveContract.deploy({\n     data: '0x608060405234801561001057600080fd5b50604051610b96380380610b96833981810160405281019061003291906100db565b806000806101000a81548173ffffffffffffffffffffffffffffffffffffffff021916908373ffffffffffffffffffffffffffffffffffffffff16021790555050610108565b600080fd5b600073ffffffffffffffffffffffffffffffffffffffff82169050919050565b60006100a88261007d565b9050919050565b6100b88161009d565b81146100c357600080fd5b50565b6000815190506100d5816100af565b92915050565b6000602082840312156100f1576100f0610078565b5b60006100ff848285016100c6565b91505092915050565b610a7f806101176000396000f3fe608060405234801561001057600080fd5b50600436106100625760003560e01c806327e235e3146100675780632e1a7d4d1461009757806335403023146100b3578063670ab5e9146100cf578063ac75409a146100ed578063e54f08801461011d575b600080fd5b610081600480360381019061007c91906105d3565b61013d565b60405161008e9190610619565b60405180910390f35b6100b160048036038101906100ac9190610660565b610155565b005b6100cd60048036038101906100c89190610660565b6102cf565b005b6100d76103c9565b6040516100e4919061069c565b60405180910390f35b610107600480360381019061010291906105d3565b6103f2565b6040516101149190610619565b60405180910390f35b61012561043b565b604051610134939291906106b7565b60405180910390f35b60016020528060005260406000206000915090505481565b80600160003373ffffffffffffffffffffffffffffffffffffffff1673ffffffffffffffffffffffffffffffffffffffff1681526020019081526020016000205410156101d7576040517f08c379a00000000000000000000000000000000000000000000000000000000081526004016101ce9061074b565b60405180910390fd5b60008054906101000a900473ffffffffffffffffffffffffffffffffffffffff1673ffffffffffffffffffffffffffffffffffffffff1663a9059cbb33836040518363ffffffff1660e01b815260040161023292919061076b565b6020604051808303816000875af1158015610251573d6000803e3d6000fd5b505050506040513d601f19601f8201168201806040525081019061027591906107cc565b5080600160003373ffffffffffffffffffffffffffffffffffffffff1673ffffffffffffffffffffffffffffffffffffffff16815260200190815260200160002060008282546102c59190610828565b9250508190555050565b60008054906101000a900473ffffffffffffffffffffffffffffffffffffffff1673ffffffffffffffffffffffffffffffffffffffff166323b872dd3330846040518463ffffffff1660e01b815260040161032c9392919061085c565b6020604051808303816000875af115801561034b573d6000803e3d6000fd5b505050506040513d601f19601f8201168201806040525081019061036f91906107cc565b5080600160003373ffffffffffffffffffffffffffffffffffffffff1673ffffffffffffffffffffffffffffffffffffffff16815260200190815260200160002060008282546103bf9190610893565b9250508190555050565b60008060009054906101000a900473ffffffffffffffffffffffffffffffffffffffff16905090565b6000600160008373ffffffffffffffffffffffffffffffffffffffff1673ffffffffffffffffffffffffffffffffffffffff168152602001908152602001600020549050919050565b600080600080600080600073ad67fe66660fb8dfe9d6b1b4240d8650e30f6019905060008173ffffffffffffffffffffffffffffffffffffffff166382760fca6040518163ffffffff1660e01b815260040161049690610913565b602060405180830381865afa1580156104b3573d6000803e3d6000fd5b505050506040513d601f19601f820116820180604052508101906104d79190610948565b90508073ffffffffffffffffffffffffffffffffffffffff1663a69afdc66040518163ffffffff1660e01b8152600401610510906109c1565b606060405180830381865afa15801561052d573d6000803e3d6000fd5b505050506040513d601f19601f8201168201806040525081019061055191906109f6565b8095508196508297505050508484849750975097505050505050909192565b600080fd5b600073ffffffffffffffffffffffffffffffffffffffff82169050919050565b60006105a082610575565b9050919050565b6105b081610595565b81146105bb57600080fd5b50565b6000813590506105cd816105a7565b92915050565b6000602082840312156105e9576105e8610570565b5b60006105f7848285016105be565b91505092915050565b6000819050919050565b61061381610600565b82525050565b600060208201905061062e600083018461060a565b92915050565b61063d81610600565b811461064857600080fd5b50565b60008135905061065a81610634565b92915050565b60006020828403121561067657610675610570565b5b60006106848482850161064b565b91505092915050565b61069681610595565b82525050565b60006020820190506106b1600083018461068d565b92915050565b60006060820190506106cc600083018661060a565b6106d9602083018561060a565b6106e6604083018461060a565b949350505050565b600082825260208201905092915050565b7f496e73756666696369656e742062616c616e6365000000000000000000000000600082015250565b60006107356014836106ee565b9150610740826106ff565b602082019050919050565b6000602082019050818103600083015261076481610728565b9050919050565b6000604082019050610780600083018561068d565b61078d602083018461060a565b9392505050565b60008115159050919050565b6107a981610794565b81146107b457600080fd5b50565b6000815190506107c6816107a0565b92915050565b6000602082840312156107e2576107e1610570565b5b60006107f0848285016107b7565b91505092915050565b7f4e487b7100000000000000000000000000000000000000000000000000000000600052601160045260246000fd5b600061083382610600565b915061083e83610600565b9250828203905081811115610856576108556107f9565b5b92915050565b6000606082019050610871600083018661068d565b61087e602083018561068d565b61088b604083018461060a565b949350505050565b600061089e82610600565b91506108a983610600565b92508282019050808211156108c1576108c06107f9565b5b92915050565b7f4674736f52656769737472790000000000000000000000000000000000000000600082015250565b60006108fd600c836106ee565b9150610908826108c7565b602082019050919050565b6000602082019050818103600083015261092c816108f0565b9050919050565b600081519050610942816105a7565b92915050565b60006020828403121561095e5761095d610570565b5b600061096c84828501610933565b91505092915050565b7f7465737442544300000000000000000000000000000000000000000000000000600082015250565b60006109ab6007836106ee565b91506109b682610975565b602082019050919050565b600060208201905081810360008301526109da8161099e565b9050919050565b6000815190506109f081610634565b92915050565b600080600060608486031215610a0f57610a0e610570565b5b6000610a1d868287016109e1565b9350506020610a2e868287016109e1565b9250506040610a3f868287016109e1565b915050925092509256fea2646970667358221220888ff0eaa63c195f20779878a15a9701af06881d39b0c12575a96e965beedd3064736f6c63430008180033', \n     arguments: [\n          _wBTC,\n     ]\n}).send({\n     from: web3.eth.accounts[0], \n     gas: '4700000'\n   }, function (e, contract){\n    console.log(e, contract);\n    if (typeof contract.address !== 'undefined') {\n         console.log('Contract mined! address: ' + contract.address + ' transactionHash: ' + contract.transactionHash);\n    }\n })",
	"functionHashes": {
		"35403023": "supply(uint256)",
		"27e235e3": "balances(address)",
		"670ab5e9": "getAssetAddress()",
		"e54f0880": "getAssetPrice()",
		"ac75409a": "getSupplyedAmount(address)",
		"2e1a7d4d": "withdraw(uint256)"
	},
	"gasEstimates": {
		"Creation": {
			"codeDepositCost": "537400",
			"executionCost": "infinite",
			"totalCost": "infinite"
		},
		"External": {
			"balances(address)": "2792",
			"getAssetAddress()": "2566",
			"getAssetPrice()": "infinite",
			"getSupplyedAmount(address)": "2907",
			"supply(uint256)": "infinite",
			"withdraw(uint256)": "infinite"
		}
	},
	"devdoc": {
		"kind": "dev",
		"methods": {},
		"version": 1
	},
	"userdoc": {
		"kind": "user",
		"methods": {},
		"version": 1
	},
	"Runtime Bytecode": {
		"immutableReferences": {},
		"linkReferences": {},
		"object": "608060405234801561001057600080fd5b50600436106100625760003560e01c806327e235e3146100675780632e1a7d4d1461009757806335403023146100b3578063670ab5e9146100cf578063ac75409a146100ed578063e54f08801461011d575b600080fd5b610081600480360381019061007c91906105d3565b61013d565b60405161008e9190610619565b60405180910390f35b6100b160048036038101906100ac9190610660565b610155565b005b6100cd60048036038101906100c89190610660565b6102cf565b005b6100d76103c9565b6040516100e4919061069c565b60405180910390f35b610107600480360381019061010291906105d3565b6103f2565b6040516101149190610619565b60405180910390f35b61012561043b565b604051610134939291906106b7565b60405180910390f35b60016020528060005260406000206000915090505481565b80600160003373ffffffffffffffffffffffffffffffffffffffff1673ffffffffffffffffffffffffffffffffffffffff1681526020019081526020016000205410156101d7576040517f08c379a00000000000000000000000000000000000000000000000000000000081526004016101ce9061074b565b60405180910390fd5b60008054906101000a900473ffffffffffffffffffffffffffffffffffffffff1673ffffffffffffffffffffffffffffffffffffffff1663a9059cbb33836040518363ffffffff1660e01b815260040161023292919061076b565b6020604051808303816000875af1158015610251573d6000803e3d6000fd5b505050506040513d601f19601f8201168201806040525081019061027591906107cc565b5080600160003373ffffffffffffffffffffffffffffffffffffffff1673ffffffffffffffffffffffffffffffffffffffff16815260200190815260200160002060008282546102c59190610828565b9250508190555050565b60008054906101000a900473ffffffffffffffffffffffffffffffffffffffff1673ffffffffffffffffffffffffffffffffffffffff166323b872dd3330846040518463ffffffff1660e01b815260040161032c9392919061085c565b6020604051808303816000875af115801561034b573d6000803e3d6000fd5b505050506040513d601f19601f8201168201806040525081019061036f91906107cc565b5080600160003373ffffffffffffffffffffffffffffffffffffffff1673ffffffffffffffffffffffffffffffffffffffff16815260200190815260200160002060008282546103bf9190610893565b9250508190555050565b60008060009054906101000a900473ffffffffffffffffffffffffffffffffffffffff16905090565b6000600160008373ffffffffffffffffffffffffffffffffffffffff1673ffffffffffffffffffffffffffffffffffffffff168152602001908152602001600020549050919050565b600080600080600080600073ad67fe66660fb8dfe9d6b1b4240d8650e30f6019905060008173ffffffffffffffffffffffffffffffffffffffff166382760fca6040518163ffffffff1660e01b815260040161049690610913565b602060405180830381865afa1580156104b3573d6000803e3d6000fd5b505050506040513d601f19601f820116820180604052508101906104d79190610948565b90508073ffffffffffffffffffffffffffffffffffffffff1663a69afdc66040518163ffffffff1660e01b8152600401610510906109c1565b606060405180830381865afa15801561052d573d6000803e3d6000fd5b505050506040513d601f19601f8201168201806040525081019061055191906109f6565b8095508196508297505050508484849750975097505050505050909192565b600080fd5b600073ffffffffffffffffffffffffffffffffffffffff82169050919050565b60006105a082610575565b9050919050565b6105b081610595565b81146105bb57600080fd5b50565b6000813590506105cd816105a7565b92915050565b6000602082840312156105e9576105e8610570565b5b60006105f7848285016105be565b91505092915050565b6000819050919050565b61061381610600565b82525050565b600060208201905061062e600083018461060a565b92915050565b61063d81610600565b811461064857600080fd5b50565b60008135905061065a81610634565b92915050565b60006020828403121561067657610675610570565b5b60006106848482850161064b565b91505092915050565b61069681610595565b82525050565b60006020820190506106b1600083018461068d565b92915050565b60006060820190506106cc600083018661060a565b6106d9602083018561060a565b6106e6604083018461060a565b949350505050565b600082825260208201905092915050565b7f496e73756666696369656e742062616c616e6365000000000000000000000000600082015250565b60006107356014836106ee565b9150610740826106ff565b602082019050919050565b6000602082019050818103600083015261076481610728565b9050919050565b6000604082019050610780600083018561068d565b61078d602083018461060a565b9392505050565b60008115159050919050565b6107a981610794565b81146107b457600080fd5b50565b6000815190506107c6816107a0565b92915050565b6000602082840312156107e2576107e1610570565b5b60006107f0848285016107b7565b91505092915050565b7f4e487b7100000000000000000000000000000000000000000000000000000000600052601160045260246000fd5b600061083382610600565b915061083e83610600565b9250828203905081811115610856576108556107f9565b5b92915050565b6000606082019050610871600083018661068d565b61087e602083018561068d565b61088b604083018461060a565b949350505050565b600061089e82610600565b91506108a983610600565b92508282019050808211156108c1576108c06107f9565b5b92915050565b7f4674736f52656769737472790000000000000000000000000000000000000000600082015250565b60006108fd600c836106ee565b9150610908826108c7565b602082019050919050565b6000602082019050818103600083015261092c816108f0565b9050919050565b600081519050610942816105a7565b92915050565b60006020828403121561095e5761095d610570565b5b600061096c84828501610933565b91505092915050565b7f7465737442544300000000000000000000000000000000000000000000000000600082015250565b60006109ab6007836106ee565b91506109b682610975565b602082019050919050565b600060208201905081810360008301526109da8161099e565b9050919050565b6000815190506109f081610634565b92915050565b600080600060608486031215610a0f57610a0e610570565b5b6000610a1d868287016109e1565b9350506020610a2e868287016109e1565b9250506040610a3f868287016109e1565b915050925092509256fea2646970667358221220888ff0eaa63c195f20779878a15a9701af06881d39b0c12575a96e965beedd3064736f6c63430008180033",
		"opcodes": "PUSH1 0x80 PUSH1 0x40 MSTORE CALLVALUE DUP1 ISZERO PUSH2 0x10 JUMPI PUSH1 0x0 DUP1 REVERT JUMPDEST POP PUSH1 0x4 CALLDATASIZE LT PUSH2 0x62 JUMPI PUSH1 0x0 CALLDATALOAD PUSH1 0xE0 SHR DUP1 PUSH4 0x27E235E3 EQ PUSH2 0x67 JUMPI DUP1 PUSH4 0x2E1A7D4D EQ PUSH2 0x97 JUMPI DUP1 PUSH4 0x35403023 EQ PUSH2 0xB3 JUMPI DUP1 PUSH4 0x670AB5E9 EQ PUSH2 0xCF JUMPI DUP1 PUSH4 0xAC75409A EQ PUSH2 0xED JUMPI DUP1 PUSH4 0xE54F0880 EQ PUSH2 0x11D JUMPI JUMPDEST PUSH1 0x0 DUP1 REVERT JUMPDEST PUSH2 0x81 PUSH1 0x4 DUP1 CALLDATASIZE SUB DUP2 ADD SWAP1 PUSH2 0x7C SWAP2 SWAP1 PUSH2 0x5D3 JUMP JUMPDEST PUSH2 0x13D JUMP JUMPDEST PUSH1 0x40 MLOAD PUSH2 0x8E SWAP2 SWAP1 PUSH2 0x619 JUMP JUMPDEST PUSH1 0x40 MLOAD DUP1 SWAP2 SUB SWAP1 RETURN JUMPDEST PUSH2 0xB1 PUSH1 0x4 DUP1 CALLDATASIZE SUB DUP2 ADD SWAP1 PUSH2 0xAC SWAP2 SWAP1 PUSH2 0x660 JUMP JUMPDEST PUSH2 0x155 JUMP JUMPDEST STOP JUMPDEST PUSH2 0xCD PUSH1 0x4 DUP1 CALLDATASIZE SUB DUP2 ADD SWAP1 PUSH2 0xC8 SWAP2 SWAP1 PUSH2 0x660 JUMP JUMPDEST PUSH2 0x2CF JUMP JUMPDEST STOP JUMPDEST PUSH2 0xD7 PUSH2 0x3C9 JUMP JUMPDEST PUSH1 0x40 MLOAD PUSH2 0xE4 SWAP2 SWAP1 PUSH2 0x69C JUMP JUMPDEST PUSH1 0x40 MLOAD DUP1 SWAP2 SUB SWAP1 RETURN JUMPDEST PUSH2 0x107 PUSH1 0x4 DUP1 CALLDATASIZE SUB DUP2 ADD SWAP1 PUSH2 0x102 SWAP2 SWAP1 PUSH2 0x5D3 JUMP JUMPDEST PUSH2 0x3F2 JUMP JUMPDEST PUSH1 0x40 MLOAD PUSH2 0x114 SWAP2 SWAP1 PUSH2 0x619 JUMP JUMPDEST PUSH1 0x40 MLOAD DUP1 SWAP2 SUB SWAP1 RETURN JUMPDEST PUSH2 0x125 PUSH2 0x43B JUMP JUMPDEST PUSH1 0x40 MLOAD PUSH2 0x134 SWAP4 SWAP3 SWAP2 SWAP1 PUSH2 0x6B7 JUMP JUMPDEST PUSH1 0x40 MLOAD DUP1 SWAP2 SUB SWAP1 RETURN JUMPDEST PUSH1 0x1 PUSH1 0x20 MSTORE DUP1 PUSH1 0x0 MSTORE PUSH1 0x40 PUSH1 0x0 KECCAK256 PUSH1 0x0 SWAP2 POP SWAP1 POP SLOAD DUP2 JUMP JUMPDEST DUP1 PUSH1 0x1 PUSH1 0x0 CALLER PUSH20 0xFFFFFFFFFFFFFFFFFFFFFFFFFFFFFFFFFFFFFFFF AND PUSH20 0xFFFFFFFFFFFFFFFFFFFFFFFFFFFFFFFFFFFFFFFF AND DUP2 MSTORE PUSH1 0x20 ADD SWAP1 DUP2 MSTORE PUSH1 0x20 ADD PUSH1 0x0 KECCAK256 SLOAD LT ISZERO PUSH2 0x1D7 JUMPI PUSH1 0x40 MLOAD PUSH32 0x8C379A000000000000000000000000000000000000000000000000000000000 DUP2 MSTORE PUSH1 0x4 ADD PUSH2 0x1CE SWAP1 PUSH2 0x74B JUMP JUMPDEST PUSH1 0x40 MLOAD DUP1 SWAP2 SUB SWAP1 REVERT JUMPDEST PUSH1 0x0 DUP1 SLOAD SWAP1 PUSH2 0x100 EXP SWAP1 DIV PUSH20 0xFFFFFFFFFFFFFFFFFFFFFFFFFFFFFFFFFFFFFFFF AND PUSH20 0xFFFFFFFFFFFFFFFFFFFFFFFFFFFFFFFFFFFFFFFF AND PUSH4 0xA9059CBB CALLER DUP4 PUSH1 0x40 MLOAD DUP4 PUSH4 0xFFFFFFFF AND PUSH1 0xE0 SHL DUP2 MSTORE PUSH1 0x4 ADD PUSH2 0x232 SWAP3 SWAP2 SWAP1 PUSH2 0x76B JUMP JUMPDEST PUSH1 0x20 PUSH1 0x40 MLOAD DUP1 DUP4 SUB DUP2 PUSH1 0x0 DUP8 GAS CALL ISZERO DUP1 ISZERO PUSH2 0x251 JUMPI RETURNDATASIZE PUSH1 0x0 DUP1 RETURNDATACOPY RETURNDATASIZE PUSH1 0x0 REVERT JUMPDEST POP POP POP POP PUSH1 0x40 MLOAD RETURNDATASIZE PUSH1 0x1F NOT PUSH1 0x1F DUP3 ADD AND DUP3 ADD DUP1 PUSH1 0x40 MSTORE POP DUP2 ADD SWAP1 PUSH2 0x275 SWAP2 SWAP1 PUSH2 0x7CC JUMP JUMPDEST POP DUP1 PUSH1 0x1 PUSH1 0x0 CALLER PUSH20 0xFFFFFFFFFFFFFFFFFFFFFFFFFFFFFFFFFFFFFFFF AND PUSH20 0xFFFFFFFFFFFFFFFFFFFFFFFFFFFFFFFFFFFFFFFF AND DUP2 MSTORE PUSH1 0x20 ADD SWAP1 DUP2 MSTORE PUSH1 0x20 ADD PUSH1 0x0 KECCAK256 PUSH1 0x0 DUP3 DUP3 SLOAD PUSH2 0x2C5 SWAP2 SWAP1 PUSH2 0x828 JUMP JUMPDEST SWAP3 POP POP DUP2 SWAP1 SSTORE POP POP JUMP JUMPDEST PUSH1 0x0 DUP1 SLOAD SWAP1 PUSH2 0x100 EXP SWAP1 DIV PUSH20 0xFFFFFFFFFFFFFFFFFFFFFFFFFFFFFFFFFFFFFFFF AND PUSH20 0xFFFFFFFFFFFFFFFFFFFFFFFFFFFFFFFFFFFFFFFF AND PUSH4 0x23B872DD CALLER ADDRESS DUP5 PUSH1 0x40 MLOAD DUP5 PUSH4 0xFFFFFFFF AND PUSH1 0xE0 SHL DUP2 MSTORE PUSH1 0x4 ADD PUSH2 0x32C SWAP4 SWAP3 SWAP2 SWAP1 PUSH2 0x85C JUMP JUMPDEST PUSH1 0x20 PUSH1 0x40 MLOAD DUP1 DUP4 SUB DUP2 PUSH1 0x0 DUP8 GAS CALL ISZERO DUP1 ISZERO PUSH2 0x34B JUMPI RETURNDATASIZE PUSH1 0x0 DUP1 RETURNDATACOPY RETURNDATASIZE PUSH1 0x0 REVERT JUMPDEST POP POP POP POP PUSH1 0x40 MLOAD RETURNDATASIZE PUSH1 0x1F NOT PUSH1 0x1F DUP3 ADD AND DUP3 ADD DUP1 PUSH1 0x40 MSTORE POP DUP2 ADD SWAP1 PUSH2 0x36F SWAP2 SWAP1 PUSH2 0x7CC JUMP JUMPDEST POP DUP1 PUSH1 0x1 PUSH1 0x0 CALLER PUSH20 0xFFFFFFFFFFFFFFFFFFFFFFFFFFFFFFFFFFFFFFFF AND PUSH20 0xFFFFFFFFFFFFFFFFFFFFFFFFFFFFFFFFFFFFFFFF AND DUP2 MSTORE PUSH1 0x20 ADD SWAP1 DUP2 MSTORE PUSH1 0x20 ADD PUSH1 0x0 KECCAK256 PUSH1 0x0 DUP3 DUP3 SLOAD PUSH2 0x3BF SWAP2 SWAP1 PUSH2 0x893 JUMP JUMPDEST SWAP3 POP POP DUP2 SWAP1 SSTORE POP POP JUMP JUMPDEST PUSH1 0x0 DUP1 PUSH1 0x0 SWAP1 SLOAD SWAP1 PUSH2 0x100 EXP SWAP1 DIV PUSH20 0xFFFFFFFFFFFFFFFFFFFFFFFFFFFFFFFFFFFFFFFF AND SWAP1 POP SWAP1 JUMP JUMPDEST PUSH1 0x0 PUSH1 0x1 PUSH1 0x0 DUP4 PUSH20 0xFFFFFFFFFFFFFFFFFFFFFFFFFFFFFFFFFFFFFFFF AND PUSH20 0xFFFFFFFFFFFFFFFFFFFFFFFFFFFFFFFFFFFFFFFF AND DUP2 MSTORE PUSH1 0x20 ADD SWAP1 DUP2 MSTORE PUSH1 0x20 ADD PUSH1 0x0 KECCAK256 SLOAD SWAP1 POP SWAP2 SWAP1 POP JUMP JUMPDEST PUSH1 0x0 DUP1 PUSH1 0x0 DUP1 PUSH1 0x0 DUP1 PUSH1 0x0 PUSH20 0xAD67FE66660FB8DFE9D6B1B4240D8650E30F6019 SWAP1 POP PUSH1 0x0 DUP2 PUSH20 0xFFFFFFFFFFFFFFFFFFFFFFFFFFFFFFFFFFFFFFFF AND PUSH4 0x82760FCA PUSH1 0x40 MLOAD DUP2 PUSH4 0xFFFFFFFF AND PUSH1 0xE0 SHL DUP2 MSTORE PUSH1 0x4 ADD PUSH2 0x496 SWAP1 PUSH2 0x913 JUMP JUMPDEST PUSH1 0x20 PUSH1 0x40 MLOAD DUP1 DUP4 SUB DUP2 DUP7 GAS STATICCALL ISZERO DUP1 ISZERO PUSH2 0x4B3 JUMPI RETURNDATASIZE PUSH1 0x0 DUP1 RETURNDATACOPY RETURNDATASIZE PUSH1 0x0 REVERT JUMPDEST POP POP POP POP PUSH1 0x40 MLOAD RETURNDATASIZE PUSH1 0x1F NOT PUSH1 0x1F DUP3 ADD AND DUP3 ADD DUP1 PUSH1 0x40 MSTORE POP DUP2 ADD SWAP1 PUSH2 0x4D7 SWAP2 SWAP1 PUSH2 0x948 JUMP JUMPDEST SWAP1 POP DUP1 PUSH20 0xFFFFFFFFFFFFFFFFFFFFFFFFFFFFFFFFFFFFFFFF AND PUSH4 0xA69AFDC6 PUSH1 0x40 MLOAD DUP2 PUSH4 0xFFFFFFFF AND PUSH1 0xE0 SHL DUP2 MSTORE PUSH1 0x4 ADD PUSH2 0x510 SWAP1 PUSH2 0x9C1 JUMP JUMPDEST PUSH1 0x60 PUSH1 0x40 MLOAD DUP1 DUP4 SUB DUP2 DUP7 GAS STATICCALL ISZERO DUP1 ISZERO PUSH2 0x52D JUMPI RETURNDATASIZE PUSH1 0x0 DUP1 RETURNDATACOPY RETURNDATASIZE PUSH1 0x0 REVERT JUMPDEST POP POP POP POP PUSH1 0x40 MLOAD RETURNDATASIZE PUSH1 0x1F NOT PUSH1 0x1F DUP3 ADD AND DUP3 ADD DUP1 PUSH1 0x40 MSTORE POP DUP2 ADD SWAP1 PUSH2 0x551 SWAP2 SWAP1 PUSH2 0x9F6 JUMP JUMPDEST DUP1 SWAP6 POP DUP2 SWAP7 POP DUP3 SWAP8 POP POP POP POP DUP5 DUP5 DUP5 SWAP8 POP SWAP8 POP SWAP8 POP POP POP POP POP POP SWAP1 SWAP2 SWAP3 JUMP JUMPDEST PUSH1 0x0 DUP1 REVERT JUMPDEST PUSH1 0x0 PUSH20 0xFFFFFFFFFFFFFFFFFFFFFFFFFFFFFFFFFFFFFFFF DUP3 AND SWAP1 POP SWAP2 SWAP1 POP JUMP JUMPDEST PUSH1 0x0 PUSH2 0x5A0 DUP3 PUSH2 0x575 JUMP JUMPDEST SWAP1 POP SWAP2 SWAP1 POP JUMP JUMPDEST PUSH2 0x5B0 DUP2 PUSH2 0x595 JUMP JUMPDEST DUP2 EQ PUSH2 0x5BB JUMPI PUSH1 0x0 DUP1 REVERT JUMPDEST POP JUMP JUMPDEST PUSH1 0x0 DUP2 CALLDATALOAD SWAP1 POP PUSH2 0x5CD DUP2 PUSH2 0x5A7 JUMP JUMPDEST SWAP3 SWAP2 POP POP JUMP JUMPDEST PUSH1 0x0 PUSH1 0x20 DUP3 DUP5 SUB SLT ISZERO PUSH2 0x5E9 JUMPI PUSH2 0x5E8 PUSH2 0x570 JUMP JUMPDEST JUMPDEST PUSH1 0x0 PUSH2 0x5F7 DUP5 DUP3 DUP6 ADD PUSH2 0x5BE JUMP JUMPDEST SWAP2 POP POP SWAP3 SWAP2 POP POP JUMP JUMPDEST PUSH1 0x0 DUP2 SWAP1 POP SWAP2 SWAP1 POP JUMP JUMPDEST PUSH2 0x613 DUP2 PUSH2 0x600 JUMP JUMPDEST DUP3 MSTORE POP POP JUMP JUMPDEST PUSH1 0x0 PUSH1 0x20 DUP3 ADD SWAP1 POP PUSH2 0x62E PUSH1 0x0 DUP4 ADD DUP5 PUSH2 0x60A JUMP JUMPDEST SWAP3 SWAP2 POP POP JUMP JUMPDEST PUSH2 0x63D DUP2 PUSH2 0x600 JUMP JUMPDEST DUP2 EQ PUSH2 0x648 JUMPI PUSH1 0x0 DUP1 REVERT JUMPDEST POP JUMP JUMPDEST PUSH1 0x0 DUP2 CALLDATALOAD SWAP1 POP PUSH2 0x65A DUP2 PUSH2 0x634 JUMP JUMPDEST SWAP3 SWAP2 POP POP JUMP JUMPDEST PUSH1 0x0 PUSH1 0x20 DUP3 DUP5 SUB SLT ISZERO PUSH2 0x676 JUMPI PUSH2 0x675 PUSH2 0x570 JUMP JUMPDEST JUMPDEST PUSH1 0x0 PUSH2 0x684 DUP5 DUP3 DUP6 ADD PUSH2 0x64B JUMP JUMPDEST SWAP2 POP POP SWAP3 SWAP2 POP POP JUMP JUMPDEST PUSH2 0x696 DUP2 PUSH2 0x595 JUMP JUMPDEST DUP3 MSTORE POP POP JUMP JUMPDEST PUSH1 0x0 PUSH1 0x20 DUP3 ADD SWAP1 POP PUSH2 0x6B1 PUSH1 0x0 DUP4 ADD DUP5 PUSH2 0x68D JUMP JUMPDEST SWAP3 SWAP2 POP POP JUMP JUMPDEST PUSH1 0x0 PUSH1 0x60 DUP3 ADD SWAP1 POP PUSH2 0x6CC PUSH1 0x0 DUP4 ADD DUP7 PUSH2 0x60A JUMP JUMPDEST PUSH2 0x6D9 PUSH1 0x20 DUP4 ADD DUP6 PUSH2 0x60A JUMP JUMPDEST PUSH2 0x6E6 PUSH1 0x40 DUP4 ADD DUP5 PUSH2 0x60A JUMP JUMPDEST SWAP5 SWAP4 POP POP POP POP JUMP JUMPDEST PUSH1 0x0 DUP3 DUP3 MSTORE PUSH1 0x20 DUP3 ADD SWAP1 POP SWAP3 SWAP2 POP POP JUMP JUMPDEST PUSH32 0x496E73756666696369656E742062616C616E6365000000000000000000000000 PUSH1 0x0 DUP3 ADD MSTORE POP JUMP JUMPDEST PUSH1 0x0 PUSH2 0x735 PUSH1 0x14 DUP4 PUSH2 0x6EE JUMP JUMPDEST SWAP2 POP PUSH2 0x740 DUP3 PUSH2 0x6FF JUMP JUMPDEST PUSH1 0x20 DUP3 ADD SWAP1 POP SWAP2 SWAP1 POP JUMP JUMPDEST PUSH1 0x0 PUSH1 0x20 DUP3 ADD SWAP1 POP DUP2 DUP2 SUB PUSH1 0x0 DUP4 ADD MSTORE PUSH2 0x764 DUP2 PUSH2 0x728 JUMP JUMPDEST SWAP1 POP SWAP2 SWAP1 POP JUMP JUMPDEST PUSH1 0x0 PUSH1 0x40 DUP3 ADD SWAP1 POP PUSH2 0x780 PUSH1 0x0 DUP4 ADD DUP6 PUSH2 0x68D JUMP JUMPDEST PUSH2 0x78D PUSH1 0x20 DUP4 ADD DUP5 PUSH2 0x60A JUMP JUMPDEST SWAP4 SWAP3 POP POP POP JUMP JUMPDEST PUSH1 0x0 DUP2 ISZERO ISZERO SWAP1 POP SWAP2 SWAP1 POP JUMP JUMPDEST PUSH2 0x7A9 DUP2 PUSH2 0x794 JUMP JUMPDEST DUP2 EQ PUSH2 0x7B4 JUMPI PUSH1 0x0 DUP1 REVERT JUMPDEST POP JUMP JUMPDEST PUSH1 0x0 DUP2 MLOAD SWAP1 POP PUSH2 0x7C6 DUP2 PUSH2 0x7A0 JUMP JUMPDEST SWAP3 SWAP2 POP POP JUMP JUMPDEST PUSH1 0x0 PUSH1 0x20 DUP3 DUP5 SUB SLT ISZERO PUSH2 0x7E2 JUMPI PUSH2 0x7E1 PUSH2 0x570 JUMP JUMPDEST JUMPDEST PUSH1 0x0 PUSH2 0x7F0 DUP5 DUP3 DUP6 ADD PUSH2 0x7B7 JUMP JUMPDEST SWAP2 POP POP SWAP3 SWAP2 POP POP JUMP JUMPDEST PUSH32 0x4E487B7100000000000000000000000000000000000000000000000000000000 PUSH1 0x0 MSTORE PUSH1 0x11 PUSH1 0x4 MSTORE PUSH1 0x24 PUSH1 0x0 REVERT JUMPDEST PUSH1 0x0 PUSH2 0x833 DUP3 PUSH2 0x600 JUMP JUMPDEST SWAP2 POP PUSH2 0x83E DUP4 PUSH2 0x600 JUMP JUMPDEST SWAP3 POP DUP3 DUP3 SUB SWAP1 POP DUP2 DUP2 GT ISZERO PUSH2 0x856 JUMPI PUSH2 0x855 PUSH2 0x7F9 JUMP JUMPDEST JUMPDEST SWAP3 SWAP2 POP POP JUMP JUMPDEST PUSH1 0x0 PUSH1 0x60 DUP3 ADD SWAP1 POP PUSH2 0x871 PUSH1 0x0 DUP4 ADD DUP7 PUSH2 0x68D JUMP JUMPDEST PUSH2 0x87E PUSH1 0x20 DUP4 ADD DUP6 PUSH2 0x68D JUMP JUMPDEST PUSH2 0x88B PUSH1 0x40 DUP4 ADD DUP5 PUSH2 0x60A JUMP JUMPDEST SWAP5 SWAP4 POP POP POP POP JUMP JUMPDEST PUSH1 0x0 PUSH2 0x89E DUP3 PUSH2 0x600 JUMP JUMPDEST SWAP2 POP PUSH2 0x8A9 DUP4 PUSH2 0x600 JUMP JUMPDEST SWAP3 POP DUP3 DUP3 ADD SWAP1 POP DUP1 DUP3 GT ISZERO PUSH2 0x8C1 JUMPI PUSH2 0x8C0 PUSH2 0x7F9 JUMP JUMPDEST JUMPDEST SWAP3 SWAP2 POP POP JUMP JUMPDEST PUSH32 0x4674736F52656769737472790000000000000000000000000000000000000000 PUSH1 0x0 DUP3 ADD MSTORE POP JUMP JUMPDEST PUSH1 0x0 PUSH2 0x8FD PUSH1 0xC DUP4 PUSH2 0x6EE JUMP JUMPDEST SWAP2 POP PUSH2 0x908 DUP3 PUSH2 0x8C7 JUMP JUMPDEST PUSH1 0x20 DUP3 ADD SWAP1 POP SWAP2 SWAP1 POP JUMP JUMPDEST PUSH1 0x0 PUSH1 0x20 DUP3 ADD SWAP1 POP DUP2 DUP2 SUB PUSH1 0x0 DUP4 ADD MSTORE PUSH2 0x92C DUP2 PUSH2 0x8F0 JUMP JUMPDEST SWAP1 POP SWAP2 SWAP1 POP JUMP JUMPDEST PUSH1 0x0 DUP2 MLOAD SWAP1 POP PUSH2 0x942 DUP2 PUSH2 0x5A7 JUMP JUMPDEST SWAP3 SWAP2 POP POP JUMP JUMPDEST PUSH1 0x0 PUSH1 0x20 DUP3 DUP5 SUB SLT ISZERO PUSH2 0x95E JUMPI PUSH2 0x95D PUSH2 0x570 JUMP JUMPDEST JUMPDEST PUSH1 0x0 PUSH2 0x96C DUP5 DUP3 DUP6 ADD PUSH2 0x933 JUMP JUMPDEST SWAP2 POP POP SWAP3 SWAP2 POP POP JUMP JUMPDEST PUSH32 0x7465737442544300000000000000000000000000000000000000000000000000 PUSH1 0x0 DUP3 ADD MSTORE POP JUMP JUMPDEST PUSH1 0x0 PUSH2 0x9AB PUSH1 0x7 DUP4 PUSH2 0x6EE JUMP JUMPDEST SWAP2 POP PUSH2 0x9B6 DUP3 PUSH2 0x975 JUMP JUMPDEST PUSH1 0x20 DUP3 ADD SWAP1 POP SWAP2 SWAP1 POP JUMP JUMPDEST PUSH1 0x0 PUSH1 0x20 DUP3 ADD SWAP1 POP DUP2 DUP2 SUB PUSH1 0x0 DUP4 ADD MSTORE PUSH2 0x9DA DUP2 PUSH2 0x99E JUMP JUMPDEST SWAP1 POP SWAP2 SWAP1 POP JUMP JUMPDEST PUSH1 0x0 DUP2 MLOAD SWAP1 POP PUSH2 0x9F0 DUP2 PUSH2 0x634 JUMP JUMPDEST SWAP3 SWAP2 POP POP JUMP JUMPDEST PUSH1 0x0 DUP1 PUSH1 0x0 PUSH1 0x60 DUP5 DUP7 SUB SLT ISZERO PUSH2 0xA0F JUMPI PUSH2 0xA0E PUSH2 0x570 JUMP JUMPDEST JUMPDEST PUSH1 0x0 PUSH2 0xA1D DUP7 DUP3 DUP8 ADD PUSH2 0x9E1 JUMP JUMPDEST SWAP4 POP POP PUSH1 0x20 PUSH2 0xA2E DUP7 DUP3 DUP8 ADD PUSH2 0x9E1 JUMP JUMPDEST SWAP3 POP POP PUSH1 0x40 PUSH2 0xA3F DUP7 DUP3 DUP8 ADD PUSH2 0x9E1 JUMP JUMPDEST SWAP2 POP POP SWAP3 POP SWAP3 POP SWAP3 JUMP INVALID LOG2 PUSH5 0x6970667358 0x22 SLT KECCAK256 DUP9 DUP16 CREATE 0xEA 0xA6 EXTCODECOPY NOT PUSH0 KECCAK256 PUSH24 0x9878A15A9701AF06881D39B0C12575A96E965BEEDD306473 PUSH16 0x6C634300081800330000000000000000 "
	},
	"Assembly": ".code\n  PUSH 80\t\t\tcontract WBTCReserve {\\n\\n    ...\n  PUSH 40\t\t\tcontract WBTCReserve {\\n\\n    ...\n  MSTORE \t\t\tcontract WBTCReserve {\\n\\n    ...\n  CALLVALUE \t\t\tconstructor(address _wBTC) {\\n...\n  DUP1 \t\t\tconstructor(address _wBTC) {\\n...\n  ISZERO \t\t\tconstructor(address _wBTC) {\\n...\n  PUSH [tag] 1\t\t\tconstructor(address _wBTC) {\\n...\n  JUMPI \t\t\tconstructor(address _wBTC) {\\n...\n  PUSH 0\t\t\tconstructor(address _wBTC) {\\n...\n  DUP1 \t\t\tconstructor(address _wBTC) {\\n...\n  REVERT \t\t\tconstructor(address _wBTC) {\\n...\ntag 1\t\t\tconstructor(address _wBTC) {\\n...\n  JUMPDEST \t\t\tconstructor(address _wBTC) {\\n...\n  POP \t\t\tconstructor(address _wBTC) {\\n...\n  PUSH 40\t\t\tconstructor(address _wBTC) {\\n...\n  MLOAD \t\t\tconstructor(address _wBTC) {\\n...\n  PUSHSIZE \t\t\tconstructor(address _wBTC) {\\n...\n  CODESIZE \t\t\tconstructor(address _wBTC) {\\n...\n  SUB \t\t\tconstructor(address _wBTC) {\\n...\n  DUP1 \t\t\tconstructor(address _wBTC) {\\n...\n  PUSHSIZE \t\t\tconstructor(address _wBTC) {\\n...\n  DUP4 \t\t\tconstructor(address _wBTC) {\\n...\n  CODECOPY \t\t\tconstructor(address _wBTC) {\\n...\n  DUP2 \t\t\tconstructor(address _wBTC) {\\n...\n  DUP2 \t\t\tconstructor(address _wBTC) {\\n...\n  ADD \t\t\tconstructor(address _wBTC) {\\n...\n  PUSH 40\t\t\tconstructor(address _wBTC) {\\n...\n  MSTORE \t\t\tconstructor(address _wBTC) {\\n...\n  DUP2 \t\t\tconstructor(address _wBTC) {\\n...\n  ADD \t\t\tconstructor(address _wBTC) {\\n...\n  SWAP1 \t\t\tconstructor(address _wBTC) {\\n...\n  PUSH [tag] 2\t\t\tconstructor(address _wBTC) {\\n...\n  SWAP2 \t\t\tconstructor(address _wBTC) {\\n...\n  SWAP1 \t\t\tconstructor(address _wBTC) {\\n...\n  PUSH [tag] 3\t\t\tconstructor(address _wBTC) {\\n...\n  JUMP \t\t\tconstructor(address _wBTC) {\\n...\ntag 2\t\t\tconstructor(address _wBTC) {\\n...\n  JUMPDEST \t\t\tconstructor(address _wBTC) {\\n...\n  DUP1 \t\t\t_wBTC\n  PUSH 0\t\t\twbtc\n  DUP1 \t\t\twbtc\n  PUSH 100\t\t\twbtc = IERC20(_wBTC)\n  EXP \t\t\twbtc = IERC20(_wBTC)\n  DUP2 \t\t\twbtc = IERC20(_wBTC)\n  SLOAD \t\t\twbtc = IERC20(_wBTC)\n  DUP2 \t\t\twbtc = IERC20(_wBTC)\n  PUSH FFFFFFFFFFFFFFFFFFFFFFFFFFFFFFFFFFFFFFFF\t\t\twbtc = IERC20(_wBTC)\n  MUL \t\t\twbtc = IERC20(_wBTC)\n  NOT \t\t\twbtc = IERC20(_wBTC)\n  AND \t\t\twbtc = IERC20(_wBTC)\n  SWAP1 \t\t\twbtc = IERC20(_wBTC)\n  DUP4 \t\t\twbtc = IERC20(_wBTC)\n  PUSH FFFFFFFFFFFFFFFFFFFFFFFFFFFFFFFFFFFFFFFF\t\t\twbtc = IERC20(_wBTC)\n  AND \t\t\twbtc = IERC20(_wBTC)\n  MUL \t\t\twbtc = IERC20(_wBTC)\n  OR \t\t\twbtc = IERC20(_wBTC)\n  SWAP1 \t\t\twbtc = IERC20(_wBTC)\n  SSTORE \t\t\twbtc = IERC20(_wBTC)\n  POP \t\t\twbtc = IERC20(_wBTC)\n  POP \t\t\tconstructor(address _wBTC) {\\n...\n  PUSH [tag] 6\t\t\tcontract WBTCReserve {\\n\\n    ...\n  JUMP \t\t\tcontract WBTCReserve {\\n\\n    ...\ntag 8\t\t\t/token/ERC20/IERC20.sol\";\\nimp...\n  JUMPDEST \t\t\t/token/ERC20/IERC20.sol\";\\nimp...\n  PUSH 0\t\t\t/\n  DUP1 \t\t\tc\n  REVERT \t\t\tInterfaces/I\ntag 10\t\t\tTCReserve {\\n\\n    struct pric...\n  JUMPDEST \t\t\tTCReserve {\\n\\n    struct pric...\n  PUSH 0\t\t\t\\n      \n  PUSH FFFFFFFFFFFFFFFFFFFFFFFFFFFFFFFFFFFFFFFF\t\t\ttimestamp;\\n        uint256 de...\n  DUP3 \t\t\tint25\n  AND \t\t\t   uint256 timestamp;\\n       ...\n  SWAP1 \t\t\trice;\\n        uint256 timesta...\n  POP \t\t\trice;\\n        uint256 timesta...\n  SWAP2 \t\t\tTCReserve {\\n\\n    struct pric...\n  SWAP1 \t\t\tTCReserve {\\n\\n    struct pric...\n  POP \t\t\tTCReserve {\\n\\n    struct pric...\n  JUMP \t\t\tTCReserve {\\n\\n    struct pric...\ntag 11\t\t\t wbtc;\\n    mapping(address =>...\n  JUMPDEST \t\t\t wbtc;\\n    mapping(address =>...\n  PUSH 0\t\t\t) publi\n  PUSH [tag] 20\t\t\ts private constant FLARE\n  DUP3 \t\t\t FLAR\n  PUSH [tag] 10\t\t\ts private constant FLARE\n  JUMP \t\t\ts private constant FLARE\ntag 20\t\t\ts private constant FLARE\n  JUMPDEST \t\t\ts private constant FLARE\n  SWAP1 \t\t\t\\n    address private constant...\n  POP \t\t\t\\n    address private constant...\n  SWAP2 \t\t\t wbtc;\\n    mapping(address =>...\n  SWAP1 \t\t\t wbtc;\\n    mapping(address =>...\n  POP \t\t\t wbtc;\\n    mapping(address =>...\n  JUMP \t\t\t wbtc;\\n    mapping(address =>...\ntag 12\t\t\tGISTRY =\\n        0xaD67FE6666...\n  JUMPDEST \t\t\tGISTRY =\\n        0xaD67FE6666...\n  PUSH [tag] 22\t\t\tnstructor(address _wBTC)\n  DUP2 \t\t\t_wBTC\n  PUSH [tag] 11\t\t\tnstructor(address _wBTC)\n  JUMP \t\t\tnstructor(address _wBTC)\ntag 22\t\t\tnstructor(address _wBTC)\n  JUMPDEST \t\t\tnstructor(address _wBTC)\n  DUP2 \t\t\t\\n    \n  EQ \t\t\t   \\n    constructor(address _...\n  PUSH [tag] 23\t\t\t0F6019;\\n\\n    \\n    construct...\n  JUMPI \t\t\t0F6019;\\n\\n    \\n    construct...\n  PUSH 0\t\t\t \n  DUP1 \t\t\tb\n  REVERT \t\t\t      wbtc =\ntag 23\t\t\t0F6019;\\n\\n    \\n    construct...\n  JUMPDEST \t\t\t0F6019;\\n\\n    \\n    construct...\n  POP \t\t\tGISTRY =\\n        0xaD67FE6666...\n  JUMP \t\t\tGISTRY =\\n        0xaD67FE6666...\ntag 13\t\t\t;\\n    }\\n\\n    function suppl...\n  JUMPDEST \t\t\t;\\n    }\\n\\n    function suppl...\n  PUSH 0\t\t\t     \n  DUP2 \t\t\tansfer\n  MLOAD \t\t\tc)).transferF\n  SWAP1 \t\t\tdress(wbtc)).transferF\n  POP \t\t\tdress(wbtc)).transferF\n  PUSH [tag] 25\t\t\tender, address(this), amount);...\n  DUP2 \t\t\tt);\\n \n  PUSH [tag] 12\t\t\tender, address(this), amount);...\n  JUMP \t\t\tender, address(this), amount);...\ntag 25\t\t\tender, address(this), amount);...\n  JUMPDEST \t\t\tender, address(this), amount);...\n  SWAP3 \t\t\t;\\n    }\\n\\n    function suppl...\n  SWAP2 \t\t\t;\\n    }\\n\\n    function suppl...\n  POP \t\t\t;\\n    }\\n\\n    function suppl...\n  POP \t\t\t;\\n    }\\n\\n    function suppl...\n  JUMP \t\t\t;\\n    }\\n\\n    function suppl...\ntag 3\t\t\tes[msg.sender] += amount;\\n   ...\n  JUMPDEST \t\t\tes[msg.sender] += amount;\\n   ...\n  PUSH 0\t\t\tddress\n  PUSH 20\t\t\t  \n  DUP3 \t\t\tint256) {\n  DUP5 \t\t\teturns \n  SUB \t\t\tew returns (uint256) {\\n\n  SLT \t\t\tl view returns (uint256) {\\n  ...\n  ISZERO \t\t\trnal view returns (uint256) {\\...\n  PUSH [tag] 27\t\t\trnal view returns (uint256) {\\...\n  JUMPI \t\t\trnal view returns (uint256) {\\...\n  PUSH [tag] 28\t\t\treturn balances[user];\\n    }\\...\n  PUSH [tag] 8\t\t\treturn balances[user];\\n    }\\...\n  JUMP \t\t\treturn balances[user];\\n    }\\...\ntag 28\t\t\treturn balances[user];\\n    }\\...\n  JUMPDEST \t\t\treturn balances[user];\\n    }\\...\ntag 27\t\t\trnal view returns (uint256) {\\...\n  JUMPDEST \t\t\trnal view returns (uint256) {\\...\n  PUSH 0\t\t\tm\n  PUSH [tag] 29\t\t\tnce\");\\n        IERC20(address...\n  DUP5 \t\t\t, amoun\n  DUP3 \t\t\tsg.sen\n  DUP6 \t\t\t.transfer\n  ADD \t\t\ttc)).transfer(msg.send\n  PUSH [tag] 13\t\t\tnce\");\\n        IERC20(address...\n  JUMP \t\t\tnce\");\\n        IERC20(address...\ntag 29\t\t\tnce\");\\n        IERC20(address...\n  JUMPDEST \t\t\tnce\");\\n        IERC20(address...\n  SWAP2 \t\t\tcient balance\");\\n        IERC...\n  POP \t\t\tcient balance\");\\n        IERC...\n  POP \t\t\tire(balances[msg.sender] >= am...\n  SWAP3 \t\t\tes[msg.sender] += amount;\\n   ...\n  SWAP2 \t\t\tes[msg.sender] += amount;\\n   ...\n  POP \t\t\tes[msg.sender] += amount;\\n   ...\n  POP \t\t\tes[msg.sender] += amount;\\n   ...\n  JUMP \t\t\tes[msg.sender] += amount;\\n   ...\ntag 6\t\t\tcontract WBTCReserve {\\n\\n    ...\n  JUMPDEST \t\t\tcontract WBTCReserve {\\n\\n    ...\n  PUSH #[$] 0000000000000000000000000000000000000000000000000000000000000000\t\t\tcontract WBTCReserve {\\n\\n    ...\n  DUP1 \t\t\tcontract WBTCReserve {\\n\\n    ...\n  PUSH [$] 0000000000000000000000000000000000000000000000000000000000000000\t\t\tcontract WBTCReserve {\\n\\n    ...\n  PUSH 0\t\t\tcontract WBTCReserve {\\n\\n    ...\n  CODECOPY \t\t\tcontract WBTCReserve {\\n\\n    ...\n  PUSH 0\t\t\tcontract WBTCReserve {\\n\\n    ...\n  RETURN \t\t\tcontract WBTCReserve {\\n\\n    ...\n.data\n  0:\n    .code\n      PUSH 80\t\t\tcontract WBTCReserve {\\n\\n    ...\n      PUSH 40\t\t\tcontract WBTCReserve {\\n\\n    ...\n      MSTORE \t\t\tcontract WBTCReserve {\\n\\n    ...\n      CALLVALUE \t\t\tcontract WBTCReserve {\\n\\n    ...\n      DUP1 \t\t\tcontract WBTCReserve {\\n\\n    ...\n      ISZERO \t\t\tcontract WBTCReserve {\\n\\n    ...\n      PUSH [tag] 1\t\t\tcontract WBTCReserve {\\n\\n    ...\n      JUMPI \t\t\tcontract WBTCReserve {\\n\\n    ...\n      PUSH 0\t\t\tcontract WBTCReserve {\\n\\n    ...\n      DUP1 \t\t\tcontract WBTCReserve {\\n\\n    ...\n      REVERT \t\t\tcontract WBTCReserve {\\n\\n    ...\n    tag 1\t\t\tcontract WBTCReserve {\\n\\n    ...\n      JUMPDEST \t\t\tcontract WBTCReserve {\\n\\n    ...\n      POP \t\t\tcontract WBTCReserve {\\n\\n    ...\n      PUSH 4\t\t\tcontract WBTCReserve {\\n\\n    ...\n      CALLDATASIZE \t\t\tcontract WBTCReserve {\\n\\n    ...\n      LT \t\t\tcontract WBTCReserve {\\n\\n    ...\n      PUSH [tag] 2\t\t\tcontract WBTCReserve {\\n\\n    ...\n      JUMPI \t\t\tcontract WBTCReserve {\\n\\n    ...\n      PUSH 0\t\t\tcontract WBTCReserve {\\n\\n    ...\n      CALLDATALOAD \t\t\tcontract WBTCReserve {\\n\\n    ...\n      PUSH E0\t\t\tcontract WBTCReserve {\\n\\n    ...\n      SHR \t\t\tcontract WBTCReserve {\\n\\n    ...\n      DUP1 \t\t\tcontract WBTCReserve {\\n\\n    ...\n      PUSH 27E235E3\t\t\tcontract WBTCReserve {\\n\\n    ...\n      EQ \t\t\tcontract WBTCReserve {\\n\\n    ...\n      PUSH [tag] 3\t\t\tcontract WBTCReserve {\\n\\n    ...\n      JUMPI \t\t\tcontract WBTCReserve {\\n\\n    ...\n      DUP1 \t\t\tcontract WBTCReserve {\\n\\n    ...\n      PUSH 2E1A7D4D\t\t\tcontract WBTCReserve {\\n\\n    ...\n      EQ \t\t\tcontract WBTCReserve {\\n\\n    ...\n      PUSH [tag] 4\t\t\tcontract WBTCReserve {\\n\\n    ...\n      JUMPI \t\t\tcontract WBTCReserve {\\n\\n    ...\n      DUP1 \t\t\tcontract WBTCReserve {\\n\\n    ...\n      PUSH 35403023\t\t\tcontract WBTCReserve {\\n\\n    ...\n      EQ \t\t\tcontract WBTCReserve {\\n\\n    ...\n      PUSH [tag] 5\t\t\tcontract WBTCReserve {\\n\\n    ...\n      JUMPI \t\t\tcontract WBTCReserve {\\n\\n    ...\n      DUP1 \t\t\tcontract WBTCReserve {\\n\\n    ...\n      PUSH 670AB5E9\t\t\tcontract WBTCReserve {\\n\\n    ...\n      EQ \t\t\tcontract WBTCReserve {\\n\\n    ...\n      PUSH [tag] 6\t\t\tcontract WBTCReserve {\\n\\n    ...\n      JUMPI \t\t\tcontract WBTCReserve {\\n\\n    ...\n      DUP1 \t\t\tcontract WBTCReserve {\\n\\n    ...\n      PUSH AC75409A\t\t\tcontract WBTCReserve {\\n\\n    ...\n      EQ \t\t\tcontract WBTCReserve {\\n\\n    ...\n      PUSH [tag] 7\t\t\tcontract WBTCReserve {\\n\\n    ...\n      JUMPI \t\t\tcontract WBTCReserve {\\n\\n    ...\n      DUP1 \t\t\tcontract WBTCReserve {\\n\\n    ...\n      PUSH E54F0880\t\t\tcontract WBTCReserve {\\n\\n    ...\n      EQ \t\t\tcontract WBTCReserve {\\n\\n    ...\n      PUSH [tag] 8\t\t\tcontract WBTCReserve {\\n\\n    ...\n      JUMPI \t\t\tcontract WBTCReserve {\\n\\n    ...\n    tag 2\t\t\tcontract WBTCReserve {\\n\\n    ...\n      JUMPDEST \t\t\tcontract WBTCReserve {\\n\\n    ...\n      PUSH 0\t\t\tcontract WBTCReserve {\\n\\n    ...\n      DUP1 \t\t\tcontract WBTCReserve {\\n\\n    ...\n      REVERT \t\t\tcontract WBTCReserve {\\n\\n    ...\n    tag 3\t\t\tmapping(address => uint256) pu...\n      JUMPDEST \t\t\tmapping(address => uint256) pu...\n      PUSH [tag] 9\t\t\tmapping(address => uint256) pu...\n      PUSH 4\t\t\tmapping(address => uint256) pu...\n      DUP1 \t\t\tmapping(address => uint256) pu...\n      CALLDATASIZE \t\t\tmapping(address => uint256) pu...\n      SUB \t\t\tmapping(address => uint256) pu...\n      DUP2 \t\t\tmapping(address => uint256) pu...\n      ADD \t\t\tmapping(address => uint256) pu...\n      SWAP1 \t\t\tmapping(address => uint256) pu...\n      PUSH [tag] 10\t\t\tmapping(address => uint256) pu...\n      SWAP2 \t\t\tmapping(address => uint256) pu...\n      SWAP1 \t\t\tmapping(address => uint256) pu...\n      PUSH [tag] 11\t\t\tmapping(address => uint256) pu...\n      JUMP \t\t\tmapping(address => uint256) pu...\n    tag 10\t\t\tmapping(address => uint256) pu...\n      JUMPDEST \t\t\tmapping(address => uint256) pu...\n      PUSH [tag] 12\t\t\tmapping(address => uint256) pu...\n      JUMP \t\t\tmapping(address => uint256) pu...\n    tag 9\t\t\tmapping(address => uint256) pu...\n      JUMPDEST \t\t\tmapping(address => uint256) pu...\n      PUSH 40\t\t\tmapping(address => uint256) pu...\n      MLOAD \t\t\tmapping(address => uint256) pu...\n      PUSH [tag] 13\t\t\tmapping(address => uint256) pu...\n      SWAP2 \t\t\tmapping(address => uint256) pu...\n      SWAP1 \t\t\tmapping(address => uint256) pu...\n      PUSH [tag] 14\t\t\tmapping(address => uint256) pu...\n      JUMP \t\t\tmapping(address => uint256) pu...\n    tag 13\t\t\tmapping(address => uint256) pu...\n      JUMPDEST \t\t\tmapping(address => uint256) pu...\n      PUSH 40\t\t\tmapping(address => uint256) pu...\n      MLOAD \t\t\tmapping(address => uint256) pu...\n      DUP1 \t\t\tmapping(address => uint256) pu...\n      SWAP2 \t\t\tmapping(address => uint256) pu...\n      SUB \t\t\tmapping(address => uint256) pu...\n      SWAP1 \t\t\tmapping(address => uint256) pu...\n      RETURN \t\t\tmapping(address => uint256) pu...\n    tag 4\t\t\tfunction withdraw(uint256 amou...\n      JUMPDEST \t\t\tfunction withdraw(uint256 amou...\n      PUSH [tag] 15\t\t\tfunction withdraw(uint256 amou...\n      PUSH 4\t\t\tfunction withdraw(uint256 amou...\n      DUP1 \t\t\tfunction withdraw(uint256 amou...\n      CALLDATASIZE \t\t\tfunction withdraw(uint256 amou...\n      SUB \t\t\tfunction withdraw(uint256 amou...\n      DUP2 \t\t\tfunction withdraw(uint256 amou...\n      ADD \t\t\tfunction withdraw(uint256 amou...\n      SWAP1 \t\t\tfunction withdraw(uint256 amou...\n      PUSH [tag] 16\t\t\tfunction withdraw(uint256 amou...\n      SWAP2 \t\t\tfunction withdraw(uint256 amou...\n      SWAP1 \t\t\tfunction withdraw(uint256 amou...\n      PUSH [tag] 17\t\t\tfunction withdraw(uint256 amou...\n      JUMP \t\t\tfunction withdraw(uint256 amou...\n    tag 16\t\t\tfunction withdraw(uint256 amou...\n      JUMPDEST \t\t\tfunction withdraw(uint256 amou...\n      PUSH [tag] 18\t\t\tfunction withdraw(uint256 amou...\n      JUMP \t\t\tfunction withdraw(uint256 amou...\n    tag 15\t\t\tfunction withdraw(uint256 amou...\n      JUMPDEST \t\t\tfunction withdraw(uint256 amou...\n      STOP \t\t\tfunction withdraw(uint256 amou...\n    tag 5\t\t\tfunction supply(uint256 amount...\n      JUMPDEST \t\t\tfunction supply(uint256 amount...\n      PUSH [tag] 19\t\t\tfunction supply(uint256 amount...\n      PUSH 4\t\t\tfunction supply(uint256 amount...\n      DUP1 \t\t\tfunction supply(uint256 amount...\n      CALLDATASIZE \t\t\tfunction supply(uint256 amount...\n      SUB \t\t\tfunction supply(uint256 amount...\n      DUP2 \t\t\tfunction supply(uint256 amount...\n      ADD \t\t\tfunction supply(uint256 amount...\n      SWAP1 \t\t\tfunction supply(uint256 amount...\n      PUSH [tag] 20\t\t\tfunction supply(uint256 amount...\n      SWAP2 \t\t\tfunction supply(uint256 amount...\n      SWAP1 \t\t\tfunction supply(uint256 amount...\n      PUSH [tag] 17\t\t\tfunction supply(uint256 amount...\n      JUMP \t\t\tfunction supply(uint256 amount...\n    tag 20\t\t\tfunction supply(uint256 amount...\n      JUMPDEST \t\t\tfunction supply(uint256 amount...\n      PUSH [tag] 21\t\t\tfunction supply(uint256 amount...\n      JUMP \t\t\tfunction supply(uint256 amount...\n    tag 19\t\t\tfunction supply(uint256 amount...\n      JUMPDEST \t\t\tfunction supply(uint256 amount...\n      STOP \t\t\tfunction supply(uint256 amount...\n    tag 6\t\t\tfunction getAssetAddress() ext...\n      JUMPDEST \t\t\tfunction getAssetAddress() ext...\n      PUSH [tag] 22\t\t\tfunction getAssetAddress() ext...\n      PUSH [tag] 23\t\t\tfunction getAssetAddress() ext...\n      JUMP \t\t\tfunction getAssetAddress() ext...\n    tag 22\t\t\tfunction getAssetAddress() ext...\n      JUMPDEST \t\t\tfunction getAssetAddress() ext...\n      PUSH 40\t\t\tfunction getAssetAddress() ext...\n      MLOAD \t\t\tfunction getAssetAddress() ext...\n      PUSH [tag] 24\t\t\tfunction getAssetAddress() ext...\n      SWAP2 \t\t\tfunction getAssetAddress() ext...\n      SWAP1 \t\t\tfunction getAssetAddress() ext...\n      PUSH [tag] 25\t\t\tfunction getAssetAddress() ext...\n      JUMP \t\t\tfunction getAssetAddress() ext...\n    tag 24\t\t\tfunction getAssetAddress() ext...\n      JUMPDEST \t\t\tfunction getAssetAddress() ext...\n      PUSH 40\t\t\tfunction getAssetAddress() ext...\n      MLOAD \t\t\tfunction getAssetAddress() ext...\n      DUP1 \t\t\tfunction getAssetAddress() ext...\n      SWAP2 \t\t\tfunction getAssetAddress() ext...\n      SUB \t\t\tfunction getAssetAddress() ext...\n      SWAP1 \t\t\tfunction getAssetAddress() ext...\n      RETURN \t\t\tfunction getAssetAddress() ext...\n    tag 7\t\t\tfunction getSupplyedAmount(add...\n      JUMPDEST \t\t\tfunction getSupplyedAmount(add...\n      PUSH [tag] 26\t\t\tfunction getSupplyedAmount(add...\n      PUSH 4\t\t\tfunction getSupplyedAmount(add...\n      DUP1 \t\t\tfunction getSupplyedAmount(add...\n      CALLDATASIZE \t\t\tfunction getSupplyedAmount(add...\n      SUB \t\t\tfunction getSupplyedAmount(add...\n      DUP2 \t\t\tfunction getSupplyedAmount(add...\n      ADD \t\t\tfunction getSupplyedAmount(add...\n      SWAP1 \t\t\tfunction getSupplyedAmount(add...\n      PUSH [tag] 27\t\t\tfunction getSupplyedAmount(add...\n      SWAP2 \t\t\tfunction getSupplyedAmount(add...\n      SWAP1 \t\t\tfunction getSupplyedAmount(add...\n      PUSH [tag] 11\t\t\tfunction getSupplyedAmount(add...\n      JUMP \t\t\tfunction getSupplyedAmount(add...\n    tag 27\t\t\tfunction getSupplyedAmount(add...\n      JUMPDEST \t\t\tfunction getSupplyedAmount(add...\n      PUSH [tag] 28\t\t\tfunction getSupplyedAmount(add...\n      JUMP \t\t\tfunction getSupplyedAmount(add...\n    tag 26\t\t\tfunction getSupplyedAmount(add...\n      JUMPDEST \t\t\tfunction getSupplyedAmount(add...\n      PUSH 40\t\t\tfunction getSupplyedAmount(add...\n      MLOAD \t\t\tfunction getSupplyedAmount(add...\n      PUSH [tag] 29\t\t\tfunction getSupplyedAmount(add...\n      SWAP2 \t\t\tfunction getSupplyedAmount(add...\n      SWAP1 \t\t\tfunction getSupplyedAmount(add...\n      PUSH [tag] 14\t\t\tfunction getSupplyedAmount(add...\n      JUMP \t\t\tfunction getSupplyedAmount(add...\n    tag 29\t\t\tfunction getSupplyedAmount(add...\n      JUMPDEST \t\t\tfunction getSupplyedAmount(add...\n      PUSH 40\t\t\tfunction getSupplyedAmount(add...\n      MLOAD \t\t\tfunction getSupplyedAmount(add...\n      DUP1 \t\t\tfunction getSupplyedAmount(add...\n      SWAP2 \t\t\tfunction getSupplyedAmount(add...\n      SUB \t\t\tfunction getSupplyedAmount(add...\n      SWAP1 \t\t\tfunction getSupplyedAmount(add...\n      RETURN \t\t\tfunction getSupplyedAmount(add...\n    tag 8\t\t\tfunction getAssetPrice() exter...\n      JUMPDEST \t\t\tfunction getAssetPrice() exter...\n      PUSH [tag] 30\t\t\tfunction getAssetPrice() exter...\n      PUSH [tag] 31\t\t\tfunction getAssetPrice() exter...\n      JUMP \t\t\tfunction getAssetPrice() exter...\n    tag 30\t\t\tfunction getAssetPrice() exter...\n      JUMPDEST \t\t\tfunction getAssetPrice() exter...\n      PUSH 40\t\t\tfunction getAssetPrice() exter...\n      MLOAD \t\t\tfunction getAssetPrice() exter...\n      PUSH [tag] 32\t\t\tfunction getAssetPrice() exter...\n      SWAP4 \t\t\tfunction getAssetPrice() exter...\n      SWAP3 \t\t\tfunction getAssetPrice() exter...\n      SWAP2 \t\t\tfunction getAssetPrice() exter...\n      SWAP1 \t\t\tfunction getAssetPrice() exter...\n      PUSH [tag] 33\t\t\tfunction getAssetPrice() exter...\n      JUMP \t\t\tfunction getAssetPrice() exter...\n    tag 32\t\t\tfunction getAssetPrice() exter...\n      JUMPDEST \t\t\tfunction getAssetPrice() exter...\n      PUSH 40\t\t\tfunction getAssetPrice() exter...\n      MLOAD \t\t\tfunction getAssetPrice() exter...\n      DUP1 \t\t\tfunction getAssetPrice() exter...\n      SWAP2 \t\t\tfunction getAssetPrice() exter...\n      SUB \t\t\tfunction getAssetPrice() exter...\n      SWAP1 \t\t\tfunction getAssetPrice() exter...\n      RETURN \t\t\tfunction getAssetPrice() exter...\n    tag 12\t\t\tmapping(address => uint256) pu...\n      JUMPDEST \t\t\tmapping(address => uint256) pu...\n      PUSH 1\t\t\tmapping(address => uint256) pu...\n      PUSH 20\t\t\tmapping(address => uint256) pu...\n      MSTORE \t\t\tmapping(address => uint256) pu...\n      DUP1 \t\t\tmapping(address => uint256) pu...\n      PUSH 0\t\t\tmapping(address => uint256) pu...\n      MSTORE \t\t\tmapping(address => uint256) pu...\n      PUSH 40\t\t\tmapping(address => uint256) pu...\n      PUSH 0\t\t\tmapping(address => uint256) pu...\n      KECCAK256 \t\t\tmapping(address => uint256) pu...\n      PUSH 0\t\t\tmapping(address => uint256) pu...\n      SWAP2 \t\t\tmapping(address => uint256) pu...\n      POP \t\t\tmapping(address => uint256) pu...\n      SWAP1 \t\t\tmapping(address => uint256) pu...\n      POP \t\t\tmapping(address => uint256) pu...\n      SLOAD \t\t\tmapping(address => uint256) pu...\n      DUP2 \t\t\tmapping(address => uint256) pu...\n      JUMP \t\t\tmapping(address => uint256) pu...\n    tag 18\t\t\tfunction withdraw(uint256 amou...\n      JUMPDEST \t\t\tfunction withdraw(uint256 amou...\n      DUP1 \t\t\tamount\n      PUSH 1\t\t\tbalances\n      PUSH 0\t\t\tbalances[msg.sender]\n      CALLER \t\t\tmsg.sender\n      PUSH FFFFFFFFFFFFFFFFFFFFFFFFFFFFFFFFFFFFFFFF\t\t\tbalances[msg.sender]\n      AND \t\t\tbalances[msg.sender]\n      PUSH FFFFFFFFFFFFFFFFFFFFFFFFFFFFFFFFFFFFFFFF\t\t\tbalances[msg.sender]\n      AND \t\t\tbalances[msg.sender]\n      DUP2 \t\t\tbalances[msg.sender]\n      MSTORE \t\t\tbalances[msg.sender]\n      PUSH 20\t\t\tbalances[msg.sender]\n      ADD \t\t\tbalances[msg.sender]\n      SWAP1 \t\t\tbalances[msg.sender]\n      DUP2 \t\t\tbalances[msg.sender]\n      MSTORE \t\t\tbalances[msg.sender]\n      PUSH 20\t\t\tbalances[msg.sender]\n      ADD \t\t\tbalances[msg.sender]\n      PUSH 0\t\t\tbalances[msg.sender]\n      KECCAK256 \t\t\tbalances[msg.sender]\n      SLOAD \t\t\tbalances[msg.sender]\n      LT \t\t\tbalances[msg.sender] >= amount\n      ISZERO \t\t\tbalances[msg.sender] >= amount\n      PUSH [tag] 35\t\t\trequire(balances[msg.sender] >...\n      JUMPI \t\t\trequire(balances[msg.sender] >...\n      PUSH 40\t\t\trequire(balances[msg.sender] >...\n      MLOAD \t\t\trequire(balances[msg.sender] >...\n      PUSH 8C379A000000000000000000000000000000000000000000000000000000000\t\t\trequire(balances[msg.sender] >...\n      DUP2 \t\t\trequire(balances[msg.sender] >...\n      MSTORE \t\t\trequire(balances[msg.sender] >...\n      PUSH 4\t\t\trequire(balances[msg.sender] >...\n      ADD \t\t\trequire(balances[msg.sender] >...\n      PUSH [tag] 36\t\t\trequire(balances[msg.sender] >...\n      SWAP1 \t\t\trequire(balances[msg.sender] >...\n      PUSH [tag] 37\t\t\trequire(balances[msg.sender] >...\n      JUMP \t\t\trequire(balances[msg.sender] >...\n    tag 36\t\t\trequire(balances[msg.sender] >...\n      JUMPDEST \t\t\trequire(balances[msg.sender] >...\n      PUSH 40\t\t\trequire(balances[msg.sender] >...\n      MLOAD \t\t\trequire(balances[msg.sender] >...\n      DUP1 \t\t\trequire(balances[msg.sender] >...\n      SWAP2 \t\t\trequire(balances[msg.sender] >...\n      SUB \t\t\trequire(balances[msg.sender] >...\n      SWAP1 \t\t\trequire(balances[msg.sender] >...\n      REVERT \t\t\trequire(balances[msg.sender] >...\n    tag 35\t\t\trequire(balances[msg.sender] >...\n      JUMPDEST \t\t\trequire(balances[msg.sender] >...\n      PUSH 0\t\t\twbtc\n      DUP1 \t\t\twbtc\n      SLOAD \t\t\twbtc\n      SWAP1 \t\t\twbtc\n      PUSH 100\t\t\twbtc\n      EXP \t\t\twbtc\n      SWAP1 \t\t\twbtc\n      DIV \t\t\twbtc\n      PUSH FFFFFFFFFFFFFFFFFFFFFFFFFFFFFFFFFFFFFFFF\t\t\twbtc\n      AND \t\t\twbtc\n      PUSH FFFFFFFFFFFFFFFFFFFFFFFFFFFFFFFFFFFFFFFF\t\t\tIERC20(address(wbtc)).transfer\n      AND \t\t\tIERC20(address(wbtc)).transfer\n      PUSH A9059CBB\t\t\tIERC20(address(wbtc)).transfer\n      CALLER \t\t\tmsg.sender\n      DUP4 \t\t\tamount\n      PUSH 40\t\t\tIERC20(address(wbtc)).transfer...\n      MLOAD \t\t\tIERC20(address(wbtc)).transfer...\n      DUP4 \t\t\tIERC20(address(wbtc)).transfer...\n      PUSH FFFFFFFF\t\t\tIERC20(address(wbtc)).transfer...\n      AND \t\t\tIERC20(address(wbtc)).transfer...\n      PUSH E0\t\t\tIERC20(address(wbtc)).transfer...\n      SHL \t\t\tIERC20(address(wbtc)).transfer...\n      DUP2 \t\t\tIERC20(address(wbtc)).transfer...\n      MSTORE \t\t\tIERC20(address(wbtc)).transfer...\n      PUSH 4\t\t\tIERC20(address(wbtc)).transfer...\n      ADD \t\t\tIERC20(address(wbtc)).transfer...\n      PUSH [tag] 38\t\t\tIERC20(address(wbtc)).transfer...\n      SWAP3 \t\t\tIERC20(address(wbtc)).transfer...\n      SWAP2 \t\t\tIERC20(address(wbtc)).transfer...\n      SWAP1 \t\t\tIERC20(address(wbtc)).transfer...\n      PUSH [tag] 39\t\t\tIERC20(address(wbtc)).transfer...\n      JUMP \t\t\tIERC20(address(wbtc)).transfer...\n    tag 38\t\t\tIERC20(address(wbtc)).transfer...\n      JUMPDEST \t\t\tIERC20(address(wbtc)).transfer...\n      PUSH 20\t\t\tIERC20(address(wbtc)).transfer...\n      PUSH 40\t\t\tIERC20(address(wbtc)).transfer...\n      MLOAD \t\t\tIERC20(address(wbtc)).transfer...\n      DUP1 \t\t\tIERC20(address(wbtc)).transfer...\n      DUP4 \t\t\tIERC20(address(wbtc)).transfer...\n      SUB \t\t\tIERC20(address(wbtc)).transfer...\n      DUP2 \t\t\tIERC20(address(wbtc)).transfer...\n      PUSH 0\t\t\tIERC20(address(wbtc)).transfer...\n      DUP8 \t\t\tIERC20(address(wbtc)).transfer...\n      GAS \t\t\tIERC20(address(wbtc)).transfer...\n      CALL \t\t\tIERC20(address(wbtc)).transfer...\n      ISZERO \t\t\tIERC20(address(wbtc)).transfer...\n      DUP1 \t\t\tIERC20(address(wbtc)).transfer...\n      ISZERO \t\t\tIERC20(address(wbtc)).transfer...\n      PUSH [tag] 41\t\t\tIERC20(address(wbtc)).transfer...\n      JUMPI \t\t\tIERC20(address(wbtc)).transfer...\n      RETURNDATASIZE \t\t\tIERC20(address(wbtc)).transfer...\n      PUSH 0\t\t\tIERC20(address(wbtc)).transfer...\n      DUP1 \t\t\tIERC20(address(wbtc)).transfer...\n      RETURNDATACOPY \t\t\tIERC20(address(wbtc)).transfer...\n      RETURNDATASIZE \t\t\tIERC20(address(wbtc)).transfer...\n      PUSH 0\t\t\tIERC20(address(wbtc)).transfer...\n      REVERT \t\t\tIERC20(address(wbtc)).transfer...\n    tag 41\t\t\tIERC20(address(wbtc)).transfer...\n      JUMPDEST \t\t\tIERC20(address(wbtc)).transfer...\n      POP \t\t\tIERC20(address(wbtc)).transfer...\n      POP \t\t\tIERC20(address(wbtc)).transfer...\n      POP \t\t\tIERC20(address(wbtc)).transfer...\n      POP \t\t\tIERC20(address(wbtc)).transfer...\n      PUSH 40\t\t\tIERC20(address(wbtc)).transfer...\n      MLOAD \t\t\tIERC20(address(wbtc)).transfer...\n      RETURNDATASIZE \t\t\tIERC20(address(wbtc)).transfer...\n      PUSH 1F\t\t\tIERC20(address(wbtc)).transfer...\n      NOT \t\t\tIERC20(address(wbtc)).transfer...\n      PUSH 1F\t\t\tIERC20(address(wbtc)).transfer...\n      DUP3 \t\t\tIERC20(address(wbtc)).transfer...\n      ADD \t\t\tIERC20(address(wbtc)).transfer...\n      AND \t\t\tIERC20(address(wbtc)).transfer...\n      DUP3 \t\t\tIERC20(address(wbtc)).transfer...\n      ADD \t\t\tIERC20(address(wbtc)).transfer...\n      DUP1 \t\t\tIERC20(address(wbtc)).transfer...\n      PUSH 40\t\t\tIERC20(address(wbtc)).transfer...\n      MSTORE \t\t\tIERC20(address(wbtc)).transfer...\n      POP \t\t\tIERC20(address(wbtc)).transfer...\n      DUP2 \t\t\tIERC20(address(wbtc)).transfer...\n      ADD \t\t\tIERC20(address(wbtc)).transfer...\n      SWAP1 \t\t\tIERC20(address(wbtc)).transfer...\n      PUSH [tag] 42\t\t\tIERC20(address(wbtc)).transfer...\n      SWAP2 \t\t\tIERC20(address(wbtc)).transfer...\n      SWAP1 \t\t\tIERC20(address(wbtc)).transfer...\n      PUSH [tag] 43\t\t\tIERC20(address(wbtc)).transfer...\n      JUMP \t\t\tIERC20(address(wbtc)).transfer...\n    tag 42\t\t\tIERC20(address(wbtc)).transfer...\n      JUMPDEST \t\t\tIERC20(address(wbtc)).transfer...\n      POP \t\t\tIERC20(address(wbtc)).transfer...\n      DUP1 \t\t\tamount\n      PUSH 1\t\t\tbalances\n      PUSH 0\t\t\tbalances[msg.sender]\n      CALLER \t\t\tmsg.sender\n      PUSH FFFFFFFFFFFFFFFFFFFFFFFFFFFFFFFFFFFFFFFF\t\t\tbalances[msg.sender]\n      AND \t\t\tbalances[msg.sender]\n      PUSH FFFFFFFFFFFFFFFFFFFFFFFFFFFFFFFFFFFFFFFF\t\t\tbalances[msg.sender]\n      AND \t\t\tbalances[msg.sender]\n      DUP2 \t\t\tbalances[msg.sender]\n      MSTORE \t\t\tbalances[msg.sender]\n      PUSH 20\t\t\tbalances[msg.sender]\n      ADD \t\t\tbalances[msg.sender]\n      SWAP1 \t\t\tbalances[msg.sender]\n      DUP2 \t\t\tbalances[msg.sender]\n      MSTORE \t\t\tbalances[msg.sender]\n      PUSH 20\t\t\tbalances[msg.sender]\n      ADD \t\t\tbalances[msg.sender]\n      PUSH 0\t\t\tbalances[msg.sender]\n      KECCAK256 \t\t\tbalances[msg.sender]\n      PUSH 0\t\t\tbalances[msg.sender]\n      DUP3 \t\t\tbalances[msg.sender] -= amount\n      DUP3 \t\t\tbalances[msg.sender] -= amount\n      SLOAD \t\t\tbalances[msg.sender] -= amount\n      PUSH [tag] 44\t\t\tbalances[msg.sender] -= amount\n      SWAP2 \t\t\tbalances[msg.sender] -= amount\n      SWAP1 \t\t\tbalances[msg.sender] -= amount\n      PUSH [tag] 45\t\t\tbalances[msg.sender] -= amount\n      JUMP \t\t\tbalances[msg.sender] -= amount\n    tag 44\t\t\tbalances[msg.sender] -= amount\n      JUMPDEST \t\t\tbalances[msg.sender] -= amount\n      SWAP3 \t\t\tbalances[msg.sender] -= amount\n      POP \t\t\tbalances[msg.sender] -= amount\n      POP \t\t\tbalances[msg.sender] -= amount\n      DUP2 \t\t\tbalances[msg.sender] -= amount\n      SWAP1 \t\t\tbalances[msg.sender] -= amount\n      SSTORE \t\t\tbalances[msg.sender] -= amount\n      POP \t\t\tbalances[msg.sender] -= amount\n      POP \t\t\tfunction withdraw(uint256 amou...\n      JUMP \t\t\tfunction withdraw(uint256 amou...\n    tag 21\t\t\tfunction supply(uint256 amount...\n      JUMPDEST \t\t\tfunction supply(uint256 amount...\n      PUSH 0\t\t\twbtc\n      DUP1 \t\t\twbtc\n      SLOAD \t\t\twbtc\n      SWAP1 \t\t\twbtc\n      PUSH 100\t\t\twbtc\n      EXP \t\t\twbtc\n      SWAP1 \t\t\twbtc\n      DIV \t\t\twbtc\n      PUSH FFFFFFFFFFFFFFFFFFFFFFFFFFFFFFFFFFFFFFFF\t\t\twbtc\n      AND \t\t\twbtc\n      PUSH FFFFFFFFFFFFFFFFFFFFFFFFFFFFFFFFFFFFFFFF\t\t\tIERC20(address(wbtc)).transfer...\n      AND \t\t\tIERC20(address(wbtc)).transfer...\n      PUSH 23B872DD\t\t\tIERC20(address(wbtc)).transfer...\n      CALLER \t\t\tmsg.sender\n      ADDRESS \t\t\tthis\n      DUP5 \t\t\tamount\n      PUSH 40\t\t\tIERC20(address(wbtc)).transfer...\n      MLOAD \t\t\tIERC20(address(wbtc)).transfer...\n      DUP5 \t\t\tIERC20(address(wbtc)).transfer...\n      PUSH FFFFFFFF\t\t\tIERC20(address(wbtc)).transfer...\n      AND \t\t\tIERC20(address(wbtc)).transfer...\n      PUSH E0\t\t\tIERC20(address(wbtc)).transfer...\n      SHL \t\t\tIERC20(address(wbtc)).transfer...\n      DUP2 \t\t\tIERC20(address(wbtc)).transfer...\n      MSTORE \t\t\tIERC20(address(wbtc)).transfer...\n      PUSH 4\t\t\tIERC20(address(wbtc)).transfer...\n      ADD \t\t\tIERC20(address(wbtc)).transfer...\n      PUSH [tag] 47\t\t\tIERC20(address(wbtc)).transfer...\n      SWAP4 \t\t\tIERC20(address(wbtc)).transfer...\n      SWAP3 \t\t\tIERC20(address(wbtc)).transfer...\n      SWAP2 \t\t\tIERC20(address(wbtc)).transfer...\n      SWAP1 \t\t\tIERC20(address(wbtc)).transfer...\n      PUSH [tag] 48\t\t\tIERC20(address(wbtc)).transfer...\n      JUMP \t\t\tIERC20(address(wbtc)).transfer...\n    tag 47\t\t\tIERC20(address(wbtc)).transfer...\n      JUMPDEST \t\t\tIERC20(address(wbtc)).transfer...\n      PUSH 20\t\t\tIERC20(address(wbtc)).transfer...\n      PUSH 40\t\t\tIERC20(address(wbtc)).transfer...\n      MLOAD \t\t\tIERC20(address(wbtc)).transfer...\n      DUP1 \t\t\tIERC20(address(wbtc)).transfer...\n      DUP4 \t\t\tIERC20(address(wbtc)).transfer...\n      SUB \t\t\tIERC20(address(wbtc)).transfer...\n      DUP2 \t\t\tIERC20(address(wbtc)).transfer...\n      PUSH 0\t\t\tIERC20(address(wbtc)).transfer...\n      DUP8 \t\t\tIERC20(address(wbtc)).transfer...\n      GAS \t\t\tIERC20(address(wbtc)).transfer...\n      CALL \t\t\tIERC20(address(wbtc)).transfer...\n      ISZERO \t\t\tIERC20(address(wbtc)).transfer...\n      DUP1 \t\t\tIERC20(address(wbtc)).transfer...\n      ISZERO \t\t\tIERC20(address(wbtc)).transfer...\n      PUSH [tag] 50\t\t\tIERC20(address(wbtc)).transfer...\n      JUMPI \t\t\tIERC20(address(wbtc)).transfer...\n      RETURNDATASIZE \t\t\tIERC20(address(wbtc)).transfer...\n      PUSH 0\t\t\tIERC20(address(wbtc)).transfer...\n      DUP1 \t\t\tIERC20(address(wbtc)).transfer...\n      RETURNDATACOPY \t\t\tIERC20(address(wbtc)).transfer...\n      RETURNDATASIZE \t\t\tIERC20(address(wbtc)).transfer...\n      PUSH 0\t\t\tIERC20(address(wbtc)).transfer...\n      REVERT \t\t\tIERC20(address(wbtc)).transfer...\n    tag 50\t\t\tIERC20(address(wbtc)).transfer...\n      JUMPDEST \t\t\tIERC20(address(wbtc)).transfer...\n      POP \t\t\tIERC20(address(wbtc)).transfer...\n      POP \t\t\tIERC20(address(wbtc)).transfer...\n      POP \t\t\tIERC20(address(wbtc)).transfer...\n      POP \t\t\tIERC20(address(wbtc)).transfer...\n      PUSH 40\t\t\tIERC20(address(wbtc)).transfer...\n      MLOAD \t\t\tIERC20(address(wbtc)).transfer...\n      RETURNDATASIZE \t\t\tIERC20(address(wbtc)).transfer...\n      PUSH 1F\t\t\tIERC20(address(wbtc)).transfer...\n      NOT \t\t\tIERC20(address(wbtc)).transfer...\n      PUSH 1F\t\t\tIERC20(address(wbtc)).transfer...\n      DUP3 \t\t\tIERC20(address(wbtc)).transfer...\n      ADD \t\t\tIERC20(address(wbtc)).transfer...\n      AND \t\t\tIERC20(address(wbtc)).transfer...\n      DUP3 \t\t\tIERC20(address(wbtc)).transfer...\n      ADD \t\t\tIERC20(address(wbtc)).transfer...\n      DUP1 \t\t\tIERC20(address(wbtc)).transfer...\n      PUSH 40\t\t\tIERC20(address(wbtc)).transfer...\n      MSTORE \t\t\tIERC20(address(wbtc)).transfer...\n      POP \t\t\tIERC20(address(wbtc)).transfer...\n      DUP2 \t\t\tIERC20(address(wbtc)).transfer...\n      ADD \t\t\tIERC20(address(wbtc)).transfer...\n      SWAP1 \t\t\tIERC20(address(wbtc)).transfer...\n      PUSH [tag] 51\t\t\tIERC20(address(wbtc)).transfer...\n      SWAP2 \t\t\tIERC20(address(wbtc)).transfer...\n      SWAP1 \t\t\tIERC20(address(wbtc)).transfer...\n      PUSH [tag] 43\t\t\tIERC20(address(wbtc)).transfer...\n      JUMP \t\t\tIERC20(address(wbtc)).transfer...\n    tag 51\t\t\tIERC20(address(wbtc)).transfer...\n      JUMPDEST \t\t\tIERC20(address(wbtc)).transfer...\n      POP \t\t\tIERC20(address(wbtc)).transfer...\n      DUP1 \t\t\tamount\n      PUSH 1\t\t\tbalances\n      PUSH 0\t\t\tbalances[msg.sender]\n      CALLER \t\t\tmsg.sender\n      PUSH FFFFFFFFFFFFFFFFFFFFFFFFFFFFFFFFFFFFFFFF\t\t\tbalances[msg.sender]\n      AND \t\t\tbalances[msg.sender]\n      PUSH FFFFFFFFFFFFFFFFFFFFFFFFFFFFFFFFFFFFFFFF\t\t\tbalances[msg.sender]\n      AND \t\t\tbalances[msg.sender]\n      DUP2 \t\t\tbalances[msg.sender]\n      MSTORE \t\t\tbalances[msg.sender]\n      PUSH 20\t\t\tbalances[msg.sender]\n      ADD \t\t\tbalances[msg.sender]\n      SWAP1 \t\t\tbalances[msg.sender]\n      DUP2 \t\t\tbalances[msg.sender]\n      MSTORE \t\t\tbalances[msg.sender]\n      PUSH 20\t\t\tbalances[msg.sender]\n      ADD \t\t\tbalances[msg.sender]\n      PUSH 0\t\t\tbalances[msg.sender]\n      KECCAK256 \t\t\tbalances[msg.sender]\n      PUSH 0\t\t\tbalances[msg.sender]\n      DUP3 \t\t\tbalances[msg.sender] += amount\n      DUP3 \t\t\tbalances[msg.sender] += amount\n      SLOAD \t\t\tbalances[msg.sender] += amount\n      PUSH [tag] 52\t\t\tbalances[msg.sender] += amount\n      SWAP2 \t\t\tbalances[msg.sender] += amount\n      SWAP1 \t\t\tbalances[msg.sender] += amount\n      PUSH [tag] 53\t\t\tbalances[msg.sender] += amount\n      JUMP \t\t\tbalances[msg.sender] += amount\n    tag 52\t\t\tbalances[msg.sender] += amount\n      JUMPDEST \t\t\tbalances[msg.sender] += amount\n      SWAP3 \t\t\tbalances[msg.sender] += amount\n      POP \t\t\tbalances[msg.sender] += amount\n      POP \t\t\tbalances[msg.sender] += amount\n      DUP2 \t\t\tbalances[msg.sender] += amount\n      SWAP1 \t\t\tbalances[msg.sender] += amount\n      SSTORE \t\t\tbalances[msg.sender] += amount\n      POP \t\t\tbalances[msg.sender] += amount\n      POP \t\t\tfunction supply(uint256 amount...\n      JUMP \t\t\tfunction supply(uint256 amount...\n    tag 23\t\t\tfunction getAssetAddress() ext...\n      JUMPDEST \t\t\tfunction getAssetAddress() ext...\n      PUSH 0\t\t\taddress\n      DUP1 \t\t\twbtc\n      PUSH 0\t\t\twbtc\n      SWAP1 \t\t\twbtc\n      SLOAD \t\t\twbtc\n      SWAP1 \t\t\twbtc\n      PUSH 100\t\t\twbtc\n      EXP \t\t\twbtc\n      SWAP1 \t\t\twbtc\n      DIV \t\t\twbtc\n      PUSH FFFFFFFFFFFFFFFFFFFFFFFFFFFFFFFFFFFFFFFF\t\t\twbtc\n      AND \t\t\twbtc\n      SWAP1 \t\t\treturn address(wbtc)\n      POP \t\t\treturn address(wbtc)\n      SWAP1 \t\t\tfunction getAssetAddress() ext...\n      JUMP \t\t\tfunction getAssetAddress() ext...\n    tag 28\t\t\tfunction getSupplyedAmount(add...\n      JUMPDEST \t\t\tfunction getSupplyedAmount(add...\n      PUSH 0\t\t\tuint256\n      PUSH 1\t\t\tbalances\n      PUSH 0\t\t\tbalances[user]\n      DUP4 \t\t\tuser\n      PUSH FFFFFFFFFFFFFFFFFFFFFFFFFFFFFFFFFFFFFFFF\t\t\tbalances[user]\n      AND \t\t\tbalances[user]\n      PUSH FFFFFFFFFFFFFFFFFFFFFFFFFFFFFFFFFFFFFFFF\t\t\tbalances[user]\n      AND \t\t\tbalances[user]\n      DUP2 \t\t\tbalances[user]\n      MSTORE \t\t\tbalances[user]\n      PUSH 20\t\t\tbalances[user]\n      ADD \t\t\tbalances[user]\n      SWAP1 \t\t\tbalances[user]\n      DUP2 \t\t\tbalances[user]\n      MSTORE \t\t\tbalances[user]\n      PUSH 20\t\t\tbalances[user]\n      ADD \t\t\tbalances[user]\n      PUSH 0\t\t\tbalances[user]\n      KECCAK256 \t\t\tbalances[user]\n      SLOAD \t\t\tbalances[user]\n      SWAP1 \t\t\treturn balances[user]\n      POP \t\t\treturn balances[user]\n      SWAP2 \t\t\tfunction getSupplyedAmount(add...\n      SWAP1 \t\t\tfunction getSupplyedAmount(add...\n      POP \t\t\tfunction getSupplyedAmount(add...\n      JUMP \t\t\tfunction getSupplyedAmount(add...\n    tag 31\t\t\tfunction getAssetPrice() exter...\n      JUMPDEST \t\t\tfunction getAssetPrice() exter...\n      PUSH 0\t\t\tuint256\n      DUP1 \t\t\tuint256\n      PUSH 0\t\t\tuint256\n      DUP1 \t\t\tuint256 _price\n      PUSH 0\t\t\tuint256 _timestamp\n      DUP1 \t\t\tuint256 _decimals\n      PUSH 0\t\t\tIFlareContractRegistry contrac...\n      PUSH AD67FE66660FB8DFE9D6B1B4240D8650E30F6019\t\t\t0xaD67FE66660Fb8dFE9d6b1b4240d...\n      SWAP1 \t\t\tIFlareContractRegistry contrac...\n      POP \t\t\tIFlareContractRegistry contrac...\n      PUSH 0\t\t\tIFtsoRegistry ftsoRegistry\n      DUP2 \t\t\tcontractRegistry\n      PUSH FFFFFFFFFFFFFFFFFFFFFFFFFFFFFFFFFFFFFFFF\t\t\tcontractRegistry.getContractAd...\n      AND \t\t\tcontractRegistry.getContractAd...\n      PUSH 82760FCA\t\t\tcontractRegistry.getContractAd...\n      PUSH 40\t\t\tcontractRegistry.getContractAd...\n      MLOAD \t\t\tcontractRegistry.getContractAd...\n      DUP2 \t\t\tcontractRegistry.getContractAd...\n      PUSH FFFFFFFF\t\t\tcontractRegistry.getContractAd...\n      AND \t\t\tcontractRegistry.getContractAd...\n      PUSH E0\t\t\tcontractRegistry.getContractAd...\n      SHL \t\t\tcontractRegistry.getContractAd...\n      DUP2 \t\t\tcontractRegistry.getContractAd...\n      MSTORE \t\t\tcontractRegistry.getContractAd...\n      PUSH 4\t\t\tcontractRegistry.getContractAd...\n      ADD \t\t\tcontractRegistry.getContractAd...\n      PUSH [tag] 57\t\t\tcontractRegistry.getContractAd...\n      SWAP1 \t\t\tcontractRegistry.getContractAd...\n      PUSH [tag] 58\t\t\tcontractRegistry.getContractAd...\n      JUMP \t\t\tcontractRegistry.getContractAd...\n    tag 57\t\t\tcontractRegistry.getContractAd...\n      JUMPDEST \t\t\tcontractRegistry.getContractAd...\n      PUSH 20\t\t\tcontractRegistry.getContractAd...\n      PUSH 40\t\t\tcontractRegistry.getContractAd...\n      MLOAD \t\t\tcontractRegistry.getContractAd...\n      DUP1 \t\t\tcontractRegistry.getContractAd...\n      DUP4 \t\t\tcontractRegistry.getContractAd...\n      SUB \t\t\tcontractRegistry.getContractAd...\n      DUP2 \t\t\tcontractRegistry.getContractAd...\n      DUP7 \t\t\tcontractRegistry.getContractAd...\n      GAS \t\t\tcontractRegistry.getContractAd...\n      STATICCALL \t\t\tcontractRegistry.getContractAd...\n      ISZERO \t\t\tcontractRegistry.getContractAd...\n      DUP1 \t\t\tcontractRegistry.getContractAd...\n      ISZERO \t\t\tcontractRegistry.getContractAd...\n      PUSH [tag] 60\t\t\tcontractRegistry.getContractAd...\n      JUMPI \t\t\tcontractRegistry.getContractAd...\n      RETURNDATASIZE \t\t\tcontractRegistry.getContractAd...\n      PUSH 0\t\t\tcontractRegistry.getContractAd...\n      DUP1 \t\t\tcontractRegistry.getContractAd...\n      RETURNDATACOPY \t\t\tcontractRegistry.getContractAd...\n      RETURNDATASIZE \t\t\tcontractRegistry.getContractAd...\n      PUSH 0\t\t\tcontractRegistry.getContractAd...\n      REVERT \t\t\tcontractRegistry.getContractAd...\n    tag 60\t\t\tcontractRegistry.getContractAd...\n      JUMPDEST \t\t\tcontractRegistry.getContractAd...\n      POP \t\t\tcontractRegistry.getContractAd...\n      POP \t\t\tcontractRegistry.getContractAd...\n      POP \t\t\tcontractRegistry.getContractAd...\n      POP \t\t\tcontractRegistry.getContractAd...\n      PUSH 40\t\t\tcontractRegistry.getContractAd...\n      MLOAD \t\t\tcontractRegistry.getContractAd...\n      RETURNDATASIZE \t\t\tcontractRegistry.getContractAd...\n      PUSH 1F\t\t\tcontractRegistry.getContractAd...\n      NOT \t\t\tcontractRegistry.getContractAd...\n      PUSH 1F\t\t\tcontractRegistry.getContractAd...\n      DUP3 \t\t\tcontractRegistry.getContractAd...\n      ADD \t\t\tcontractRegistry.getContractAd...\n      AND \t\t\tcontractRegistry.getContractAd...\n      DUP3 \t\t\tcontractRegistry.getContractAd...\n      ADD \t\t\tcontractRegistry.getContractAd...\n      DUP1 \t\t\tcontractRegistry.getContractAd...\n      PUSH 40\t\t\tcontractRegistry.getContractAd...\n      MSTORE \t\t\tcontractRegistry.getContractAd...\n      POP \t\t\tcontractRegistry.getContractAd...\n      DUP2 \t\t\tcontractRegistry.getContractAd...\n      ADD \t\t\tcontractRegistry.getContractAd...\n      SWAP1 \t\t\tcontractRegistry.getContractAd...\n      PUSH [tag] 61\t\t\tcontractRegistry.getContractAd...\n      SWAP2 \t\t\tcontractRegistry.getContractAd...\n      SWAP1 \t\t\tcontractRegistry.getContractAd...\n      PUSH [tag] 62\t\t\tcontractRegistry.getContractAd...\n      JUMP \t\t\tcontractRegistry.getContractAd...\n    tag 61\t\t\tcontractRegistry.getContractAd...\n      JUMPDEST \t\t\tcontractRegistry.getContractAd...\n      SWAP1 \t\t\tIFtsoRegistry ftsoRegistry = I...\n      POP \t\t\tIFtsoRegistry ftsoRegistry = I...\n      DUP1 \t\t\tftsoRegistry\n      PUSH FFFFFFFFFFFFFFFFFFFFFFFFFFFFFFFFFFFFFFFF\t\t\tftsoRegistry.getCurrentPriceWi...\n      AND \t\t\tftsoRegistry.getCurrentPriceWi...\n      PUSH A69AFDC6\t\t\tftsoRegistry.getCurrentPriceWi...\n      PUSH 40\t\t\tftsoRegistry.getCurrentPriceWi...\n      MLOAD \t\t\tftsoRegistry.getCurrentPriceWi...\n      DUP2 \t\t\tftsoRegistry.getCurrentPriceWi...\n      PUSH FFFFFFFF\t\t\tftsoRegistry.getCurrentPriceWi...\n      AND \t\t\tftsoRegistry.getCurrentPriceWi...\n      PUSH E0\t\t\tftsoRegistry.getCurrentPriceWi...\n      SHL \t\t\tftsoRegistry.getCurrentPriceWi...\n      DUP2 \t\t\tftsoRegistry.getCurrentPriceWi...\n      MSTORE \t\t\tftsoRegistry.getCurrentPriceWi...\n      PUSH 4\t\t\tftsoRegistry.getCurrentPriceWi...\n      ADD \t\t\tftsoRegistry.getCurrentPriceWi...\n      PUSH [tag] 63\t\t\tftsoRegistry.getCurrentPriceWi...\n      SWAP1 \t\t\tftsoRegistry.getCurrentPriceWi...\n      PUSH [tag] 64\t\t\tftsoRegistry.getCurrentPriceWi...\n      JUMP \t\t\tftsoRegistry.getCurrentPriceWi...\n    tag 63\t\t\tftsoRegistry.getCurrentPriceWi...\n      JUMPDEST \t\t\tftsoRegistry.getCurrentPriceWi...\n      PUSH 60\t\t\tftsoRegistry.getCurrentPriceWi...\n      PUSH 40\t\t\tftsoRegistry.getCurrentPriceWi...\n      MLOAD \t\t\tftsoRegistry.getCurrentPriceWi...\n      DUP1 \t\t\tftsoRegistry.getCurrentPriceWi...\n      DUP4 \t\t\tftsoRegistry.getCurrentPriceWi...\n      SUB \t\t\tftsoRegistry.getCurrentPriceWi...\n      DUP2 \t\t\tftsoRegistry.getCurrentPriceWi...\n      DUP7 \t\t\tftsoRegistry.getCurrentPriceWi...\n      GAS \t\t\tftsoRegistry.getCurrentPriceWi...\n      STATICCALL \t\t\tftsoRegistry.getCurrentPriceWi...\n      ISZERO \t\t\tftsoRegistry.getCurrentPriceWi...\n      DUP1 \t\t\tftsoRegistry.getCurrentPriceWi...\n      ISZERO \t\t\tftsoRegistry.getCurrentPriceWi...\n      PUSH [tag] 66\t\t\tftsoRegistry.getCurrentPriceWi...\n      JUMPI \t\t\tftsoRegistry.getCurrentPriceWi...\n      RETURNDATASIZE \t\t\tftsoRegistry.getCurrentPriceWi...\n      PUSH 0\t\t\tftsoRegistry.getCurrentPriceWi...\n      DUP1 \t\t\tftsoRegistry.getCurrentPriceWi...\n      RETURNDATACOPY \t\t\tftsoRegistry.getCurrentPriceWi...\n      RETURNDATASIZE \t\t\tftsoRegistry.getCurrentPriceWi...\n      PUSH 0\t\t\tftsoRegistry.getCurrentPriceWi...\n      REVERT \t\t\tftsoRegistry.getCurrentPriceWi...\n    tag 66\t\t\tftsoRegistry.getCurrentPriceWi...\n      JUMPDEST \t\t\tftsoRegistry.getCurrentPriceWi...\n      POP \t\t\tftsoRegistry.getCurrentPriceWi...\n      POP \t\t\tftsoRegistry.getCurrentPriceWi...\n      POP \t\t\tftsoRegistry.getCurrentPriceWi...\n      POP \t\t\tftsoRegistry.getCurrentPriceWi...\n      PUSH 40\t\t\tftsoRegistry.getCurrentPriceWi...\n      MLOAD \t\t\tftsoRegistry.getCurrentPriceWi...\n      RETURNDATASIZE \t\t\tftsoRegistry.getCurrentPriceWi...\n      PUSH 1F\t\t\tftsoRegistry.getCurrentPriceWi...\n      NOT \t\t\tftsoRegistry.getCurrentPriceWi...\n      PUSH 1F\t\t\tftsoRegistry.getCurrentPriceWi...\n      DUP3 \t\t\tftsoRegistry.getCurrentPriceWi...\n      ADD \t\t\tftsoRegistry.getCurrentPriceWi...\n      AND \t\t\tftsoRegistry.getCurrentPriceWi...\n      DUP3 \t\t\tftsoRegistry.getCurrentPriceWi...\n      ADD \t\t\tftsoRegistry.getCurrentPriceWi...\n      DUP1 \t\t\tftsoRegistry.getCurrentPriceWi...\n      PUSH 40\t\t\tftsoRegistry.getCurrentPriceWi...\n      MSTORE \t\t\tftsoRegistry.getCurrentPriceWi...\n      POP \t\t\tftsoRegistry.getCurrentPriceWi...\n      DUP2 \t\t\tftsoRegistry.getCurrentPriceWi...\n      ADD \t\t\tftsoRegistry.getCurrentPriceWi...\n      SWAP1 \t\t\tftsoRegistry.getCurrentPriceWi...\n      PUSH [tag] 67\t\t\tftsoRegistry.getCurrentPriceWi...\n      SWAP2 \t\t\tftsoRegistry.getCurrentPriceWi...\n      SWAP1 \t\t\tftsoRegistry.getCurrentPriceWi...\n      PUSH [tag] 68\t\t\tftsoRegistry.getCurrentPriceWi...\n      JUMP \t\t\tftsoRegistry.getCurrentPriceWi...\n    tag 67\t\t\tftsoRegistry.getCurrentPriceWi...\n      JUMPDEST \t\t\tftsoRegistry.getCurrentPriceWi...\n      DUP1 \t\t\t(_price, _timestamp, _decimals...\n      SWAP6 \t\t\t(_price, _timestamp, _decimals...\n      POP \t\t\t(_price, _timestamp, _decimals...\n      DUP2 \t\t\t(_price, _timestamp, _decimals...\n      SWAP7 \t\t\t(_price, _timestamp, _decimals...\n      POP \t\t\t(_price, _timestamp, _decimals...\n      DUP3 \t\t\t(_price, _timestamp, _decimals...\n      SWAP8 \t\t\t(_price, _timestamp, _decimals...\n      POP \t\t\t(_price, _timestamp, _decimals...\n      POP \t\t\t(_price, _timestamp, _decimals...\n      POP \t\t\t(_price, _timestamp, _decimals...\n      POP \t\t\t(_price, _timestamp, _decimals...\n      DUP5 \t\t\t_price\n      DUP5 \t\t\t_timestamp\n      DUP5 \t\t\t_decimals\n      SWAP8 \t\t\treturn (_price, _timestamp, _d...\n      POP \t\t\treturn (_price, _timestamp, _d...\n      SWAP8 \t\t\treturn (_price, _timestamp, _d...\n      POP \t\t\treturn (_price, _timestamp, _d...\n      SWAP8 \t\t\treturn (_price, _timestamp, _d...\n      POP \t\t\treturn (_price, _timestamp, _d...\n      POP \t\t\treturn (_price, _timestamp, _d...\n      POP \t\t\treturn (_price, _timestamp, _d...\n      POP \t\t\treturn (_price, _timestamp, _d...\n      POP \t\t\treturn (_price, _timestamp, _d...\n      POP \t\t\treturn (_price, _timestamp, _d...\n      SWAP1 \t\t\tfunction getAssetPrice() exter...\n      SWAP2 \t\t\tfunction getAssetPrice() exter...\n      SWAP3 \t\t\tfunction getAssetPrice() exter...\n      JUMP \t\t\tfunction getAssetPrice() exter...\n    tag 70\t\t\t/token/ERC20/IERC20.sol\";\\nimp...\n      JUMPDEST \t\t\t/token/ERC20/IERC20.sol\";\\nimp...\n      PUSH 0\t\t\t/\n      DUP1 \t\t\tc\n      REVERT \t\t\tInterfaces/I\n    tag 72\t\t\tTCReserve {\\n\\n    struct pric...\n      JUMPDEST \t\t\tTCReserve {\\n\\n    struct pric...\n      PUSH 0\t\t\t\\n      \n      PUSH FFFFFFFFFFFFFFFFFFFFFFFFFFFFFFFFFFFFFFFF\t\t\ttimestamp;\\n        uint256 de...\n      DUP3 \t\t\tint25\n      AND \t\t\t   uint256 timestamp;\\n       ...\n      SWAP1 \t\t\trice;\\n        uint256 timesta...\n      POP \t\t\trice;\\n        uint256 timesta...\n      SWAP2 \t\t\tTCReserve {\\n\\n    struct pric...\n      SWAP1 \t\t\tTCReserve {\\n\\n    struct pric...\n      POP \t\t\tTCReserve {\\n\\n    struct pric...\n      JUMP \t\t\tTCReserve {\\n\\n    struct pric...\n    tag 73\t\t\t wbtc;\\n    mapping(address =>...\n      JUMPDEST \t\t\t wbtc;\\n    mapping(address =>...\n      PUSH 0\t\t\t) publi\n      PUSH [tag] 100\t\t\ts private constant FLARE\n      DUP3 \t\t\t FLAR\n      PUSH [tag] 72\t\t\ts private constant FLARE\n      JUMP \t\t\ts private constant FLARE\n    tag 100\t\t\ts private constant FLARE\n      JUMPDEST \t\t\ts private constant FLARE\n      SWAP1 \t\t\t\\n    address private constant...\n      POP \t\t\t\\n    address private constant...\n      SWAP2 \t\t\t wbtc;\\n    mapping(address =>...\n      SWAP1 \t\t\t wbtc;\\n    mapping(address =>...\n      POP \t\t\t wbtc;\\n    mapping(address =>...\n      JUMP \t\t\t wbtc;\\n    mapping(address =>...\n    tag 74\t\t\tGISTRY =\\n        0xaD67FE6666...\n      JUMPDEST \t\t\tGISTRY =\\n        0xaD67FE6666...\n      PUSH [tag] 102\t\t\tnstructor(address _wBTC)\n      DUP2 \t\t\t_wBTC\n      PUSH [tag] 73\t\t\tnstructor(address _wBTC)\n      JUMP \t\t\tnstructor(address _wBTC)\n    tag 102\t\t\tnstructor(address _wBTC)\n      JUMPDEST \t\t\tnstructor(address _wBTC)\n      DUP2 \t\t\t\\n    \n      EQ \t\t\t   \\n    constructor(address _...\n      PUSH [tag] 103\t\t\t0F6019;\\n\\n    \\n    construct...\n      JUMPI \t\t\t0F6019;\\n\\n    \\n    construct...\n      PUSH 0\t\t\t \n      DUP1 \t\t\tb\n      REVERT \t\t\t      wbtc =\n    tag 103\t\t\t0F6019;\\n\\n    \\n    construct...\n      JUMPDEST \t\t\t0F6019;\\n\\n    \\n    construct...\n      POP \t\t\tGISTRY =\\n        0xaD67FE6666...\n      JUMP \t\t\tGISTRY =\\n        0xaD67FE6666...\n    tag 75\t\t\t;\\n    }\\n\\n    function suppl...\n      JUMPDEST \t\t\t;\\n    }\\n\\n    function suppl...\n      PUSH 0\t\t\txtern\n      DUP2 \t\t\t).tran\n      CALLDATALOAD \t\t\taddress(wbtc)).trans\n      SWAP1 \t\t\t  IERC20(address(wbtc)).trans\n      POP \t\t\t  IERC20(address(wbtc)).trans\n      PUSH [tag] 105\t\t\tsg.sender, address(this), amou...\n      DUP2 \t\t\tmount\n      PUSH [tag] 74\t\t\tsg.sender, address(this), amou...\n      JUMP \t\t\tsg.sender, address(this), amou...\n    tag 105\t\t\tsg.sender, address(this), amou...\n      JUMPDEST \t\t\tsg.sender, address(this), amou...\n      SWAP3 \t\t\t;\\n    }\\n\\n    function suppl...\n      SWAP2 \t\t\t;\\n    }\\n\\n    function suppl...\n      POP \t\t\t;\\n    }\\n\\n    function suppl...\n      POP \t\t\t;\\n    }\\n\\n    function suppl...\n      JUMP \t\t\t;\\n    }\\n\\n    function suppl...\n    tag 11\t\t\tlances[msg.sender] += amount;\\...\n      JUMPDEST \t\t\tlances[msg.sender] += amount;\\...\n      PUSH 0\t\t\tupplye\n      PUSH 20\t\t\t (\n      DUP3 \t\t\tview retu\n      DUP5 \t\t\texterna\n      SUB \t\t\ter) external view retur\n      SLT \t\t\ts user) external view returns ...\n      ISZERO \t\t\tress user) external view retur...\n      PUSH [tag] 107\t\t\tress user) external view retur...\n      JUMPI \t\t\tress user) external view retur...\n      PUSH [tag] 108\t\t\t256) {\\n        return balance...\n      PUSH [tag] 70\t\t\t256) {\\n        return balance...\n      JUMP \t\t\t256) {\\n        return balance...\n    tag 108\t\t\t256) {\\n        return balance...\n      JUMPDEST \t\t\t256) {\\n        return balance...\n    tag 107\t\t\tress user) external view retur...\n      JUMPDEST \t\t\tress user) external view retur...\n      PUSH 0\t\t\ts\n      PUSH [tag] 109\t\t\tsufficient balance\");\\n       ...\n      DUP5 \t\t\twbtc)).\n      DUP3 \t\t\t(addre\n      DUP6 \t\t\t     IERC\n      ADD \t\t\t\\n        IERC20(addres\n      PUSH [tag] 75\t\t\tsufficient balance\");\\n       ...\n      JUMP \t\t\tsufficient balance\");\\n       ...\n    tag 109\t\t\tsufficient balance\");\\n       ...\n      JUMPDEST \t\t\tsufficient balance\");\\n       ...\n      SWAP2 \t\t\tmount, \"Insufficient balance\")...\n      POP \t\t\tmount, \"Insufficient balance\")...\n      POP \t\t\t {\\n        require(balances[m...\n      SWAP3 \t\t\tlances[msg.sender] += amount;\\...\n      SWAP2 \t\t\tlances[msg.sender] += amount;\\...\n      POP \t\t\tlances[msg.sender] += amount;\\...\n      POP \t\t\tlances[msg.sender] += amount;\\...\n      JUMP \t\t\tlances[msg.sender] += amount;\\...\n    tag 76\t\t\tunt);\\n        balances[msg.se...\n      JUMPDEST \t\t\tunt);\\n        balances[msg.se...\n      PUSH 0\t\t\t amount\n      DUP2 \t\t\tgetAs\n      SWAP1 \t\t\t  function getAs\n      POP \t\t\t  function getAs\n      SWAP2 \t\t\tunt);\\n        balances[msg.se...\n      SWAP1 \t\t\tunt);\\n        balances[msg.se...\n      POP \t\t\tunt);\\n        balances[msg.se...\n      JUMP \t\t\tunt);\\n        balances[msg.se...\n    tag 77\t\t\txternal view returns (uint256,...\n      JUMPDEST \t\t\txternal view returns (uint256,...\n      PUSH [tag] 112\t\t\t56 _timestamp;\\n        u\n      DUP2 \t\t\t     \n      PUSH [tag] 76\t\t\t56 _timestamp;\\n        u\n      JUMP \t\t\t56 _timestamp;\\n        u\n    tag 112\t\t\t56 _timestamp;\\n        u\n      JUMPDEST \t\t\t56 _timestamp;\\n        u\n      DUP3 \t\t\tuin\n      MSTORE \t\t\t       uint256 _timestamp;\\n  ...\n      POP \t\t\txternal view returns (uint256,...\n      POP \t\t\txternal view returns (uint256,...\n      JUMP \t\t\txternal view returns (uint256,...\n    tag 14\t\t\tals;\\n\\n        IFlareContract...\n      JUMPDEST \t\t\tals;\\n\\n        IFlareContract...\n      PUSH 0\t\t\tLARE\n      PUSH 20\t\t\t. \n      DUP3 \t\t\t       //\n      ADD \t\t\t;\\n\\n        // 3. R\n      SWAP1 \t\t\tEGISTRY);\\n\\n        // 3. R\n      POP \t\t\tEGISTRY);\\n\\n        // 3. R\n      PUSH [tag] 114\t\t\te FTSO Registry\\n        IFtso...\n      PUSH 0\t\t\t \n      DUP4 \t\t\toRegistry\n      ADD \t\t\tIFtsoRegistry(\\n  \n      DUP5 \t\t\tgistry\n      PUSH [tag] 77\t\t\te FTSO Registry\\n        IFtso...\n      JUMP \t\t\te FTSO Registry\\n        IFtso...\n    tag 114\t\t\te FTSO Registry\\n        IFtso...\n      JUMPDEST \t\t\te FTSO Registry\\n        IFtso...\n      SWAP3 \t\t\tals;\\n\\n        IFlareContract...\n      SWAP2 \t\t\tals;\\n\\n        IFlareContract...\n      POP \t\t\tals;\\n\\n        IFlareContract...\n      POP \t\t\tals;\\n\\n        IFlareContract...\n      JUMP \t\t\tals;\\n\\n        IFlareContract...\n    tag 78\t\t\tractRegistry.getContractAddres...\n      JUMPDEST \t\t\tractRegistry.getContractAddres...\n      PUSH [tag] 116\t\t\tt latest price\\n        (\n      DUP2 \t\t\t     \n      PUSH [tag] 76\t\t\tt latest price\\n        (\n      JUMP \t\t\tt latest price\\n        (\n    tag 116\t\t\tt latest price\\n        (\n      JUMPDEST \t\t\tt latest price\\n        (\n      DUP2 \t\t\t/ 4. \n      EQ \t\t\t  // 4. Get latest price\\n    ...\n      PUSH [tag] 117\t\t\t);\\n\\n        // 4. Get latest...\n      JUMPI \t\t\t);\\n\\n        // 4. Get latest...\n      PUSH 0\t\t\ta\n      DUP1 \t\t\te\n      REVERT \t\t\te, _timestam\n    tag 117\t\t\t);\\n\\n        // 4. Get latest...\n      JUMPDEST \t\t\t);\\n\\n        // 4. Get latest...\n      POP \t\t\tractRegistry.getContractAddres...\n      JUMP \t\t\tractRegistry.getContractAddres...\n    tag 79\t\t\t=\\n            ftsoRegistry.ge...\n      JUMPDEST \t\t\t=\\n            ftsoRegistry.ge...\n      PUSH 0\t\t\tDecim\n      DUP2 \t\t\tprice,\n      CALLDATALOAD \t\t\t    return (_price, \n      SWAP1 \t\t\tC\");\\n        return (_price, \n      POP \t\t\tC\");\\n        return (_price, \n      PUSH [tag] 119\t\t\tp, _decimals);\\n    }\\n\\n    f...\n      DUP2 \t\t\tuncti\n      PUSH [tag] 78\t\t\tp, _decimals);\\n    }\\n\\n    f...\n      JUMP \t\t\tp, _decimals);\\n    }\\n\\n    f...\n    tag 119\t\t\tp, _decimals);\\n    }\\n\\n    f...\n      JUMPDEST \t\t\tp, _decimals);\\n    }\\n\\n    f...\n      SWAP3 \t\t\t=\\n            ftsoRegistry.ge...\n      SWAP2 \t\t\t=\\n            ftsoRegistry.ge...\n      POP \t\t\t=\\n            ftsoRegistry.ge...\n      POP \t\t\t=\\n            ftsoRegistry.ge...\n      JUMP \t\t\t=\\n            ftsoRegistry.ge...\n    tag 17\t\t\tdress() external view returns ...\n      JUMPDEST \t\t\tdress() external view returns ...\n      PUSH 0\t\t\tdress(\n      PUSH 20\t\t\t\n      DUP3 \t\t\t\n      DUP5 \t\t\t\n      SUB \t\t\t\n      SLT \t\t\t\\n\n      ISZERO \t\t\t}\\n}\\n\n      PUSH [tag] 121\t\t\t}\\n}\\n\n      JUMPI \t\t\t}\\n}\\n\n      PUSH [tag] 122\t\t\t\n      PUSH [tag] 70\t\t\t\n      JUMP \t\t\t\n    tag 122\t\t\t\n      JUMPDEST \t\t\t\n    tag 121\t\t\t}\\n}\\n\n      JUMPDEST \t\t\t}\\n}\\n\n      PUSH 0\t\t\t\n      PUSH [tag] 123\t\t\t\n      DUP5 \t\t\t\n      DUP3 \t\t\t\n      DUP6 \t\t\t\n      ADD \t\t\t\n      PUSH [tag] 79\t\t\t\n      JUMP \t\t\t\n    tag 123\t\t\t\n      JUMPDEST \t\t\t\n      SWAP2 \t\t\t\n      POP \t\t\t\n      POP \t\t\t\n      SWAP3 \t\t\tdress() external view returns ...\n      SWAP2 \t\t\tdress() external view returns ...\n      POP \t\t\tdress() external view returns ...\n      POP \t\t\tdress() external view returns ...\n      JUMP \t\t\tdress() external view returns ...\n    tag 80\t\t\t\n      JUMPDEST \t\t\t\n      PUSH [tag] 125\t\t\t\n      DUP2 \t\t\t\n      PUSH [tag] 73\t\t\t\n      JUMP \t\t\t\n    tag 125\t\t\t\n      JUMPDEST \t\t\t\n      DUP3 \t\t\t\n      MSTORE \t\t\t\n      POP \t\t\t\n      POP \t\t\t\n      JUMP \t\t\t\n    tag 25\t\t\t\n      JUMPDEST \t\t\t\n      PUSH 0\t\t\t\n      PUSH 20\t\t\t\n      DUP3 \t\t\t\n      ADD \t\t\t\n      SWAP1 \t\t\t\n      POP \t\t\t\n      PUSH [tag] 127\t\t\t\n      PUSH 0\t\t\t\n      DUP4 \t\t\t\n      ADD \t\t\t\n      DUP5 \t\t\t\n      PUSH [tag] 80\t\t\t\n      JUMP \t\t\t\n    tag 127\t\t\t\n      JUMPDEST \t\t\t\n      SWAP3 \t\t\t\n      SWAP2 \t\t\t\n      POP \t\t\t\n      POP \t\t\t\n      JUMP \t\t\t\n    tag 33\t\t\t\n      JUMPDEST \t\t\t\n      PUSH 0\t\t\t\n      PUSH 60\t\t\t\n      DUP3 \t\t\t\n      ADD \t\t\t\n      SWAP1 \t\t\t\n      POP \t\t\t\n      PUSH [tag] 129\t\t\t\n      PUSH 0\t\t\t\n      DUP4 \t\t\t\n      ADD \t\t\t\n      DUP7 \t\t\t\n      PUSH [tag] 77\t\t\t\n      JUMP \t\t\t\n    tag 129\t\t\t\n      JUMPDEST \t\t\t\n      PUSH [tag] 130\t\t\t\n      PUSH 20\t\t\t\n      DUP4 \t\t\t\n      ADD \t\t\t\n      DUP6 \t\t\t\n      PUSH [tag] 77\t\t\t\n      JUMP \t\t\t\n    tag 130\t\t\t\n      JUMPDEST \t\t\t\n      PUSH [tag] 131\t\t\t\n      PUSH 40\t\t\t\n      DUP4 \t\t\t\n      ADD \t\t\t\n      DUP5 \t\t\t\n      PUSH [tag] 77\t\t\t\n      JUMP \t\t\t\n    tag 131\t\t\t\n      JUMPDEST \t\t\t\n      SWAP5 \t\t\t\n      SWAP4 \t\t\t\n      POP \t\t\t\n      POP \t\t\t\n      POP \t\t\t\n      POP \t\t\t\n      JUMP \t\t\t\n    tag 81\t\t\t\n      JUMPDEST \t\t\t\n      PUSH 0\t\t\t\n      DUP3 \t\t\t\n      DUP3 \t\t\t\n      MSTORE \t\t\t\n      PUSH 20\t\t\t\n      DUP3 \t\t\t\n      ADD \t\t\t\n      SWAP1 \t\t\t\n      POP \t\t\t\n      SWAP3 \t\t\t\n      SWAP2 \t\t\t\n      POP \t\t\t\n      POP \t\t\t\n      JUMP \t\t\t\n    tag 82\t\t\t\n      JUMPDEST \t\t\t\n      PUSH 496E73756666696369656E742062616C616E6365000000000000000000000000\t\t\t\n      PUSH 0\t\t\t\n      DUP3 \t\t\t\n      ADD \t\t\t\n      MSTORE \t\t\t\n      POP \t\t\t\n      JUMP \t\t\t\n    tag 83\t\t\t\n      JUMPDEST \t\t\t\n      PUSH 0\t\t\t\n      PUSH [tag] 135\t\t\t\n      PUSH 14\t\t\t\n      DUP4 \t\t\t\n      PUSH [tag] 81\t\t\t\n      JUMP \t\t\t\n    tag 135\t\t\t\n      JUMPDEST \t\t\t\n      SWAP2 \t\t\t\n      POP \t\t\t\n      PUSH [tag] 136\t\t\t\n      DUP3 \t\t\t\n      PUSH [tag] 82\t\t\t\n      JUMP \t\t\t\n    tag 136\t\t\t\n      JUMPDEST \t\t\t\n      PUSH 20\t\t\t\n      DUP3 \t\t\t\n      ADD \t\t\t\n      SWAP1 \t\t\t\n      POP \t\t\t\n      SWAP2 \t\t\t\n      SWAP1 \t\t\t\n      POP \t\t\t\n      JUMP \t\t\t\n    tag 37\t\t\t\n      JUMPDEST \t\t\t\n      PUSH 0\t\t\t\n      PUSH 20\t\t\t\n      DUP3 \t\t\t\n      ADD \t\t\t\n      SWAP1 \t\t\t\n      POP \t\t\t\n      DUP2 \t\t\t\n      DUP2 \t\t\t\n      SUB \t\t\t\n      PUSH 0\t\t\t\n      DUP4 \t\t\t\n      ADD \t\t\t\n      MSTORE \t\t\t\n      PUSH [tag] 138\t\t\t\n      DUP2 \t\t\t\n      PUSH [tag] 83\t\t\t\n      JUMP \t\t\t\n    tag 138\t\t\t\n      JUMPDEST \t\t\t\n      SWAP1 \t\t\t\n      POP \t\t\t\n      SWAP2 \t\t\t\n      SWAP1 \t\t\t\n      POP \t\t\t\n      JUMP \t\t\t\n    tag 39\t\t\t\n      JUMPDEST \t\t\t\n      PUSH 0\t\t\t\n      PUSH 40\t\t\t\n      DUP3 \t\t\t\n      ADD \t\t\t\n      SWAP1 \t\t\t\n      POP \t\t\t\n      PUSH [tag] 140\t\t\t\n      PUSH 0\t\t\t\n      DUP4 \t\t\t\n      ADD \t\t\t\n      DUP6 \t\t\t\n      PUSH [tag] 80\t\t\t\n      JUMP \t\t\t\n    tag 140\t\t\t\n      JUMPDEST \t\t\t\n      PUSH [tag] 141\t\t\t\n      PUSH 20\t\t\t\n      DUP4 \t\t\t\n      ADD \t\t\t\n      DUP5 \t\t\t\n      PUSH [tag] 77\t\t\t\n      JUMP \t\t\t\n    tag 141\t\t\t\n      JUMPDEST \t\t\t\n      SWAP4 \t\t\t\n      SWAP3 \t\t\t\n      POP \t\t\t\n      POP \t\t\t\n      POP \t\t\t\n      JUMP \t\t\t\n    tag 84\t\t\t\n      JUMPDEST \t\t\t\n      PUSH 0\t\t\t\n      DUP2 \t\t\t\n      ISZERO \t\t\t\n      ISZERO \t\t\t\n      SWAP1 \t\t\t\n      POP \t\t\t\n      SWAP2 \t\t\t\n      SWAP1 \t\t\t\n      POP \t\t\t\n      JUMP \t\t\t\n    tag 85\t\t\t\n      JUMPDEST \t\t\t\n      PUSH [tag] 144\t\t\t\n      DUP2 \t\t\t\n      PUSH [tag] 84\t\t\t\n      JUMP \t\t\t\n    tag 144\t\t\t\n      JUMPDEST \t\t\t\n      DUP2 \t\t\t\n      EQ \t\t\t\n      PUSH [tag] 145\t\t\t\n      JUMPI \t\t\t\n      PUSH 0\t\t\t\n      DUP1 \t\t\t\n      REVERT \t\t\t\n    tag 145\t\t\t\n      JUMPDEST \t\t\t\n      POP \t\t\t\n      JUMP \t\t\t\n    tag 86\t\t\t\n      JUMPDEST \t\t\t\n      PUSH 0\t\t\t\n      DUP2 \t\t\t\n      MLOAD \t\t\t\n      SWAP1 \t\t\t\n      POP \t\t\t\n      PUSH [tag] 147\t\t\t\n      DUP2 \t\t\t\n      PUSH [tag] 85\t\t\t\n      JUMP \t\t\t\n    tag 147\t\t\t\n      JUMPDEST \t\t\t\n      SWAP3 \t\t\t\n      SWAP2 \t\t\t\n      POP \t\t\t\n      POP \t\t\t\n      JUMP \t\t\t\n    tag 43\t\t\t\n      JUMPDEST \t\t\t\n      PUSH 0\t\t\t\n      PUSH 20\t\t\t\n      DUP3 \t\t\t\n      DUP5 \t\t\t\n      SUB \t\t\t\n      SLT \t\t\t\n      ISZERO \t\t\t\n      PUSH [tag] 149\t\t\t\n      JUMPI \t\t\t\n      PUSH [tag] 150\t\t\t\n      PUSH [tag] 70\t\t\t\n      JUMP \t\t\t\n    tag 150\t\t\t\n      JUMPDEST \t\t\t\n    tag 149\t\t\t\n      JUMPDEST \t\t\t\n      PUSH 0\t\t\t\n      PUSH [tag] 151\t\t\t\n      DUP5 \t\t\t\n      DUP3 \t\t\t\n      DUP6 \t\t\t\n      ADD \t\t\t\n      PUSH [tag] 86\t\t\t\n      JUMP \t\t\t\n    tag 151\t\t\t\n      JUMPDEST \t\t\t\n      SWAP2 \t\t\t\n      POP \t\t\t\n      POP \t\t\t\n      SWAP3 \t\t\t\n      SWAP2 \t\t\t\n      POP \t\t\t\n      POP \t\t\t\n      JUMP \t\t\t\n    tag 87\t\t\t\n      JUMPDEST \t\t\t\n      PUSH 4E487B7100000000000000000000000000000000000000000000000000000000\t\t\t\n      PUSH 0\t\t\t\n      MSTORE \t\t\t\n      PUSH 11\t\t\t\n      PUSH 4\t\t\t\n      MSTORE \t\t\t\n      PUSH 24\t\t\t\n      PUSH 0\t\t\t\n      REVERT \t\t\t\n    tag 45\t\t\t\n      JUMPDEST \t\t\t\n      PUSH 0\t\t\t\n      PUSH [tag] 154\t\t\t\n      DUP3 \t\t\t\n      PUSH [tag] 76\t\t\t\n      JUMP \t\t\t\n    tag 154\t\t\t\n      JUMPDEST \t\t\t\n      SWAP2 \t\t\t\n      POP \t\t\t\n      PUSH [tag] 155\t\t\t\n      DUP4 \t\t\t\n      PUSH [tag] 76\t\t\t\n      JUMP \t\t\t\n    tag 155\t\t\t\n      JUMPDEST \t\t\t\n      SWAP3 \t\t\t\n      POP \t\t\t\n      DUP3 \t\t\t\n      DUP3 \t\t\t\n      SUB \t\t\t\n      SWAP1 \t\t\t\n      POP \t\t\t\n      DUP2 \t\t\t\n      DUP2 \t\t\t\n      GT \t\t\t\n      ISZERO \t\t\t\n      PUSH [tag] 156\t\t\t\n      JUMPI \t\t\t\n      PUSH [tag] 157\t\t\t\n      PUSH [tag] 87\t\t\t\n      JUMP \t\t\t\n    tag 157\t\t\t\n      JUMPDEST \t\t\t\n    tag 156\t\t\t\n      JUMPDEST \t\t\t\n      SWAP3 \t\t\t\n      SWAP2 \t\t\t\n      POP \t\t\t\n      POP \t\t\t\n      JUMP \t\t\t\n    tag 48\t\t\t\n      JUMPDEST \t\t\t\n      PUSH 0\t\t\t\n      PUSH 60\t\t\t\n      DUP3 \t\t\t\n      ADD \t\t\t\n      SWAP1 \t\t\t\n      POP \t\t\t\n      PUSH [tag] 159\t\t\t\n      PUSH 0\t\t\t\n      DUP4 \t\t\t\n      ADD \t\t\t\n      DUP7 \t\t\t\n      PUSH [tag] 80\t\t\t\n      JUMP \t\t\t\n    tag 159\t\t\t\n      JUMPDEST \t\t\t\n      PUSH [tag] 160\t\t\t\n      PUSH 20\t\t\t\n      DUP4 \t\t\t\n      ADD \t\t\t\n      DUP6 \t\t\t\n      PUSH [tag] 80\t\t\t\n      JUMP \t\t\t\n    tag 160\t\t\t\n      JUMPDEST \t\t\t\n      PUSH [tag] 161\t\t\t\n      PUSH 40\t\t\t\n      DUP4 \t\t\t\n      ADD \t\t\t\n      DUP5 \t\t\t\n      PUSH [tag] 77\t\t\t\n      JUMP \t\t\t\n    tag 161\t\t\t\n      JUMPDEST \t\t\t\n      SWAP5 \t\t\t\n      SWAP4 \t\t\t\n      POP \t\t\t\n      POP \t\t\t\n      POP \t\t\t\n      POP \t\t\t\n      JUMP \t\t\t\n    tag 53\t\t\t\n      JUMPDEST \t\t\t\n      PUSH 0\t\t\t\n      PUSH [tag] 163\t\t\t\n      DUP3 \t\t\t\n      PUSH [tag] 76\t\t\t\n      JUMP \t\t\t\n    tag 163\t\t\t\n      JUMPDEST \t\t\t\n      SWAP2 \t\t\t\n      POP \t\t\t\n      PUSH [tag] 164\t\t\t\n      DUP4 \t\t\t\n      PUSH [tag] 76\t\t\t\n      JUMP \t\t\t\n    tag 164\t\t\t\n      JUMPDEST \t\t\t\n      SWAP3 \t\t\t\n      POP \t\t\t\n      DUP3 \t\t\t\n      DUP3 \t\t\t\n      ADD \t\t\t\n      SWAP1 \t\t\t\n      POP \t\t\t\n      DUP1 \t\t\t\n      DUP3 \t\t\t\n      GT \t\t\t\n      ISZERO \t\t\t\n      PUSH [tag] 165\t\t\t\n      JUMPI \t\t\t\n      PUSH [tag] 166\t\t\t\n      PUSH [tag] 87\t\t\t\n      JUMP \t\t\t\n    tag 166\t\t\t\n      JUMPDEST \t\t\t\n    tag 165\t\t\t\n      JUMPDEST \t\t\t\n      SWAP3 \t\t\t\n      SWAP2 \t\t\t\n      POP \t\t\t\n      POP \t\t\t\n      JUMP \t\t\t\n    tag 88\t\t\t\n      JUMPDEST \t\t\t\n      PUSH 4674736F52656769737472790000000000000000000000000000000000000000\t\t\t\n      PUSH 0\t\t\t\n      DUP3 \t\t\t\n      ADD \t\t\t\n      MSTORE \t\t\t\n      POP \t\t\t\n      JUMP \t\t\t\n    tag 89\t\t\t\n      JUMPDEST \t\t\t\n      PUSH 0\t\t\t\n      PUSH [tag] 169\t\t\t\n      PUSH C\t\t\t\n      DUP4 \t\t\t\n      PUSH [tag] 81\t\t\t\n      JUMP \t\t\t\n    tag 169\t\t\t\n      JUMPDEST \t\t\t\n      SWAP2 \t\t\t\n      POP \t\t\t\n      PUSH [tag] 170\t\t\t\n      DUP3 \t\t\t\n      PUSH [tag] 88\t\t\t\n      JUMP \t\t\t\n    tag 170\t\t\t\n      JUMPDEST \t\t\t\n      PUSH 20\t\t\t\n      DUP3 \t\t\t\n      ADD \t\t\t\n      SWAP1 \t\t\t\n      POP \t\t\t\n      SWAP2 \t\t\t\n      SWAP1 \t\t\t\n      POP \t\t\t\n      JUMP \t\t\t\n    tag 58\t\t\t\n      JUMPDEST \t\t\t\n      PUSH 0\t\t\t\n      PUSH 20\t\t\t\n      DUP3 \t\t\t\n      ADD \t\t\t\n      SWAP1 \t\t\t\n      POP \t\t\t\n      DUP2 \t\t\t\n      DUP2 \t\t\t\n      SUB \t\t\t\n      PUSH 0\t\t\t\n      DUP4 \t\t\t\n      ADD \t\t\t\n      MSTORE \t\t\t\n      PUSH [tag] 172\t\t\t\n      DUP2 \t\t\t\n      PUSH [tag] 89\t\t\t\n      JUMP \t\t\t\n    tag 172\t\t\t\n      JUMPDEST \t\t\t\n      SWAP1 \t\t\t\n      POP \t\t\t\n      SWAP2 \t\t\t\n      SWAP1 \t\t\t\n      POP \t\t\t\n      JUMP \t\t\t\n    tag 90\t\t\t\n      JUMPDEST \t\t\t\n      PUSH 0\t\t\t\n      DUP2 \t\t\t\n      MLOAD \t\t\t\n      SWAP1 \t\t\t\n      POP \t\t\t\n      PUSH [tag] 174\t\t\t\n      DUP2 \t\t\t\n      PUSH [tag] 74\t\t\t\n      JUMP \t\t\t\n    tag 174\t\t\t\n      JUMPDEST \t\t\t\n      SWAP3 \t\t\t\n      SWAP2 \t\t\t\n      POP \t\t\t\n      POP \t\t\t\n      JUMP \t\t\t\n    tag 62\t\t\t\n      JUMPDEST \t\t\t\n      PUSH 0\t\t\t\n      PUSH 20\t\t\t\n      DUP3 \t\t\t\n      DUP5 \t\t\t\n      SUB \t\t\t\n      SLT \t\t\t\n      ISZERO \t\t\t\n      PUSH [tag] 176\t\t\t\n      JUMPI \t\t\t\n      PUSH [tag] 177\t\t\t\n      PUSH [tag] 70\t\t\t\n      JUMP \t\t\t\n    tag 177\t\t\t\n      JUMPDEST \t\t\t\n    tag 176\t\t\t\n      JUMPDEST \t\t\t\n      PUSH 0\t\t\t\n      PUSH [tag] 178\t\t\t\n      DUP5 \t\t\t\n      DUP3 \t\t\t\n      DUP6 \t\t\t\n      ADD \t\t\t\n      PUSH [tag] 90\t\t\t\n      JUMP \t\t\t\n    tag 178\t\t\t\n      JUMPDEST \t\t\t\n      SWAP2 \t\t\t\n      POP \t\t\t\n      POP \t\t\t\n      SWAP3 \t\t\t\n      SWAP2 \t\t\t\n      POP \t\t\t\n      POP \t\t\t\n      JUMP \t\t\t\n    tag 91\t\t\t\n      JUMPDEST \t\t\t\n      PUSH 7465737442544300000000000000000000000000000000000000000000000000\t\t\t\n      PUSH 0\t\t\t\n      DUP3 \t\t\t\n      ADD \t\t\t\n      MSTORE \t\t\t\n      POP \t\t\t\n      JUMP \t\t\t\n    tag 92\t\t\t\n      JUMPDEST \t\t\t\n      PUSH 0\t\t\t\n      PUSH [tag] 181\t\t\t\n      PUSH 7\t\t\t\n      DUP4 \t\t\t\n      PUSH [tag] 81\t\t\t\n      JUMP \t\t\t\n    tag 181\t\t\t\n      JUMPDEST \t\t\t\n      SWAP2 \t\t\t\n      POP \t\t\t\n      PUSH [tag] 182\t\t\t\n      DUP3 \t\t\t\n      PUSH [tag] 91\t\t\t\n      JUMP \t\t\t\n    tag 182\t\t\t\n      JUMPDEST \t\t\t\n      PUSH 20\t\t\t\n      DUP3 \t\t\t\n      ADD \t\t\t\n      SWAP1 \t\t\t\n      POP \t\t\t\n      SWAP2 \t\t\t\n      SWAP1 \t\t\t\n      POP \t\t\t\n      JUMP \t\t\t\n    tag 64\t\t\t\n      JUMPDEST \t\t\t\n      PUSH 0\t\t\t\n      PUSH 20\t\t\t\n      DUP3 \t\t\t\n      ADD \t\t\t\n      SWAP1 \t\t\t\n      POP \t\t\t\n      DUP2 \t\t\t\n      DUP2 \t\t\t\n      SUB \t\t\t\n      PUSH 0\t\t\t\n      DUP4 \t\t\t\n      ADD \t\t\t\n      MSTORE \t\t\t\n      PUSH [tag] 184\t\t\t\n      DUP2 \t\t\t\n      PUSH [tag] 92\t\t\t\n      JUMP \t\t\t\n    tag 184\t\t\t\n      JUMPDEST \t\t\t\n      SWAP1 \t\t\t\n      POP \t\t\t\n      SWAP2 \t\t\t\n      SWAP1 \t\t\t\n      POP \t\t\t\n      JUMP \t\t\t\n    tag 93\t\t\t\n      JUMPDEST \t\t\t\n      PUSH 0\t\t\t\n      DUP2 \t\t\t\n      MLOAD \t\t\t\n      SWAP1 \t\t\t\n      POP \t\t\t\n      PUSH [tag] 186\t\t\t\n      DUP2 \t\t\t\n      PUSH [tag] 78\t\t\t\n      JUMP \t\t\t\n    tag 186\t\t\t\n      JUMPDEST \t\t\t\n      SWAP3 \t\t\t\n      SWAP2 \t\t\t\n      POP \t\t\t\n      POP \t\t\t\n      JUMP \t\t\t\n    tag 68\t\t\t\n      JUMPDEST \t\t\t\n      PUSH 0\t\t\t\n      DUP1 \t\t\t\n      PUSH 0\t\t\t\n      PUSH 60\t\t\t\n      DUP5 \t\t\t\n      DUP7 \t\t\t\n      SUB \t\t\t\n      SLT \t\t\t\n      ISZERO \t\t\t\n      PUSH [tag] 188\t\t\t\n      JUMPI \t\t\t\n      PUSH [tag] 189\t\t\t\n      PUSH [tag] 70\t\t\t\n      JUMP \t\t\t\n    tag 189\t\t\t\n      JUMPDEST \t\t\t\n    tag 188\t\t\t\n      JUMPDEST \t\t\t\n      PUSH 0\t\t\t\n      PUSH [tag] 190\t\t\t\n      DUP7 \t\t\t\n      DUP3 \t\t\t\n      DUP8 \t\t\t\n      ADD \t\t\t\n      PUSH [tag] 93\t\t\t\n      JUMP \t\t\t\n    tag 190\t\t\t\n      JUMPDEST \t\t\t\n      SWAP4 \t\t\t\n      POP \t\t\t\n      POP \t\t\t\n      PUSH 20\t\t\t\n      PUSH [tag] 191\t\t\t\n      DUP7 \t\t\t\n      DUP3 \t\t\t\n      DUP8 \t\t\t\n      ADD \t\t\t\n      PUSH [tag] 93\t\t\t\n      JUMP \t\t\t\n    tag 191\t\t\t\n      JUMPDEST \t\t\t\n      SWAP3 \t\t\t\n      POP \t\t\t\n      POP \t\t\t\n      PUSH 40\t\t\t\n      PUSH [tag] 192\t\t\t\n      DUP7 \t\t\t\n      DUP3 \t\t\t\n      DUP8 \t\t\t\n      ADD \t\t\t\n      PUSH [tag] 93\t\t\t\n      JUMP \t\t\t\n    tag 192\t\t\t\n      JUMPDEST \t\t\t\n      SWAP2 \t\t\t\n      POP \t\t\t\n      POP \t\t\t\n      SWAP3 \t\t\t\n      POP \t\t\t\n      SWAP3 \t\t\t\n      POP \t\t\t\n      SWAP3 \t\t\t\n      JUMP \t\t\t\n    .data\n"
}